{
	"data": {
		"bytecode": {
			"linkReferences": {},
			"object": "608060405234801561001057600080fd5b5033600260006101000a81548173ffffffffffffffffffffffffffffffffffffffff021916908373ffffffffffffffffffffffffffffffffffffffff16021790555033600160006101000a81548173ffffffffffffffffffffffffffffffffffffffff021916908373ffffffffffffffffffffffffffffffffffffffff1602179055506005600081905550614d5c806100aa6000396000f3fe6080604052600436106200007a5760003560e01c80632dd111a911620000555780632dd111a9146200011557806334c925f0146200015957806381830593146200019d578063c3a2a93a14620001cd576200007a565b806302d05d3f146200007f57806316a5265d14620000af57806323c0984814620000df575b600080fd5b3480156200008c57600080fd5b5062000097620001fd565b604051620000a6919062000671565b60405180910390f35b348015620000bc57600080fd5b50620000c762000223565b604051620000d69190620006a9565b60405180910390f35b620000fd6004803603810190620000f7919062000a3f565b62000229565b6040516200010c919062000671565b60405180910390f35b3480156200012257600080fd5b506200014160048036038101906200013b919062000ba3565b62000459565b60405162000150919062000671565b60405180910390f35b3480156200016657600080fd5b506200018560048036038101906200017f919062000c06565b62000499565b60405162000194919062000d06565b60405180910390f35b348015620001aa57600080fd5b50620001b562000568565b604051620001c4919062000671565b60405180910390f35b348015620001da57600080fd5b50620001e56200058e565b604051620001f4919062000d06565b60405180910390f35b600260009054906101000a900473ffffffffffffffffffffffffffffffffffffffff1681565b60005481565b6000808803620002485760058411156200024257600080fd5b62000276565b600188036200026557605f84146200025f57600080fd5b62000275565b60058411156200027457600080fd5b5b5b6000338a8a8a8a8a6000548b600160009054906101000a900473ffffffffffffffffffffffffffffffffffffffff168c8c604051620002b5906200061e565b620002cb9b9a9998979695949392919062000fa3565b604051809103906000f080158015620002e8573d6000803e3d6000fd5b5090506000819050600460003373ffffffffffffffffffffffffffffffffffffffff1673ffffffffffffffffffffffffffffffffffffffff168152602001908152602001600020819080600181540180825580915050600190039060005260206000200160009091909190916101000a81548173ffffffffffffffffffffffffffffffffffffffff021916908373ffffffffffffffffffffffffffffffffffffffff1602179055506003819080600181540180825580915050600190039060005260206000200160009091909190916101000a81548173ffffffffffffffffffffffffffffffffffffffff021916908373ffffffffffffffffffffffffffffffffffffffff1602179055506040516200040190620010e2565b60405180910390207fed82fd5193cbac01de9a009da053e6119b6a01ed00499815c09e28b179c37936828b338e604051620004409493929190620010f9565b60405180910390a2809250505098975050505050505050565b600381815481106200046a57600080fd5b906000526020600020016000915054906101000a900473ffffffffffffffffffffffffffffffffffffffff1681565b6060600460008373ffffffffffffffffffffffffffffffffffffffff1673ffffffffffffffffffffffffffffffffffffffff1681526020019081526020016000208054806020026020016040519081016040528092919081815260200182805480156200055c57602002820191906000526020600020905b8160009054906101000a900473ffffffffffffffffffffffffffffffffffffffff1673ffffffffffffffffffffffffffffffffffffffff168152602001906001019080831162000511575b50505050509050919050565b600160009054906101000a900473ffffffffffffffffffffffffffffffffffffffff1681565b606060038054806020026020016040519081016040528092919081815260200182805480156200061457602002820191906000526020600020905b8160009054906101000a900473ffffffffffffffffffffffffffffffffffffffff1673ffffffffffffffffffffffffffffffffffffffff1681526020019060010190808311620005c9575b5050505050905090565b613bd9806200114e83390190565b600073ffffffffffffffffffffffffffffffffffffffff82169050919050565b600062000659826200062c565b9050919050565b6200066b816200064c565b82525050565b600060208201905062000688600083018462000660565b92915050565b6000819050919050565b620006a3816200068e565b82525050565b6000602082019050620006c0600083018462000698565b92915050565b6000604051905090565b600080fd5b600080fd5b620006e5816200068e565b8114620006f157600080fd5b50565b6000813590506200070581620006da565b92915050565b600080fd5b600080fd5b6000601f19601f8301169050919050565b7f4e487b7100000000000000000000000000000000000000000000000000000000600052604160045260246000fd5b620007608262000715565b810181811067ffffffffffffffff8211171562000782576200078162000726565b5b80604052505050565b600062000797620006c6565b9050620007a5828262000755565b919050565b600067ffffffffffffffff821115620007c857620007c762000726565b5b620007d38262000715565b9050602081019050919050565b82818337600083830152505050565b6000620008066200080084620007aa565b6200078b565b90508281526020810184848401111562000825576200082462000710565b5b62000832848285620007e0565b509392505050565b600082601f8301126200085257620008516200070b565b5b813562000864848260208601620007ef565b91505092915050565b600067ffffffffffffffff8211156200088b576200088a62000726565b5b602082029050602081019050919050565b600080fd5b6000620008b8620008b2846200086d565b6200078b565b90508083825260208201905060208402830185811115620008de57620008dd6200089c565b5b835b818110156200092c57803567ffffffffffffffff8111156200090757620009066200070b565b5b8086016200091689826200083a565b85526020850194505050602081019050620008e0565b5050509392505050565b600082601f8301126200094e576200094d6200070b565b5b813562000960848260208601620008a1565b91505092915050565b600067ffffffffffffffff82111562000987576200098662000726565b5b602082029050602081019050919050565b6000620009af620009a98462000969565b6200078b565b90508083825260208201905060208402830185811115620009d557620009d46200089c565b5b835b8181101562000a025780620009ed8882620006f4565b845260208401935050602081019050620009d7565b5050509392505050565b600082601f83011262000a245762000a236200070b565b5b813562000a3684826020860162000998565b91505092915050565b600080600080600080600080610100898b03121562000a635762000a62620006d0565b5b600062000a738b828c01620006f4565b985050602062000a868b828c01620006f4565b975050604089013567ffffffffffffffff81111562000aaa5762000aa9620006d5565b5b62000ab88b828c016200083a565b965050606089013567ffffffffffffffff81111562000adc5762000adb620006d5565b5b62000aea8b828c016200083a565b955050608089013567ffffffffffffffff81111562000b0e5762000b0d620006d5565b5b62000b1c8b828c016200083a565b94505060a062000b2f8b828c01620006f4565b93505060c089013567ffffffffffffffff81111562000b535762000b52620006d5565b5b62000b618b828c0162000936565b92505060e089013567ffffffffffffffff81111562000b855762000b84620006d5565b5b62000b938b828c0162000a0c565b9150509295985092959890939650565b60006020828403121562000bbc5762000bbb620006d0565b5b600062000bcc84828501620006f4565b91505092915050565b62000be0816200064c565b811462000bec57600080fd5b50565b60008135905062000c008162000bd5565b92915050565b60006020828403121562000c1f5762000c1e620006d0565b5b600062000c2f8482850162000bef565b91505092915050565b600081519050919050565b600082825260208201905092915050565b6000819050602082019050919050565b62000c6f816200064c565b82525050565b600062000c83838362000c64565b60208301905092915050565b6000602082019050919050565b600062000ca98262000c38565b62000cb5818562000c43565b935062000cc28362000c54565b8060005b8381101562000cf957815162000cdd888262000c75565b975062000cea8362000c8f565b92505060018101905062000cc6565b5085935050505092915050565b6000602082019050818103600083015262000d22818462000c9c565b905092915050565b600081519050919050565b600082825260208201905092915050565b60005b8381101562000d6657808201518184015260208101905062000d49565b60008484015250505050565b600062000d7f8262000d2a565b62000d8b818562000d35565b935062000d9d81856020860162000d46565b62000da88162000715565b840191505092915050565b600081519050919050565b600082825260208201905092915050565b6000819050602082019050919050565b600082825260208201905092915050565b600062000dfd8262000d2a565b62000e09818562000ddf565b935062000e1b81856020860162000d46565b62000e268162000715565b840191505092915050565b600062000e3f838362000df0565b905092915050565b6000602082019050919050565b600062000e618262000db3565b62000e6d818562000dbe565b93508360208202850162000e818562000dcf565b8060005b8581101562000ec3578484038952815162000ea1858262000e31565b945062000eae8362000e47565b925060208a0199505060018101905062000e85565b50829750879550505050505092915050565b600081519050919050565b600082825260208201905092915050565b6000819050602082019050919050565b62000f0c816200068e565b82525050565b600062000f20838362000f01565b60208301905092915050565b6000602082019050919050565b600062000f468262000ed5565b62000f52818562000ee0565b935062000f5f8362000ef1565b8060005b8381101562000f9657815162000f7a888262000f12565b975062000f878362000f2c565b92505060018101905062000f63565b5085935050505092915050565b60006101608201905062000fbb600083018e62000660565b62000fca602083018d62000698565b62000fd9604083018c62000698565b818103606083015262000fed818b62000d72565b9050818103608083015262001003818a62000d72565b905081810360a083015262001019818962000d72565b90506200102a60c083018862000698565b6200103960e083018762000698565b6200104961010083018662000660565b8181036101208301526200105e818562000e54565b905081810361014083015262001075818462000f39565b90509c9b505050505050505050505050565b600081905092915050565b7f636f6e7472616374730000000000000000000000000000000000000000000000600082015250565b6000620010ca60098362001087565b9150620010d78262001092565b600982019050919050565b6000620010ef82620010bb565b9150819050919050565b600060808201905062001110600083018762000660565b818103602083015262001124818662000d72565b905062001135604083018562000660565b62001144606083018462000698565b9594505050505056fe60806040523480156200001157600080fd5b5060405162003bd938038062003bd98339818101604052810190620000379190620007f8565b8a600160006101000a81548173ffffffffffffffffffffffffffffffffffffffff021916908373ffffffffffffffffffffffffffffffffffffffff16021790555089600581905550876002908162000090919062000be1565b508660039081620000a2919062000be1565b508560049081620000b4919062000be1565b508460068190555083600781905550826000806101000a81548173ffffffffffffffffffffffffffffffffffffffff021916908373ffffffffffffffffffffffffffffffffffffffff1602179055506040518060400160405280600781526020017f6f6e676f696e6700000000000000000000000000000000000000000000000000815250600c908162000149919062000be1565b50816010908051906020019062000162929190620002b4565b5080601190805190602001906200017b92919062000314565b5060008903620001b9576000600b60006101000a81548160ff02191690836001811115620001ae57620001ad62000cc8565b5b02179055506200023f565b60018903620001f6576001600b60006101000a81548160ff02191690836001811115620001eb57620001ea62000cc8565b5b02179055506200023e565b6000600b60006101000a81548160ff021916908360018111156200021f576200021e62000cc8565b5b021790555080601190805190602001906200023c92919062000314565b505b5b6040516200024d9062000d52565b60405180910390207fa67532dcc08dbead4844050ed91d163c1b8475dc22009f71809f44f6d3ca05948c8a8a8e600080888a6000600f6040516200029b9a999897969594939291906200119c565b60405180910390a2505050505050505050505062001285565b82805482825590600052602060002090810192821562000301579160200282015b8281111562000300578251829081620002ef919062000be1565b5091602001919060010190620002d5565b5b50905062000310919062000366565b5090565b82805482825590600052602060002090810192821562000353579160200282015b828111156200035257825182559160200191906001019062000335565b5b5090506200036291906200038e565b5090565b5b808211156200038a5760008181620003809190620003ad565b5060010162000367565b5090565b5b80821115620003a95760008160009055506001016200038f565b5090565b508054620003bb90620009da565b6000825580601f10620003cf5750620003f0565b601f016020900490600052602060002090810190620003ef91906200038e565b5b50565b6000604051905090565b600080fd5b600080fd5b600073ffffffffffffffffffffffffffffffffffffffff82169050919050565b6000620004348262000407565b9050919050565b620004468162000427565b81146200045257600080fd5b50565b60008151905062000466816200043b565b92915050565b6000819050919050565b62000481816200046c565b81146200048d57600080fd5b50565b600081519050620004a18162000476565b92915050565b600080fd5b600080fd5b6000601f19601f8301169050919050565b7f4e487b7100000000000000000000000000000000000000000000000000000000600052604160045260246000fd5b620004fc82620004b1565b810181811067ffffffffffffffff821117156200051e576200051d620004c2565b5b80604052505050565b600062000533620003f3565b9050620005418282620004f1565b919050565b600067ffffffffffffffff821115620005645762000563620004c2565b5b6200056f82620004b1565b9050602081019050919050565b60005b838110156200059c5780820151818401526020810190506200057f565b60008484015250505050565b6000620005bf620005b98462000546565b62000527565b905082815260208101848484011115620005de57620005dd620004ac565b5b620005eb8482856200057c565b509392505050565b600082601f8301126200060b576200060a620004a7565b5b81516200061d848260208601620005a8565b91505092915050565b600067ffffffffffffffff821115620006445762000643620004c2565b5b602082029050602081019050919050565b600080fd5b6000620006716200066b8462000626565b62000527565b9050808382526020820190506020840283018581111562000697576200069662000655565b5b835b81811015620006e557805167ffffffffffffffff811115620006c057620006bf620004a7565b5b808601620006cf8982620005f3565b8552602085019450505060208101905062000699565b5050509392505050565b600082601f830112620007075762000706620004a7565b5b8151620007198482602086016200065a565b91505092915050565b600067ffffffffffffffff82111562000740576200073f620004c2565b5b602082029050602081019050919050565b600062000768620007628462000722565b62000527565b905080838252602082019050602084028301858111156200078e576200078d62000655565b5b835b81811015620007bb5780620007a6888262000490565b84526020840193505060208101905062000790565b5050509392505050565b600082601f830112620007dd57620007dc620004a7565b5b8151620007ef84826020860162000751565b91505092915050565b60008060008060008060008060008060006101608c8e031215620008215762000820620003fd565b5b6000620008318e828f0162000455565b9b50506020620008448e828f0162000490565b9a50506040620008578e828f0162000490565b99505060608c015167ffffffffffffffff8111156200087b576200087a62000402565b5b620008898e828f01620005f3565b98505060808c015167ffffffffffffffff811115620008ad57620008ac62000402565b5b620008bb8e828f01620005f3565b97505060a08c015167ffffffffffffffff811115620008df57620008de62000402565b5b620008ed8e828f01620005f3565b96505060c0620009008e828f0162000490565b95505060e0620009138e828f0162000490565b945050610100620009278e828f0162000455565b9350506101208c015167ffffffffffffffff8111156200094c576200094b62000402565b5b6200095a8e828f01620006ef565b9250506101408c015167ffffffffffffffff8111156200097f576200097e62000402565b5b6200098d8e828f01620007c5565b9150509295989b509295989b9093969950565b600081519050919050565b7f4e487b7100000000000000000000000000000000000000000000000000000000600052602260045260246000fd5b60006002820490506001821680620009f357607f821691505b60208210810362000a095762000a08620009ab565b5b50919050565b60008190508160005260206000209050919050565b60006020601f8301049050919050565b600082821b905092915050565b60006008830262000a737fffffffffffffffffffffffffffffffffffffffffffffffffffffffffffffffff8262000a34565b62000a7f868362000a34565b95508019841693508086168417925050509392505050565b6000819050919050565b600062000ac262000abc62000ab6846200046c565b62000a97565b6200046c565b9050919050565b6000819050919050565b62000ade8362000aa1565b62000af662000aed8262000ac9565b84845462000a41565b825550505050565b600090565b62000b0d62000afe565b62000b1a81848462000ad3565b505050565b5b8181101562000b425762000b3660008262000b03565b60018101905062000b20565b5050565b601f82111562000b915762000b5b8162000a0f565b62000b668462000a24565b8101602085101562000b76578190505b62000b8e62000b858562000a24565b83018262000b1f565b50505b505050565b600082821c905092915050565b600062000bb66000198460080262000b96565b1980831691505092915050565b600062000bd1838362000ba3565b9150826002028217905092915050565b62000bec82620009a0565b67ffffffffffffffff81111562000c085762000c07620004c2565b5b62000c148254620009da565b62000c2182828562000b46565b600060209050601f83116001811462000c59576000841562000c44578287015190505b62000c50858262000bc3565b86555062000cc0565b601f19841662000c698662000a0f565b60005b8281101562000c935784890151825560018201915060208501945060208101905062000c6c565b8683101562000cb3578489015162000caf601f89168262000ba3565b8355505b6001600288020188555050505b505050505050565b7f4e487b7100000000000000000000000000000000000000000000000000000000600052602160045260246000fd5b600081905092915050565b7f636f6e7472616374646174610000000000000000000000000000000000000000600082015250565b600062000d3a600c8362000cf7565b915062000d478262000d02565b600c82019050919050565b600062000d5f8262000d2b565b9150819050919050565b62000d748162000427565b82525050565b600082825260208201905092915050565b600062000d9882620009a0565b62000da4818562000d7a565b935062000db68185602086016200057c565b62000dc181620004b1565b840191505092915050565b62000dd7816200046c565b82525050565b6000819050919050565b600062000e0862000e0262000dfc8462000ddd565b62000a97565b6200046c565b9050919050565b62000e1a8162000de7565b82525050565b7f6f6e676f696e6700000000000000000000000000000000000000000000000000600082015250565b600062000e5860078362000d7a565b915062000e658262000e20565b602082019050919050565b600081519050919050565b600082825260208201905092915050565b6000819050602082019050919050565b62000ea7816200046c565b82525050565b600062000ebb838362000e9c565b60208301905092915050565b6000602082019050919050565b600062000ee18262000e70565b62000eed818562000e7b565b935062000efa8362000e8c565b8060005b8381101562000f3157815162000f15888262000ead565b975062000f228362000ec7565b92505060018101905062000efe565b5085935050505092915050565b600081519050919050565b600082825260208201905092915050565b6000819050602082019050919050565b600082825260208201905092915050565b600062000f8882620009a0565b62000f94818562000f6a565b935062000fa68185602086016200057c565b62000fb181620004b1565b840191505092915050565b600062000fca838362000f7b565b905092915050565b6000602082019050919050565b600062000fec8262000f3e565b62000ff8818562000f49565b9350836020820285016200100c8562000f5a565b8060005b858110156200104e57848403895281516200102c858262000fbc565b9450620010398362000fd2565b925060208a0199505060018101905062001010565b50829750879550505050505092915050565b600081549050919050565b600082825260208201905092915050565b60008190508160005260206000209050919050565b6200109c8162000427565b82525050565b6000620010b0838362001091565b60208301905092915050565b60008160001c9050919050565b600073ffffffffffffffffffffffffffffffffffffffff82169050919050565b600062001100620010fa83620010bc565b620010c9565b9050919050565b6000620011158254620010e9565b9050919050565b6000600182019050919050565b6000620011368262001060565b6200114281856200106b565b93506200114f836200107c565b8060005b838110156200118f57620011678262001107565b620011738882620010a2565b975062001180836200111c565b92505060018101905062001153565b5085935050505092915050565b600061016082019050620011b4600083018d62000d69565b8181036020830152620011c8818c62000d8b565b90508181036040830152620011de818b62000d8b565b9050620011ef606083018a62000dcc565b620011fe608083018962000e0f565b6200120d60a083018862000e0f565b81810360c0830152620012208162000e49565b905081810360e083015262001236818762000ed4565b90508181036101008301526200124d818662000fdf565b90506200125f61012083018562000e0f565b81810361014083015262001274818462001129565b90509b9a5050505050505050505050565b61294480620012956000396000f3fe6080604052600436106101e35760003560e01c80639d9ca28d11610102578063d4a1c12211610095578063eea7299411610064578063eea7299414610698578063ef7429f4146106c3578063f851a44014610700578063fff2a30e1461072b576101e3565b8063d4a1c122146105fd578063e326ba7014610614578063e83c236e14610651578063ee2058841461068e576101e3565b8063b90c899d116100d1578063b90c899d14610555578063be0882a314610592578063c91e061f146105bd578063cd38aa87146105e6576101e3565b80639d9ca28d14610497578063a439bc3a146104d4578063aa8c217c146104ff578063b4ff36491461052a576101e3565b80635bb7e10d1161017a57806365d524a11161014957806365d524a1146103fa57806369c53f12146104255780636c77f989146104505780638ca400d61461045a576101e3565b80635bb7e10d146103505780635ec01e4d14610379578063651f5d18146103a45780636586e984146103cf576101e3565b80632a6247e5116101b65780632a6247e5146102a65780633e917152146102e357806344bf49a2146102fa5780635686e9f514610325576101e3565b806302d05d3f146101e85780630b3af186146102135780630c1934fb1461025057806316a5265d1461027b575b600080fd5b3480156101f457600080fd5b506101fd610768565b60405161020a9190611941565b60405180910390f35b34801561021f57600080fd5b5061023a6004803603810190610235919061199c565b61078e565b6040516102479190611a59565b60405180910390f35b34801561025c57600080fd5b5061026561082e565b6040516102729190611a94565b60405180910390f35b34801561028757600080fd5b50610290610834565b60405161029d9190611a94565b60405180910390f35b3480156102b257600080fd5b506102cd60048036038101906102c89190611adb565b61083a565b6040516102da9190611941565b60405180910390f35b3480156102ef57600080fd5b506102f8610879565b005b34801561030657600080fd5b5061030f610959565b60405161031c9190611a59565b60405180910390f35b34801561033157600080fd5b5061033a6109e7565b6040516103479190611a59565b60405180910390f35b34801561035c57600080fd5b5061037760048036038101906103729190611c3d565b610a75565b005b34801561038557600080fd5b5061038e610ac5565b60405161039b9190611a94565b60405180910390f35b3480156103b057600080fd5b506103b9610afb565b6040516103c69190611a94565b60405180910390f35b3480156103db57600080fd5b506103e4610b01565b6040516103f19190611a59565b60405180910390f35b34801561040657600080fd5b5061040f610b8f565b60405161041c9190611cfd565b60405180910390f35b34801561043157600080fd5b5061043a610ba2565b6040516104479190611a94565b60405180910390f35b610458610ba8565b005b34801561046657600080fd5b50610481600480360381019061047c9190611adb565b610ce1565b60405161048e9190611a94565b60405180910390f35b3480156104a357600080fd5b506104be60048036038101906104b9919061199c565b610d05565b6040516104cb9190611d33565b60405180910390f35b3480156104e057600080fd5b506104e9610d25565b6040516104f69190611a94565b60405180910390f35b34801561050b57600080fd5b50610514610d2b565b6040516105219190611a94565b60405180910390f35b34801561053657600080fd5b5061053f610d31565b60405161054c9190611a94565b60405180910390f35b34801561056157600080fd5b5061057c6004803603810190610577919061199c565b610d37565b6040516105899190611a59565b60405180910390f35b34801561059e57600080fd5b506105a7610e08565b6040516105b49190611d33565b60405180910390f35b3480156105c957600080fd5b506105e460048036038101906105df9190611d8c565b610e1b565b005b3480156105f257600080fd5b506105fb610ebf565b005b34801561060957600080fd5b506106126113e6565b005b34801561062057600080fd5b5061063b60048036038101906106369190611adb565b61156c565b6040516106489190611a59565b60405180910390f35b34801561065d57600080fd5b5061067860048036038101906106739190611adb565b611618565b6040516106859190611941565b60405180910390f35b610696611657565b005b3480156106a457600080fd5b506106ad611764565b6040516106ba9190611a94565b60405180910390f35b3480156106cf57600080fd5b506106ea60048036038101906106e5919061199c565b61176a565b6040516106f79190611d33565b60405180910390f35b34801561070c57600080fd5b5061071561178a565b6040516107229190611941565b60405180910390f35b34801561073757600080fd5b50610752600480360381019061074d919061199c565b6117ae565b60405161075f9190611a59565b60405180910390f35b600160009054906101000a900473ffffffffffffffffffffffffffffffffffffffff1681565b601760205280600052604060002060009150905080546107ad90611de8565b80601f01602080910402602001604051908101604052809291908181526020018280546107d990611de8565b80156108265780601f106107fb57610100808354040283529160200191610826565b820191906000526020600020905b81548152906001019060200180831161080957829003601f168201915b505050505081565b60055481565b60065481565b600e818154811061084a57600080fd5b906000526020600020016000915054906101000a900473ffffffffffffffffffffffffffffffffffffffff1681565b600160009054906101000a900473ffffffffffffffffffffffffffffffffffffffff1673ffffffffffffffffffffffffffffffffffffffff163373ffffffffffffffffffffffffffffffffffffffff16146108d357600080fd5b601360009054906101000a900460ff166108ec57600080fd5b600160009054906101000a900473ffffffffffffffffffffffffffffffffffffffff1673ffffffffffffffffffffffffffffffffffffffff166108fc6009549081150290604051600060405180830381858888f19350505050158015610956573d6000803e3d6000fd5b50565b6004805461096690611de8565b80601f016020809104026020016040519081016040528092919081815260200182805461099290611de8565b80156109df5780601f106109b4576101008083540402835291602001916109df565b820191906000526020600020905b8154815290600101906020018083116109c257829003601f168201915b505050505081565b600380546109f490611de8565b80601f0160208091040260200160405190810160405280929190818152602001828054610a2090611de8565b8015610a6d5780601f10610a4257610100808354040283529160200191610a6d565b820191906000526020600020905b815481529060010190602001808311610a5057829003601f168201915b505050505081565b80601760003373ffffffffffffffffffffffffffffffffffffffff1673ffffffffffffffffffffffffffffffffffffffff1681526020019081526020016000209081610ac19190611fc5565b5050565b60004442600e604051602001610add939291906121bb565b6040516020818303038152906040528051906020012060001c905090565b60085481565b60028054610b0e90611de8565b80601f0160208091040260200160405190810160405280929190818152602001828054610b3a90611de8565b8015610b875780601f10610b5c57610100808354040283529160200191610b87565b820191906000526020600020905b815481529060010190602001808311610b6a57829003601f168201915b505050505081565b600b60009054906101000a900460ff1681565b60075481565b6005543411610bb657600080fd5b6000610bc13461184e565b905080600a54610bd19190612228565b600a81905550600e339080600181540180825580915050600190039060005260206000200160009091909190916101000a81548173ffffffffffffffffffffffffffffffffffffffff021916908373ffffffffffffffffffffffffffffffffffffffff1602179055506001600d54610c499190612228565b600d81905550604051610c5b906122b3565b60405180910390207fa67532dcc08dbead4844050ed91d163c1b8475dc22009f71809f44f6d3ca0594600160009054906101000a900473ffffffffffffffffffffffffffffffffffffffff1660026003600554600a54600d54600c60116010601254600f604051610cd69b9a999897969594939291906125a8565b60405180910390a250565b60118181548110610cf157600080fd5b906000526020600020016000915090505481565b60146020528060005260406000206000915054906101000a900460ff1681565b60125481565b600a5481565b60095481565b6060601760008373ffffffffffffffffffffffffffffffffffffffff1673ffffffffffffffffffffffffffffffffffffffff1681526020019081526020016000208054610d8390611de8565b80601f0160208091040260200160405190810160405280929190818152602001828054610daf90611de8565b8015610dfc5780601f10610dd157610100808354040283529160200191610dfc565b820191906000526020600020905b815481529060010190602001808311610ddf57829003601f168201915b50505050509050919050565b601360009054906101000a900460ff1681565b60008054906101000a900473ffffffffffffffffffffffffffffffffffffffff1673ffffffffffffffffffffffffffffffffffffffff163373ffffffffffffffffffffffffffffffffffffffff1614610e7357600080fd5b8073ffffffffffffffffffffffffffffffffffffffff166108fc6008549081150290604051600060405180830381858888f19350505050158015610ebb573d6000803e3d6000fd5b5050565b6040518060400160405280600881526020017f66696e6973686564000000000000000000000000000000000000000000000000815250600c9081610f039190611fc5565b5060006001811115610f1857610f17611c86565b5b600b60009054906101000a900460ff166001811115610f3a57610f39611c86565b5b0361119f5760005b601180549050811015611199576000600e80549050610f5f610ac5565b610f6991906126ac565b90506000600e8383610f7b9190612228565b81548110610f8c57610f8b6126dd565b5b9060005260206000200160009054906101000a900473ffffffffffffffffffffffffffffffffffffffff169050600f819080600181540180825580915050600190039060005260206000200160009091909190916101000a81548173ffffffffffffffffffffffffffffffffffffffff021916908373ffffffffffffffffffffffffffffffffffffffff1602179055506001601460008373ffffffffffffffffffffffffffffffffffffffff1673ffffffffffffffffffffffffffffffffffffffff16815260200190815260200160002060006101000a81548160ff0219169083151502179055508073ffffffffffffffffffffffffffffffffffffffff166108fc6064600a54601187815481106110a7576110a66126dd565b5b90600052602060002001546110bc919061270c565b6110c6919061274e565b9081150290604051600060405180830381858888f193505050501580156110f1573d6000803e3d6000fd5b50600160009054906101000a900473ffffffffffffffffffffffffffffffffffffffff1673ffffffffffffffffffffffffffffffffffffffff166108fc6009549081150290604051600060405180830381858888f1935050505015801561115c573d6000803e3d6000fd5b506011805490506012819055506001601360006101000a81548160ff021916908315150217905550505080806111919061277f565b915050610f42565b50611355565b60005b601080549050811015611353576000600e805490506111bf610ac5565b6111c991906126ac565b90506000600e83836111db9190612228565b815481106111ec576111eb6126dd565b5b9060005260206000200160009054906101000a900473ffffffffffffffffffffffffffffffffffffffff169050600f819080600181540180825580915050600190039060005260206000200160009091909190916101000a81548173ffffffffffffffffffffffffffffffffffffffff021916908373ffffffffffffffffffffffffffffffffffffffff1602179055506001601460008373ffffffffffffffffffffffffffffffffffffffff1673ffffffffffffffffffffffffffffffffffffffff16815260200190815260200160002060006101000a81548160ff021916908315150217905550601083815481106112e8576112e76126dd565b5b90600052602060002001601660008373ffffffffffffffffffffffffffffffffffffffff1673ffffffffffffffffffffffffffffffffffffffff168152602001908152602001600020908161133d91906127f2565b505050808061134b9061277f565b9150506111a2565b505b604051611361906122b3565b60405180910390207fa67532dcc08dbead4844050ed91d163c1b8475dc22009f71809f44f6d3ca0594600160009054906101000a900473ffffffffffffffffffffffffffffffffffffffff1660026003600554600a54600d54600c60116010601254600f6040516113dc9b9a999897969594939291906125a8565b60405180910390a2565b60001515601560003373ffffffffffffffffffffffffffffffffffffffff1673ffffffffffffffffffffffffffffffffffffffff16815260200190815260200160002060009054906101000a900460ff1615151461144357600080fd5b6001601560003373ffffffffffffffffffffffffffffffffffffffff1673ffffffffffffffffffffffffffffffffffffffff16815260200190815260200160002060006101000a81548160ff02191690831515021790555060016012546114aa9190612228565b60128190555060108054905060125411156114db576001601360006101000a81548160ff0219169083151502179055505b6040516114e7906122b3565b60405180910390207fa67532dcc08dbead4844050ed91d163c1b8475dc22009f71809f44f6d3ca0594600160009054906101000a900473ffffffffffffffffffffffffffffffffffffffff1660026003600554600a54600d54600c60116010601254600f6040516115629b9a999897969594939291906125a8565b60405180910390a2565b6010818154811061157c57600080fd5b90600052602060002001600091509050805461159790611de8565b80601f01602080910402602001604051908101604052809291908181526020018280546115c390611de8565b80156116105780601f106115e557610100808354040283529160200191611610565b820191906000526020600020905b8154815290600101906020018083116115f357829003601f168201915b505050505081565b600f818154811061162857600080fd5b906000526020600020016000915054906101000a900473ffffffffffffffffffffffffffffffffffffffff1681565b600160009054906101000a900473ffffffffffffffffffffffffffffffffffffffff1673ffffffffffffffffffffffffffffffffffffffff163373ffffffffffffffffffffffffffffffffffffffff16146116b157600080fd5b60006116bc3461184e565b905080600a546116cc9190612228565b600a819055506040516116de906122b3565b60405180910390207fa67532dcc08dbead4844050ed91d163c1b8475dc22009f71809f44f6d3ca0594600160009054906101000a900473ffffffffffffffffffffffffffffffffffffffff1660026003600554600a54600d54600c60116010601254600f6040516117599b9a999897969594939291906125a8565b60405180910390a250565b600d5481565b60156020528060005260406000206000915054906101000a900460ff1681565b60008054906101000a900473ffffffffffffffffffffffffffffffffffffffff1681565b601660205280600052604060002060009150905080546117cd90611de8565b80601f01602080910402602001604051908101604052809291908181526020018280546117f990611de8565b80156118465780601f1061181b57610100808354040283529160200191611846565b820191906000526020600020905b81548152906001019060200180831161182957829003601f168201915b505050505081565b6000606460065483611860919061270c565b61186a919061274e565b6008546118779190612228565b60088190555060646007548361188d919061270c565b611897919061274e565b6009546118a49190612228565b60098190555060006064600754846118bc919061270c565b6118c6919061274e565b6064600654856118d6919061270c565b6118e0919061274e565b846118eb91906128da565b6118f591906128da565b905080915050919050565b600073ffffffffffffffffffffffffffffffffffffffff82169050919050565b600061192b82611900565b9050919050565b61193b81611920565b82525050565b60006020820190506119566000830184611932565b92915050565b6000604051905090565b600080fd5b600080fd5b61197981611920565b811461198457600080fd5b50565b60008135905061199681611970565b92915050565b6000602082840312156119b2576119b1611966565b5b60006119c084828501611987565b91505092915050565b600081519050919050565b600082825260208201905092915050565b60005b83811015611a035780820151818401526020810190506119e8565b60008484015250505050565b6000601f19601f8301169050919050565b6000611a2b826119c9565b611a3581856119d4565b9350611a458185602086016119e5565b611a4e81611a0f565b840191505092915050565b60006020820190508181036000830152611a738184611a20565b905092915050565b6000819050919050565b611a8e81611a7b565b82525050565b6000602082019050611aa96000830184611a85565b92915050565b611ab881611a7b565b8114611ac357600080fd5b50565b600081359050611ad581611aaf565b92915050565b600060208284031215611af157611af0611966565b5b6000611aff84828501611ac6565b91505092915050565b600080fd5b600080fd5b7f4e487b7100000000000000000000000000000000000000000000000000000000600052604160045260246000fd5b611b4a82611a0f565b810181811067ffffffffffffffff82111715611b6957611b68611b12565b5b80604052505050565b6000611b7c61195c565b9050611b888282611b41565b919050565b600067ffffffffffffffff821115611ba857611ba7611b12565b5b611bb182611a0f565b9050602081019050919050565b82818337600083830152505050565b6000611be0611bdb84611b8d565b611b72565b905082815260208101848484011115611bfc57611bfb611b0d565b5b611c07848285611bbe565b509392505050565b600082601f830112611c2457611c23611b08565b5b8135611c34848260208601611bcd565b91505092915050565b600060208284031215611c5357611c52611966565b5b600082013567ffffffffffffffff811115611c7157611c7061196b565b5b611c7d84828501611c0f565b91505092915050565b7f4e487b7100000000000000000000000000000000000000000000000000000000600052602160045260246000fd5b60028110611cc657611cc5611c86565b5b50565b6000819050611cd782611cb5565b919050565b6000611ce782611cc9565b9050919050565b611cf781611cdc565b82525050565b6000602082019050611d126000830184611cee565b92915050565b60008115159050919050565b611d2d81611d18565b82525050565b6000602082019050611d486000830184611d24565b92915050565b6000611d5982611900565b9050919050565b611d6981611d4e565b8114611d7457600080fd5b50565b600081359050611d8681611d60565b92915050565b600060208284031215611da257611da1611966565b5b6000611db084828501611d77565b91505092915050565b7f4e487b7100000000000000000000000000000000000000000000000000000000600052602260045260246000fd5b60006002820490506001821680611e0057607f821691505b602082108103611e1357611e12611db9565b5b50919050565b60008190508160005260206000209050919050565b60006020601f8301049050919050565b600082821b905092915050565b600060088302611e7b7fffffffffffffffffffffffffffffffffffffffffffffffffffffffffffffffff82611e3e565b611e858683611e3e565b95508019841693508086168417925050509392505050565b6000819050919050565b6000611ec2611ebd611eb884611a7b565b611e9d565b611a7b565b9050919050565b6000819050919050565b611edc83611ea7565b611ef0611ee882611ec9565b848454611e4b565b825550505050565b600090565b611f05611ef8565b611f10818484611ed3565b505050565b5b81811015611f3457611f29600082611efd565b600181019050611f16565b5050565b601f821115611f7957611f4a81611e19565b611f5384611e2e565b81016020851015611f62578190505b611f76611f6e85611e2e565b830182611f15565b50505b505050565b600082821c905092915050565b6000611f9c60001984600802611f7e565b1980831691505092915050565b6000611fb58383611f8b565b9150826002028217905092915050565b611fce826119c9565b67ffffffffffffffff811115611fe757611fe6611b12565b5b611ff18254611de8565b611ffc828285611f38565b600060209050601f83116001811461202f576000841561201d578287015190505b6120278582611fa9565b86555061208f565b601f19841661203d86611e19565b60005b8281101561206557848901518255600182019150602085019450602081019050612040565b86831015612082578489015161207e601f891682611f8b565b8355505b6001600288020188555050505b505050505050565b600081549050919050565b600082825260208201905092915050565b60008190508160005260206000209050919050565b6120d181611920565b82525050565b60006120e383836120c8565b60208301905092915050565b60008160001c9050919050565b600073ffffffffffffffffffffffffffffffffffffffff82169050919050565b600061212f61212a836120ef565b6120fc565b9050919050565b6000612142825461211c565b9050919050565b6000600182019050919050565b600061216182612097565b61216b81856120a2565b9350612176836120b3565b8060005b838110156121ae5761218b82612136565b61219588826120d7565b97506121a083612149565b92505060018101905061217a565b5085935050505092915050565b60006060820190506121d06000830186611a85565b6121dd6020830185611a85565b81810360408301526121ef8184612156565b9050949350505050565b7f4e487b7100000000000000000000000000000000000000000000000000000000600052601160045260246000fd5b600061223382611a7b565b915061223e83611a7b565b9250828201905080821115612256576122556121f9565b5b92915050565b600081905092915050565b7f636f6e7472616374646174610000000000000000000000000000000000000000600082015250565b600061229d600c8361225c565b91506122a882612267565b600c82019050919050565b60006122be82612290565b9150819050919050565b600081546122d581611de8565b6122df81866119d4565b945060018216600081146122fa576001811461231057612343565b60ff198316865281151560200286019350612343565b61231985611e19565b60005b8381101561233b5781548189015260018201915060208101905061231c565b808801955050505b50505092915050565b600081549050919050565b600082825260208201905092915050565b60008190508160005260206000209050919050565b61238681611a7b565b82525050565b6000612398838361237d565b60208301905092915050565b6000819050919050565b60006123c16123bc836120ef565b6123a4565b9050919050565b60006123d482546123ae565b9050919050565b6000600182019050919050565b60006123f38261234c565b6123fd8185612357565b935061240883612368565b8060005b838110156124405761241d826123c8565b612427888261238c565b9750612432836123db565b92505060018101905061240c565b5085935050505092915050565b600081549050919050565b600082825260208201905092915050565b60008190508160005260206000209050919050565b600082825260208201905092915050565b6000815461249c81611de8565b6124a6818661247e565b945060018216600081146124c157600181146124d75761250a565b60ff19831686528115156020028601935061250a565b6124e085611e19565b60005b83811015612502578154818901526001820191506020810190506124e3565b808801955050505b50505092915050565b600061251f838361248f565b905092915050565b6000600182019050919050565b600061253f8261244d565b6125498185612458565b93508360208202850161255b85612469565b8060005b85811015612596578484038952816125778582612513565b945061258283612527565b925060208a0199505060018101905061255f565b50829750879550505050505092915050565b6000610160820190506125be600083018e611932565b81810360208301526125d0818d6122c8565b905081810360408301526125e4818c6122c8565b90506125f3606083018b611a85565b612600608083018a611a85565b61260d60a0830189611a85565b81810360c083015261261f81886122c8565b905081810360e083015261263381876123e8565b90508181036101008301526126488186612534565b9050612658610120830185611a85565b81810361014083015261266b8184612156565b90509c9b505050505050505050505050565b7f4e487b7100000000000000000000000000000000000000000000000000000000600052601260045260246000fd5b60006126b782611a7b565b91506126c283611a7b565b9250826126d2576126d161267d565b5b828206905092915050565b7f4e487b7100000000000000000000000000000000000000000000000000000000600052603260045260246000fd5b600061271782611a7b565b915061272283611a7b565b925082820261273081611a7b565b91508282048414831517612747576127466121f9565b5b5092915050565b600061275982611a7b565b915061276483611a7b565b9250826127745761277361267d565b5b828204905092915050565b600061278a82611a7b565b91507fffffffffffffffffffffffffffffffffffffffffffffffffffffffffffffffff82036127bc576127bb6121f9565b5b600182019050919050565b6000815490506127d681611de8565b9050919050565b60008190508160005260206000209050919050565b8181036128005750506128d8565b612809826127c7565b67ffffffffffffffff81111561282257612821611b12565b5b61282c8254611de8565b612837828285611f38565b6000601f8311600181146128665760008415612854578287015490505b61285e8582611fa9565b8655506128d1565b601f198416612874876127dd565b965061287f86611e19565b60005b828110156128a757848901548255600182019150600185019450602081019050612882565b868310156128c457848901546128c0601f891682611f8b565b8355505b6001600288020188555050505b5050505050505b565b60006128e582611a7b565b91506128f083611a7b565b9250828203905081811115612908576129076121f9565b5b9291505056fea26469706673582212209ab5f55bb2faf641d3e24342d4aafad74592cbf66ee8729cef1276749536100664736f6c63430008130033a2646970667358221220133adff9a78a6cfcb2e067d43be516b2831fc5818e12a5a6791e4f5ed6eedb9d64736f6c63430008130033",
			"opcodes": "PUSH1 0x80 PUSH1 0x40 MSTORE CALLVALUE DUP1 ISZERO PUSH2 0x10 JUMPI PUSH1 0x0 DUP1 REVERT JUMPDEST POP CALLER PUSH1 0x2 PUSH1 0x0 PUSH2 0x100 EXP DUP2 SLOAD DUP2 PUSH20 0xFFFFFFFFFFFFFFFFFFFFFFFFFFFFFFFFFFFFFFFF MUL NOT AND SWAP1 DUP4 PUSH20 0xFFFFFFFFFFFFFFFFFFFFFFFFFFFFFFFFFFFFFFFF AND MUL OR SWAP1 SSTORE POP CALLER PUSH1 0x1 PUSH1 0x0 PUSH2 0x100 EXP DUP2 SLOAD DUP2 PUSH20 0xFFFFFFFFFFFFFFFFFFFFFFFFFFFFFFFFFFFFFFFF MUL NOT AND SWAP1 DUP4 PUSH20 0xFFFFFFFFFFFFFFFFFFFFFFFFFFFFFFFFFFFFFFFF AND MUL OR SWAP1 SSTORE POP PUSH1 0x5 PUSH1 0x0 DUP2 SWAP1 SSTORE POP PUSH2 0x4D5C DUP1 PUSH2 0xAA PUSH1 0x0 CODECOPY PUSH1 0x0 RETURN INVALID PUSH1 0x80 PUSH1 0x40 MSTORE PUSH1 0x4 CALLDATASIZE LT PUSH3 0x7A JUMPI PUSH1 0x0 CALLDATALOAD PUSH1 0xE0 SHR DUP1 PUSH4 0x2DD111A9 GT PUSH3 0x55 JUMPI DUP1 PUSH4 0x2DD111A9 EQ PUSH3 0x115 JUMPI DUP1 PUSH4 0x34C925F0 EQ PUSH3 0x159 JUMPI DUP1 PUSH4 0x81830593 EQ PUSH3 0x19D JUMPI DUP1 PUSH4 0xC3A2A93A EQ PUSH3 0x1CD JUMPI PUSH3 0x7A JUMP JUMPDEST DUP1 PUSH4 0x2D05D3F EQ PUSH3 0x7F JUMPI DUP1 PUSH4 0x16A5265D EQ PUSH3 0xAF JUMPI DUP1 PUSH4 0x23C09848 EQ PUSH3 0xDF JUMPI JUMPDEST PUSH1 0x0 DUP1 REVERT JUMPDEST CALLVALUE DUP1 ISZERO PUSH3 0x8C JUMPI PUSH1 0x0 DUP1 REVERT JUMPDEST POP PUSH3 0x97 PUSH3 0x1FD JUMP JUMPDEST PUSH1 0x40 MLOAD PUSH3 0xA6 SWAP2 SWAP1 PUSH3 0x671 JUMP JUMPDEST PUSH1 0x40 MLOAD DUP1 SWAP2 SUB SWAP1 RETURN JUMPDEST CALLVALUE DUP1 ISZERO PUSH3 0xBC JUMPI PUSH1 0x0 DUP1 REVERT JUMPDEST POP PUSH3 0xC7 PUSH3 0x223 JUMP JUMPDEST PUSH1 0x40 MLOAD PUSH3 0xD6 SWAP2 SWAP1 PUSH3 0x6A9 JUMP JUMPDEST PUSH1 0x40 MLOAD DUP1 SWAP2 SUB SWAP1 RETURN JUMPDEST PUSH3 0xFD PUSH1 0x4 DUP1 CALLDATASIZE SUB DUP2 ADD SWAP1 PUSH3 0xF7 SWAP2 SWAP1 PUSH3 0xA3F JUMP JUMPDEST PUSH3 0x229 JUMP JUMPDEST PUSH1 0x40 MLOAD PUSH3 0x10C SWAP2 SWAP1 PUSH3 0x671 JUMP JUMPDEST PUSH1 0x40 MLOAD DUP1 SWAP2 SUB SWAP1 RETURN JUMPDEST CALLVALUE DUP1 ISZERO PUSH3 0x122 JUMPI PUSH1 0x0 DUP1 REVERT JUMPDEST POP PUSH3 0x141 PUSH1 0x4 DUP1 CALLDATASIZE SUB DUP2 ADD SWAP1 PUSH3 0x13B SWAP2 SWAP1 PUSH3 0xBA3 JUMP JUMPDEST PUSH3 0x459 JUMP JUMPDEST PUSH1 0x40 MLOAD PUSH3 0x150 SWAP2 SWAP1 PUSH3 0x671 JUMP JUMPDEST PUSH1 0x40 MLOAD DUP1 SWAP2 SUB SWAP1 RETURN JUMPDEST CALLVALUE DUP1 ISZERO PUSH3 0x166 JUMPI PUSH1 0x0 DUP1 REVERT JUMPDEST POP PUSH3 0x185 PUSH1 0x4 DUP1 CALLDATASIZE SUB DUP2 ADD SWAP1 PUSH3 0x17F SWAP2 SWAP1 PUSH3 0xC06 JUMP JUMPDEST PUSH3 0x499 JUMP JUMPDEST PUSH1 0x40 MLOAD PUSH3 0x194 SWAP2 SWAP1 PUSH3 0xD06 JUMP JUMPDEST PUSH1 0x40 MLOAD DUP1 SWAP2 SUB SWAP1 RETURN JUMPDEST CALLVALUE DUP1 ISZERO PUSH3 0x1AA JUMPI PUSH1 0x0 DUP1 REVERT JUMPDEST POP PUSH3 0x1B5 PUSH3 0x568 JUMP JUMPDEST PUSH1 0x40 MLOAD PUSH3 0x1C4 SWAP2 SWAP1 PUSH3 0x671 JUMP JUMPDEST PUSH1 0x40 MLOAD DUP1 SWAP2 SUB SWAP1 RETURN JUMPDEST CALLVALUE DUP1 ISZERO PUSH3 0x1DA JUMPI PUSH1 0x0 DUP1 REVERT JUMPDEST POP PUSH3 0x1E5 PUSH3 0x58E JUMP JUMPDEST PUSH1 0x40 MLOAD PUSH3 0x1F4 SWAP2 SWAP1 PUSH3 0xD06 JUMP JUMPDEST PUSH1 0x40 MLOAD DUP1 SWAP2 SUB SWAP1 RETURN JUMPDEST PUSH1 0x2 PUSH1 0x0 SWAP1 SLOAD SWAP1 PUSH2 0x100 EXP SWAP1 DIV PUSH20 0xFFFFFFFFFFFFFFFFFFFFFFFFFFFFFFFFFFFFFFFF AND DUP2 JUMP JUMPDEST PUSH1 0x0 SLOAD DUP2 JUMP JUMPDEST PUSH1 0x0 DUP1 DUP9 SUB PUSH3 0x248 JUMPI PUSH1 0x5 DUP5 GT ISZERO PUSH3 0x242 JUMPI PUSH1 0x0 DUP1 REVERT JUMPDEST PUSH3 0x276 JUMP JUMPDEST PUSH1 0x1 DUP9 SUB PUSH3 0x265 JUMPI PUSH1 0x5F DUP5 EQ PUSH3 0x25F JUMPI PUSH1 0x0 DUP1 REVERT JUMPDEST PUSH3 0x275 JUMP JUMPDEST PUSH1 0x5 DUP5 GT ISZERO PUSH3 0x274 JUMPI PUSH1 0x0 DUP1 REVERT JUMPDEST JUMPDEST JUMPDEST PUSH1 0x0 CALLER DUP11 DUP11 DUP11 DUP11 DUP11 PUSH1 0x0 SLOAD DUP12 PUSH1 0x1 PUSH1 0x0 SWAP1 SLOAD SWAP1 PUSH2 0x100 EXP SWAP1 DIV PUSH20 0xFFFFFFFFFFFFFFFFFFFFFFFFFFFFFFFFFFFFFFFF AND DUP13 DUP13 PUSH1 0x40 MLOAD PUSH3 0x2B5 SWAP1 PUSH3 0x61E JUMP JUMPDEST PUSH3 0x2CB SWAP12 SWAP11 SWAP10 SWAP9 SWAP8 SWAP7 SWAP6 SWAP5 SWAP4 SWAP3 SWAP2 SWAP1 PUSH3 0xFA3 JUMP JUMPDEST PUSH1 0x40 MLOAD DUP1 SWAP2 SUB SWAP1 PUSH1 0x0 CREATE DUP1 ISZERO DUP1 ISZERO PUSH3 0x2E8 JUMPI RETURNDATASIZE PUSH1 0x0 DUP1 RETURNDATACOPY RETURNDATASIZE PUSH1 0x0 REVERT JUMPDEST POP SWAP1 POP PUSH1 0x0 DUP2 SWAP1 POP PUSH1 0x4 PUSH1 0x0 CALLER PUSH20 0xFFFFFFFFFFFFFFFFFFFFFFFFFFFFFFFFFFFFFFFF AND PUSH20 0xFFFFFFFFFFFFFFFFFFFFFFFFFFFFFFFFFFFFFFFF AND DUP2 MSTORE PUSH1 0x20 ADD SWAP1 DUP2 MSTORE PUSH1 0x20 ADD PUSH1 0x0 KECCAK256 DUP2 SWAP1 DUP1 PUSH1 0x1 DUP2 SLOAD ADD DUP1 DUP3 SSTORE DUP1 SWAP2 POP POP PUSH1 0x1 SWAP1 SUB SWAP1 PUSH1 0x0 MSTORE PUSH1 0x20 PUSH1 0x0 KECCAK256 ADD PUSH1 0x0 SWAP1 SWAP2 SWAP1 SWAP2 SWAP1 SWAP2 PUSH2 0x100 EXP DUP2 SLOAD DUP2 PUSH20 0xFFFFFFFFFFFFFFFFFFFFFFFFFFFFFFFFFFFFFFFF MUL NOT AND SWAP1 DUP4 PUSH20 0xFFFFFFFFFFFFFFFFFFFFFFFFFFFFFFFFFFFFFFFF AND MUL OR SWAP1 SSTORE POP PUSH1 0x3 DUP2 SWAP1 DUP1 PUSH1 0x1 DUP2 SLOAD ADD DUP1 DUP3 SSTORE DUP1 SWAP2 POP POP PUSH1 0x1 SWAP1 SUB SWAP1 PUSH1 0x0 MSTORE PUSH1 0x20 PUSH1 0x0 KECCAK256 ADD PUSH1 0x0 SWAP1 SWAP2 SWAP1 SWAP2 SWAP1 SWAP2 PUSH2 0x100 EXP DUP2 SLOAD DUP2 PUSH20 0xFFFFFFFFFFFFFFFFFFFFFFFFFFFFFFFFFFFFFFFF MUL NOT AND SWAP1 DUP4 PUSH20 0xFFFFFFFFFFFFFFFFFFFFFFFFFFFFFFFFFFFFFFFF AND MUL OR SWAP1 SSTORE POP PUSH1 0x40 MLOAD PUSH3 0x401 SWAP1 PUSH3 0x10E2 JUMP JUMPDEST PUSH1 0x40 MLOAD DUP1 SWAP2 SUB SWAP1 KECCAK256 PUSH32 0xED82FD5193CBAC01DE9A009DA053E6119B6A01ED00499815C09E28B179C37936 DUP3 DUP12 CALLER DUP15 PUSH1 0x40 MLOAD PUSH3 0x440 SWAP5 SWAP4 SWAP3 SWAP2 SWAP1 PUSH3 0x10F9 JUMP JUMPDEST PUSH1 0x40 MLOAD DUP1 SWAP2 SUB SWAP1 LOG2 DUP1 SWAP3 POP POP POP SWAP9 SWAP8 POP POP POP POP POP POP POP POP JUMP JUMPDEST PUSH1 0x3 DUP2 DUP2 SLOAD DUP2 LT PUSH3 0x46A JUMPI PUSH1 0x0 DUP1 REVERT JUMPDEST SWAP1 PUSH1 0x0 MSTORE PUSH1 0x20 PUSH1 0x0 KECCAK256 ADD PUSH1 0x0 SWAP2 POP SLOAD SWAP1 PUSH2 0x100 EXP SWAP1 DIV PUSH20 0xFFFFFFFFFFFFFFFFFFFFFFFFFFFFFFFFFFFFFFFF AND DUP2 JUMP JUMPDEST PUSH1 0x60 PUSH1 0x4 PUSH1 0x0 DUP4 PUSH20 0xFFFFFFFFFFFFFFFFFFFFFFFFFFFFFFFFFFFFFFFF AND PUSH20 0xFFFFFFFFFFFFFFFFFFFFFFFFFFFFFFFFFFFFFFFF AND DUP2 MSTORE PUSH1 0x20 ADD SWAP1 DUP2 MSTORE PUSH1 0x20 ADD PUSH1 0x0 KECCAK256 DUP1 SLOAD DUP1 PUSH1 0x20 MUL PUSH1 0x20 ADD PUSH1 0x40 MLOAD SWAP1 DUP2 ADD PUSH1 0x40 MSTORE DUP1 SWAP3 SWAP2 SWAP1 DUP2 DUP2 MSTORE PUSH1 0x20 ADD DUP3 DUP1 SLOAD DUP1 ISZERO PUSH3 0x55C JUMPI PUSH1 0x20 MUL DUP3 ADD SWAP2 SWAP1 PUSH1 0x0 MSTORE PUSH1 0x20 PUSH1 0x0 KECCAK256 SWAP1 JUMPDEST DUP2 PUSH1 0x0 SWAP1 SLOAD SWAP1 PUSH2 0x100 EXP SWAP1 DIV PUSH20 0xFFFFFFFFFFFFFFFFFFFFFFFFFFFFFFFFFFFFFFFF AND PUSH20 0xFFFFFFFFFFFFFFFFFFFFFFFFFFFFFFFFFFFFFFFF AND DUP2 MSTORE PUSH1 0x20 ADD SWAP1 PUSH1 0x1 ADD SWAP1 DUP1 DUP4 GT PUSH3 0x511 JUMPI JUMPDEST POP POP POP POP POP SWAP1 POP SWAP2 SWAP1 POP JUMP JUMPDEST PUSH1 0x1 PUSH1 0x0 SWAP1 SLOAD SWAP1 PUSH2 0x100 EXP SWAP1 DIV PUSH20 0xFFFFFFFFFFFFFFFFFFFFFFFFFFFFFFFFFFFFFFFF AND DUP2 JUMP JUMPDEST PUSH1 0x60 PUSH1 0x3 DUP1 SLOAD DUP1 PUSH1 0x20 MUL PUSH1 0x20 ADD PUSH1 0x40 MLOAD SWAP1 DUP2 ADD PUSH1 0x40 MSTORE DUP1 SWAP3 SWAP2 SWAP1 DUP2 DUP2 MSTORE PUSH1 0x20 ADD DUP3 DUP1 SLOAD DUP1 ISZERO PUSH3 0x614 JUMPI PUSH1 0x20 MUL DUP3 ADD SWAP2 SWAP1 PUSH1 0x0 MSTORE PUSH1 0x20 PUSH1 0x0 KECCAK256 SWAP1 JUMPDEST DUP2 PUSH1 0x0 SWAP1 SLOAD SWAP1 PUSH2 0x100 EXP SWAP1 DIV PUSH20 0xFFFFFFFFFFFFFFFFFFFFFFFFFFFFFFFFFFFFFFFF AND PUSH20 0xFFFFFFFFFFFFFFFFFFFFFFFFFFFFFFFFFFFFFFFF AND DUP2 MSTORE PUSH1 0x20 ADD SWAP1 PUSH1 0x1 ADD SWAP1 DUP1 DUP4 GT PUSH3 0x5C9 JUMPI JUMPDEST POP POP POP POP POP SWAP1 POP SWAP1 JUMP JUMPDEST PUSH2 0x3BD9 DUP1 PUSH3 0x114E DUP4 CODECOPY ADD SWAP1 JUMP JUMPDEST PUSH1 0x0 PUSH20 0xFFFFFFFFFFFFFFFFFFFFFFFFFFFFFFFFFFFFFFFF DUP3 AND SWAP1 POP SWAP2 SWAP1 POP JUMP JUMPDEST PUSH1 0x0 PUSH3 0x659 DUP3 PUSH3 0x62C JUMP JUMPDEST SWAP1 POP SWAP2 SWAP1 POP JUMP JUMPDEST PUSH3 0x66B DUP2 PUSH3 0x64C JUMP JUMPDEST DUP3 MSTORE POP POP JUMP JUMPDEST PUSH1 0x0 PUSH1 0x20 DUP3 ADD SWAP1 POP PUSH3 0x688 PUSH1 0x0 DUP4 ADD DUP5 PUSH3 0x660 JUMP JUMPDEST SWAP3 SWAP2 POP POP JUMP JUMPDEST PUSH1 0x0 DUP2 SWAP1 POP SWAP2 SWAP1 POP JUMP JUMPDEST PUSH3 0x6A3 DUP2 PUSH3 0x68E JUMP JUMPDEST DUP3 MSTORE POP POP JUMP JUMPDEST PUSH1 0x0 PUSH1 0x20 DUP3 ADD SWAP1 POP PUSH3 0x6C0 PUSH1 0x0 DUP4 ADD DUP5 PUSH3 0x698 JUMP JUMPDEST SWAP3 SWAP2 POP POP JUMP JUMPDEST PUSH1 0x0 PUSH1 0x40 MLOAD SWAP1 POP SWAP1 JUMP JUMPDEST PUSH1 0x0 DUP1 REVERT JUMPDEST PUSH1 0x0 DUP1 REVERT JUMPDEST PUSH3 0x6E5 DUP2 PUSH3 0x68E JUMP JUMPDEST DUP2 EQ PUSH3 0x6F1 JUMPI PUSH1 0x0 DUP1 REVERT JUMPDEST POP JUMP JUMPDEST PUSH1 0x0 DUP2 CALLDATALOAD SWAP1 POP PUSH3 0x705 DUP2 PUSH3 0x6DA JUMP JUMPDEST SWAP3 SWAP2 POP POP JUMP JUMPDEST PUSH1 0x0 DUP1 REVERT JUMPDEST PUSH1 0x0 DUP1 REVERT JUMPDEST PUSH1 0x0 PUSH1 0x1F NOT PUSH1 0x1F DUP4 ADD AND SWAP1 POP SWAP2 SWAP1 POP JUMP JUMPDEST PUSH32 0x4E487B7100000000000000000000000000000000000000000000000000000000 PUSH1 0x0 MSTORE PUSH1 0x41 PUSH1 0x4 MSTORE PUSH1 0x24 PUSH1 0x0 REVERT JUMPDEST PUSH3 0x760 DUP3 PUSH3 0x715 JUMP JUMPDEST DUP2 ADD DUP2 DUP2 LT PUSH8 0xFFFFFFFFFFFFFFFF DUP3 GT OR ISZERO PUSH3 0x782 JUMPI PUSH3 0x781 PUSH3 0x726 JUMP JUMPDEST JUMPDEST DUP1 PUSH1 0x40 MSTORE POP POP POP JUMP JUMPDEST PUSH1 0x0 PUSH3 0x797 PUSH3 0x6C6 JUMP JUMPDEST SWAP1 POP PUSH3 0x7A5 DUP3 DUP3 PUSH3 0x755 JUMP JUMPDEST SWAP2 SWAP1 POP JUMP JUMPDEST PUSH1 0x0 PUSH8 0xFFFFFFFFFFFFFFFF DUP3 GT ISZERO PUSH3 0x7C8 JUMPI PUSH3 0x7C7 PUSH3 0x726 JUMP JUMPDEST JUMPDEST PUSH3 0x7D3 DUP3 PUSH3 0x715 JUMP JUMPDEST SWAP1 POP PUSH1 0x20 DUP2 ADD SWAP1 POP SWAP2 SWAP1 POP JUMP JUMPDEST DUP3 DUP2 DUP4 CALLDATACOPY PUSH1 0x0 DUP4 DUP4 ADD MSTORE POP POP POP JUMP JUMPDEST PUSH1 0x0 PUSH3 0x806 PUSH3 0x800 DUP5 PUSH3 0x7AA JUMP JUMPDEST PUSH3 0x78B JUMP JUMPDEST SWAP1 POP DUP3 DUP2 MSTORE PUSH1 0x20 DUP2 ADD DUP5 DUP5 DUP5 ADD GT ISZERO PUSH3 0x825 JUMPI PUSH3 0x824 PUSH3 0x710 JUMP JUMPDEST JUMPDEST PUSH3 0x832 DUP5 DUP3 DUP6 PUSH3 0x7E0 JUMP JUMPDEST POP SWAP4 SWAP3 POP POP POP JUMP JUMPDEST PUSH1 0x0 DUP3 PUSH1 0x1F DUP4 ADD SLT PUSH3 0x852 JUMPI PUSH3 0x851 PUSH3 0x70B JUMP JUMPDEST JUMPDEST DUP2 CALLDATALOAD PUSH3 0x864 DUP5 DUP3 PUSH1 0x20 DUP7 ADD PUSH3 0x7EF JUMP JUMPDEST SWAP2 POP POP SWAP3 SWAP2 POP POP JUMP JUMPDEST PUSH1 0x0 PUSH8 0xFFFFFFFFFFFFFFFF DUP3 GT ISZERO PUSH3 0x88B JUMPI PUSH3 0x88A PUSH3 0x726 JUMP JUMPDEST JUMPDEST PUSH1 0x20 DUP3 MUL SWAP1 POP PUSH1 0x20 DUP2 ADD SWAP1 POP SWAP2 SWAP1 POP JUMP JUMPDEST PUSH1 0x0 DUP1 REVERT JUMPDEST PUSH1 0x0 PUSH3 0x8B8 PUSH3 0x8B2 DUP5 PUSH3 0x86D JUMP JUMPDEST PUSH3 0x78B JUMP JUMPDEST SWAP1 POP DUP1 DUP4 DUP3 MSTORE PUSH1 0x20 DUP3 ADD SWAP1 POP PUSH1 0x20 DUP5 MUL DUP4 ADD DUP6 DUP2 GT ISZERO PUSH3 0x8DE JUMPI PUSH3 0x8DD PUSH3 0x89C JUMP JUMPDEST JUMPDEST DUP4 JUMPDEST DUP2 DUP2 LT ISZERO PUSH3 0x92C JUMPI DUP1 CALLDATALOAD PUSH8 0xFFFFFFFFFFFFFFFF DUP2 GT ISZERO PUSH3 0x907 JUMPI PUSH3 0x906 PUSH3 0x70B JUMP JUMPDEST JUMPDEST DUP1 DUP7 ADD PUSH3 0x916 DUP10 DUP3 PUSH3 0x83A JUMP JUMPDEST DUP6 MSTORE PUSH1 0x20 DUP6 ADD SWAP5 POP POP POP PUSH1 0x20 DUP2 ADD SWAP1 POP PUSH3 0x8E0 JUMP JUMPDEST POP POP POP SWAP4 SWAP3 POP POP POP JUMP JUMPDEST PUSH1 0x0 DUP3 PUSH1 0x1F DUP4 ADD SLT PUSH3 0x94E JUMPI PUSH3 0x94D PUSH3 0x70B JUMP JUMPDEST JUMPDEST DUP2 CALLDATALOAD PUSH3 0x960 DUP5 DUP3 PUSH1 0x20 DUP7 ADD PUSH3 0x8A1 JUMP JUMPDEST SWAP2 POP POP SWAP3 SWAP2 POP POP JUMP JUMPDEST PUSH1 0x0 PUSH8 0xFFFFFFFFFFFFFFFF DUP3 GT ISZERO PUSH3 0x987 JUMPI PUSH3 0x986 PUSH3 0x726 JUMP JUMPDEST JUMPDEST PUSH1 0x20 DUP3 MUL SWAP1 POP PUSH1 0x20 DUP2 ADD SWAP1 POP SWAP2 SWAP1 POP JUMP JUMPDEST PUSH1 0x0 PUSH3 0x9AF PUSH3 0x9A9 DUP5 PUSH3 0x969 JUMP JUMPDEST PUSH3 0x78B JUMP JUMPDEST SWAP1 POP DUP1 DUP4 DUP3 MSTORE PUSH1 0x20 DUP3 ADD SWAP1 POP PUSH1 0x20 DUP5 MUL DUP4 ADD DUP6 DUP2 GT ISZERO PUSH3 0x9D5 JUMPI PUSH3 0x9D4 PUSH3 0x89C JUMP JUMPDEST JUMPDEST DUP4 JUMPDEST DUP2 DUP2 LT ISZERO PUSH3 0xA02 JUMPI DUP1 PUSH3 0x9ED DUP9 DUP3 PUSH3 0x6F4 JUMP JUMPDEST DUP5 MSTORE PUSH1 0x20 DUP5 ADD SWAP4 POP POP PUSH1 0x20 DUP2 ADD SWAP1 POP PUSH3 0x9D7 JUMP JUMPDEST POP POP POP SWAP4 SWAP3 POP POP POP JUMP JUMPDEST PUSH1 0x0 DUP3 PUSH1 0x1F DUP4 ADD SLT PUSH3 0xA24 JUMPI PUSH3 0xA23 PUSH3 0x70B JUMP JUMPDEST JUMPDEST DUP2 CALLDATALOAD PUSH3 0xA36 DUP5 DUP3 PUSH1 0x20 DUP7 ADD PUSH3 0x998 JUMP JUMPDEST SWAP2 POP POP SWAP3 SWAP2 POP POP JUMP JUMPDEST PUSH1 0x0 DUP1 PUSH1 0x0 DUP1 PUSH1 0x0 DUP1 PUSH1 0x0 DUP1 PUSH2 0x100 DUP10 DUP12 SUB SLT ISZERO PUSH3 0xA63 JUMPI PUSH3 0xA62 PUSH3 0x6D0 JUMP JUMPDEST JUMPDEST PUSH1 0x0 PUSH3 0xA73 DUP12 DUP3 DUP13 ADD PUSH3 0x6F4 JUMP JUMPDEST SWAP9 POP POP PUSH1 0x20 PUSH3 0xA86 DUP12 DUP3 DUP13 ADD PUSH3 0x6F4 JUMP JUMPDEST SWAP8 POP POP PUSH1 0x40 DUP10 ADD CALLDATALOAD PUSH8 0xFFFFFFFFFFFFFFFF DUP2 GT ISZERO PUSH3 0xAAA JUMPI PUSH3 0xAA9 PUSH3 0x6D5 JUMP JUMPDEST JUMPDEST PUSH3 0xAB8 DUP12 DUP3 DUP13 ADD PUSH3 0x83A JUMP JUMPDEST SWAP7 POP POP PUSH1 0x60 DUP10 ADD CALLDATALOAD PUSH8 0xFFFFFFFFFFFFFFFF DUP2 GT ISZERO PUSH3 0xADC JUMPI PUSH3 0xADB PUSH3 0x6D5 JUMP JUMPDEST JUMPDEST PUSH3 0xAEA DUP12 DUP3 DUP13 ADD PUSH3 0x83A JUMP JUMPDEST SWAP6 POP POP PUSH1 0x80 DUP10 ADD CALLDATALOAD PUSH8 0xFFFFFFFFFFFFFFFF DUP2 GT ISZERO PUSH3 0xB0E JUMPI PUSH3 0xB0D PUSH3 0x6D5 JUMP JUMPDEST JUMPDEST PUSH3 0xB1C DUP12 DUP3 DUP13 ADD PUSH3 0x83A JUMP JUMPDEST SWAP5 POP POP PUSH1 0xA0 PUSH3 0xB2F DUP12 DUP3 DUP13 ADD PUSH3 0x6F4 JUMP JUMPDEST SWAP4 POP POP PUSH1 0xC0 DUP10 ADD CALLDATALOAD PUSH8 0xFFFFFFFFFFFFFFFF DUP2 GT ISZERO PUSH3 0xB53 JUMPI PUSH3 0xB52 PUSH3 0x6D5 JUMP JUMPDEST JUMPDEST PUSH3 0xB61 DUP12 DUP3 DUP13 ADD PUSH3 0x936 JUMP JUMPDEST SWAP3 POP POP PUSH1 0xE0 DUP10 ADD CALLDATALOAD PUSH8 0xFFFFFFFFFFFFFFFF DUP2 GT ISZERO PUSH3 0xB85 JUMPI PUSH3 0xB84 PUSH3 0x6D5 JUMP JUMPDEST JUMPDEST PUSH3 0xB93 DUP12 DUP3 DUP13 ADD PUSH3 0xA0C JUMP JUMPDEST SWAP2 POP POP SWAP3 SWAP6 SWAP9 POP SWAP3 SWAP6 SWAP9 SWAP1 SWAP4 SWAP7 POP JUMP JUMPDEST PUSH1 0x0 PUSH1 0x20 DUP3 DUP5 SUB SLT ISZERO PUSH3 0xBBC JUMPI PUSH3 0xBBB PUSH3 0x6D0 JUMP JUMPDEST JUMPDEST PUSH1 0x0 PUSH3 0xBCC DUP5 DUP3 DUP6 ADD PUSH3 0x6F4 JUMP JUMPDEST SWAP2 POP POP SWAP3 SWAP2 POP POP JUMP JUMPDEST PUSH3 0xBE0 DUP2 PUSH3 0x64C JUMP JUMPDEST DUP2 EQ PUSH3 0xBEC JUMPI PUSH1 0x0 DUP1 REVERT JUMPDEST POP JUMP JUMPDEST PUSH1 0x0 DUP2 CALLDATALOAD SWAP1 POP PUSH3 0xC00 DUP2 PUSH3 0xBD5 JUMP JUMPDEST SWAP3 SWAP2 POP POP JUMP JUMPDEST PUSH1 0x0 PUSH1 0x20 DUP3 DUP5 SUB SLT ISZERO PUSH3 0xC1F JUMPI PUSH3 0xC1E PUSH3 0x6D0 JUMP JUMPDEST JUMPDEST PUSH1 0x0 PUSH3 0xC2F DUP5 DUP3 DUP6 ADD PUSH3 0xBEF JUMP JUMPDEST SWAP2 POP POP SWAP3 SWAP2 POP POP JUMP JUMPDEST PUSH1 0x0 DUP2 MLOAD SWAP1 POP SWAP2 SWAP1 POP JUMP JUMPDEST PUSH1 0x0 DUP3 DUP3 MSTORE PUSH1 0x20 DUP3 ADD SWAP1 POP SWAP3 SWAP2 POP POP JUMP JUMPDEST PUSH1 0x0 DUP2 SWAP1 POP PUSH1 0x20 DUP3 ADD SWAP1 POP SWAP2 SWAP1 POP JUMP JUMPDEST PUSH3 0xC6F DUP2 PUSH3 0x64C JUMP JUMPDEST DUP3 MSTORE POP POP JUMP JUMPDEST PUSH1 0x0 PUSH3 0xC83 DUP4 DUP4 PUSH3 0xC64 JUMP JUMPDEST PUSH1 0x20 DUP4 ADD SWAP1 POP SWAP3 SWAP2 POP POP JUMP JUMPDEST PUSH1 0x0 PUSH1 0x20 DUP3 ADD SWAP1 POP SWAP2 SWAP1 POP JUMP JUMPDEST PUSH1 0x0 PUSH3 0xCA9 DUP3 PUSH3 0xC38 JUMP JUMPDEST PUSH3 0xCB5 DUP2 DUP6 PUSH3 0xC43 JUMP JUMPDEST SWAP4 POP PUSH3 0xCC2 DUP4 PUSH3 0xC54 JUMP JUMPDEST DUP1 PUSH1 0x0 JUMPDEST DUP4 DUP2 LT ISZERO PUSH3 0xCF9 JUMPI DUP2 MLOAD PUSH3 0xCDD DUP9 DUP3 PUSH3 0xC75 JUMP JUMPDEST SWAP8 POP PUSH3 0xCEA DUP4 PUSH3 0xC8F JUMP JUMPDEST SWAP3 POP POP PUSH1 0x1 DUP2 ADD SWAP1 POP PUSH3 0xCC6 JUMP JUMPDEST POP DUP6 SWAP4 POP POP POP POP SWAP3 SWAP2 POP POP JUMP JUMPDEST PUSH1 0x0 PUSH1 0x20 DUP3 ADD SWAP1 POP DUP2 DUP2 SUB PUSH1 0x0 DUP4 ADD MSTORE PUSH3 0xD22 DUP2 DUP5 PUSH3 0xC9C JUMP JUMPDEST SWAP1 POP SWAP3 SWAP2 POP POP JUMP JUMPDEST PUSH1 0x0 DUP2 MLOAD SWAP1 POP SWAP2 SWAP1 POP JUMP JUMPDEST PUSH1 0x0 DUP3 DUP3 MSTORE PUSH1 0x20 DUP3 ADD SWAP1 POP SWAP3 SWAP2 POP POP JUMP JUMPDEST PUSH1 0x0 JUMPDEST DUP4 DUP2 LT ISZERO PUSH3 0xD66 JUMPI DUP1 DUP3 ADD MLOAD DUP2 DUP5 ADD MSTORE PUSH1 0x20 DUP2 ADD SWAP1 POP PUSH3 0xD49 JUMP JUMPDEST PUSH1 0x0 DUP5 DUP5 ADD MSTORE POP POP POP POP JUMP JUMPDEST PUSH1 0x0 PUSH3 0xD7F DUP3 PUSH3 0xD2A JUMP JUMPDEST PUSH3 0xD8B DUP2 DUP6 PUSH3 0xD35 JUMP JUMPDEST SWAP4 POP PUSH3 0xD9D DUP2 DUP6 PUSH1 0x20 DUP7 ADD PUSH3 0xD46 JUMP JUMPDEST PUSH3 0xDA8 DUP2 PUSH3 0x715 JUMP JUMPDEST DUP5 ADD SWAP2 POP POP SWAP3 SWAP2 POP POP JUMP JUMPDEST PUSH1 0x0 DUP2 MLOAD SWAP1 POP SWAP2 SWAP1 POP JUMP JUMPDEST PUSH1 0x0 DUP3 DUP3 MSTORE PUSH1 0x20 DUP3 ADD SWAP1 POP SWAP3 SWAP2 POP POP JUMP JUMPDEST PUSH1 0x0 DUP2 SWAP1 POP PUSH1 0x20 DUP3 ADD SWAP1 POP SWAP2 SWAP1 POP JUMP JUMPDEST PUSH1 0x0 DUP3 DUP3 MSTORE PUSH1 0x20 DUP3 ADD SWAP1 POP SWAP3 SWAP2 POP POP JUMP JUMPDEST PUSH1 0x0 PUSH3 0xDFD DUP3 PUSH3 0xD2A JUMP JUMPDEST PUSH3 0xE09 DUP2 DUP6 PUSH3 0xDDF JUMP JUMPDEST SWAP4 POP PUSH3 0xE1B DUP2 DUP6 PUSH1 0x20 DUP7 ADD PUSH3 0xD46 JUMP JUMPDEST PUSH3 0xE26 DUP2 PUSH3 0x715 JUMP JUMPDEST DUP5 ADD SWAP2 POP POP SWAP3 SWAP2 POP POP JUMP JUMPDEST PUSH1 0x0 PUSH3 0xE3F DUP4 DUP4 PUSH3 0xDF0 JUMP JUMPDEST SWAP1 POP SWAP3 SWAP2 POP POP JUMP JUMPDEST PUSH1 0x0 PUSH1 0x20 DUP3 ADD SWAP1 POP SWAP2 SWAP1 POP JUMP JUMPDEST PUSH1 0x0 PUSH3 0xE61 DUP3 PUSH3 0xDB3 JUMP JUMPDEST PUSH3 0xE6D DUP2 DUP6 PUSH3 0xDBE JUMP JUMPDEST SWAP4 POP DUP4 PUSH1 0x20 DUP3 MUL DUP6 ADD PUSH3 0xE81 DUP6 PUSH3 0xDCF JUMP JUMPDEST DUP1 PUSH1 0x0 JUMPDEST DUP6 DUP2 LT ISZERO PUSH3 0xEC3 JUMPI DUP5 DUP5 SUB DUP10 MSTORE DUP2 MLOAD PUSH3 0xEA1 DUP6 DUP3 PUSH3 0xE31 JUMP JUMPDEST SWAP5 POP PUSH3 0xEAE DUP4 PUSH3 0xE47 JUMP JUMPDEST SWAP3 POP PUSH1 0x20 DUP11 ADD SWAP10 POP POP PUSH1 0x1 DUP2 ADD SWAP1 POP PUSH3 0xE85 JUMP JUMPDEST POP DUP3 SWAP8 POP DUP8 SWAP6 POP POP POP POP POP POP SWAP3 SWAP2 POP POP JUMP JUMPDEST PUSH1 0x0 DUP2 MLOAD SWAP1 POP SWAP2 SWAP1 POP JUMP JUMPDEST PUSH1 0x0 DUP3 DUP3 MSTORE PUSH1 0x20 DUP3 ADD SWAP1 POP SWAP3 SWAP2 POP POP JUMP JUMPDEST PUSH1 0x0 DUP2 SWAP1 POP PUSH1 0x20 DUP3 ADD SWAP1 POP SWAP2 SWAP1 POP JUMP JUMPDEST PUSH3 0xF0C DUP2 PUSH3 0x68E JUMP JUMPDEST DUP3 MSTORE POP POP JUMP JUMPDEST PUSH1 0x0 PUSH3 0xF20 DUP4 DUP4 PUSH3 0xF01 JUMP JUMPDEST PUSH1 0x20 DUP4 ADD SWAP1 POP SWAP3 SWAP2 POP POP JUMP JUMPDEST PUSH1 0x0 PUSH1 0x20 DUP3 ADD SWAP1 POP SWAP2 SWAP1 POP JUMP JUMPDEST PUSH1 0x0 PUSH3 0xF46 DUP3 PUSH3 0xED5 JUMP JUMPDEST PUSH3 0xF52 DUP2 DUP6 PUSH3 0xEE0 JUMP JUMPDEST SWAP4 POP PUSH3 0xF5F DUP4 PUSH3 0xEF1 JUMP JUMPDEST DUP1 PUSH1 0x0 JUMPDEST DUP4 DUP2 LT ISZERO PUSH3 0xF96 JUMPI DUP2 MLOAD PUSH3 0xF7A DUP9 DUP3 PUSH3 0xF12 JUMP JUMPDEST SWAP8 POP PUSH3 0xF87 DUP4 PUSH3 0xF2C JUMP JUMPDEST SWAP3 POP POP PUSH1 0x1 DUP2 ADD SWAP1 POP PUSH3 0xF63 JUMP JUMPDEST POP DUP6 SWAP4 POP POP POP POP SWAP3 SWAP2 POP POP JUMP JUMPDEST PUSH1 0x0 PUSH2 0x160 DUP3 ADD SWAP1 POP PUSH3 0xFBB PUSH1 0x0 DUP4 ADD DUP15 PUSH3 0x660 JUMP JUMPDEST PUSH3 0xFCA PUSH1 0x20 DUP4 ADD DUP14 PUSH3 0x698 JUMP JUMPDEST PUSH3 0xFD9 PUSH1 0x40 DUP4 ADD DUP13 PUSH3 0x698 JUMP JUMPDEST DUP2 DUP2 SUB PUSH1 0x60 DUP4 ADD MSTORE PUSH3 0xFED DUP2 DUP12 PUSH3 0xD72 JUMP JUMPDEST SWAP1 POP DUP2 DUP2 SUB PUSH1 0x80 DUP4 ADD MSTORE PUSH3 0x1003 DUP2 DUP11 PUSH3 0xD72 JUMP JUMPDEST SWAP1 POP DUP2 DUP2 SUB PUSH1 0xA0 DUP4 ADD MSTORE PUSH3 0x1019 DUP2 DUP10 PUSH3 0xD72 JUMP JUMPDEST SWAP1 POP PUSH3 0x102A PUSH1 0xC0 DUP4 ADD DUP9 PUSH3 0x698 JUMP JUMPDEST PUSH3 0x1039 PUSH1 0xE0 DUP4 ADD DUP8 PUSH3 0x698 JUMP JUMPDEST PUSH3 0x1049 PUSH2 0x100 DUP4 ADD DUP7 PUSH3 0x660 JUMP JUMPDEST DUP2 DUP2 SUB PUSH2 0x120 DUP4 ADD MSTORE PUSH3 0x105E DUP2 DUP6 PUSH3 0xE54 JUMP JUMPDEST SWAP1 POP DUP2 DUP2 SUB PUSH2 0x140 DUP4 ADD MSTORE PUSH3 0x1075 DUP2 DUP5 PUSH3 0xF39 JUMP JUMPDEST SWAP1 POP SWAP13 SWAP12 POP POP POP POP POP POP POP POP POP POP POP POP JUMP JUMPDEST PUSH1 0x0 DUP2 SWAP1 POP SWAP3 SWAP2 POP POP JUMP JUMPDEST PUSH32 0x636F6E7472616374730000000000000000000000000000000000000000000000 PUSH1 0x0 DUP3 ADD MSTORE POP JUMP JUMPDEST PUSH1 0x0 PUSH3 0x10CA PUSH1 0x9 DUP4 PUSH3 0x1087 JUMP JUMPDEST SWAP2 POP PUSH3 0x10D7 DUP3 PUSH3 0x1092 JUMP JUMPDEST PUSH1 0x9 DUP3 ADD SWAP1 POP SWAP2 SWAP1 POP JUMP JUMPDEST PUSH1 0x0 PUSH3 0x10EF DUP3 PUSH3 0x10BB JUMP JUMPDEST SWAP2 POP DUP2 SWAP1 POP SWAP2 SWAP1 POP JUMP JUMPDEST PUSH1 0x0 PUSH1 0x80 DUP3 ADD SWAP1 POP PUSH3 0x1110 PUSH1 0x0 DUP4 ADD DUP8 PUSH3 0x660 JUMP JUMPDEST DUP2 DUP2 SUB PUSH1 0x20 DUP4 ADD MSTORE PUSH3 0x1124 DUP2 DUP7 PUSH3 0xD72 JUMP JUMPDEST SWAP1 POP PUSH3 0x1135 PUSH1 0x40 DUP4 ADD DUP6 PUSH3 0x660 JUMP JUMPDEST PUSH3 0x1144 PUSH1 0x60 DUP4 ADD DUP5 PUSH3 0x698 JUMP JUMPDEST SWAP6 SWAP5 POP POP POP POP POP JUMP INVALID PUSH1 0x80 PUSH1 0x40 MSTORE CALLVALUE DUP1 ISZERO PUSH3 0x11 JUMPI PUSH1 0x0 DUP1 REVERT JUMPDEST POP PUSH1 0x40 MLOAD PUSH3 0x3BD9 CODESIZE SUB DUP1 PUSH3 0x3BD9 DUP4 CODECOPY DUP2 DUP2 ADD PUSH1 0x40 MSTORE DUP2 ADD SWAP1 PUSH3 0x37 SWAP2 SWAP1 PUSH3 0x7F8 JUMP JUMPDEST DUP11 PUSH1 0x1 PUSH1 0x0 PUSH2 0x100 EXP DUP2 SLOAD DUP2 PUSH20 0xFFFFFFFFFFFFFFFFFFFFFFFFFFFFFFFFFFFFFFFF MUL NOT AND SWAP1 DUP4 PUSH20 0xFFFFFFFFFFFFFFFFFFFFFFFFFFFFFFFFFFFFFFFF AND MUL OR SWAP1 SSTORE POP DUP10 PUSH1 0x5 DUP2 SWAP1 SSTORE POP DUP8 PUSH1 0x2 SWAP1 DUP2 PUSH3 0x90 SWAP2 SWAP1 PUSH3 0xBE1 JUMP JUMPDEST POP DUP7 PUSH1 0x3 SWAP1 DUP2 PUSH3 0xA2 SWAP2 SWAP1 PUSH3 0xBE1 JUMP JUMPDEST POP DUP6 PUSH1 0x4 SWAP1 DUP2 PUSH3 0xB4 SWAP2 SWAP1 PUSH3 0xBE1 JUMP JUMPDEST POP DUP5 PUSH1 0x6 DUP2 SWAP1 SSTORE POP DUP4 PUSH1 0x7 DUP2 SWAP1 SSTORE POP DUP3 PUSH1 0x0 DUP1 PUSH2 0x100 EXP DUP2 SLOAD DUP2 PUSH20 0xFFFFFFFFFFFFFFFFFFFFFFFFFFFFFFFFFFFFFFFF MUL NOT AND SWAP1 DUP4 PUSH20 0xFFFFFFFFFFFFFFFFFFFFFFFFFFFFFFFFFFFFFFFF AND MUL OR SWAP1 SSTORE POP PUSH1 0x40 MLOAD DUP1 PUSH1 0x40 ADD PUSH1 0x40 MSTORE DUP1 PUSH1 0x7 DUP2 MSTORE PUSH1 0x20 ADD PUSH32 0x6F6E676F696E6700000000000000000000000000000000000000000000000000 DUP2 MSTORE POP PUSH1 0xC SWAP1 DUP2 PUSH3 0x149 SWAP2 SWAP1 PUSH3 0xBE1 JUMP JUMPDEST POP DUP2 PUSH1 0x10 SWAP1 DUP1 MLOAD SWAP1 PUSH1 0x20 ADD SWAP1 PUSH3 0x162 SWAP3 SWAP2 SWAP1 PUSH3 0x2B4 JUMP JUMPDEST POP DUP1 PUSH1 0x11 SWAP1 DUP1 MLOAD SWAP1 PUSH1 0x20 ADD SWAP1 PUSH3 0x17B SWAP3 SWAP2 SWAP1 PUSH3 0x314 JUMP JUMPDEST POP PUSH1 0x0 DUP10 SUB PUSH3 0x1B9 JUMPI PUSH1 0x0 PUSH1 0xB PUSH1 0x0 PUSH2 0x100 EXP DUP2 SLOAD DUP2 PUSH1 0xFF MUL NOT AND SWAP1 DUP4 PUSH1 0x1 DUP2 GT ISZERO PUSH3 0x1AE JUMPI PUSH3 0x1AD PUSH3 0xCC8 JUMP JUMPDEST JUMPDEST MUL OR SWAP1 SSTORE POP PUSH3 0x23F JUMP JUMPDEST PUSH1 0x1 DUP10 SUB PUSH3 0x1F6 JUMPI PUSH1 0x1 PUSH1 0xB PUSH1 0x0 PUSH2 0x100 EXP DUP2 SLOAD DUP2 PUSH1 0xFF MUL NOT AND SWAP1 DUP4 PUSH1 0x1 DUP2 GT ISZERO PUSH3 0x1EB JUMPI PUSH3 0x1EA PUSH3 0xCC8 JUMP JUMPDEST JUMPDEST MUL OR SWAP1 SSTORE POP PUSH3 0x23E JUMP JUMPDEST PUSH1 0x0 PUSH1 0xB PUSH1 0x0 PUSH2 0x100 EXP DUP2 SLOAD DUP2 PUSH1 0xFF MUL NOT AND SWAP1 DUP4 PUSH1 0x1 DUP2 GT ISZERO PUSH3 0x21F JUMPI PUSH3 0x21E PUSH3 0xCC8 JUMP JUMPDEST JUMPDEST MUL OR SWAP1 SSTORE POP DUP1 PUSH1 0x11 SWAP1 DUP1 MLOAD SWAP1 PUSH1 0x20 ADD SWAP1 PUSH3 0x23C SWAP3 SWAP2 SWAP1 PUSH3 0x314 JUMP JUMPDEST POP JUMPDEST JUMPDEST PUSH1 0x40 MLOAD PUSH3 0x24D SWAP1 PUSH3 0xD52 JUMP JUMPDEST PUSH1 0x40 MLOAD DUP1 SWAP2 SUB SWAP1 KECCAK256 PUSH32 0xA67532DCC08DBEAD4844050ED91D163C1B8475DC22009F71809F44F6D3CA0594 DUP13 DUP11 DUP11 DUP15 PUSH1 0x0 DUP1 DUP9 DUP11 PUSH1 0x0 PUSH1 0xF PUSH1 0x40 MLOAD PUSH3 0x29B SWAP11 SWAP10 SWAP9 SWAP8 SWAP7 SWAP6 SWAP5 SWAP4 SWAP3 SWAP2 SWAP1 PUSH3 0x119C JUMP JUMPDEST PUSH1 0x40 MLOAD DUP1 SWAP2 SUB SWAP1 LOG2 POP POP POP POP POP POP POP POP POP POP POP PUSH3 0x1285 JUMP JUMPDEST DUP3 DUP1 SLOAD DUP3 DUP3 SSTORE SWAP1 PUSH1 0x0 MSTORE PUSH1 0x20 PUSH1 0x0 KECCAK256 SWAP1 DUP2 ADD SWAP3 DUP3 ISZERO PUSH3 0x301 JUMPI SWAP2 PUSH1 0x20 MUL DUP3 ADD JUMPDEST DUP3 DUP2 GT ISZERO PUSH3 0x300 JUMPI DUP3 MLOAD DUP3 SWAP1 DUP2 PUSH3 0x2EF SWAP2 SWAP1 PUSH3 0xBE1 JUMP JUMPDEST POP SWAP2 PUSH1 0x20 ADD SWAP2 SWAP1 PUSH1 0x1 ADD SWAP1 PUSH3 0x2D5 JUMP JUMPDEST JUMPDEST POP SWAP1 POP PUSH3 0x310 SWAP2 SWAP1 PUSH3 0x366 JUMP JUMPDEST POP SWAP1 JUMP JUMPDEST DUP3 DUP1 SLOAD DUP3 DUP3 SSTORE SWAP1 PUSH1 0x0 MSTORE PUSH1 0x20 PUSH1 0x0 KECCAK256 SWAP1 DUP2 ADD SWAP3 DUP3 ISZERO PUSH3 0x353 JUMPI SWAP2 PUSH1 0x20 MUL DUP3 ADD JUMPDEST DUP3 DUP2 GT ISZERO PUSH3 0x352 JUMPI DUP3 MLOAD DUP3 SSTORE SWAP2 PUSH1 0x20 ADD SWAP2 SWAP1 PUSH1 0x1 ADD SWAP1 PUSH3 0x335 JUMP JUMPDEST JUMPDEST POP SWAP1 POP PUSH3 0x362 SWAP2 SWAP1 PUSH3 0x38E JUMP JUMPDEST POP SWAP1 JUMP JUMPDEST JUMPDEST DUP1 DUP3 GT ISZERO PUSH3 0x38A JUMPI PUSH1 0x0 DUP2 DUP2 PUSH3 0x380 SWAP2 SWAP1 PUSH3 0x3AD JUMP JUMPDEST POP PUSH1 0x1 ADD PUSH3 0x367 JUMP JUMPDEST POP SWAP1 JUMP JUMPDEST JUMPDEST DUP1 DUP3 GT ISZERO PUSH3 0x3A9 JUMPI PUSH1 0x0 DUP2 PUSH1 0x0 SWAP1 SSTORE POP PUSH1 0x1 ADD PUSH3 0x38F JUMP JUMPDEST POP SWAP1 JUMP JUMPDEST POP DUP1 SLOAD PUSH3 0x3BB SWAP1 PUSH3 0x9DA JUMP JUMPDEST PUSH1 0x0 DUP3 SSTORE DUP1 PUSH1 0x1F LT PUSH3 0x3CF JUMPI POP PUSH3 0x3F0 JUMP JUMPDEST PUSH1 0x1F ADD PUSH1 0x20 SWAP1 DIV SWAP1 PUSH1 0x0 MSTORE PUSH1 0x20 PUSH1 0x0 KECCAK256 SWAP1 DUP2 ADD SWAP1 PUSH3 0x3EF SWAP2 SWAP1 PUSH3 0x38E JUMP JUMPDEST JUMPDEST POP JUMP JUMPDEST PUSH1 0x0 PUSH1 0x40 MLOAD SWAP1 POP SWAP1 JUMP JUMPDEST PUSH1 0x0 DUP1 REVERT JUMPDEST PUSH1 0x0 DUP1 REVERT JUMPDEST PUSH1 0x0 PUSH20 0xFFFFFFFFFFFFFFFFFFFFFFFFFFFFFFFFFFFFFFFF DUP3 AND SWAP1 POP SWAP2 SWAP1 POP JUMP JUMPDEST PUSH1 0x0 PUSH3 0x434 DUP3 PUSH3 0x407 JUMP JUMPDEST SWAP1 POP SWAP2 SWAP1 POP JUMP JUMPDEST PUSH3 0x446 DUP2 PUSH3 0x427 JUMP JUMPDEST DUP2 EQ PUSH3 0x452 JUMPI PUSH1 0x0 DUP1 REVERT JUMPDEST POP JUMP JUMPDEST PUSH1 0x0 DUP2 MLOAD SWAP1 POP PUSH3 0x466 DUP2 PUSH3 0x43B JUMP JUMPDEST SWAP3 SWAP2 POP POP JUMP JUMPDEST PUSH1 0x0 DUP2 SWAP1 POP SWAP2 SWAP1 POP JUMP JUMPDEST PUSH3 0x481 DUP2 PUSH3 0x46C JUMP JUMPDEST DUP2 EQ PUSH3 0x48D JUMPI PUSH1 0x0 DUP1 REVERT JUMPDEST POP JUMP JUMPDEST PUSH1 0x0 DUP2 MLOAD SWAP1 POP PUSH3 0x4A1 DUP2 PUSH3 0x476 JUMP JUMPDEST SWAP3 SWAP2 POP POP JUMP JUMPDEST PUSH1 0x0 DUP1 REVERT JUMPDEST PUSH1 0x0 DUP1 REVERT JUMPDEST PUSH1 0x0 PUSH1 0x1F NOT PUSH1 0x1F DUP4 ADD AND SWAP1 POP SWAP2 SWAP1 POP JUMP JUMPDEST PUSH32 0x4E487B7100000000000000000000000000000000000000000000000000000000 PUSH1 0x0 MSTORE PUSH1 0x41 PUSH1 0x4 MSTORE PUSH1 0x24 PUSH1 0x0 REVERT JUMPDEST PUSH3 0x4FC DUP3 PUSH3 0x4B1 JUMP JUMPDEST DUP2 ADD DUP2 DUP2 LT PUSH8 0xFFFFFFFFFFFFFFFF DUP3 GT OR ISZERO PUSH3 0x51E JUMPI PUSH3 0x51D PUSH3 0x4C2 JUMP JUMPDEST JUMPDEST DUP1 PUSH1 0x40 MSTORE POP POP POP JUMP JUMPDEST PUSH1 0x0 PUSH3 0x533 PUSH3 0x3F3 JUMP JUMPDEST SWAP1 POP PUSH3 0x541 DUP3 DUP3 PUSH3 0x4F1 JUMP JUMPDEST SWAP2 SWAP1 POP JUMP JUMPDEST PUSH1 0x0 PUSH8 0xFFFFFFFFFFFFFFFF DUP3 GT ISZERO PUSH3 0x564 JUMPI PUSH3 0x563 PUSH3 0x4C2 JUMP JUMPDEST JUMPDEST PUSH3 0x56F DUP3 PUSH3 0x4B1 JUMP JUMPDEST SWAP1 POP PUSH1 0x20 DUP2 ADD SWAP1 POP SWAP2 SWAP1 POP JUMP JUMPDEST PUSH1 0x0 JUMPDEST DUP4 DUP2 LT ISZERO PUSH3 0x59C JUMPI DUP1 DUP3 ADD MLOAD DUP2 DUP5 ADD MSTORE PUSH1 0x20 DUP2 ADD SWAP1 POP PUSH3 0x57F JUMP JUMPDEST PUSH1 0x0 DUP5 DUP5 ADD MSTORE POP POP POP POP JUMP JUMPDEST PUSH1 0x0 PUSH3 0x5BF PUSH3 0x5B9 DUP5 PUSH3 0x546 JUMP JUMPDEST PUSH3 0x527 JUMP JUMPDEST SWAP1 POP DUP3 DUP2 MSTORE PUSH1 0x20 DUP2 ADD DUP5 DUP5 DUP5 ADD GT ISZERO PUSH3 0x5DE JUMPI PUSH3 0x5DD PUSH3 0x4AC JUMP JUMPDEST JUMPDEST PUSH3 0x5EB DUP5 DUP3 DUP6 PUSH3 0x57C JUMP JUMPDEST POP SWAP4 SWAP3 POP POP POP JUMP JUMPDEST PUSH1 0x0 DUP3 PUSH1 0x1F DUP4 ADD SLT PUSH3 0x60B JUMPI PUSH3 0x60A PUSH3 0x4A7 JUMP JUMPDEST JUMPDEST DUP2 MLOAD PUSH3 0x61D DUP5 DUP3 PUSH1 0x20 DUP7 ADD PUSH3 0x5A8 JUMP JUMPDEST SWAP2 POP POP SWAP3 SWAP2 POP POP JUMP JUMPDEST PUSH1 0x0 PUSH8 0xFFFFFFFFFFFFFFFF DUP3 GT ISZERO PUSH3 0x644 JUMPI PUSH3 0x643 PUSH3 0x4C2 JUMP JUMPDEST JUMPDEST PUSH1 0x20 DUP3 MUL SWAP1 POP PUSH1 0x20 DUP2 ADD SWAP1 POP SWAP2 SWAP1 POP JUMP JUMPDEST PUSH1 0x0 DUP1 REVERT JUMPDEST PUSH1 0x0 PUSH3 0x671 PUSH3 0x66B DUP5 PUSH3 0x626 JUMP JUMPDEST PUSH3 0x527 JUMP JUMPDEST SWAP1 POP DUP1 DUP4 DUP3 MSTORE PUSH1 0x20 DUP3 ADD SWAP1 POP PUSH1 0x20 DUP5 MUL DUP4 ADD DUP6 DUP2 GT ISZERO PUSH3 0x697 JUMPI PUSH3 0x696 PUSH3 0x655 JUMP JUMPDEST JUMPDEST DUP4 JUMPDEST DUP2 DUP2 LT ISZERO PUSH3 0x6E5 JUMPI DUP1 MLOAD PUSH8 0xFFFFFFFFFFFFFFFF DUP2 GT ISZERO PUSH3 0x6C0 JUMPI PUSH3 0x6BF PUSH3 0x4A7 JUMP JUMPDEST JUMPDEST DUP1 DUP7 ADD PUSH3 0x6CF DUP10 DUP3 PUSH3 0x5F3 JUMP JUMPDEST DUP6 MSTORE PUSH1 0x20 DUP6 ADD SWAP5 POP POP POP PUSH1 0x20 DUP2 ADD SWAP1 POP PUSH3 0x699 JUMP JUMPDEST POP POP POP SWAP4 SWAP3 POP POP POP JUMP JUMPDEST PUSH1 0x0 DUP3 PUSH1 0x1F DUP4 ADD SLT PUSH3 0x707 JUMPI PUSH3 0x706 PUSH3 0x4A7 JUMP JUMPDEST JUMPDEST DUP2 MLOAD PUSH3 0x719 DUP5 DUP3 PUSH1 0x20 DUP7 ADD PUSH3 0x65A JUMP JUMPDEST SWAP2 POP POP SWAP3 SWAP2 POP POP JUMP JUMPDEST PUSH1 0x0 PUSH8 0xFFFFFFFFFFFFFFFF DUP3 GT ISZERO PUSH3 0x740 JUMPI PUSH3 0x73F PUSH3 0x4C2 JUMP JUMPDEST JUMPDEST PUSH1 0x20 DUP3 MUL SWAP1 POP PUSH1 0x20 DUP2 ADD SWAP1 POP SWAP2 SWAP1 POP JUMP JUMPDEST PUSH1 0x0 PUSH3 0x768 PUSH3 0x762 DUP5 PUSH3 0x722 JUMP JUMPDEST PUSH3 0x527 JUMP JUMPDEST SWAP1 POP DUP1 DUP4 DUP3 MSTORE PUSH1 0x20 DUP3 ADD SWAP1 POP PUSH1 0x20 DUP5 MUL DUP4 ADD DUP6 DUP2 GT ISZERO PUSH3 0x78E JUMPI PUSH3 0x78D PUSH3 0x655 JUMP JUMPDEST JUMPDEST DUP4 JUMPDEST DUP2 DUP2 LT ISZERO PUSH3 0x7BB JUMPI DUP1 PUSH3 0x7A6 DUP9 DUP3 PUSH3 0x490 JUMP JUMPDEST DUP5 MSTORE PUSH1 0x20 DUP5 ADD SWAP4 POP POP PUSH1 0x20 DUP2 ADD SWAP1 POP PUSH3 0x790 JUMP JUMPDEST POP POP POP SWAP4 SWAP3 POP POP POP JUMP JUMPDEST PUSH1 0x0 DUP3 PUSH1 0x1F DUP4 ADD SLT PUSH3 0x7DD JUMPI PUSH3 0x7DC PUSH3 0x4A7 JUMP JUMPDEST JUMPDEST DUP2 MLOAD PUSH3 0x7EF DUP5 DUP3 PUSH1 0x20 DUP7 ADD PUSH3 0x751 JUMP JUMPDEST SWAP2 POP POP SWAP3 SWAP2 POP POP JUMP JUMPDEST PUSH1 0x0 DUP1 PUSH1 0x0 DUP1 PUSH1 0x0 DUP1 PUSH1 0x0 DUP1 PUSH1 0x0 DUP1 PUSH1 0x0 PUSH2 0x160 DUP13 DUP15 SUB SLT ISZERO PUSH3 0x821 JUMPI PUSH3 0x820 PUSH3 0x3FD JUMP JUMPDEST JUMPDEST PUSH1 0x0 PUSH3 0x831 DUP15 DUP3 DUP16 ADD PUSH3 0x455 JUMP JUMPDEST SWAP12 POP POP PUSH1 0x20 PUSH3 0x844 DUP15 DUP3 DUP16 ADD PUSH3 0x490 JUMP JUMPDEST SWAP11 POP POP PUSH1 0x40 PUSH3 0x857 DUP15 DUP3 DUP16 ADD PUSH3 0x490 JUMP JUMPDEST SWAP10 POP POP PUSH1 0x60 DUP13 ADD MLOAD PUSH8 0xFFFFFFFFFFFFFFFF DUP2 GT ISZERO PUSH3 0x87B JUMPI PUSH3 0x87A PUSH3 0x402 JUMP JUMPDEST JUMPDEST PUSH3 0x889 DUP15 DUP3 DUP16 ADD PUSH3 0x5F3 JUMP JUMPDEST SWAP9 POP POP PUSH1 0x80 DUP13 ADD MLOAD PUSH8 0xFFFFFFFFFFFFFFFF DUP2 GT ISZERO PUSH3 0x8AD JUMPI PUSH3 0x8AC PUSH3 0x402 JUMP JUMPDEST JUMPDEST PUSH3 0x8BB DUP15 DUP3 DUP16 ADD PUSH3 0x5F3 JUMP JUMPDEST SWAP8 POP POP PUSH1 0xA0 DUP13 ADD MLOAD PUSH8 0xFFFFFFFFFFFFFFFF DUP2 GT ISZERO PUSH3 0x8DF JUMPI PUSH3 0x8DE PUSH3 0x402 JUMP JUMPDEST JUMPDEST PUSH3 0x8ED DUP15 DUP3 DUP16 ADD PUSH3 0x5F3 JUMP JUMPDEST SWAP7 POP POP PUSH1 0xC0 PUSH3 0x900 DUP15 DUP3 DUP16 ADD PUSH3 0x490 JUMP JUMPDEST SWAP6 POP POP PUSH1 0xE0 PUSH3 0x913 DUP15 DUP3 DUP16 ADD PUSH3 0x490 JUMP JUMPDEST SWAP5 POP POP PUSH2 0x100 PUSH3 0x927 DUP15 DUP3 DUP16 ADD PUSH3 0x455 JUMP JUMPDEST SWAP4 POP POP PUSH2 0x120 DUP13 ADD MLOAD PUSH8 0xFFFFFFFFFFFFFFFF DUP2 GT ISZERO PUSH3 0x94C JUMPI PUSH3 0x94B PUSH3 0x402 JUMP JUMPDEST JUMPDEST PUSH3 0x95A DUP15 DUP3 DUP16 ADD PUSH3 0x6EF JUMP JUMPDEST SWAP3 POP POP PUSH2 0x140 DUP13 ADD MLOAD PUSH8 0xFFFFFFFFFFFFFFFF DUP2 GT ISZERO PUSH3 0x97F JUMPI PUSH3 0x97E PUSH3 0x402 JUMP JUMPDEST JUMPDEST PUSH3 0x98D DUP15 DUP3 DUP16 ADD PUSH3 0x7C5 JUMP JUMPDEST SWAP2 POP POP SWAP3 SWAP6 SWAP9 SWAP12 POP SWAP3 SWAP6 SWAP9 SWAP12 SWAP1 SWAP4 SWAP7 SWAP10 POP JUMP JUMPDEST PUSH1 0x0 DUP2 MLOAD SWAP1 POP SWAP2 SWAP1 POP JUMP JUMPDEST PUSH32 0x4E487B7100000000000000000000000000000000000000000000000000000000 PUSH1 0x0 MSTORE PUSH1 0x22 PUSH1 0x4 MSTORE PUSH1 0x24 PUSH1 0x0 REVERT JUMPDEST PUSH1 0x0 PUSH1 0x2 DUP3 DIV SWAP1 POP PUSH1 0x1 DUP3 AND DUP1 PUSH3 0x9F3 JUMPI PUSH1 0x7F DUP3 AND SWAP2 POP JUMPDEST PUSH1 0x20 DUP3 LT DUP2 SUB PUSH3 0xA09 JUMPI PUSH3 0xA08 PUSH3 0x9AB JUMP JUMPDEST JUMPDEST POP SWAP2 SWAP1 POP JUMP JUMPDEST PUSH1 0x0 DUP2 SWAP1 POP DUP2 PUSH1 0x0 MSTORE PUSH1 0x20 PUSH1 0x0 KECCAK256 SWAP1 POP SWAP2 SWAP1 POP JUMP JUMPDEST PUSH1 0x0 PUSH1 0x20 PUSH1 0x1F DUP4 ADD DIV SWAP1 POP SWAP2 SWAP1 POP JUMP JUMPDEST PUSH1 0x0 DUP3 DUP3 SHL SWAP1 POP SWAP3 SWAP2 POP POP JUMP JUMPDEST PUSH1 0x0 PUSH1 0x8 DUP4 MUL PUSH3 0xA73 PUSH32 0xFFFFFFFFFFFFFFFFFFFFFFFFFFFFFFFFFFFFFFFFFFFFFFFFFFFFFFFFFFFFFFFF DUP3 PUSH3 0xA34 JUMP JUMPDEST PUSH3 0xA7F DUP7 DUP4 PUSH3 0xA34 JUMP JUMPDEST SWAP6 POP DUP1 NOT DUP5 AND SWAP4 POP DUP1 DUP7 AND DUP5 OR SWAP3 POP POP POP SWAP4 SWAP3 POP POP POP JUMP JUMPDEST PUSH1 0x0 DUP2 SWAP1 POP SWAP2 SWAP1 POP JUMP JUMPDEST PUSH1 0x0 PUSH3 0xAC2 PUSH3 0xABC PUSH3 0xAB6 DUP5 PUSH3 0x46C JUMP JUMPDEST PUSH3 0xA97 JUMP JUMPDEST PUSH3 0x46C JUMP JUMPDEST SWAP1 POP SWAP2 SWAP1 POP JUMP JUMPDEST PUSH1 0x0 DUP2 SWAP1 POP SWAP2 SWAP1 POP JUMP JUMPDEST PUSH3 0xADE DUP4 PUSH3 0xAA1 JUMP JUMPDEST PUSH3 0xAF6 PUSH3 0xAED DUP3 PUSH3 0xAC9 JUMP JUMPDEST DUP5 DUP5 SLOAD PUSH3 0xA41 JUMP JUMPDEST DUP3 SSTORE POP POP POP POP JUMP JUMPDEST PUSH1 0x0 SWAP1 JUMP JUMPDEST PUSH3 0xB0D PUSH3 0xAFE JUMP JUMPDEST PUSH3 0xB1A DUP2 DUP5 DUP5 PUSH3 0xAD3 JUMP JUMPDEST POP POP POP JUMP JUMPDEST JUMPDEST DUP2 DUP2 LT ISZERO PUSH3 0xB42 JUMPI PUSH3 0xB36 PUSH1 0x0 DUP3 PUSH3 0xB03 JUMP JUMPDEST PUSH1 0x1 DUP2 ADD SWAP1 POP PUSH3 0xB20 JUMP JUMPDEST POP POP JUMP JUMPDEST PUSH1 0x1F DUP3 GT ISZERO PUSH3 0xB91 JUMPI PUSH3 0xB5B DUP2 PUSH3 0xA0F JUMP JUMPDEST PUSH3 0xB66 DUP5 PUSH3 0xA24 JUMP JUMPDEST DUP2 ADD PUSH1 0x20 DUP6 LT ISZERO PUSH3 0xB76 JUMPI DUP2 SWAP1 POP JUMPDEST PUSH3 0xB8E PUSH3 0xB85 DUP6 PUSH3 0xA24 JUMP JUMPDEST DUP4 ADD DUP3 PUSH3 0xB1F JUMP JUMPDEST POP POP JUMPDEST POP POP POP JUMP JUMPDEST PUSH1 0x0 DUP3 DUP3 SHR SWAP1 POP SWAP3 SWAP2 POP POP JUMP JUMPDEST PUSH1 0x0 PUSH3 0xBB6 PUSH1 0x0 NOT DUP5 PUSH1 0x8 MUL PUSH3 0xB96 JUMP JUMPDEST NOT DUP1 DUP4 AND SWAP2 POP POP SWAP3 SWAP2 POP POP JUMP JUMPDEST PUSH1 0x0 PUSH3 0xBD1 DUP4 DUP4 PUSH3 0xBA3 JUMP JUMPDEST SWAP2 POP DUP3 PUSH1 0x2 MUL DUP3 OR SWAP1 POP SWAP3 SWAP2 POP POP JUMP JUMPDEST PUSH3 0xBEC DUP3 PUSH3 0x9A0 JUMP JUMPDEST PUSH8 0xFFFFFFFFFFFFFFFF DUP2 GT ISZERO PUSH3 0xC08 JUMPI PUSH3 0xC07 PUSH3 0x4C2 JUMP JUMPDEST JUMPDEST PUSH3 0xC14 DUP3 SLOAD PUSH3 0x9DA JUMP JUMPDEST PUSH3 0xC21 DUP3 DUP3 DUP6 PUSH3 0xB46 JUMP JUMPDEST PUSH1 0x0 PUSH1 0x20 SWAP1 POP PUSH1 0x1F DUP4 GT PUSH1 0x1 DUP2 EQ PUSH3 0xC59 JUMPI PUSH1 0x0 DUP5 ISZERO PUSH3 0xC44 JUMPI DUP3 DUP8 ADD MLOAD SWAP1 POP JUMPDEST PUSH3 0xC50 DUP6 DUP3 PUSH3 0xBC3 JUMP JUMPDEST DUP7 SSTORE POP PUSH3 0xCC0 JUMP JUMPDEST PUSH1 0x1F NOT DUP5 AND PUSH3 0xC69 DUP7 PUSH3 0xA0F JUMP JUMPDEST PUSH1 0x0 JUMPDEST DUP3 DUP2 LT ISZERO PUSH3 0xC93 JUMPI DUP5 DUP10 ADD MLOAD DUP3 SSTORE PUSH1 0x1 DUP3 ADD SWAP2 POP PUSH1 0x20 DUP6 ADD SWAP5 POP PUSH1 0x20 DUP2 ADD SWAP1 POP PUSH3 0xC6C JUMP JUMPDEST DUP7 DUP4 LT ISZERO PUSH3 0xCB3 JUMPI DUP5 DUP10 ADD MLOAD PUSH3 0xCAF PUSH1 0x1F DUP10 AND DUP3 PUSH3 0xBA3 JUMP JUMPDEST DUP4 SSTORE POP JUMPDEST PUSH1 0x1 PUSH1 0x2 DUP9 MUL ADD DUP9 SSTORE POP POP POP JUMPDEST POP POP POP POP POP POP JUMP JUMPDEST PUSH32 0x4E487B7100000000000000000000000000000000000000000000000000000000 PUSH1 0x0 MSTORE PUSH1 0x21 PUSH1 0x4 MSTORE PUSH1 0x24 PUSH1 0x0 REVERT JUMPDEST PUSH1 0x0 DUP2 SWAP1 POP SWAP3 SWAP2 POP POP JUMP JUMPDEST PUSH32 0x636F6E7472616374646174610000000000000000000000000000000000000000 PUSH1 0x0 DUP3 ADD MSTORE POP JUMP JUMPDEST PUSH1 0x0 PUSH3 0xD3A PUSH1 0xC DUP4 PUSH3 0xCF7 JUMP JUMPDEST SWAP2 POP PUSH3 0xD47 DUP3 PUSH3 0xD02 JUMP JUMPDEST PUSH1 0xC DUP3 ADD SWAP1 POP SWAP2 SWAP1 POP JUMP JUMPDEST PUSH1 0x0 PUSH3 0xD5F DUP3 PUSH3 0xD2B JUMP JUMPDEST SWAP2 POP DUP2 SWAP1 POP SWAP2 SWAP1 POP JUMP JUMPDEST PUSH3 0xD74 DUP2 PUSH3 0x427 JUMP JUMPDEST DUP3 MSTORE POP POP JUMP JUMPDEST PUSH1 0x0 DUP3 DUP3 MSTORE PUSH1 0x20 DUP3 ADD SWAP1 POP SWAP3 SWAP2 POP POP JUMP JUMPDEST PUSH1 0x0 PUSH3 0xD98 DUP3 PUSH3 0x9A0 JUMP JUMPDEST PUSH3 0xDA4 DUP2 DUP6 PUSH3 0xD7A JUMP JUMPDEST SWAP4 POP PUSH3 0xDB6 DUP2 DUP6 PUSH1 0x20 DUP7 ADD PUSH3 0x57C JUMP JUMPDEST PUSH3 0xDC1 DUP2 PUSH3 0x4B1 JUMP JUMPDEST DUP5 ADD SWAP2 POP POP SWAP3 SWAP2 POP POP JUMP JUMPDEST PUSH3 0xDD7 DUP2 PUSH3 0x46C JUMP JUMPDEST DUP3 MSTORE POP POP JUMP JUMPDEST PUSH1 0x0 DUP2 SWAP1 POP SWAP2 SWAP1 POP JUMP JUMPDEST PUSH1 0x0 PUSH3 0xE08 PUSH3 0xE02 PUSH3 0xDFC DUP5 PUSH3 0xDDD JUMP JUMPDEST PUSH3 0xA97 JUMP JUMPDEST PUSH3 0x46C JUMP JUMPDEST SWAP1 POP SWAP2 SWAP1 POP JUMP JUMPDEST PUSH3 0xE1A DUP2 PUSH3 0xDE7 JUMP JUMPDEST DUP3 MSTORE POP POP JUMP JUMPDEST PUSH32 0x6F6E676F696E6700000000000000000000000000000000000000000000000000 PUSH1 0x0 DUP3 ADD MSTORE POP JUMP JUMPDEST PUSH1 0x0 PUSH3 0xE58 PUSH1 0x7 DUP4 PUSH3 0xD7A JUMP JUMPDEST SWAP2 POP PUSH3 0xE65 DUP3 PUSH3 0xE20 JUMP JUMPDEST PUSH1 0x20 DUP3 ADD SWAP1 POP SWAP2 SWAP1 POP JUMP JUMPDEST PUSH1 0x0 DUP2 MLOAD SWAP1 POP SWAP2 SWAP1 POP JUMP JUMPDEST PUSH1 0x0 DUP3 DUP3 MSTORE PUSH1 0x20 DUP3 ADD SWAP1 POP SWAP3 SWAP2 POP POP JUMP JUMPDEST PUSH1 0x0 DUP2 SWAP1 POP PUSH1 0x20 DUP3 ADD SWAP1 POP SWAP2 SWAP1 POP JUMP JUMPDEST PUSH3 0xEA7 DUP2 PUSH3 0x46C JUMP JUMPDEST DUP3 MSTORE POP POP JUMP JUMPDEST PUSH1 0x0 PUSH3 0xEBB DUP4 DUP4 PUSH3 0xE9C JUMP JUMPDEST PUSH1 0x20 DUP4 ADD SWAP1 POP SWAP3 SWAP2 POP POP JUMP JUMPDEST PUSH1 0x0 PUSH1 0x20 DUP3 ADD SWAP1 POP SWAP2 SWAP1 POP JUMP JUMPDEST PUSH1 0x0 PUSH3 0xEE1 DUP3 PUSH3 0xE70 JUMP JUMPDEST PUSH3 0xEED DUP2 DUP6 PUSH3 0xE7B JUMP JUMPDEST SWAP4 POP PUSH3 0xEFA DUP4 PUSH3 0xE8C JUMP JUMPDEST DUP1 PUSH1 0x0 JUMPDEST DUP4 DUP2 LT ISZERO PUSH3 0xF31 JUMPI DUP2 MLOAD PUSH3 0xF15 DUP9 DUP3 PUSH3 0xEAD JUMP JUMPDEST SWAP8 POP PUSH3 0xF22 DUP4 PUSH3 0xEC7 JUMP JUMPDEST SWAP3 POP POP PUSH1 0x1 DUP2 ADD SWAP1 POP PUSH3 0xEFE JUMP JUMPDEST POP DUP6 SWAP4 POP POP POP POP SWAP3 SWAP2 POP POP JUMP JUMPDEST PUSH1 0x0 DUP2 MLOAD SWAP1 POP SWAP2 SWAP1 POP JUMP JUMPDEST PUSH1 0x0 DUP3 DUP3 MSTORE PUSH1 0x20 DUP3 ADD SWAP1 POP SWAP3 SWAP2 POP POP JUMP JUMPDEST PUSH1 0x0 DUP2 SWAP1 POP PUSH1 0x20 DUP3 ADD SWAP1 POP SWAP2 SWAP1 POP JUMP JUMPDEST PUSH1 0x0 DUP3 DUP3 MSTORE PUSH1 0x20 DUP3 ADD SWAP1 POP SWAP3 SWAP2 POP POP JUMP JUMPDEST PUSH1 0x0 PUSH3 0xF88 DUP3 PUSH3 0x9A0 JUMP JUMPDEST PUSH3 0xF94 DUP2 DUP6 PUSH3 0xF6A JUMP JUMPDEST SWAP4 POP PUSH3 0xFA6 DUP2 DUP6 PUSH1 0x20 DUP7 ADD PUSH3 0x57C JUMP JUMPDEST PUSH3 0xFB1 DUP2 PUSH3 0x4B1 JUMP JUMPDEST DUP5 ADD SWAP2 POP POP SWAP3 SWAP2 POP POP JUMP JUMPDEST PUSH1 0x0 PUSH3 0xFCA DUP4 DUP4 PUSH3 0xF7B JUMP JUMPDEST SWAP1 POP SWAP3 SWAP2 POP POP JUMP JUMPDEST PUSH1 0x0 PUSH1 0x20 DUP3 ADD SWAP1 POP SWAP2 SWAP1 POP JUMP JUMPDEST PUSH1 0x0 PUSH3 0xFEC DUP3 PUSH3 0xF3E JUMP JUMPDEST PUSH3 0xFF8 DUP2 DUP6 PUSH3 0xF49 JUMP JUMPDEST SWAP4 POP DUP4 PUSH1 0x20 DUP3 MUL DUP6 ADD PUSH3 0x100C DUP6 PUSH3 0xF5A JUMP JUMPDEST DUP1 PUSH1 0x0 JUMPDEST DUP6 DUP2 LT ISZERO PUSH3 0x104E JUMPI DUP5 DUP5 SUB DUP10 MSTORE DUP2 MLOAD PUSH3 0x102C DUP6 DUP3 PUSH3 0xFBC JUMP JUMPDEST SWAP5 POP PUSH3 0x1039 DUP4 PUSH3 0xFD2 JUMP JUMPDEST SWAP3 POP PUSH1 0x20 DUP11 ADD SWAP10 POP POP PUSH1 0x1 DUP2 ADD SWAP1 POP PUSH3 0x1010 JUMP JUMPDEST POP DUP3 SWAP8 POP DUP8 SWAP6 POP POP POP POP POP POP SWAP3 SWAP2 POP POP JUMP JUMPDEST PUSH1 0x0 DUP2 SLOAD SWAP1 POP SWAP2 SWAP1 POP JUMP JUMPDEST PUSH1 0x0 DUP3 DUP3 MSTORE PUSH1 0x20 DUP3 ADD SWAP1 POP SWAP3 SWAP2 POP POP JUMP JUMPDEST PUSH1 0x0 DUP2 SWAP1 POP DUP2 PUSH1 0x0 MSTORE PUSH1 0x20 PUSH1 0x0 KECCAK256 SWAP1 POP SWAP2 SWAP1 POP JUMP JUMPDEST PUSH3 0x109C DUP2 PUSH3 0x427 JUMP JUMPDEST DUP3 MSTORE POP POP JUMP JUMPDEST PUSH1 0x0 PUSH3 0x10B0 DUP4 DUP4 PUSH3 0x1091 JUMP JUMPDEST PUSH1 0x20 DUP4 ADD SWAP1 POP SWAP3 SWAP2 POP POP JUMP JUMPDEST PUSH1 0x0 DUP2 PUSH1 0x0 SHR SWAP1 POP SWAP2 SWAP1 POP JUMP JUMPDEST PUSH1 0x0 PUSH20 0xFFFFFFFFFFFFFFFFFFFFFFFFFFFFFFFFFFFFFFFF DUP3 AND SWAP1 POP SWAP2 SWAP1 POP JUMP JUMPDEST PUSH1 0x0 PUSH3 0x1100 PUSH3 0x10FA DUP4 PUSH3 0x10BC JUMP JUMPDEST PUSH3 0x10C9 JUMP JUMPDEST SWAP1 POP SWAP2 SWAP1 POP JUMP JUMPDEST PUSH1 0x0 PUSH3 0x1115 DUP3 SLOAD PUSH3 0x10E9 JUMP JUMPDEST SWAP1 POP SWAP2 SWAP1 POP JUMP JUMPDEST PUSH1 0x0 PUSH1 0x1 DUP3 ADD SWAP1 POP SWAP2 SWAP1 POP JUMP JUMPDEST PUSH1 0x0 PUSH3 0x1136 DUP3 PUSH3 0x1060 JUMP JUMPDEST PUSH3 0x1142 DUP2 DUP6 PUSH3 0x106B JUMP JUMPDEST SWAP4 POP PUSH3 0x114F DUP4 PUSH3 0x107C JUMP JUMPDEST DUP1 PUSH1 0x0 JUMPDEST DUP4 DUP2 LT ISZERO PUSH3 0x118F JUMPI PUSH3 0x1167 DUP3 PUSH3 0x1107 JUMP JUMPDEST PUSH3 0x1173 DUP9 DUP3 PUSH3 0x10A2 JUMP JUMPDEST SWAP8 POP PUSH3 0x1180 DUP4 PUSH3 0x111C JUMP JUMPDEST SWAP3 POP POP PUSH1 0x1 DUP2 ADD SWAP1 POP PUSH3 0x1153 JUMP JUMPDEST POP DUP6 SWAP4 POP POP POP POP SWAP3 SWAP2 POP POP JUMP JUMPDEST PUSH1 0x0 PUSH2 0x160 DUP3 ADD SWAP1 POP PUSH3 0x11B4 PUSH1 0x0 DUP4 ADD DUP14 PUSH3 0xD69 JUMP JUMPDEST DUP2 DUP2 SUB PUSH1 0x20 DUP4 ADD MSTORE PUSH3 0x11C8 DUP2 DUP13 PUSH3 0xD8B JUMP JUMPDEST SWAP1 POP DUP2 DUP2 SUB PUSH1 0x40 DUP4 ADD MSTORE PUSH3 0x11DE DUP2 DUP12 PUSH3 0xD8B JUMP JUMPDEST SWAP1 POP PUSH3 0x11EF PUSH1 0x60 DUP4 ADD DUP11 PUSH3 0xDCC JUMP JUMPDEST PUSH3 0x11FE PUSH1 0x80 DUP4 ADD DUP10 PUSH3 0xE0F JUMP JUMPDEST PUSH3 0x120D PUSH1 0xA0 DUP4 ADD DUP9 PUSH3 0xE0F JUMP JUMPDEST DUP2 DUP2 SUB PUSH1 0xC0 DUP4 ADD MSTORE PUSH3 0x1220 DUP2 PUSH3 0xE49 JUMP JUMPDEST SWAP1 POP DUP2 DUP2 SUB PUSH1 0xE0 DUP4 ADD MSTORE PUSH3 0x1236 DUP2 DUP8 PUSH3 0xED4 JUMP JUMPDEST SWAP1 POP DUP2 DUP2 SUB PUSH2 0x100 DUP4 ADD MSTORE PUSH3 0x124D DUP2 DUP7 PUSH3 0xFDF JUMP JUMPDEST SWAP1 POP PUSH3 0x125F PUSH2 0x120 DUP4 ADD DUP6 PUSH3 0xE0F JUMP JUMPDEST DUP2 DUP2 SUB PUSH2 0x140 DUP4 ADD MSTORE PUSH3 0x1274 DUP2 DUP5 PUSH3 0x1129 JUMP JUMPDEST SWAP1 POP SWAP12 SWAP11 POP POP POP POP POP POP POP POP POP POP POP JUMP JUMPDEST PUSH2 0x2944 DUP1 PUSH3 0x1295 PUSH1 0x0 CODECOPY PUSH1 0x0 RETURN INVALID PUSH1 0x80 PUSH1 0x40 MSTORE PUSH1 0x4 CALLDATASIZE LT PUSH2 0x1E3 JUMPI PUSH1 0x0 CALLDATALOAD PUSH1 0xE0 SHR DUP1 PUSH4 0x9D9CA28D GT PUSH2 0x102 JUMPI DUP1 PUSH4 0xD4A1C122 GT PUSH2 0x95 JUMPI DUP1 PUSH4 0xEEA72994 GT PUSH2 0x64 JUMPI DUP1 PUSH4 0xEEA72994 EQ PUSH2 0x698 JUMPI DUP1 PUSH4 0xEF7429F4 EQ PUSH2 0x6C3 JUMPI DUP1 PUSH4 0xF851A440 EQ PUSH2 0x700 JUMPI DUP1 PUSH4 0xFFF2A30E EQ PUSH2 0x72B JUMPI PUSH2 0x1E3 JUMP JUMPDEST DUP1 PUSH4 0xD4A1C122 EQ PUSH2 0x5FD JUMPI DUP1 PUSH4 0xE326BA70 EQ PUSH2 0x614 JUMPI DUP1 PUSH4 0xE83C236E EQ PUSH2 0x651 JUMPI DUP1 PUSH4 0xEE205884 EQ PUSH2 0x68E JUMPI PUSH2 0x1E3 JUMP JUMPDEST DUP1 PUSH4 0xB90C899D GT PUSH2 0xD1 JUMPI DUP1 PUSH4 0xB90C899D EQ PUSH2 0x555 JUMPI DUP1 PUSH4 0xBE0882A3 EQ PUSH2 0x592 JUMPI DUP1 PUSH4 0xC91E061F EQ PUSH2 0x5BD JUMPI DUP1 PUSH4 0xCD38AA87 EQ PUSH2 0x5E6 JUMPI PUSH2 0x1E3 JUMP JUMPDEST DUP1 PUSH4 0x9D9CA28D EQ PUSH2 0x497 JUMPI DUP1 PUSH4 0xA439BC3A EQ PUSH2 0x4D4 JUMPI DUP1 PUSH4 0xAA8C217C EQ PUSH2 0x4FF JUMPI DUP1 PUSH4 0xB4FF3649 EQ PUSH2 0x52A JUMPI PUSH2 0x1E3 JUMP JUMPDEST DUP1 PUSH4 0x5BB7E10D GT PUSH2 0x17A JUMPI DUP1 PUSH4 0x65D524A1 GT PUSH2 0x149 JUMPI DUP1 PUSH4 0x65D524A1 EQ PUSH2 0x3FA JUMPI DUP1 PUSH4 0x69C53F12 EQ PUSH2 0x425 JUMPI DUP1 PUSH4 0x6C77F989 EQ PUSH2 0x450 JUMPI DUP1 PUSH4 0x8CA400D6 EQ PUSH2 0x45A JUMPI PUSH2 0x1E3 JUMP JUMPDEST DUP1 PUSH4 0x5BB7E10D EQ PUSH2 0x350 JUMPI DUP1 PUSH4 0x5EC01E4D EQ PUSH2 0x379 JUMPI DUP1 PUSH4 0x651F5D18 EQ PUSH2 0x3A4 JUMPI DUP1 PUSH4 0x6586E984 EQ PUSH2 0x3CF JUMPI PUSH2 0x1E3 JUMP JUMPDEST DUP1 PUSH4 0x2A6247E5 GT PUSH2 0x1B6 JUMPI DUP1 PUSH4 0x2A6247E5 EQ PUSH2 0x2A6 JUMPI DUP1 PUSH4 0x3E917152 EQ PUSH2 0x2E3 JUMPI DUP1 PUSH4 0x44BF49A2 EQ PUSH2 0x2FA JUMPI DUP1 PUSH4 0x5686E9F5 EQ PUSH2 0x325 JUMPI PUSH2 0x1E3 JUMP JUMPDEST DUP1 PUSH4 0x2D05D3F EQ PUSH2 0x1E8 JUMPI DUP1 PUSH4 0xB3AF186 EQ PUSH2 0x213 JUMPI DUP1 PUSH4 0xC1934FB EQ PUSH2 0x250 JUMPI DUP1 PUSH4 0x16A5265D EQ PUSH2 0x27B JUMPI JUMPDEST PUSH1 0x0 DUP1 REVERT JUMPDEST CALLVALUE DUP1 ISZERO PUSH2 0x1F4 JUMPI PUSH1 0x0 DUP1 REVERT JUMPDEST POP PUSH2 0x1FD PUSH2 0x768 JUMP JUMPDEST PUSH1 0x40 MLOAD PUSH2 0x20A SWAP2 SWAP1 PUSH2 0x1941 JUMP JUMPDEST PUSH1 0x40 MLOAD DUP1 SWAP2 SUB SWAP1 RETURN JUMPDEST CALLVALUE DUP1 ISZERO PUSH2 0x21F JUMPI PUSH1 0x0 DUP1 REVERT JUMPDEST POP PUSH2 0x23A PUSH1 0x4 DUP1 CALLDATASIZE SUB DUP2 ADD SWAP1 PUSH2 0x235 SWAP2 SWAP1 PUSH2 0x199C JUMP JUMPDEST PUSH2 0x78E JUMP JUMPDEST PUSH1 0x40 MLOAD PUSH2 0x247 SWAP2 SWAP1 PUSH2 0x1A59 JUMP JUMPDEST PUSH1 0x40 MLOAD DUP1 SWAP2 SUB SWAP1 RETURN JUMPDEST CALLVALUE DUP1 ISZERO PUSH2 0x25C JUMPI PUSH1 0x0 DUP1 REVERT JUMPDEST POP PUSH2 0x265 PUSH2 0x82E JUMP JUMPDEST PUSH1 0x40 MLOAD PUSH2 0x272 SWAP2 SWAP1 PUSH2 0x1A94 JUMP JUMPDEST PUSH1 0x40 MLOAD DUP1 SWAP2 SUB SWAP1 RETURN JUMPDEST CALLVALUE DUP1 ISZERO PUSH2 0x287 JUMPI PUSH1 0x0 DUP1 REVERT JUMPDEST POP PUSH2 0x290 PUSH2 0x834 JUMP JUMPDEST PUSH1 0x40 MLOAD PUSH2 0x29D SWAP2 SWAP1 PUSH2 0x1A94 JUMP JUMPDEST PUSH1 0x40 MLOAD DUP1 SWAP2 SUB SWAP1 RETURN JUMPDEST CALLVALUE DUP1 ISZERO PUSH2 0x2B2 JUMPI PUSH1 0x0 DUP1 REVERT JUMPDEST POP PUSH2 0x2CD PUSH1 0x4 DUP1 CALLDATASIZE SUB DUP2 ADD SWAP1 PUSH2 0x2C8 SWAP2 SWAP1 PUSH2 0x1ADB JUMP JUMPDEST PUSH2 0x83A JUMP JUMPDEST PUSH1 0x40 MLOAD PUSH2 0x2DA SWAP2 SWAP1 PUSH2 0x1941 JUMP JUMPDEST PUSH1 0x40 MLOAD DUP1 SWAP2 SUB SWAP1 RETURN JUMPDEST CALLVALUE DUP1 ISZERO PUSH2 0x2EF JUMPI PUSH1 0x0 DUP1 REVERT JUMPDEST POP PUSH2 0x2F8 PUSH2 0x879 JUMP JUMPDEST STOP JUMPDEST CALLVALUE DUP1 ISZERO PUSH2 0x306 JUMPI PUSH1 0x0 DUP1 REVERT JUMPDEST POP PUSH2 0x30F PUSH2 0x959 JUMP JUMPDEST PUSH1 0x40 MLOAD PUSH2 0x31C SWAP2 SWAP1 PUSH2 0x1A59 JUMP JUMPDEST PUSH1 0x40 MLOAD DUP1 SWAP2 SUB SWAP1 RETURN JUMPDEST CALLVALUE DUP1 ISZERO PUSH2 0x331 JUMPI PUSH1 0x0 DUP1 REVERT JUMPDEST POP PUSH2 0x33A PUSH2 0x9E7 JUMP JUMPDEST PUSH1 0x40 MLOAD PUSH2 0x347 SWAP2 SWAP1 PUSH2 0x1A59 JUMP JUMPDEST PUSH1 0x40 MLOAD DUP1 SWAP2 SUB SWAP1 RETURN JUMPDEST CALLVALUE DUP1 ISZERO PUSH2 0x35C JUMPI PUSH1 0x0 DUP1 REVERT JUMPDEST POP PUSH2 0x377 PUSH1 0x4 DUP1 CALLDATASIZE SUB DUP2 ADD SWAP1 PUSH2 0x372 SWAP2 SWAP1 PUSH2 0x1C3D JUMP JUMPDEST PUSH2 0xA75 JUMP JUMPDEST STOP JUMPDEST CALLVALUE DUP1 ISZERO PUSH2 0x385 JUMPI PUSH1 0x0 DUP1 REVERT JUMPDEST POP PUSH2 0x38E PUSH2 0xAC5 JUMP JUMPDEST PUSH1 0x40 MLOAD PUSH2 0x39B SWAP2 SWAP1 PUSH2 0x1A94 JUMP JUMPDEST PUSH1 0x40 MLOAD DUP1 SWAP2 SUB SWAP1 RETURN JUMPDEST CALLVALUE DUP1 ISZERO PUSH2 0x3B0 JUMPI PUSH1 0x0 DUP1 REVERT JUMPDEST POP PUSH2 0x3B9 PUSH2 0xAFB JUMP JUMPDEST PUSH1 0x40 MLOAD PUSH2 0x3C6 SWAP2 SWAP1 PUSH2 0x1A94 JUMP JUMPDEST PUSH1 0x40 MLOAD DUP1 SWAP2 SUB SWAP1 RETURN JUMPDEST CALLVALUE DUP1 ISZERO PUSH2 0x3DB JUMPI PUSH1 0x0 DUP1 REVERT JUMPDEST POP PUSH2 0x3E4 PUSH2 0xB01 JUMP JUMPDEST PUSH1 0x40 MLOAD PUSH2 0x3F1 SWAP2 SWAP1 PUSH2 0x1A59 JUMP JUMPDEST PUSH1 0x40 MLOAD DUP1 SWAP2 SUB SWAP1 RETURN JUMPDEST CALLVALUE DUP1 ISZERO PUSH2 0x406 JUMPI PUSH1 0x0 DUP1 REVERT JUMPDEST POP PUSH2 0x40F PUSH2 0xB8F JUMP JUMPDEST PUSH1 0x40 MLOAD PUSH2 0x41C SWAP2 SWAP1 PUSH2 0x1CFD JUMP JUMPDEST PUSH1 0x40 MLOAD DUP1 SWAP2 SUB SWAP1 RETURN JUMPDEST CALLVALUE DUP1 ISZERO PUSH2 0x431 JUMPI PUSH1 0x0 DUP1 REVERT JUMPDEST POP PUSH2 0x43A PUSH2 0xBA2 JUMP JUMPDEST PUSH1 0x40 MLOAD PUSH2 0x447 SWAP2 SWAP1 PUSH2 0x1A94 JUMP JUMPDEST PUSH1 0x40 MLOAD DUP1 SWAP2 SUB SWAP1 RETURN JUMPDEST PUSH2 0x458 PUSH2 0xBA8 JUMP JUMPDEST STOP JUMPDEST CALLVALUE DUP1 ISZERO PUSH2 0x466 JUMPI PUSH1 0x0 DUP1 REVERT JUMPDEST POP PUSH2 0x481 PUSH1 0x4 DUP1 CALLDATASIZE SUB DUP2 ADD SWAP1 PUSH2 0x47C SWAP2 SWAP1 PUSH2 0x1ADB JUMP JUMPDEST PUSH2 0xCE1 JUMP JUMPDEST PUSH1 0x40 MLOAD PUSH2 0x48E SWAP2 SWAP1 PUSH2 0x1A94 JUMP JUMPDEST PUSH1 0x40 MLOAD DUP1 SWAP2 SUB SWAP1 RETURN JUMPDEST CALLVALUE DUP1 ISZERO PUSH2 0x4A3 JUMPI PUSH1 0x0 DUP1 REVERT JUMPDEST POP PUSH2 0x4BE PUSH1 0x4 DUP1 CALLDATASIZE SUB DUP2 ADD SWAP1 PUSH2 0x4B9 SWAP2 SWAP1 PUSH2 0x199C JUMP JUMPDEST PUSH2 0xD05 JUMP JUMPDEST PUSH1 0x40 MLOAD PUSH2 0x4CB SWAP2 SWAP1 PUSH2 0x1D33 JUMP JUMPDEST PUSH1 0x40 MLOAD DUP1 SWAP2 SUB SWAP1 RETURN JUMPDEST CALLVALUE DUP1 ISZERO PUSH2 0x4E0 JUMPI PUSH1 0x0 DUP1 REVERT JUMPDEST POP PUSH2 0x4E9 PUSH2 0xD25 JUMP JUMPDEST PUSH1 0x40 MLOAD PUSH2 0x4F6 SWAP2 SWAP1 PUSH2 0x1A94 JUMP JUMPDEST PUSH1 0x40 MLOAD DUP1 SWAP2 SUB SWAP1 RETURN JUMPDEST CALLVALUE DUP1 ISZERO PUSH2 0x50B JUMPI PUSH1 0x0 DUP1 REVERT JUMPDEST POP PUSH2 0x514 PUSH2 0xD2B JUMP JUMPDEST PUSH1 0x40 MLOAD PUSH2 0x521 SWAP2 SWAP1 PUSH2 0x1A94 JUMP JUMPDEST PUSH1 0x40 MLOAD DUP1 SWAP2 SUB SWAP1 RETURN JUMPDEST CALLVALUE DUP1 ISZERO PUSH2 0x536 JUMPI PUSH1 0x0 DUP1 REVERT JUMPDEST POP PUSH2 0x53F PUSH2 0xD31 JUMP JUMPDEST PUSH1 0x40 MLOAD PUSH2 0x54C SWAP2 SWAP1 PUSH2 0x1A94 JUMP JUMPDEST PUSH1 0x40 MLOAD DUP1 SWAP2 SUB SWAP1 RETURN JUMPDEST CALLVALUE DUP1 ISZERO PUSH2 0x561 JUMPI PUSH1 0x0 DUP1 REVERT JUMPDEST POP PUSH2 0x57C PUSH1 0x4 DUP1 CALLDATASIZE SUB DUP2 ADD SWAP1 PUSH2 0x577 SWAP2 SWAP1 PUSH2 0x199C JUMP JUMPDEST PUSH2 0xD37 JUMP JUMPDEST PUSH1 0x40 MLOAD PUSH2 0x589 SWAP2 SWAP1 PUSH2 0x1A59 JUMP JUMPDEST PUSH1 0x40 MLOAD DUP1 SWAP2 SUB SWAP1 RETURN JUMPDEST CALLVALUE DUP1 ISZERO PUSH2 0x59E JUMPI PUSH1 0x0 DUP1 REVERT JUMPDEST POP PUSH2 0x5A7 PUSH2 0xE08 JUMP JUMPDEST PUSH1 0x40 MLOAD PUSH2 0x5B4 SWAP2 SWAP1 PUSH2 0x1D33 JUMP JUMPDEST PUSH1 0x40 MLOAD DUP1 SWAP2 SUB SWAP1 RETURN JUMPDEST CALLVALUE DUP1 ISZERO PUSH2 0x5C9 JUMPI PUSH1 0x0 DUP1 REVERT JUMPDEST POP PUSH2 0x5E4 PUSH1 0x4 DUP1 CALLDATASIZE SUB DUP2 ADD SWAP1 PUSH2 0x5DF SWAP2 SWAP1 PUSH2 0x1D8C JUMP JUMPDEST PUSH2 0xE1B JUMP JUMPDEST STOP JUMPDEST CALLVALUE DUP1 ISZERO PUSH2 0x5F2 JUMPI PUSH1 0x0 DUP1 REVERT JUMPDEST POP PUSH2 0x5FB PUSH2 0xEBF JUMP JUMPDEST STOP JUMPDEST CALLVALUE DUP1 ISZERO PUSH2 0x609 JUMPI PUSH1 0x0 DUP1 REVERT JUMPDEST POP PUSH2 0x612 PUSH2 0x13E6 JUMP JUMPDEST STOP JUMPDEST CALLVALUE DUP1 ISZERO PUSH2 0x620 JUMPI PUSH1 0x0 DUP1 REVERT JUMPDEST POP PUSH2 0x63B PUSH1 0x4 DUP1 CALLDATASIZE SUB DUP2 ADD SWAP1 PUSH2 0x636 SWAP2 SWAP1 PUSH2 0x1ADB JUMP JUMPDEST PUSH2 0x156C JUMP JUMPDEST PUSH1 0x40 MLOAD PUSH2 0x648 SWAP2 SWAP1 PUSH2 0x1A59 JUMP JUMPDEST PUSH1 0x40 MLOAD DUP1 SWAP2 SUB SWAP1 RETURN JUMPDEST CALLVALUE DUP1 ISZERO PUSH2 0x65D JUMPI PUSH1 0x0 DUP1 REVERT JUMPDEST POP PUSH2 0x678 PUSH1 0x4 DUP1 CALLDATASIZE SUB DUP2 ADD SWAP1 PUSH2 0x673 SWAP2 SWAP1 PUSH2 0x1ADB JUMP JUMPDEST PUSH2 0x1618 JUMP JUMPDEST PUSH1 0x40 MLOAD PUSH2 0x685 SWAP2 SWAP1 PUSH2 0x1941 JUMP JUMPDEST PUSH1 0x40 MLOAD DUP1 SWAP2 SUB SWAP1 RETURN JUMPDEST PUSH2 0x696 PUSH2 0x1657 JUMP JUMPDEST STOP JUMPDEST CALLVALUE DUP1 ISZERO PUSH2 0x6A4 JUMPI PUSH1 0x0 DUP1 REVERT JUMPDEST POP PUSH2 0x6AD PUSH2 0x1764 JUMP JUMPDEST PUSH1 0x40 MLOAD PUSH2 0x6BA SWAP2 SWAP1 PUSH2 0x1A94 JUMP JUMPDEST PUSH1 0x40 MLOAD DUP1 SWAP2 SUB SWAP1 RETURN JUMPDEST CALLVALUE DUP1 ISZERO PUSH2 0x6CF JUMPI PUSH1 0x0 DUP1 REVERT JUMPDEST POP PUSH2 0x6EA PUSH1 0x4 DUP1 CALLDATASIZE SUB DUP2 ADD SWAP1 PUSH2 0x6E5 SWAP2 SWAP1 PUSH2 0x199C JUMP JUMPDEST PUSH2 0x176A JUMP JUMPDEST PUSH1 0x40 MLOAD PUSH2 0x6F7 SWAP2 SWAP1 PUSH2 0x1D33 JUMP JUMPDEST PUSH1 0x40 MLOAD DUP1 SWAP2 SUB SWAP1 RETURN JUMPDEST CALLVALUE DUP1 ISZERO PUSH2 0x70C JUMPI PUSH1 0x0 DUP1 REVERT JUMPDEST POP PUSH2 0x715 PUSH2 0x178A JUMP JUMPDEST PUSH1 0x40 MLOAD PUSH2 0x722 SWAP2 SWAP1 PUSH2 0x1941 JUMP JUMPDEST PUSH1 0x40 MLOAD DUP1 SWAP2 SUB SWAP1 RETURN JUMPDEST CALLVALUE DUP1 ISZERO PUSH2 0x737 JUMPI PUSH1 0x0 DUP1 REVERT JUMPDEST POP PUSH2 0x752 PUSH1 0x4 DUP1 CALLDATASIZE SUB DUP2 ADD SWAP1 PUSH2 0x74D SWAP2 SWAP1 PUSH2 0x199C JUMP JUMPDEST PUSH2 0x17AE JUMP JUMPDEST PUSH1 0x40 MLOAD PUSH2 0x75F SWAP2 SWAP1 PUSH2 0x1A59 JUMP JUMPDEST PUSH1 0x40 MLOAD DUP1 SWAP2 SUB SWAP1 RETURN JUMPDEST PUSH1 0x1 PUSH1 0x0 SWAP1 SLOAD SWAP1 PUSH2 0x100 EXP SWAP1 DIV PUSH20 0xFFFFFFFFFFFFFFFFFFFFFFFFFFFFFFFFFFFFFFFF AND DUP2 JUMP JUMPDEST PUSH1 0x17 PUSH1 0x20 MSTORE DUP1 PUSH1 0x0 MSTORE PUSH1 0x40 PUSH1 0x0 KECCAK256 PUSH1 0x0 SWAP2 POP SWAP1 POP DUP1 SLOAD PUSH2 0x7AD SWAP1 PUSH2 0x1DE8 JUMP JUMPDEST DUP1 PUSH1 0x1F ADD PUSH1 0x20 DUP1 SWAP2 DIV MUL PUSH1 0x20 ADD PUSH1 0x40 MLOAD SWAP1 DUP2 ADD PUSH1 0x40 MSTORE DUP1 SWAP3 SWAP2 SWAP1 DUP2 DUP2 MSTORE PUSH1 0x20 ADD DUP3 DUP1 SLOAD PUSH2 0x7D9 SWAP1 PUSH2 0x1DE8 JUMP JUMPDEST DUP1 ISZERO PUSH2 0x826 JUMPI DUP1 PUSH1 0x1F LT PUSH2 0x7FB JUMPI PUSH2 0x100 DUP1 DUP4 SLOAD DIV MUL DUP4 MSTORE SWAP2 PUSH1 0x20 ADD SWAP2 PUSH2 0x826 JUMP JUMPDEST DUP3 ADD SWAP2 SWAP1 PUSH1 0x0 MSTORE PUSH1 0x20 PUSH1 0x0 KECCAK256 SWAP1 JUMPDEST DUP2 SLOAD DUP2 MSTORE SWAP1 PUSH1 0x1 ADD SWAP1 PUSH1 0x20 ADD DUP1 DUP4 GT PUSH2 0x809 JUMPI DUP3 SWAP1 SUB PUSH1 0x1F AND DUP3 ADD SWAP2 JUMPDEST POP POP POP POP POP DUP2 JUMP JUMPDEST PUSH1 0x5 SLOAD DUP2 JUMP JUMPDEST PUSH1 0x6 SLOAD DUP2 JUMP JUMPDEST PUSH1 0xE DUP2 DUP2 SLOAD DUP2 LT PUSH2 0x84A JUMPI PUSH1 0x0 DUP1 REVERT JUMPDEST SWAP1 PUSH1 0x0 MSTORE PUSH1 0x20 PUSH1 0x0 KECCAK256 ADD PUSH1 0x0 SWAP2 POP SLOAD SWAP1 PUSH2 0x100 EXP SWAP1 DIV PUSH20 0xFFFFFFFFFFFFFFFFFFFFFFFFFFFFFFFFFFFFFFFF AND DUP2 JUMP JUMPDEST PUSH1 0x1 PUSH1 0x0 SWAP1 SLOAD SWAP1 PUSH2 0x100 EXP SWAP1 DIV PUSH20 0xFFFFFFFFFFFFFFFFFFFFFFFFFFFFFFFFFFFFFFFF AND PUSH20 0xFFFFFFFFFFFFFFFFFFFFFFFFFFFFFFFFFFFFFFFF AND CALLER PUSH20 0xFFFFFFFFFFFFFFFFFFFFFFFFFFFFFFFFFFFFFFFF AND EQ PUSH2 0x8D3 JUMPI PUSH1 0x0 DUP1 REVERT JUMPDEST PUSH1 0x13 PUSH1 0x0 SWAP1 SLOAD SWAP1 PUSH2 0x100 EXP SWAP1 DIV PUSH1 0xFF AND PUSH2 0x8EC JUMPI PUSH1 0x0 DUP1 REVERT JUMPDEST PUSH1 0x1 PUSH1 0x0 SWAP1 SLOAD SWAP1 PUSH2 0x100 EXP SWAP1 DIV PUSH20 0xFFFFFFFFFFFFFFFFFFFFFFFFFFFFFFFFFFFFFFFF AND PUSH20 0xFFFFFFFFFFFFFFFFFFFFFFFFFFFFFFFFFFFFFFFF AND PUSH2 0x8FC PUSH1 0x9 SLOAD SWAP1 DUP2 ISZERO MUL SWAP1 PUSH1 0x40 MLOAD PUSH1 0x0 PUSH1 0x40 MLOAD DUP1 DUP4 SUB DUP2 DUP6 DUP9 DUP9 CALL SWAP4 POP POP POP POP ISZERO DUP1 ISZERO PUSH2 0x956 JUMPI RETURNDATASIZE PUSH1 0x0 DUP1 RETURNDATACOPY RETURNDATASIZE PUSH1 0x0 REVERT JUMPDEST POP JUMP JUMPDEST PUSH1 0x4 DUP1 SLOAD PUSH2 0x966 SWAP1 PUSH2 0x1DE8 JUMP JUMPDEST DUP1 PUSH1 0x1F ADD PUSH1 0x20 DUP1 SWAP2 DIV MUL PUSH1 0x20 ADD PUSH1 0x40 MLOAD SWAP1 DUP2 ADD PUSH1 0x40 MSTORE DUP1 SWAP3 SWAP2 SWAP1 DUP2 DUP2 MSTORE PUSH1 0x20 ADD DUP3 DUP1 SLOAD PUSH2 0x992 SWAP1 PUSH2 0x1DE8 JUMP JUMPDEST DUP1 ISZERO PUSH2 0x9DF JUMPI DUP1 PUSH1 0x1F LT PUSH2 0x9B4 JUMPI PUSH2 0x100 DUP1 DUP4 SLOAD DIV MUL DUP4 MSTORE SWAP2 PUSH1 0x20 ADD SWAP2 PUSH2 0x9DF JUMP JUMPDEST DUP3 ADD SWAP2 SWAP1 PUSH1 0x0 MSTORE PUSH1 0x20 PUSH1 0x0 KECCAK256 SWAP1 JUMPDEST DUP2 SLOAD DUP2 MSTORE SWAP1 PUSH1 0x1 ADD SWAP1 PUSH1 0x20 ADD DUP1 DUP4 GT PUSH2 0x9C2 JUMPI DUP3 SWAP1 SUB PUSH1 0x1F AND DUP3 ADD SWAP2 JUMPDEST POP POP POP POP POP DUP2 JUMP JUMPDEST PUSH1 0x3 DUP1 SLOAD PUSH2 0x9F4 SWAP1 PUSH2 0x1DE8 JUMP JUMPDEST DUP1 PUSH1 0x1F ADD PUSH1 0x20 DUP1 SWAP2 DIV MUL PUSH1 0x20 ADD PUSH1 0x40 MLOAD SWAP1 DUP2 ADD PUSH1 0x40 MSTORE DUP1 SWAP3 SWAP2 SWAP1 DUP2 DUP2 MSTORE PUSH1 0x20 ADD DUP3 DUP1 SLOAD PUSH2 0xA20 SWAP1 PUSH2 0x1DE8 JUMP JUMPDEST DUP1 ISZERO PUSH2 0xA6D JUMPI DUP1 PUSH1 0x1F LT PUSH2 0xA42 JUMPI PUSH2 0x100 DUP1 DUP4 SLOAD DIV MUL DUP4 MSTORE SWAP2 PUSH1 0x20 ADD SWAP2 PUSH2 0xA6D JUMP JUMPDEST DUP3 ADD SWAP2 SWAP1 PUSH1 0x0 MSTORE PUSH1 0x20 PUSH1 0x0 KECCAK256 SWAP1 JUMPDEST DUP2 SLOAD DUP2 MSTORE SWAP1 PUSH1 0x1 ADD SWAP1 PUSH1 0x20 ADD DUP1 DUP4 GT PUSH2 0xA50 JUMPI DUP3 SWAP1 SUB PUSH1 0x1F AND DUP3 ADD SWAP2 JUMPDEST POP POP POP POP POP DUP2 JUMP JUMPDEST DUP1 PUSH1 0x17 PUSH1 0x0 CALLER PUSH20 0xFFFFFFFFFFFFFFFFFFFFFFFFFFFFFFFFFFFFFFFF AND PUSH20 0xFFFFFFFFFFFFFFFFFFFFFFFFFFFFFFFFFFFFFFFF AND DUP2 MSTORE PUSH1 0x20 ADD SWAP1 DUP2 MSTORE PUSH1 0x20 ADD PUSH1 0x0 KECCAK256 SWAP1 DUP2 PUSH2 0xAC1 SWAP2 SWAP1 PUSH2 0x1FC5 JUMP JUMPDEST POP POP JUMP JUMPDEST PUSH1 0x0 PREVRANDAO TIMESTAMP PUSH1 0xE PUSH1 0x40 MLOAD PUSH1 0x20 ADD PUSH2 0xADD SWAP4 SWAP3 SWAP2 SWAP1 PUSH2 0x21BB JUMP JUMPDEST PUSH1 0x40 MLOAD PUSH1 0x20 DUP2 DUP4 SUB SUB DUP2 MSTORE SWAP1 PUSH1 0x40 MSTORE DUP1 MLOAD SWAP1 PUSH1 0x20 ADD KECCAK256 PUSH1 0x0 SHR SWAP1 POP SWAP1 JUMP JUMPDEST PUSH1 0x8 SLOAD DUP2 JUMP JUMPDEST PUSH1 0x2 DUP1 SLOAD PUSH2 0xB0E SWAP1 PUSH2 0x1DE8 JUMP JUMPDEST DUP1 PUSH1 0x1F ADD PUSH1 0x20 DUP1 SWAP2 DIV MUL PUSH1 0x20 ADD PUSH1 0x40 MLOAD SWAP1 DUP2 ADD PUSH1 0x40 MSTORE DUP1 SWAP3 SWAP2 SWAP1 DUP2 DUP2 MSTORE PUSH1 0x20 ADD DUP3 DUP1 SLOAD PUSH2 0xB3A SWAP1 PUSH2 0x1DE8 JUMP JUMPDEST DUP1 ISZERO PUSH2 0xB87 JUMPI DUP1 PUSH1 0x1F LT PUSH2 0xB5C JUMPI PUSH2 0x100 DUP1 DUP4 SLOAD DIV MUL DUP4 MSTORE SWAP2 PUSH1 0x20 ADD SWAP2 PUSH2 0xB87 JUMP JUMPDEST DUP3 ADD SWAP2 SWAP1 PUSH1 0x0 MSTORE PUSH1 0x20 PUSH1 0x0 KECCAK256 SWAP1 JUMPDEST DUP2 SLOAD DUP2 MSTORE SWAP1 PUSH1 0x1 ADD SWAP1 PUSH1 0x20 ADD DUP1 DUP4 GT PUSH2 0xB6A JUMPI DUP3 SWAP1 SUB PUSH1 0x1F AND DUP3 ADD SWAP2 JUMPDEST POP POP POP POP POP DUP2 JUMP JUMPDEST PUSH1 0xB PUSH1 0x0 SWAP1 SLOAD SWAP1 PUSH2 0x100 EXP SWAP1 DIV PUSH1 0xFF AND DUP2 JUMP JUMPDEST PUSH1 0x7 SLOAD DUP2 JUMP JUMPDEST PUSH1 0x5 SLOAD CALLVALUE GT PUSH2 0xBB6 JUMPI PUSH1 0x0 DUP1 REVERT JUMPDEST PUSH1 0x0 PUSH2 0xBC1 CALLVALUE PUSH2 0x184E JUMP JUMPDEST SWAP1 POP DUP1 PUSH1 0xA SLOAD PUSH2 0xBD1 SWAP2 SWAP1 PUSH2 0x2228 JUMP JUMPDEST PUSH1 0xA DUP2 SWAP1 SSTORE POP PUSH1 0xE CALLER SWAP1 DUP1 PUSH1 0x1 DUP2 SLOAD ADD DUP1 DUP3 SSTORE DUP1 SWAP2 POP POP PUSH1 0x1 SWAP1 SUB SWAP1 PUSH1 0x0 MSTORE PUSH1 0x20 PUSH1 0x0 KECCAK256 ADD PUSH1 0x0 SWAP1 SWAP2 SWAP1 SWAP2 SWAP1 SWAP2 PUSH2 0x100 EXP DUP2 SLOAD DUP2 PUSH20 0xFFFFFFFFFFFFFFFFFFFFFFFFFFFFFFFFFFFFFFFF MUL NOT AND SWAP1 DUP4 PUSH20 0xFFFFFFFFFFFFFFFFFFFFFFFFFFFFFFFFFFFFFFFF AND MUL OR SWAP1 SSTORE POP PUSH1 0x1 PUSH1 0xD SLOAD PUSH2 0xC49 SWAP2 SWAP1 PUSH2 0x2228 JUMP JUMPDEST PUSH1 0xD DUP2 SWAP1 SSTORE POP PUSH1 0x40 MLOAD PUSH2 0xC5B SWAP1 PUSH2 0x22B3 JUMP JUMPDEST PUSH1 0x40 MLOAD DUP1 SWAP2 SUB SWAP1 KECCAK256 PUSH32 0xA67532DCC08DBEAD4844050ED91D163C1B8475DC22009F71809F44F6D3CA0594 PUSH1 0x1 PUSH1 0x0 SWAP1 SLOAD SWAP1 PUSH2 0x100 EXP SWAP1 DIV PUSH20 0xFFFFFFFFFFFFFFFFFFFFFFFFFFFFFFFFFFFFFFFF AND PUSH1 0x2 PUSH1 0x3 PUSH1 0x5 SLOAD PUSH1 0xA SLOAD PUSH1 0xD SLOAD PUSH1 0xC PUSH1 0x11 PUSH1 0x10 PUSH1 0x12 SLOAD PUSH1 0xF PUSH1 0x40 MLOAD PUSH2 0xCD6 SWAP12 SWAP11 SWAP10 SWAP9 SWAP8 SWAP7 SWAP6 SWAP5 SWAP4 SWAP3 SWAP2 SWAP1 PUSH2 0x25A8 JUMP JUMPDEST PUSH1 0x40 MLOAD DUP1 SWAP2 SUB SWAP1 LOG2 POP JUMP JUMPDEST PUSH1 0x11 DUP2 DUP2 SLOAD DUP2 LT PUSH2 0xCF1 JUMPI PUSH1 0x0 DUP1 REVERT JUMPDEST SWAP1 PUSH1 0x0 MSTORE PUSH1 0x20 PUSH1 0x0 KECCAK256 ADD PUSH1 0x0 SWAP2 POP SWAP1 POP SLOAD DUP2 JUMP JUMPDEST PUSH1 0x14 PUSH1 0x20 MSTORE DUP1 PUSH1 0x0 MSTORE PUSH1 0x40 PUSH1 0x0 KECCAK256 PUSH1 0x0 SWAP2 POP SLOAD SWAP1 PUSH2 0x100 EXP SWAP1 DIV PUSH1 0xFF AND DUP2 JUMP JUMPDEST PUSH1 0x12 SLOAD DUP2 JUMP JUMPDEST PUSH1 0xA SLOAD DUP2 JUMP JUMPDEST PUSH1 0x9 SLOAD DUP2 JUMP JUMPDEST PUSH1 0x60 PUSH1 0x17 PUSH1 0x0 DUP4 PUSH20 0xFFFFFFFFFFFFFFFFFFFFFFFFFFFFFFFFFFFFFFFF AND PUSH20 0xFFFFFFFFFFFFFFFFFFFFFFFFFFFFFFFFFFFFFFFF AND DUP2 MSTORE PUSH1 0x20 ADD SWAP1 DUP2 MSTORE PUSH1 0x20 ADD PUSH1 0x0 KECCAK256 DUP1 SLOAD PUSH2 0xD83 SWAP1 PUSH2 0x1DE8 JUMP JUMPDEST DUP1 PUSH1 0x1F ADD PUSH1 0x20 DUP1 SWAP2 DIV MUL PUSH1 0x20 ADD PUSH1 0x40 MLOAD SWAP1 DUP2 ADD PUSH1 0x40 MSTORE DUP1 SWAP3 SWAP2 SWAP1 DUP2 DUP2 MSTORE PUSH1 0x20 ADD DUP3 DUP1 SLOAD PUSH2 0xDAF SWAP1 PUSH2 0x1DE8 JUMP JUMPDEST DUP1 ISZERO PUSH2 0xDFC JUMPI DUP1 PUSH1 0x1F LT PUSH2 0xDD1 JUMPI PUSH2 0x100 DUP1 DUP4 SLOAD DIV MUL DUP4 MSTORE SWAP2 PUSH1 0x20 ADD SWAP2 PUSH2 0xDFC JUMP JUMPDEST DUP3 ADD SWAP2 SWAP1 PUSH1 0x0 MSTORE PUSH1 0x20 PUSH1 0x0 KECCAK256 SWAP1 JUMPDEST DUP2 SLOAD DUP2 MSTORE SWAP1 PUSH1 0x1 ADD SWAP1 PUSH1 0x20 ADD DUP1 DUP4 GT PUSH2 0xDDF JUMPI DUP3 SWAP1 SUB PUSH1 0x1F AND DUP3 ADD SWAP2 JUMPDEST POP POP POP POP POP SWAP1 POP SWAP2 SWAP1 POP JUMP JUMPDEST PUSH1 0x13 PUSH1 0x0 SWAP1 SLOAD SWAP1 PUSH2 0x100 EXP SWAP1 DIV PUSH1 0xFF AND DUP2 JUMP JUMPDEST PUSH1 0x0 DUP1 SLOAD SWAP1 PUSH2 0x100 EXP SWAP1 DIV PUSH20 0xFFFFFFFFFFFFFFFFFFFFFFFFFFFFFFFFFFFFFFFF AND PUSH20 0xFFFFFFFFFFFFFFFFFFFFFFFFFFFFFFFFFFFFFFFF AND CALLER PUSH20 0xFFFFFFFFFFFFFFFFFFFFFFFFFFFFFFFFFFFFFFFF AND EQ PUSH2 0xE73 JUMPI PUSH1 0x0 DUP1 REVERT JUMPDEST DUP1 PUSH20 0xFFFFFFFFFFFFFFFFFFFFFFFFFFFFFFFFFFFFFFFF AND PUSH2 0x8FC PUSH1 0x8 SLOAD SWAP1 DUP2 ISZERO MUL SWAP1 PUSH1 0x40 MLOAD PUSH1 0x0 PUSH1 0x40 MLOAD DUP1 DUP4 SUB DUP2 DUP6 DUP9 DUP9 CALL SWAP4 POP POP POP POP ISZERO DUP1 ISZERO PUSH2 0xEBB JUMPI RETURNDATASIZE PUSH1 0x0 DUP1 RETURNDATACOPY RETURNDATASIZE PUSH1 0x0 REVERT JUMPDEST POP POP JUMP JUMPDEST PUSH1 0x40 MLOAD DUP1 PUSH1 0x40 ADD PUSH1 0x40 MSTORE DUP1 PUSH1 0x8 DUP2 MSTORE PUSH1 0x20 ADD PUSH32 0x66696E6973686564000000000000000000000000000000000000000000000000 DUP2 MSTORE POP PUSH1 0xC SWAP1 DUP2 PUSH2 0xF03 SWAP2 SWAP1 PUSH2 0x1FC5 JUMP JUMPDEST POP PUSH1 0x0 PUSH1 0x1 DUP2 GT ISZERO PUSH2 0xF18 JUMPI PUSH2 0xF17 PUSH2 0x1C86 JUMP JUMPDEST JUMPDEST PUSH1 0xB PUSH1 0x0 SWAP1 SLOAD SWAP1 PUSH2 0x100 EXP SWAP1 DIV PUSH1 0xFF AND PUSH1 0x1 DUP2 GT ISZERO PUSH2 0xF3A JUMPI PUSH2 0xF39 PUSH2 0x1C86 JUMP JUMPDEST JUMPDEST SUB PUSH2 0x119F JUMPI PUSH1 0x0 JUMPDEST PUSH1 0x11 DUP1 SLOAD SWAP1 POP DUP2 LT ISZERO PUSH2 0x1199 JUMPI PUSH1 0x0 PUSH1 0xE DUP1 SLOAD SWAP1 POP PUSH2 0xF5F PUSH2 0xAC5 JUMP JUMPDEST PUSH2 0xF69 SWAP2 SWAP1 PUSH2 0x26AC JUMP JUMPDEST SWAP1 POP PUSH1 0x0 PUSH1 0xE DUP4 DUP4 PUSH2 0xF7B SWAP2 SWAP1 PUSH2 0x2228 JUMP JUMPDEST DUP2 SLOAD DUP2 LT PUSH2 0xF8C JUMPI PUSH2 0xF8B PUSH2 0x26DD JUMP JUMPDEST JUMPDEST SWAP1 PUSH1 0x0 MSTORE PUSH1 0x20 PUSH1 0x0 KECCAK256 ADD PUSH1 0x0 SWAP1 SLOAD SWAP1 PUSH2 0x100 EXP SWAP1 DIV PUSH20 0xFFFFFFFFFFFFFFFFFFFFFFFFFFFFFFFFFFFFFFFF AND SWAP1 POP PUSH1 0xF DUP2 SWAP1 DUP1 PUSH1 0x1 DUP2 SLOAD ADD DUP1 DUP3 SSTORE DUP1 SWAP2 POP POP PUSH1 0x1 SWAP1 SUB SWAP1 PUSH1 0x0 MSTORE PUSH1 0x20 PUSH1 0x0 KECCAK256 ADD PUSH1 0x0 SWAP1 SWAP2 SWAP1 SWAP2 SWAP1 SWAP2 PUSH2 0x100 EXP DUP2 SLOAD DUP2 PUSH20 0xFFFFFFFFFFFFFFFFFFFFFFFFFFFFFFFFFFFFFFFF MUL NOT AND SWAP1 DUP4 PUSH20 0xFFFFFFFFFFFFFFFFFFFFFFFFFFFFFFFFFFFFFFFF AND MUL OR SWAP1 SSTORE POP PUSH1 0x1 PUSH1 0x14 PUSH1 0x0 DUP4 PUSH20 0xFFFFFFFFFFFFFFFFFFFFFFFFFFFFFFFFFFFFFFFF AND PUSH20 0xFFFFFFFFFFFFFFFFFFFFFFFFFFFFFFFFFFFFFFFF AND DUP2 MSTORE PUSH1 0x20 ADD SWAP1 DUP2 MSTORE PUSH1 0x20 ADD PUSH1 0x0 KECCAK256 PUSH1 0x0 PUSH2 0x100 EXP DUP2 SLOAD DUP2 PUSH1 0xFF MUL NOT AND SWAP1 DUP4 ISZERO ISZERO MUL OR SWAP1 SSTORE POP DUP1 PUSH20 0xFFFFFFFFFFFFFFFFFFFFFFFFFFFFFFFFFFFFFFFF AND PUSH2 0x8FC PUSH1 0x64 PUSH1 0xA SLOAD PUSH1 0x11 DUP8 DUP2 SLOAD DUP2 LT PUSH2 0x10A7 JUMPI PUSH2 0x10A6 PUSH2 0x26DD JUMP JUMPDEST JUMPDEST SWAP1 PUSH1 0x0 MSTORE PUSH1 0x20 PUSH1 0x0 KECCAK256 ADD SLOAD PUSH2 0x10BC SWAP2 SWAP1 PUSH2 0x270C JUMP JUMPDEST PUSH2 0x10C6 SWAP2 SWAP1 PUSH2 0x274E JUMP JUMPDEST SWAP1 DUP2 ISZERO MUL SWAP1 PUSH1 0x40 MLOAD PUSH1 0x0 PUSH1 0x40 MLOAD DUP1 DUP4 SUB DUP2 DUP6 DUP9 DUP9 CALL SWAP4 POP POP POP POP ISZERO DUP1 ISZERO PUSH2 0x10F1 JUMPI RETURNDATASIZE PUSH1 0x0 DUP1 RETURNDATACOPY RETURNDATASIZE PUSH1 0x0 REVERT JUMPDEST POP PUSH1 0x1 PUSH1 0x0 SWAP1 SLOAD SWAP1 PUSH2 0x100 EXP SWAP1 DIV PUSH20 0xFFFFFFFFFFFFFFFFFFFFFFFFFFFFFFFFFFFFFFFF AND PUSH20 0xFFFFFFFFFFFFFFFFFFFFFFFFFFFFFFFFFFFFFFFF AND PUSH2 0x8FC PUSH1 0x9 SLOAD SWAP1 DUP2 ISZERO MUL SWAP1 PUSH1 0x40 MLOAD PUSH1 0x0 PUSH1 0x40 MLOAD DUP1 DUP4 SUB DUP2 DUP6 DUP9 DUP9 CALL SWAP4 POP POP POP POP ISZERO DUP1 ISZERO PUSH2 0x115C JUMPI RETURNDATASIZE PUSH1 0x0 DUP1 RETURNDATACOPY RETURNDATASIZE PUSH1 0x0 REVERT JUMPDEST POP PUSH1 0x11 DUP1 SLOAD SWAP1 POP PUSH1 0x12 DUP2 SWAP1 SSTORE POP PUSH1 0x1 PUSH1 0x13 PUSH1 0x0 PUSH2 0x100 EXP DUP2 SLOAD DUP2 PUSH1 0xFF MUL NOT AND SWAP1 DUP4 ISZERO ISZERO MUL OR SWAP1 SSTORE POP POP POP DUP1 DUP1 PUSH2 0x1191 SWAP1 PUSH2 0x277F JUMP JUMPDEST SWAP2 POP POP PUSH2 0xF42 JUMP JUMPDEST POP PUSH2 0x1355 JUMP JUMPDEST PUSH1 0x0 JUMPDEST PUSH1 0x10 DUP1 SLOAD SWAP1 POP DUP2 LT ISZERO PUSH2 0x1353 JUMPI PUSH1 0x0 PUSH1 0xE DUP1 SLOAD SWAP1 POP PUSH2 0x11BF PUSH2 0xAC5 JUMP JUMPDEST PUSH2 0x11C9 SWAP2 SWAP1 PUSH2 0x26AC JUMP JUMPDEST SWAP1 POP PUSH1 0x0 PUSH1 0xE DUP4 DUP4 PUSH2 0x11DB SWAP2 SWAP1 PUSH2 0x2228 JUMP JUMPDEST DUP2 SLOAD DUP2 LT PUSH2 0x11EC JUMPI PUSH2 0x11EB PUSH2 0x26DD JUMP JUMPDEST JUMPDEST SWAP1 PUSH1 0x0 MSTORE PUSH1 0x20 PUSH1 0x0 KECCAK256 ADD PUSH1 0x0 SWAP1 SLOAD SWAP1 PUSH2 0x100 EXP SWAP1 DIV PUSH20 0xFFFFFFFFFFFFFFFFFFFFFFFFFFFFFFFFFFFFFFFF AND SWAP1 POP PUSH1 0xF DUP2 SWAP1 DUP1 PUSH1 0x1 DUP2 SLOAD ADD DUP1 DUP3 SSTORE DUP1 SWAP2 POP POP PUSH1 0x1 SWAP1 SUB SWAP1 PUSH1 0x0 MSTORE PUSH1 0x20 PUSH1 0x0 KECCAK256 ADD PUSH1 0x0 SWAP1 SWAP2 SWAP1 SWAP2 SWAP1 SWAP2 PUSH2 0x100 EXP DUP2 SLOAD DUP2 PUSH20 0xFFFFFFFFFFFFFFFFFFFFFFFFFFFFFFFFFFFFFFFF MUL NOT AND SWAP1 DUP4 PUSH20 0xFFFFFFFFFFFFFFFFFFFFFFFFFFFFFFFFFFFFFFFF AND MUL OR SWAP1 SSTORE POP PUSH1 0x1 PUSH1 0x14 PUSH1 0x0 DUP4 PUSH20 0xFFFFFFFFFFFFFFFFFFFFFFFFFFFFFFFFFFFFFFFF AND PUSH20 0xFFFFFFFFFFFFFFFFFFFFFFFFFFFFFFFFFFFFFFFF AND DUP2 MSTORE PUSH1 0x20 ADD SWAP1 DUP2 MSTORE PUSH1 0x20 ADD PUSH1 0x0 KECCAK256 PUSH1 0x0 PUSH2 0x100 EXP DUP2 SLOAD DUP2 PUSH1 0xFF MUL NOT AND SWAP1 DUP4 ISZERO ISZERO MUL OR SWAP1 SSTORE POP PUSH1 0x10 DUP4 DUP2 SLOAD DUP2 LT PUSH2 0x12E8 JUMPI PUSH2 0x12E7 PUSH2 0x26DD JUMP JUMPDEST JUMPDEST SWAP1 PUSH1 0x0 MSTORE PUSH1 0x20 PUSH1 0x0 KECCAK256 ADD PUSH1 0x16 PUSH1 0x0 DUP4 PUSH20 0xFFFFFFFFFFFFFFFFFFFFFFFFFFFFFFFFFFFFFFFF AND PUSH20 0xFFFFFFFFFFFFFFFFFFFFFFFFFFFFFFFFFFFFFFFF AND DUP2 MSTORE PUSH1 0x20 ADD SWAP1 DUP2 MSTORE PUSH1 0x20 ADD PUSH1 0x0 KECCAK256 SWAP1 DUP2 PUSH2 0x133D SWAP2 SWAP1 PUSH2 0x27F2 JUMP JUMPDEST POP POP POP DUP1 DUP1 PUSH2 0x134B SWAP1 PUSH2 0x277F JUMP JUMPDEST SWAP2 POP POP PUSH2 0x11A2 JUMP JUMPDEST POP JUMPDEST PUSH1 0x40 MLOAD PUSH2 0x1361 SWAP1 PUSH2 0x22B3 JUMP JUMPDEST PUSH1 0x40 MLOAD DUP1 SWAP2 SUB SWAP1 KECCAK256 PUSH32 0xA67532DCC08DBEAD4844050ED91D163C1B8475DC22009F71809F44F6D3CA0594 PUSH1 0x1 PUSH1 0x0 SWAP1 SLOAD SWAP1 PUSH2 0x100 EXP SWAP1 DIV PUSH20 0xFFFFFFFFFFFFFFFFFFFFFFFFFFFFFFFFFFFFFFFF AND PUSH1 0x2 PUSH1 0x3 PUSH1 0x5 SLOAD PUSH1 0xA SLOAD PUSH1 0xD SLOAD PUSH1 0xC PUSH1 0x11 PUSH1 0x10 PUSH1 0x12 SLOAD PUSH1 0xF PUSH1 0x40 MLOAD PUSH2 0x13DC SWAP12 SWAP11 SWAP10 SWAP9 SWAP8 SWAP7 SWAP6 SWAP5 SWAP4 SWAP3 SWAP2 SWAP1 PUSH2 0x25A8 JUMP JUMPDEST PUSH1 0x40 MLOAD DUP1 SWAP2 SUB SWAP1 LOG2 JUMP JUMPDEST PUSH1 0x0 ISZERO ISZERO PUSH1 0x15 PUSH1 0x0 CALLER PUSH20 0xFFFFFFFFFFFFFFFFFFFFFFFFFFFFFFFFFFFFFFFF AND PUSH20 0xFFFFFFFFFFFFFFFFFFFFFFFFFFFFFFFFFFFFFFFF AND DUP2 MSTORE PUSH1 0x20 ADD SWAP1 DUP2 MSTORE PUSH1 0x20 ADD PUSH1 0x0 KECCAK256 PUSH1 0x0 SWAP1 SLOAD SWAP1 PUSH2 0x100 EXP SWAP1 DIV PUSH1 0xFF AND ISZERO ISZERO EQ PUSH2 0x1443 JUMPI PUSH1 0x0 DUP1 REVERT JUMPDEST PUSH1 0x1 PUSH1 0x15 PUSH1 0x0 CALLER PUSH20 0xFFFFFFFFFFFFFFFFFFFFFFFFFFFFFFFFFFFFFFFF AND PUSH20 0xFFFFFFFFFFFFFFFFFFFFFFFFFFFFFFFFFFFFFFFF AND DUP2 MSTORE PUSH1 0x20 ADD SWAP1 DUP2 MSTORE PUSH1 0x20 ADD PUSH1 0x0 KECCAK256 PUSH1 0x0 PUSH2 0x100 EXP DUP2 SLOAD DUP2 PUSH1 0xFF MUL NOT AND SWAP1 DUP4 ISZERO ISZERO MUL OR SWAP1 SSTORE POP PUSH1 0x1 PUSH1 0x12 SLOAD PUSH2 0x14AA SWAP2 SWAP1 PUSH2 0x2228 JUMP JUMPDEST PUSH1 0x12 DUP2 SWAP1 SSTORE POP PUSH1 0x10 DUP1 SLOAD SWAP1 POP PUSH1 0x12 SLOAD GT ISZERO PUSH2 0x14DB JUMPI PUSH1 0x1 PUSH1 0x13 PUSH1 0x0 PUSH2 0x100 EXP DUP2 SLOAD DUP2 PUSH1 0xFF MUL NOT AND SWAP1 DUP4 ISZERO ISZERO MUL OR SWAP1 SSTORE POP JUMPDEST PUSH1 0x40 MLOAD PUSH2 0x14E7 SWAP1 PUSH2 0x22B3 JUMP JUMPDEST PUSH1 0x40 MLOAD DUP1 SWAP2 SUB SWAP1 KECCAK256 PUSH32 0xA67532DCC08DBEAD4844050ED91D163C1B8475DC22009F71809F44F6D3CA0594 PUSH1 0x1 PUSH1 0x0 SWAP1 SLOAD SWAP1 PUSH2 0x100 EXP SWAP1 DIV PUSH20 0xFFFFFFFFFFFFFFFFFFFFFFFFFFFFFFFFFFFFFFFF AND PUSH1 0x2 PUSH1 0x3 PUSH1 0x5 SLOAD PUSH1 0xA SLOAD PUSH1 0xD SLOAD PUSH1 0xC PUSH1 0x11 PUSH1 0x10 PUSH1 0x12 SLOAD PUSH1 0xF PUSH1 0x40 MLOAD PUSH2 0x1562 SWAP12 SWAP11 SWAP10 SWAP9 SWAP8 SWAP7 SWAP6 SWAP5 SWAP4 SWAP3 SWAP2 SWAP1 PUSH2 0x25A8 JUMP JUMPDEST PUSH1 0x40 MLOAD DUP1 SWAP2 SUB SWAP1 LOG2 JUMP JUMPDEST PUSH1 0x10 DUP2 DUP2 SLOAD DUP2 LT PUSH2 0x157C JUMPI PUSH1 0x0 DUP1 REVERT JUMPDEST SWAP1 PUSH1 0x0 MSTORE PUSH1 0x20 PUSH1 0x0 KECCAK256 ADD PUSH1 0x0 SWAP2 POP SWAP1 POP DUP1 SLOAD PUSH2 0x1597 SWAP1 PUSH2 0x1DE8 JUMP JUMPDEST DUP1 PUSH1 0x1F ADD PUSH1 0x20 DUP1 SWAP2 DIV MUL PUSH1 0x20 ADD PUSH1 0x40 MLOAD SWAP1 DUP2 ADD PUSH1 0x40 MSTORE DUP1 SWAP3 SWAP2 SWAP1 DUP2 DUP2 MSTORE PUSH1 0x20 ADD DUP3 DUP1 SLOAD PUSH2 0x15C3 SWAP1 PUSH2 0x1DE8 JUMP JUMPDEST DUP1 ISZERO PUSH2 0x1610 JUMPI DUP1 PUSH1 0x1F LT PUSH2 0x15E5 JUMPI PUSH2 0x100 DUP1 DUP4 SLOAD DIV MUL DUP4 MSTORE SWAP2 PUSH1 0x20 ADD SWAP2 PUSH2 0x1610 JUMP JUMPDEST DUP3 ADD SWAP2 SWAP1 PUSH1 0x0 MSTORE PUSH1 0x20 PUSH1 0x0 KECCAK256 SWAP1 JUMPDEST DUP2 SLOAD DUP2 MSTORE SWAP1 PUSH1 0x1 ADD SWAP1 PUSH1 0x20 ADD DUP1 DUP4 GT PUSH2 0x15F3 JUMPI DUP3 SWAP1 SUB PUSH1 0x1F AND DUP3 ADD SWAP2 JUMPDEST POP POP POP POP POP DUP2 JUMP JUMPDEST PUSH1 0xF DUP2 DUP2 SLOAD DUP2 LT PUSH2 0x1628 JUMPI PUSH1 0x0 DUP1 REVERT JUMPDEST SWAP1 PUSH1 0x0 MSTORE PUSH1 0x20 PUSH1 0x0 KECCAK256 ADD PUSH1 0x0 SWAP2 POP SLOAD SWAP1 PUSH2 0x100 EXP SWAP1 DIV PUSH20 0xFFFFFFFFFFFFFFFFFFFFFFFFFFFFFFFFFFFFFFFF AND DUP2 JUMP JUMPDEST PUSH1 0x1 PUSH1 0x0 SWAP1 SLOAD SWAP1 PUSH2 0x100 EXP SWAP1 DIV PUSH20 0xFFFFFFFFFFFFFFFFFFFFFFFFFFFFFFFFFFFFFFFF AND PUSH20 0xFFFFFFFFFFFFFFFFFFFFFFFFFFFFFFFFFFFFFFFF AND CALLER PUSH20 0xFFFFFFFFFFFFFFFFFFFFFFFFFFFFFFFFFFFFFFFF AND EQ PUSH2 0x16B1 JUMPI PUSH1 0x0 DUP1 REVERT JUMPDEST PUSH1 0x0 PUSH2 0x16BC CALLVALUE PUSH2 0x184E JUMP JUMPDEST SWAP1 POP DUP1 PUSH1 0xA SLOAD PUSH2 0x16CC SWAP2 SWAP1 PUSH2 0x2228 JUMP JUMPDEST PUSH1 0xA DUP2 SWAP1 SSTORE POP PUSH1 0x40 MLOAD PUSH2 0x16DE SWAP1 PUSH2 0x22B3 JUMP JUMPDEST PUSH1 0x40 MLOAD DUP1 SWAP2 SUB SWAP1 KECCAK256 PUSH32 0xA67532DCC08DBEAD4844050ED91D163C1B8475DC22009F71809F44F6D3CA0594 PUSH1 0x1 PUSH1 0x0 SWAP1 SLOAD SWAP1 PUSH2 0x100 EXP SWAP1 DIV PUSH20 0xFFFFFFFFFFFFFFFFFFFFFFFFFFFFFFFFFFFFFFFF AND PUSH1 0x2 PUSH1 0x3 PUSH1 0x5 SLOAD PUSH1 0xA SLOAD PUSH1 0xD SLOAD PUSH1 0xC PUSH1 0x11 PUSH1 0x10 PUSH1 0x12 SLOAD PUSH1 0xF PUSH1 0x40 MLOAD PUSH2 0x1759 SWAP12 SWAP11 SWAP10 SWAP9 SWAP8 SWAP7 SWAP6 SWAP5 SWAP4 SWAP3 SWAP2 SWAP1 PUSH2 0x25A8 JUMP JUMPDEST PUSH1 0x40 MLOAD DUP1 SWAP2 SUB SWAP1 LOG2 POP JUMP JUMPDEST PUSH1 0xD SLOAD DUP2 JUMP JUMPDEST PUSH1 0x15 PUSH1 0x20 MSTORE DUP1 PUSH1 0x0 MSTORE PUSH1 0x40 PUSH1 0x0 KECCAK256 PUSH1 0x0 SWAP2 POP SLOAD SWAP1 PUSH2 0x100 EXP SWAP1 DIV PUSH1 0xFF AND DUP2 JUMP JUMPDEST PUSH1 0x0 DUP1 SLOAD SWAP1 PUSH2 0x100 EXP SWAP1 DIV PUSH20 0xFFFFFFFFFFFFFFFFFFFFFFFFFFFFFFFFFFFFFFFF AND DUP2 JUMP JUMPDEST PUSH1 0x16 PUSH1 0x20 MSTORE DUP1 PUSH1 0x0 MSTORE PUSH1 0x40 PUSH1 0x0 KECCAK256 PUSH1 0x0 SWAP2 POP SWAP1 POP DUP1 SLOAD PUSH2 0x17CD SWAP1 PUSH2 0x1DE8 JUMP JUMPDEST DUP1 PUSH1 0x1F ADD PUSH1 0x20 DUP1 SWAP2 DIV MUL PUSH1 0x20 ADD PUSH1 0x40 MLOAD SWAP1 DUP2 ADD PUSH1 0x40 MSTORE DUP1 SWAP3 SWAP2 SWAP1 DUP2 DUP2 MSTORE PUSH1 0x20 ADD DUP3 DUP1 SLOAD PUSH2 0x17F9 SWAP1 PUSH2 0x1DE8 JUMP JUMPDEST DUP1 ISZERO PUSH2 0x1846 JUMPI DUP1 PUSH1 0x1F LT PUSH2 0x181B JUMPI PUSH2 0x100 DUP1 DUP4 SLOAD DIV MUL DUP4 MSTORE SWAP2 PUSH1 0x20 ADD SWAP2 PUSH2 0x1846 JUMP JUMPDEST DUP3 ADD SWAP2 SWAP1 PUSH1 0x0 MSTORE PUSH1 0x20 PUSH1 0x0 KECCAK256 SWAP1 JUMPDEST DUP2 SLOAD DUP2 MSTORE SWAP1 PUSH1 0x1 ADD SWAP1 PUSH1 0x20 ADD DUP1 DUP4 GT PUSH2 0x1829 JUMPI DUP3 SWAP1 SUB PUSH1 0x1F AND DUP3 ADD SWAP2 JUMPDEST POP POP POP POP POP DUP2 JUMP JUMPDEST PUSH1 0x0 PUSH1 0x64 PUSH1 0x6 SLOAD DUP4 PUSH2 0x1860 SWAP2 SWAP1 PUSH2 0x270C JUMP JUMPDEST PUSH2 0x186A SWAP2 SWAP1 PUSH2 0x274E JUMP JUMPDEST PUSH1 0x8 SLOAD PUSH2 0x1877 SWAP2 SWAP1 PUSH2 0x2228 JUMP JUMPDEST PUSH1 0x8 DUP2 SWAP1 SSTORE POP PUSH1 0x64 PUSH1 0x7 SLOAD DUP4 PUSH2 0x188D SWAP2 SWAP1 PUSH2 0x270C JUMP JUMPDEST PUSH2 0x1897 SWAP2 SWAP1 PUSH2 0x274E JUMP JUMPDEST PUSH1 0x9 SLOAD PUSH2 0x18A4 SWAP2 SWAP1 PUSH2 0x2228 JUMP JUMPDEST PUSH1 0x9 DUP2 SWAP1 SSTORE POP PUSH1 0x0 PUSH1 0x64 PUSH1 0x7 SLOAD DUP5 PUSH2 0x18BC SWAP2 SWAP1 PUSH2 0x270C JUMP JUMPDEST PUSH2 0x18C6 SWAP2 SWAP1 PUSH2 0x274E JUMP JUMPDEST PUSH1 0x64 PUSH1 0x6 SLOAD DUP6 PUSH2 0x18D6 SWAP2 SWAP1 PUSH2 0x270C JUMP JUMPDEST PUSH2 0x18E0 SWAP2 SWAP1 PUSH2 0x274E JUMP JUMPDEST DUP5 PUSH2 0x18EB SWAP2 SWAP1 PUSH2 0x28DA JUMP JUMPDEST PUSH2 0x18F5 SWAP2 SWAP1 PUSH2 0x28DA JUMP JUMPDEST SWAP1 POP DUP1 SWAP2 POP POP SWAP2 SWAP1 POP JUMP JUMPDEST PUSH1 0x0 PUSH20 0xFFFFFFFFFFFFFFFFFFFFFFFFFFFFFFFFFFFFFFFF DUP3 AND SWAP1 POP SWAP2 SWAP1 POP JUMP JUMPDEST PUSH1 0x0 PUSH2 0x192B DUP3 PUSH2 0x1900 JUMP JUMPDEST SWAP1 POP SWAP2 SWAP1 POP JUMP JUMPDEST PUSH2 0x193B DUP2 PUSH2 0x1920 JUMP JUMPDEST DUP3 MSTORE POP POP JUMP JUMPDEST PUSH1 0x0 PUSH1 0x20 DUP3 ADD SWAP1 POP PUSH2 0x1956 PUSH1 0x0 DUP4 ADD DUP5 PUSH2 0x1932 JUMP JUMPDEST SWAP3 SWAP2 POP POP JUMP JUMPDEST PUSH1 0x0 PUSH1 0x40 MLOAD SWAP1 POP SWAP1 JUMP JUMPDEST PUSH1 0x0 DUP1 REVERT JUMPDEST PUSH1 0x0 DUP1 REVERT JUMPDEST PUSH2 0x1979 DUP2 PUSH2 0x1920 JUMP JUMPDEST DUP2 EQ PUSH2 0x1984 JUMPI PUSH1 0x0 DUP1 REVERT JUMPDEST POP JUMP JUMPDEST PUSH1 0x0 DUP2 CALLDATALOAD SWAP1 POP PUSH2 0x1996 DUP2 PUSH2 0x1970 JUMP JUMPDEST SWAP3 SWAP2 POP POP JUMP JUMPDEST PUSH1 0x0 PUSH1 0x20 DUP3 DUP5 SUB SLT ISZERO PUSH2 0x19B2 JUMPI PUSH2 0x19B1 PUSH2 0x1966 JUMP JUMPDEST JUMPDEST PUSH1 0x0 PUSH2 0x19C0 DUP5 DUP3 DUP6 ADD PUSH2 0x1987 JUMP JUMPDEST SWAP2 POP POP SWAP3 SWAP2 POP POP JUMP JUMPDEST PUSH1 0x0 DUP2 MLOAD SWAP1 POP SWAP2 SWAP1 POP JUMP JUMPDEST PUSH1 0x0 DUP3 DUP3 MSTORE PUSH1 0x20 DUP3 ADD SWAP1 POP SWAP3 SWAP2 POP POP JUMP JUMPDEST PUSH1 0x0 JUMPDEST DUP4 DUP2 LT ISZERO PUSH2 0x1A03 JUMPI DUP1 DUP3 ADD MLOAD DUP2 DUP5 ADD MSTORE PUSH1 0x20 DUP2 ADD SWAP1 POP PUSH2 0x19E8 JUMP JUMPDEST PUSH1 0x0 DUP5 DUP5 ADD MSTORE POP POP POP POP JUMP JUMPDEST PUSH1 0x0 PUSH1 0x1F NOT PUSH1 0x1F DUP4 ADD AND SWAP1 POP SWAP2 SWAP1 POP JUMP JUMPDEST PUSH1 0x0 PUSH2 0x1A2B DUP3 PUSH2 0x19C9 JUMP JUMPDEST PUSH2 0x1A35 DUP2 DUP6 PUSH2 0x19D4 JUMP JUMPDEST SWAP4 POP PUSH2 0x1A45 DUP2 DUP6 PUSH1 0x20 DUP7 ADD PUSH2 0x19E5 JUMP JUMPDEST PUSH2 0x1A4E DUP2 PUSH2 0x1A0F JUMP JUMPDEST DUP5 ADD SWAP2 POP POP SWAP3 SWAP2 POP POP JUMP JUMPDEST PUSH1 0x0 PUSH1 0x20 DUP3 ADD SWAP1 POP DUP2 DUP2 SUB PUSH1 0x0 DUP4 ADD MSTORE PUSH2 0x1A73 DUP2 DUP5 PUSH2 0x1A20 JUMP JUMPDEST SWAP1 POP SWAP3 SWAP2 POP POP JUMP JUMPDEST PUSH1 0x0 DUP2 SWAP1 POP SWAP2 SWAP1 POP JUMP JUMPDEST PUSH2 0x1A8E DUP2 PUSH2 0x1A7B JUMP JUMPDEST DUP3 MSTORE POP POP JUMP JUMPDEST PUSH1 0x0 PUSH1 0x20 DUP3 ADD SWAP1 POP PUSH2 0x1AA9 PUSH1 0x0 DUP4 ADD DUP5 PUSH2 0x1A85 JUMP JUMPDEST SWAP3 SWAP2 POP POP JUMP JUMPDEST PUSH2 0x1AB8 DUP2 PUSH2 0x1A7B JUMP JUMPDEST DUP2 EQ PUSH2 0x1AC3 JUMPI PUSH1 0x0 DUP1 REVERT JUMPDEST POP JUMP JUMPDEST PUSH1 0x0 DUP2 CALLDATALOAD SWAP1 POP PUSH2 0x1AD5 DUP2 PUSH2 0x1AAF JUMP JUMPDEST SWAP3 SWAP2 POP POP JUMP JUMPDEST PUSH1 0x0 PUSH1 0x20 DUP3 DUP5 SUB SLT ISZERO PUSH2 0x1AF1 JUMPI PUSH2 0x1AF0 PUSH2 0x1966 JUMP JUMPDEST JUMPDEST PUSH1 0x0 PUSH2 0x1AFF DUP5 DUP3 DUP6 ADD PUSH2 0x1AC6 JUMP JUMPDEST SWAP2 POP POP SWAP3 SWAP2 POP POP JUMP JUMPDEST PUSH1 0x0 DUP1 REVERT JUMPDEST PUSH1 0x0 DUP1 REVERT JUMPDEST PUSH32 0x4E487B7100000000000000000000000000000000000000000000000000000000 PUSH1 0x0 MSTORE PUSH1 0x41 PUSH1 0x4 MSTORE PUSH1 0x24 PUSH1 0x0 REVERT JUMPDEST PUSH2 0x1B4A DUP3 PUSH2 0x1A0F JUMP JUMPDEST DUP2 ADD DUP2 DUP2 LT PUSH8 0xFFFFFFFFFFFFFFFF DUP3 GT OR ISZERO PUSH2 0x1B69 JUMPI PUSH2 0x1B68 PUSH2 0x1B12 JUMP JUMPDEST JUMPDEST DUP1 PUSH1 0x40 MSTORE POP POP POP JUMP JUMPDEST PUSH1 0x0 PUSH2 0x1B7C PUSH2 0x195C JUMP JUMPDEST SWAP1 POP PUSH2 0x1B88 DUP3 DUP3 PUSH2 0x1B41 JUMP JUMPDEST SWAP2 SWAP1 POP JUMP JUMPDEST PUSH1 0x0 PUSH8 0xFFFFFFFFFFFFFFFF DUP3 GT ISZERO PUSH2 0x1BA8 JUMPI PUSH2 0x1BA7 PUSH2 0x1B12 JUMP JUMPDEST JUMPDEST PUSH2 0x1BB1 DUP3 PUSH2 0x1A0F JUMP JUMPDEST SWAP1 POP PUSH1 0x20 DUP2 ADD SWAP1 POP SWAP2 SWAP1 POP JUMP JUMPDEST DUP3 DUP2 DUP4 CALLDATACOPY PUSH1 0x0 DUP4 DUP4 ADD MSTORE POP POP POP JUMP JUMPDEST PUSH1 0x0 PUSH2 0x1BE0 PUSH2 0x1BDB DUP5 PUSH2 0x1B8D JUMP JUMPDEST PUSH2 0x1B72 JUMP JUMPDEST SWAP1 POP DUP3 DUP2 MSTORE PUSH1 0x20 DUP2 ADD DUP5 DUP5 DUP5 ADD GT ISZERO PUSH2 0x1BFC JUMPI PUSH2 0x1BFB PUSH2 0x1B0D JUMP JUMPDEST JUMPDEST PUSH2 0x1C07 DUP5 DUP3 DUP6 PUSH2 0x1BBE JUMP JUMPDEST POP SWAP4 SWAP3 POP POP POP JUMP JUMPDEST PUSH1 0x0 DUP3 PUSH1 0x1F DUP4 ADD SLT PUSH2 0x1C24 JUMPI PUSH2 0x1C23 PUSH2 0x1B08 JUMP JUMPDEST JUMPDEST DUP2 CALLDATALOAD PUSH2 0x1C34 DUP5 DUP3 PUSH1 0x20 DUP7 ADD PUSH2 0x1BCD JUMP JUMPDEST SWAP2 POP POP SWAP3 SWAP2 POP POP JUMP JUMPDEST PUSH1 0x0 PUSH1 0x20 DUP3 DUP5 SUB SLT ISZERO PUSH2 0x1C53 JUMPI PUSH2 0x1C52 PUSH2 0x1966 JUMP JUMPDEST JUMPDEST PUSH1 0x0 DUP3 ADD CALLDATALOAD PUSH8 0xFFFFFFFFFFFFFFFF DUP2 GT ISZERO PUSH2 0x1C71 JUMPI PUSH2 0x1C70 PUSH2 0x196B JUMP JUMPDEST JUMPDEST PUSH2 0x1C7D DUP5 DUP3 DUP6 ADD PUSH2 0x1C0F JUMP JUMPDEST SWAP2 POP POP SWAP3 SWAP2 POP POP JUMP JUMPDEST PUSH32 0x4E487B7100000000000000000000000000000000000000000000000000000000 PUSH1 0x0 MSTORE PUSH1 0x21 PUSH1 0x4 MSTORE PUSH1 0x24 PUSH1 0x0 REVERT JUMPDEST PUSH1 0x2 DUP2 LT PUSH2 0x1CC6 JUMPI PUSH2 0x1CC5 PUSH2 0x1C86 JUMP JUMPDEST JUMPDEST POP JUMP JUMPDEST PUSH1 0x0 DUP2 SWAP1 POP PUSH2 0x1CD7 DUP3 PUSH2 0x1CB5 JUMP JUMPDEST SWAP2 SWAP1 POP JUMP JUMPDEST PUSH1 0x0 PUSH2 0x1CE7 DUP3 PUSH2 0x1CC9 JUMP JUMPDEST SWAP1 POP SWAP2 SWAP1 POP JUMP JUMPDEST PUSH2 0x1CF7 DUP2 PUSH2 0x1CDC JUMP JUMPDEST DUP3 MSTORE POP POP JUMP JUMPDEST PUSH1 0x0 PUSH1 0x20 DUP3 ADD SWAP1 POP PUSH2 0x1D12 PUSH1 0x0 DUP4 ADD DUP5 PUSH2 0x1CEE JUMP JUMPDEST SWAP3 SWAP2 POP POP JUMP JUMPDEST PUSH1 0x0 DUP2 ISZERO ISZERO SWAP1 POP SWAP2 SWAP1 POP JUMP JUMPDEST PUSH2 0x1D2D DUP2 PUSH2 0x1D18 JUMP JUMPDEST DUP3 MSTORE POP POP JUMP JUMPDEST PUSH1 0x0 PUSH1 0x20 DUP3 ADD SWAP1 POP PUSH2 0x1D48 PUSH1 0x0 DUP4 ADD DUP5 PUSH2 0x1D24 JUMP JUMPDEST SWAP3 SWAP2 POP POP JUMP JUMPDEST PUSH1 0x0 PUSH2 0x1D59 DUP3 PUSH2 0x1900 JUMP JUMPDEST SWAP1 POP SWAP2 SWAP1 POP JUMP JUMPDEST PUSH2 0x1D69 DUP2 PUSH2 0x1D4E JUMP JUMPDEST DUP2 EQ PUSH2 0x1D74 JUMPI PUSH1 0x0 DUP1 REVERT JUMPDEST POP JUMP JUMPDEST PUSH1 0x0 DUP2 CALLDATALOAD SWAP1 POP PUSH2 0x1D86 DUP2 PUSH2 0x1D60 JUMP JUMPDEST SWAP3 SWAP2 POP POP JUMP JUMPDEST PUSH1 0x0 PUSH1 0x20 DUP3 DUP5 SUB SLT ISZERO PUSH2 0x1DA2 JUMPI PUSH2 0x1DA1 PUSH2 0x1966 JUMP JUMPDEST JUMPDEST PUSH1 0x0 PUSH2 0x1DB0 DUP5 DUP3 DUP6 ADD PUSH2 0x1D77 JUMP JUMPDEST SWAP2 POP POP SWAP3 SWAP2 POP POP JUMP JUMPDEST PUSH32 0x4E487B7100000000000000000000000000000000000000000000000000000000 PUSH1 0x0 MSTORE PUSH1 0x22 PUSH1 0x4 MSTORE PUSH1 0x24 PUSH1 0x0 REVERT JUMPDEST PUSH1 0x0 PUSH1 0x2 DUP3 DIV SWAP1 POP PUSH1 0x1 DUP3 AND DUP1 PUSH2 0x1E00 JUMPI PUSH1 0x7F DUP3 AND SWAP2 POP JUMPDEST PUSH1 0x20 DUP3 LT DUP2 SUB PUSH2 0x1E13 JUMPI PUSH2 0x1E12 PUSH2 0x1DB9 JUMP JUMPDEST JUMPDEST POP SWAP2 SWAP1 POP JUMP JUMPDEST PUSH1 0x0 DUP2 SWAP1 POP DUP2 PUSH1 0x0 MSTORE PUSH1 0x20 PUSH1 0x0 KECCAK256 SWAP1 POP SWAP2 SWAP1 POP JUMP JUMPDEST PUSH1 0x0 PUSH1 0x20 PUSH1 0x1F DUP4 ADD DIV SWAP1 POP SWAP2 SWAP1 POP JUMP JUMPDEST PUSH1 0x0 DUP3 DUP3 SHL SWAP1 POP SWAP3 SWAP2 POP POP JUMP JUMPDEST PUSH1 0x0 PUSH1 0x8 DUP4 MUL PUSH2 0x1E7B PUSH32 0xFFFFFFFFFFFFFFFFFFFFFFFFFFFFFFFFFFFFFFFFFFFFFFFFFFFFFFFFFFFFFFFF DUP3 PUSH2 0x1E3E JUMP JUMPDEST PUSH2 0x1E85 DUP7 DUP4 PUSH2 0x1E3E JUMP JUMPDEST SWAP6 POP DUP1 NOT DUP5 AND SWAP4 POP DUP1 DUP7 AND DUP5 OR SWAP3 POP POP POP SWAP4 SWAP3 POP POP POP JUMP JUMPDEST PUSH1 0x0 DUP2 SWAP1 POP SWAP2 SWAP1 POP JUMP JUMPDEST PUSH1 0x0 PUSH2 0x1EC2 PUSH2 0x1EBD PUSH2 0x1EB8 DUP5 PUSH2 0x1A7B JUMP JUMPDEST PUSH2 0x1E9D JUMP JUMPDEST PUSH2 0x1A7B JUMP JUMPDEST SWAP1 POP SWAP2 SWAP1 POP JUMP JUMPDEST PUSH1 0x0 DUP2 SWAP1 POP SWAP2 SWAP1 POP JUMP JUMPDEST PUSH2 0x1EDC DUP4 PUSH2 0x1EA7 JUMP JUMPDEST PUSH2 0x1EF0 PUSH2 0x1EE8 DUP3 PUSH2 0x1EC9 JUMP JUMPDEST DUP5 DUP5 SLOAD PUSH2 0x1E4B JUMP JUMPDEST DUP3 SSTORE POP POP POP POP JUMP JUMPDEST PUSH1 0x0 SWAP1 JUMP JUMPDEST PUSH2 0x1F05 PUSH2 0x1EF8 JUMP JUMPDEST PUSH2 0x1F10 DUP2 DUP5 DUP5 PUSH2 0x1ED3 JUMP JUMPDEST POP POP POP JUMP JUMPDEST JUMPDEST DUP2 DUP2 LT ISZERO PUSH2 0x1F34 JUMPI PUSH2 0x1F29 PUSH1 0x0 DUP3 PUSH2 0x1EFD JUMP JUMPDEST PUSH1 0x1 DUP2 ADD SWAP1 POP PUSH2 0x1F16 JUMP JUMPDEST POP POP JUMP JUMPDEST PUSH1 0x1F DUP3 GT ISZERO PUSH2 0x1F79 JUMPI PUSH2 0x1F4A DUP2 PUSH2 0x1E19 JUMP JUMPDEST PUSH2 0x1F53 DUP5 PUSH2 0x1E2E JUMP JUMPDEST DUP2 ADD PUSH1 0x20 DUP6 LT ISZERO PUSH2 0x1F62 JUMPI DUP2 SWAP1 POP JUMPDEST PUSH2 0x1F76 PUSH2 0x1F6E DUP6 PUSH2 0x1E2E JUMP JUMPDEST DUP4 ADD DUP3 PUSH2 0x1F15 JUMP JUMPDEST POP POP JUMPDEST POP POP POP JUMP JUMPDEST PUSH1 0x0 DUP3 DUP3 SHR SWAP1 POP SWAP3 SWAP2 POP POP JUMP JUMPDEST PUSH1 0x0 PUSH2 0x1F9C PUSH1 0x0 NOT DUP5 PUSH1 0x8 MUL PUSH2 0x1F7E JUMP JUMPDEST NOT DUP1 DUP4 AND SWAP2 POP POP SWAP3 SWAP2 POP POP JUMP JUMPDEST PUSH1 0x0 PUSH2 0x1FB5 DUP4 DUP4 PUSH2 0x1F8B JUMP JUMPDEST SWAP2 POP DUP3 PUSH1 0x2 MUL DUP3 OR SWAP1 POP SWAP3 SWAP2 POP POP JUMP JUMPDEST PUSH2 0x1FCE DUP3 PUSH2 0x19C9 JUMP JUMPDEST PUSH8 0xFFFFFFFFFFFFFFFF DUP2 GT ISZERO PUSH2 0x1FE7 JUMPI PUSH2 0x1FE6 PUSH2 0x1B12 JUMP JUMPDEST JUMPDEST PUSH2 0x1FF1 DUP3 SLOAD PUSH2 0x1DE8 JUMP JUMPDEST PUSH2 0x1FFC DUP3 DUP3 DUP6 PUSH2 0x1F38 JUMP JUMPDEST PUSH1 0x0 PUSH1 0x20 SWAP1 POP PUSH1 0x1F DUP4 GT PUSH1 0x1 DUP2 EQ PUSH2 0x202F JUMPI PUSH1 0x0 DUP5 ISZERO PUSH2 0x201D JUMPI DUP3 DUP8 ADD MLOAD SWAP1 POP JUMPDEST PUSH2 0x2027 DUP6 DUP3 PUSH2 0x1FA9 JUMP JUMPDEST DUP7 SSTORE POP PUSH2 0x208F JUMP JUMPDEST PUSH1 0x1F NOT DUP5 AND PUSH2 0x203D DUP7 PUSH2 0x1E19 JUMP JUMPDEST PUSH1 0x0 JUMPDEST DUP3 DUP2 LT ISZERO PUSH2 0x2065 JUMPI DUP5 DUP10 ADD MLOAD DUP3 SSTORE PUSH1 0x1 DUP3 ADD SWAP2 POP PUSH1 0x20 DUP6 ADD SWAP5 POP PUSH1 0x20 DUP2 ADD SWAP1 POP PUSH2 0x2040 JUMP JUMPDEST DUP7 DUP4 LT ISZERO PUSH2 0x2082 JUMPI DUP5 DUP10 ADD MLOAD PUSH2 0x207E PUSH1 0x1F DUP10 AND DUP3 PUSH2 0x1F8B JUMP JUMPDEST DUP4 SSTORE POP JUMPDEST PUSH1 0x1 PUSH1 0x2 DUP9 MUL ADD DUP9 SSTORE POP POP POP JUMPDEST POP POP POP POP POP POP JUMP JUMPDEST PUSH1 0x0 DUP2 SLOAD SWAP1 POP SWAP2 SWAP1 POP JUMP JUMPDEST PUSH1 0x0 DUP3 DUP3 MSTORE PUSH1 0x20 DUP3 ADD SWAP1 POP SWAP3 SWAP2 POP POP JUMP JUMPDEST PUSH1 0x0 DUP2 SWAP1 POP DUP2 PUSH1 0x0 MSTORE PUSH1 0x20 PUSH1 0x0 KECCAK256 SWAP1 POP SWAP2 SWAP1 POP JUMP JUMPDEST PUSH2 0x20D1 DUP2 PUSH2 0x1920 JUMP JUMPDEST DUP3 MSTORE POP POP JUMP JUMPDEST PUSH1 0x0 PUSH2 0x20E3 DUP4 DUP4 PUSH2 0x20C8 JUMP JUMPDEST PUSH1 0x20 DUP4 ADD SWAP1 POP SWAP3 SWAP2 POP POP JUMP JUMPDEST PUSH1 0x0 DUP2 PUSH1 0x0 SHR SWAP1 POP SWAP2 SWAP1 POP JUMP JUMPDEST PUSH1 0x0 PUSH20 0xFFFFFFFFFFFFFFFFFFFFFFFFFFFFFFFFFFFFFFFF DUP3 AND SWAP1 POP SWAP2 SWAP1 POP JUMP JUMPDEST PUSH1 0x0 PUSH2 0x212F PUSH2 0x212A DUP4 PUSH2 0x20EF JUMP JUMPDEST PUSH2 0x20FC JUMP JUMPDEST SWAP1 POP SWAP2 SWAP1 POP JUMP JUMPDEST PUSH1 0x0 PUSH2 0x2142 DUP3 SLOAD PUSH2 0x211C JUMP JUMPDEST SWAP1 POP SWAP2 SWAP1 POP JUMP JUMPDEST PUSH1 0x0 PUSH1 0x1 DUP3 ADD SWAP1 POP SWAP2 SWAP1 POP JUMP JUMPDEST PUSH1 0x0 PUSH2 0x2161 DUP3 PUSH2 0x2097 JUMP JUMPDEST PUSH2 0x216B DUP2 DUP6 PUSH2 0x20A2 JUMP JUMPDEST SWAP4 POP PUSH2 0x2176 DUP4 PUSH2 0x20B3 JUMP JUMPDEST DUP1 PUSH1 0x0 JUMPDEST DUP4 DUP2 LT ISZERO PUSH2 0x21AE JUMPI PUSH2 0x218B DUP3 PUSH2 0x2136 JUMP JUMPDEST PUSH2 0x2195 DUP9 DUP3 PUSH2 0x20D7 JUMP JUMPDEST SWAP8 POP PUSH2 0x21A0 DUP4 PUSH2 0x2149 JUMP JUMPDEST SWAP3 POP POP PUSH1 0x1 DUP2 ADD SWAP1 POP PUSH2 0x217A JUMP JUMPDEST POP DUP6 SWAP4 POP POP POP POP SWAP3 SWAP2 POP POP JUMP JUMPDEST PUSH1 0x0 PUSH1 0x60 DUP3 ADD SWAP1 POP PUSH2 0x21D0 PUSH1 0x0 DUP4 ADD DUP7 PUSH2 0x1A85 JUMP JUMPDEST PUSH2 0x21DD PUSH1 0x20 DUP4 ADD DUP6 PUSH2 0x1A85 JUMP JUMPDEST DUP2 DUP2 SUB PUSH1 0x40 DUP4 ADD MSTORE PUSH2 0x21EF DUP2 DUP5 PUSH2 0x2156 JUMP JUMPDEST SWAP1 POP SWAP5 SWAP4 POP POP POP POP JUMP JUMPDEST PUSH32 0x4E487B7100000000000000000000000000000000000000000000000000000000 PUSH1 0x0 MSTORE PUSH1 0x11 PUSH1 0x4 MSTORE PUSH1 0x24 PUSH1 0x0 REVERT JUMPDEST PUSH1 0x0 PUSH2 0x2233 DUP3 PUSH2 0x1A7B JUMP JUMPDEST SWAP2 POP PUSH2 0x223E DUP4 PUSH2 0x1A7B JUMP JUMPDEST SWAP3 POP DUP3 DUP3 ADD SWAP1 POP DUP1 DUP3 GT ISZERO PUSH2 0x2256 JUMPI PUSH2 0x2255 PUSH2 0x21F9 JUMP JUMPDEST JUMPDEST SWAP3 SWAP2 POP POP JUMP JUMPDEST PUSH1 0x0 DUP2 SWAP1 POP SWAP3 SWAP2 POP POP JUMP JUMPDEST PUSH32 0x636F6E7472616374646174610000000000000000000000000000000000000000 PUSH1 0x0 DUP3 ADD MSTORE POP JUMP JUMPDEST PUSH1 0x0 PUSH2 0x229D PUSH1 0xC DUP4 PUSH2 0x225C JUMP JUMPDEST SWAP2 POP PUSH2 0x22A8 DUP3 PUSH2 0x2267 JUMP JUMPDEST PUSH1 0xC DUP3 ADD SWAP1 POP SWAP2 SWAP1 POP JUMP JUMPDEST PUSH1 0x0 PUSH2 0x22BE DUP3 PUSH2 0x2290 JUMP JUMPDEST SWAP2 POP DUP2 SWAP1 POP SWAP2 SWAP1 POP JUMP JUMPDEST PUSH1 0x0 DUP2 SLOAD PUSH2 0x22D5 DUP2 PUSH2 0x1DE8 JUMP JUMPDEST PUSH2 0x22DF DUP2 DUP7 PUSH2 0x19D4 JUMP JUMPDEST SWAP5 POP PUSH1 0x1 DUP3 AND PUSH1 0x0 DUP2 EQ PUSH2 0x22FA JUMPI PUSH1 0x1 DUP2 EQ PUSH2 0x2310 JUMPI PUSH2 0x2343 JUMP JUMPDEST PUSH1 0xFF NOT DUP4 AND DUP7 MSTORE DUP2 ISZERO ISZERO PUSH1 0x20 MUL DUP7 ADD SWAP4 POP PUSH2 0x2343 JUMP JUMPDEST PUSH2 0x2319 DUP6 PUSH2 0x1E19 JUMP JUMPDEST PUSH1 0x0 JUMPDEST DUP4 DUP2 LT ISZERO PUSH2 0x233B JUMPI DUP2 SLOAD DUP2 DUP10 ADD MSTORE PUSH1 0x1 DUP3 ADD SWAP2 POP PUSH1 0x20 DUP2 ADD SWAP1 POP PUSH2 0x231C JUMP JUMPDEST DUP1 DUP9 ADD SWAP6 POP POP POP JUMPDEST POP POP POP SWAP3 SWAP2 POP POP JUMP JUMPDEST PUSH1 0x0 DUP2 SLOAD SWAP1 POP SWAP2 SWAP1 POP JUMP JUMPDEST PUSH1 0x0 DUP3 DUP3 MSTORE PUSH1 0x20 DUP3 ADD SWAP1 POP SWAP3 SWAP2 POP POP JUMP JUMPDEST PUSH1 0x0 DUP2 SWAP1 POP DUP2 PUSH1 0x0 MSTORE PUSH1 0x20 PUSH1 0x0 KECCAK256 SWAP1 POP SWAP2 SWAP1 POP JUMP JUMPDEST PUSH2 0x2386 DUP2 PUSH2 0x1A7B JUMP JUMPDEST DUP3 MSTORE POP POP JUMP JUMPDEST PUSH1 0x0 PUSH2 0x2398 DUP4 DUP4 PUSH2 0x237D JUMP JUMPDEST PUSH1 0x20 DUP4 ADD SWAP1 POP SWAP3 SWAP2 POP POP JUMP JUMPDEST PUSH1 0x0 DUP2 SWAP1 POP SWAP2 SWAP1 POP JUMP JUMPDEST PUSH1 0x0 PUSH2 0x23C1 PUSH2 0x23BC DUP4 PUSH2 0x20EF JUMP JUMPDEST PUSH2 0x23A4 JUMP JUMPDEST SWAP1 POP SWAP2 SWAP1 POP JUMP JUMPDEST PUSH1 0x0 PUSH2 0x23D4 DUP3 SLOAD PUSH2 0x23AE JUMP JUMPDEST SWAP1 POP SWAP2 SWAP1 POP JUMP JUMPDEST PUSH1 0x0 PUSH1 0x1 DUP3 ADD SWAP1 POP SWAP2 SWAP1 POP JUMP JUMPDEST PUSH1 0x0 PUSH2 0x23F3 DUP3 PUSH2 0x234C JUMP JUMPDEST PUSH2 0x23FD DUP2 DUP6 PUSH2 0x2357 JUMP JUMPDEST SWAP4 POP PUSH2 0x2408 DUP4 PUSH2 0x2368 JUMP JUMPDEST DUP1 PUSH1 0x0 JUMPDEST DUP4 DUP2 LT ISZERO PUSH2 0x2440 JUMPI PUSH2 0x241D DUP3 PUSH2 0x23C8 JUMP JUMPDEST PUSH2 0x2427 DUP9 DUP3 PUSH2 0x238C JUMP JUMPDEST SWAP8 POP PUSH2 0x2432 DUP4 PUSH2 0x23DB JUMP JUMPDEST SWAP3 POP POP PUSH1 0x1 DUP2 ADD SWAP1 POP PUSH2 0x240C JUMP JUMPDEST POP DUP6 SWAP4 POP POP POP POP SWAP3 SWAP2 POP POP JUMP JUMPDEST PUSH1 0x0 DUP2 SLOAD SWAP1 POP SWAP2 SWAP1 POP JUMP JUMPDEST PUSH1 0x0 DUP3 DUP3 MSTORE PUSH1 0x20 DUP3 ADD SWAP1 POP SWAP3 SWAP2 POP POP JUMP JUMPDEST PUSH1 0x0 DUP2 SWAP1 POP DUP2 PUSH1 0x0 MSTORE PUSH1 0x20 PUSH1 0x0 KECCAK256 SWAP1 POP SWAP2 SWAP1 POP JUMP JUMPDEST PUSH1 0x0 DUP3 DUP3 MSTORE PUSH1 0x20 DUP3 ADD SWAP1 POP SWAP3 SWAP2 POP POP JUMP JUMPDEST PUSH1 0x0 DUP2 SLOAD PUSH2 0x249C DUP2 PUSH2 0x1DE8 JUMP JUMPDEST PUSH2 0x24A6 DUP2 DUP7 PUSH2 0x247E JUMP JUMPDEST SWAP5 POP PUSH1 0x1 DUP3 AND PUSH1 0x0 DUP2 EQ PUSH2 0x24C1 JUMPI PUSH1 0x1 DUP2 EQ PUSH2 0x24D7 JUMPI PUSH2 0x250A JUMP JUMPDEST PUSH1 0xFF NOT DUP4 AND DUP7 MSTORE DUP2 ISZERO ISZERO PUSH1 0x20 MUL DUP7 ADD SWAP4 POP PUSH2 0x250A JUMP JUMPDEST PUSH2 0x24E0 DUP6 PUSH2 0x1E19 JUMP JUMPDEST PUSH1 0x0 JUMPDEST DUP4 DUP2 LT ISZERO PUSH2 0x2502 JUMPI DUP2 SLOAD DUP2 DUP10 ADD MSTORE PUSH1 0x1 DUP3 ADD SWAP2 POP PUSH1 0x20 DUP2 ADD SWAP1 POP PUSH2 0x24E3 JUMP JUMPDEST DUP1 DUP9 ADD SWAP6 POP POP POP JUMPDEST POP POP POP SWAP3 SWAP2 POP POP JUMP JUMPDEST PUSH1 0x0 PUSH2 0x251F DUP4 DUP4 PUSH2 0x248F JUMP JUMPDEST SWAP1 POP SWAP3 SWAP2 POP POP JUMP JUMPDEST PUSH1 0x0 PUSH1 0x1 DUP3 ADD SWAP1 POP SWAP2 SWAP1 POP JUMP JUMPDEST PUSH1 0x0 PUSH2 0x253F DUP3 PUSH2 0x244D JUMP JUMPDEST PUSH2 0x2549 DUP2 DUP6 PUSH2 0x2458 JUMP JUMPDEST SWAP4 POP DUP4 PUSH1 0x20 DUP3 MUL DUP6 ADD PUSH2 0x255B DUP6 PUSH2 0x2469 JUMP JUMPDEST DUP1 PUSH1 0x0 JUMPDEST DUP6 DUP2 LT ISZERO PUSH2 0x2596 JUMPI DUP5 DUP5 SUB DUP10 MSTORE DUP2 PUSH2 0x2577 DUP6 DUP3 PUSH2 0x2513 JUMP JUMPDEST SWAP5 POP PUSH2 0x2582 DUP4 PUSH2 0x2527 JUMP JUMPDEST SWAP3 POP PUSH1 0x20 DUP11 ADD SWAP10 POP POP PUSH1 0x1 DUP2 ADD SWAP1 POP PUSH2 0x255F JUMP JUMPDEST POP DUP3 SWAP8 POP DUP8 SWAP6 POP POP POP POP POP POP SWAP3 SWAP2 POP POP JUMP JUMPDEST PUSH1 0x0 PUSH2 0x160 DUP3 ADD SWAP1 POP PUSH2 0x25BE PUSH1 0x0 DUP4 ADD DUP15 PUSH2 0x1932 JUMP JUMPDEST DUP2 DUP2 SUB PUSH1 0x20 DUP4 ADD MSTORE PUSH2 0x25D0 DUP2 DUP14 PUSH2 0x22C8 JUMP JUMPDEST SWAP1 POP DUP2 DUP2 SUB PUSH1 0x40 DUP4 ADD MSTORE PUSH2 0x25E4 DUP2 DUP13 PUSH2 0x22C8 JUMP JUMPDEST SWAP1 POP PUSH2 0x25F3 PUSH1 0x60 DUP4 ADD DUP12 PUSH2 0x1A85 JUMP JUMPDEST PUSH2 0x2600 PUSH1 0x80 DUP4 ADD DUP11 PUSH2 0x1A85 JUMP JUMPDEST PUSH2 0x260D PUSH1 0xA0 DUP4 ADD DUP10 PUSH2 0x1A85 JUMP JUMPDEST DUP2 DUP2 SUB PUSH1 0xC0 DUP4 ADD MSTORE PUSH2 0x261F DUP2 DUP9 PUSH2 0x22C8 JUMP JUMPDEST SWAP1 POP DUP2 DUP2 SUB PUSH1 0xE0 DUP4 ADD MSTORE PUSH2 0x2633 DUP2 DUP8 PUSH2 0x23E8 JUMP JUMPDEST SWAP1 POP DUP2 DUP2 SUB PUSH2 0x100 DUP4 ADD MSTORE PUSH2 0x2648 DUP2 DUP7 PUSH2 0x2534 JUMP JUMPDEST SWAP1 POP PUSH2 0x2658 PUSH2 0x120 DUP4 ADD DUP6 PUSH2 0x1A85 JUMP JUMPDEST DUP2 DUP2 SUB PUSH2 0x140 DUP4 ADD MSTORE PUSH2 0x266B DUP2 DUP5 PUSH2 0x2156 JUMP JUMPDEST SWAP1 POP SWAP13 SWAP12 POP POP POP POP POP POP POP POP POP POP POP POP JUMP JUMPDEST PUSH32 0x4E487B7100000000000000000000000000000000000000000000000000000000 PUSH1 0x0 MSTORE PUSH1 0x12 PUSH1 0x4 MSTORE PUSH1 0x24 PUSH1 0x0 REVERT JUMPDEST PUSH1 0x0 PUSH2 0x26B7 DUP3 PUSH2 0x1A7B JUMP JUMPDEST SWAP2 POP PUSH2 0x26C2 DUP4 PUSH2 0x1A7B JUMP JUMPDEST SWAP3 POP DUP3 PUSH2 0x26D2 JUMPI PUSH2 0x26D1 PUSH2 0x267D JUMP JUMPDEST JUMPDEST DUP3 DUP3 MOD SWAP1 POP SWAP3 SWAP2 POP POP JUMP JUMPDEST PUSH32 0x4E487B7100000000000000000000000000000000000000000000000000000000 PUSH1 0x0 MSTORE PUSH1 0x32 PUSH1 0x4 MSTORE PUSH1 0x24 PUSH1 0x0 REVERT JUMPDEST PUSH1 0x0 PUSH2 0x2717 DUP3 PUSH2 0x1A7B JUMP JUMPDEST SWAP2 POP PUSH2 0x2722 DUP4 PUSH2 0x1A7B JUMP JUMPDEST SWAP3 POP DUP3 DUP3 MUL PUSH2 0x2730 DUP2 PUSH2 0x1A7B JUMP JUMPDEST SWAP2 POP DUP3 DUP3 DIV DUP5 EQ DUP4 ISZERO OR PUSH2 0x2747 JUMPI PUSH2 0x2746 PUSH2 0x21F9 JUMP JUMPDEST JUMPDEST POP SWAP3 SWAP2 POP POP JUMP JUMPDEST PUSH1 0x0 PUSH2 0x2759 DUP3 PUSH2 0x1A7B JUMP JUMPDEST SWAP2 POP PUSH2 0x2764 DUP4 PUSH2 0x1A7B JUMP JUMPDEST SWAP3 POP DUP3 PUSH2 0x2774 JUMPI PUSH2 0x2773 PUSH2 0x267D JUMP JUMPDEST JUMPDEST DUP3 DUP3 DIV SWAP1 POP SWAP3 SWAP2 POP POP JUMP JUMPDEST PUSH1 0x0 PUSH2 0x278A DUP3 PUSH2 0x1A7B JUMP JUMPDEST SWAP2 POP PUSH32 0xFFFFFFFFFFFFFFFFFFFFFFFFFFFFFFFFFFFFFFFFFFFFFFFFFFFFFFFFFFFFFFFF DUP3 SUB PUSH2 0x27BC JUMPI PUSH2 0x27BB PUSH2 0x21F9 JUMP JUMPDEST JUMPDEST PUSH1 0x1 DUP3 ADD SWAP1 POP SWAP2 SWAP1 POP JUMP JUMPDEST PUSH1 0x0 DUP2 SLOAD SWAP1 POP PUSH2 0x27D6 DUP2 PUSH2 0x1DE8 JUMP JUMPDEST SWAP1 POP SWAP2 SWAP1 POP JUMP JUMPDEST PUSH1 0x0 DUP2 SWAP1 POP DUP2 PUSH1 0x0 MSTORE PUSH1 0x20 PUSH1 0x0 KECCAK256 SWAP1 POP SWAP2 SWAP1 POP JUMP JUMPDEST DUP2 DUP2 SUB PUSH2 0x2800 JUMPI POP POP PUSH2 0x28D8 JUMP JUMPDEST PUSH2 0x2809 DUP3 PUSH2 0x27C7 JUMP JUMPDEST PUSH8 0xFFFFFFFFFFFFFFFF DUP2 GT ISZERO PUSH2 0x2822 JUMPI PUSH2 0x2821 PUSH2 0x1B12 JUMP JUMPDEST JUMPDEST PUSH2 0x282C DUP3 SLOAD PUSH2 0x1DE8 JUMP JUMPDEST PUSH2 0x2837 DUP3 DUP3 DUP6 PUSH2 0x1F38 JUMP JUMPDEST PUSH1 0x0 PUSH1 0x1F DUP4 GT PUSH1 0x1 DUP2 EQ PUSH2 0x2866 JUMPI PUSH1 0x0 DUP5 ISZERO PUSH2 0x2854 JUMPI DUP3 DUP8 ADD SLOAD SWAP1 POP JUMPDEST PUSH2 0x285E DUP6 DUP3 PUSH2 0x1FA9 JUMP JUMPDEST DUP7 SSTORE POP PUSH2 0x28D1 JUMP JUMPDEST PUSH1 0x1F NOT DUP5 AND PUSH2 0x2874 DUP8 PUSH2 0x27DD JUMP JUMPDEST SWAP7 POP PUSH2 0x287F DUP7 PUSH2 0x1E19 JUMP JUMPDEST PUSH1 0x0 JUMPDEST DUP3 DUP2 LT ISZERO PUSH2 0x28A7 JUMPI DUP5 DUP10 ADD SLOAD DUP3 SSTORE PUSH1 0x1 DUP3 ADD SWAP2 POP PUSH1 0x1 DUP6 ADD SWAP5 POP PUSH1 0x20 DUP2 ADD SWAP1 POP PUSH2 0x2882 JUMP JUMPDEST DUP7 DUP4 LT ISZERO PUSH2 0x28C4 JUMPI DUP5 DUP10 ADD SLOAD PUSH2 0x28C0 PUSH1 0x1F DUP10 AND DUP3 PUSH2 0x1F8B JUMP JUMPDEST DUP4 SSTORE POP JUMPDEST PUSH1 0x1 PUSH1 0x2 DUP9 MUL ADD DUP9 SSTORE POP POP POP JUMPDEST POP POP POP POP POP POP JUMPDEST JUMP JUMPDEST PUSH1 0x0 PUSH2 0x28E5 DUP3 PUSH2 0x1A7B JUMP JUMPDEST SWAP2 POP PUSH2 0x28F0 DUP4 PUSH2 0x1A7B JUMP JUMPDEST SWAP3 POP DUP3 DUP3 SUB SWAP1 POP DUP2 DUP2 GT ISZERO PUSH2 0x2908 JUMPI PUSH2 0x2907 PUSH2 0x21F9 JUMP JUMPDEST JUMPDEST SWAP3 SWAP2 POP POP JUMP INVALID LOG2 PUSH5 0x6970667358 0x22 SLT KECCAK256 SWAP11 0xB5 CREATE2 JUMPDEST 0xB2 STATICCALL 0xF6 COINBASE 0xD3 0xE2 NUMBER TIMESTAMP 0xD4 0xAA STATICCALL 0xD7 GASLIMIT SWAP3 0xCB 0xF6 PUSH15 0xE8729CEF1276749536100664736F6C PUSH4 0x43000813 STOP CALLER LOG2 PUSH5 0x6970667358 0x22 SLT KECCAK256 SGT GASPRICE 0xDF 0xF9 0xA7 DUP11 PUSH13 0xFCB2E067D43BE516B2831FC581 DUP15 SLT 0xA5 0xA6 PUSH26 0x1E4F5ED6EEDB9D64736F6C634300081300330000000000000000 "
		},
		"gasEstimates": {
			"creation": {
				"codeDepositCost": "3960800",
				"executionCost": "75159",
				"totalCost": "4035959"
			},
			"external": {
				"adminAddr()": "2558",
				"createdLoteries(uint256)": "4956",
				"creator()": "2515",
				"deployLotteryContract(uint256,uint256,string,string,string,uint256,string[],uint256[])": "infinite",
				"getContracts()": "infinite",
				"getUserContracts(address)": "infinite",
				"percentageFees()": "2452"
			}
		},
		"methodIdentifiers": {
			"adminAddr()": "81830593",
			"createdLoteries(uint256)": "2dd111a9",
			"creator()": "02d05d3f",
			"deployLotteryContract(uint256,uint256,string,string,string,uint256,string[],uint256[])": "23c09848",
			"getContracts()": "c3a2a93a",
			"getUserContracts(address)": "34c925f0",
			"percentageFees()": "16a5265d"
		}
	},
	"abi": [
		{
			"inputs": [],
			"stateMutability": "nonpayable",
			"type": "constructor"
		},
		{
			"anonymous": false,
			"inputs": [
				{
					"indexed": true,
					"internalType": "string",
					"name": "val",
					"type": "string"
				},
				{
					"indexed": false,
					"internalType": "address",
					"name": "contractAddr",
					"type": "address"
				},
				{
					"indexed": false,
					"internalType": "string",
					"name": "name",
					"type": "string"
				},
				{
					"indexed": false,
					"internalType": "address",
					"name": "creator",
					"type": "address"
				},
				{
					"indexed": false,
					"internalType": "uint256",
					"name": "typeContract",
					"type": "uint256"
				}
			],
			"name": "eventAllContracts",
			"type": "event"
		},
		{
			"inputs": [],
			"name": "adminAddr",
			"outputs": [
				{
					"internalType": "address",
					"name": "",
					"type": "address"
				}
			],
			"stateMutability": "view",
			"type": "function"
		},
		{
			"inputs": [
				{
					"internalType": "uint256",
					"name": "",
					"type": "uint256"
				}
			],
			"name": "createdLoteries",
			"outputs": [
				{
					"internalType": "address",
					"name": "",
					"type": "address"
				}
			],
			"stateMutability": "view",
			"type": "function"
		},
		{
			"inputs": [],
			"name": "creator",
			"outputs": [
				{
					"internalType": "address",
					"name": "",
					"type": "address"
				}
			],
			"stateMutability": "view",
			"type": "function"
		},
		{
			"inputs": [
				{
					"internalType": "uint256",
					"name": "miniumAmount",
					"type": "uint256"
				},
				{
					"internalType": "uint256",
					"name": "lotteryTypeVal",
					"type": "uint256"
				},
				{
					"internalType": "string",
					"name": "name",
					"type": "string"
				},
				{
					"internalType": "string",
					"name": "description",
					"type": "string"
				},
				{
					"internalType": "string",
					"name": "linkCreator",
					"type": "string"
				},
				{
					"internalType": "uint256",
					"name": "feesCreator",
					"type": "uint256"
				},
				{
					"internalType": "string[]",
					"name": "_prizesRaffle",
					"type": "string[]"
				},
				{
					"internalType": "uint256[]",
					"name": "_prizesLottery",
					"type": "uint256[]"
				}
			],
			"name": "deployLotteryContract",
			"outputs": [
				{
					"internalType": "address",
					"name": "",
					"type": "address"
				}
			],
			"stateMutability": "payable",
			"type": "function"
		},
		{
			"inputs": [],
			"name": "getContracts",
			"outputs": [
				{
					"internalType": "address[]",
					"name": "messageOut",
					"type": "address[]"
				}
			],
			"stateMutability": "view",
			"type": "function"
		},
		{
			"inputs": [
				{
					"internalType": "address",
					"name": "_user",
					"type": "address"
				}
			],
			"name": "getUserContracts",
			"outputs": [
				{
					"internalType": "address[]",
					"name": "messageOut",
					"type": "address[]"
				}
			],
			"stateMutability": "view",
			"type": "function"
		},
		{
			"inputs": [],
			"name": "percentageFees",
			"outputs": [
				{
					"internalType": "uint256",
					"name": "",
					"type": "uint256"
				}
			],
			"stateMutability": "view",
			"type": "function"
		}
	]
}