{
	"data": {
		"bytecode": {
			"linkReferences": {},
			"object": "608060405234801561001057600080fd5b5033600260006101000a81548173ffffffffffffffffffffffffffffffffffffffff021916908373ffffffffffffffffffffffffffffffffffffffff16021790555033600160006101000a81548173ffffffffffffffffffffffffffffffffffffffff021916908373ffffffffffffffffffffffffffffffffffffffff1602179055506005600081905550615afc806100aa6000396000f3fe6080604052600436106200007a5760003560e01c80632dd111a911620000555780632dd111a9146200011557806334c925f0146200015957806381830593146200019d578063c3a2a93a14620001cd576200007a565b806302d05d3f146200007f57806316a5265d14620000af57806323c0984814620000df575b600080fd5b3480156200008c57600080fd5b5062000097620001fd565b604051620000a6919062000671565b60405180910390f35b348015620000bc57600080fd5b50620000c762000223565b604051620000d69190620006a9565b60405180910390f35b620000fd6004803603810190620000f7919062000a3f565b62000229565b6040516200010c919062000671565b60405180910390f35b3480156200012257600080fd5b506200014160048036038101906200013b919062000ba3565b62000459565b60405162000150919062000671565b60405180910390f35b3480156200016657600080fd5b506200018560048036038101906200017f919062000c06565b62000499565b60405162000194919062000d06565b60405180910390f35b348015620001aa57600080fd5b50620001b562000568565b604051620001c4919062000671565b60405180910390f35b348015620001da57600080fd5b50620001e56200058e565b604051620001f4919062000d06565b60405180910390f35b600260009054906101000a900473ffffffffffffffffffffffffffffffffffffffff1681565b60005481565b6000808803620002485760058411156200024257600080fd5b62000276565b600188036200026557605f84146200025f57600080fd5b62000275565b60058411156200027457600080fd5b5b5b6000338a8a8a8a8a6000548b600160009054906101000a900473ffffffffffffffffffffffffffffffffffffffff168c8c604051620002b5906200061e565b620002cb9b9a9998979695949392919062000fa3565b604051809103906000f080158015620002e8573d6000803e3d6000fd5b5090506000819050600460003373ffffffffffffffffffffffffffffffffffffffff1673ffffffffffffffffffffffffffffffffffffffff168152602001908152602001600020819080600181540180825580915050600190039060005260206000200160009091909190916101000a81548173ffffffffffffffffffffffffffffffffffffffff021916908373ffffffffffffffffffffffffffffffffffffffff1602179055506003819080600181540180825580915050600190039060005260206000200160009091909190916101000a81548173ffffffffffffffffffffffffffffffffffffffff021916908373ffffffffffffffffffffffffffffffffffffffff1602179055506040516200040190620010e2565b60405180910390207fed82fd5193cbac01de9a009da053e6119b6a01ed00499815c09e28b179c37936828b338e604051620004409493929190620010f9565b60405180910390a2809250505098975050505050505050565b600381815481106200046a57600080fd5b906000526020600020016000915054906101000a900473ffffffffffffffffffffffffffffffffffffffff1681565b6060600460008373ffffffffffffffffffffffffffffffffffffffff1673ffffffffffffffffffffffffffffffffffffffff1681526020019081526020016000208054806020026020016040519081016040528092919081815260200182805480156200055c57602002820191906000526020600020905b8160009054906101000a900473ffffffffffffffffffffffffffffffffffffffff1673ffffffffffffffffffffffffffffffffffffffff168152602001906001019080831162000511575b50505050509050919050565b600160009054906101000a900473ffffffffffffffffffffffffffffffffffffffff1681565b606060038054806020026020016040519081016040528092919081815260200182805480156200061457602002820191906000526020600020905b8160009054906101000a900473ffffffffffffffffffffffffffffffffffffffff1673ffffffffffffffffffffffffffffffffffffffff1681526020019060010190808311620005c9575b5050505050905090565b614979806200114e83390190565b600073ffffffffffffffffffffffffffffffffffffffff82169050919050565b600062000659826200062c565b9050919050565b6200066b816200064c565b82525050565b600060208201905062000688600083018462000660565b92915050565b6000819050919050565b620006a3816200068e565b82525050565b6000602082019050620006c0600083018462000698565b92915050565b6000604051905090565b600080fd5b600080fd5b620006e5816200068e565b8114620006f157600080fd5b50565b6000813590506200070581620006da565b92915050565b600080fd5b600080fd5b6000601f19601f8301169050919050565b7f4e487b7100000000000000000000000000000000000000000000000000000000600052604160045260246000fd5b620007608262000715565b810181811067ffffffffffffffff8211171562000782576200078162000726565b5b80604052505050565b600062000797620006c6565b9050620007a5828262000755565b919050565b600067ffffffffffffffff821115620007c857620007c762000726565b5b620007d38262000715565b9050602081019050919050565b82818337600083830152505050565b6000620008066200080084620007aa565b6200078b565b90508281526020810184848401111562000825576200082462000710565b5b62000832848285620007e0565b509392505050565b600082601f8301126200085257620008516200070b565b5b813562000864848260208601620007ef565b91505092915050565b600067ffffffffffffffff8211156200088b576200088a62000726565b5b602082029050602081019050919050565b600080fd5b6000620008b8620008b2846200086d565b6200078b565b90508083825260208201905060208402830185811115620008de57620008dd6200089c565b5b835b818110156200092c57803567ffffffffffffffff8111156200090757620009066200070b565b5b8086016200091689826200083a565b85526020850194505050602081019050620008e0565b5050509392505050565b600082601f8301126200094e576200094d6200070b565b5b813562000960848260208601620008a1565b91505092915050565b600067ffffffffffffffff82111562000987576200098662000726565b5b602082029050602081019050919050565b6000620009af620009a98462000969565b6200078b565b90508083825260208201905060208402830185811115620009d557620009d46200089c565b5b835b8181101562000a025780620009ed8882620006f4565b845260208401935050602081019050620009d7565b5050509392505050565b600082601f83011262000a245762000a236200070b565b5b813562000a3684826020860162000998565b91505092915050565b600080600080600080600080610100898b03121562000a635762000a62620006d0565b5b600062000a738b828c01620006f4565b985050602062000a868b828c01620006f4565b975050604089013567ffffffffffffffff81111562000aaa5762000aa9620006d5565b5b62000ab88b828c016200083a565b965050606089013567ffffffffffffffff81111562000adc5762000adb620006d5565b5b62000aea8b828c016200083a565b955050608089013567ffffffffffffffff81111562000b0e5762000b0d620006d5565b5b62000b1c8b828c016200083a565b94505060a062000b2f8b828c01620006f4565b93505060c089013567ffffffffffffffff81111562000b535762000b52620006d5565b5b62000b618b828c0162000936565b92505060e089013567ffffffffffffffff81111562000b855762000b84620006d5565b5b62000b938b828c0162000a0c565b9150509295985092959890939650565b60006020828403121562000bbc5762000bbb620006d0565b5b600062000bcc84828501620006f4565b91505092915050565b62000be0816200064c565b811462000bec57600080fd5b50565b60008135905062000c008162000bd5565b92915050565b60006020828403121562000c1f5762000c1e620006d0565b5b600062000c2f8482850162000bef565b91505092915050565b600081519050919050565b600082825260208201905092915050565b6000819050602082019050919050565b62000c6f816200064c565b82525050565b600062000c83838362000c64565b60208301905092915050565b6000602082019050919050565b600062000ca98262000c38565b62000cb5818562000c43565b935062000cc28362000c54565b8060005b8381101562000cf957815162000cdd888262000c75565b975062000cea8362000c8f565b92505060018101905062000cc6565b5085935050505092915050565b6000602082019050818103600083015262000d22818462000c9c565b905092915050565b600081519050919050565b600082825260208201905092915050565b60005b8381101562000d6657808201518184015260208101905062000d49565b60008484015250505050565b600062000d7f8262000d2a565b62000d8b818562000d35565b935062000d9d81856020860162000d46565b62000da88162000715565b840191505092915050565b600081519050919050565b600082825260208201905092915050565b6000819050602082019050919050565b600082825260208201905092915050565b600062000dfd8262000d2a565b62000e09818562000ddf565b935062000e1b81856020860162000d46565b62000e268162000715565b840191505092915050565b600062000e3f838362000df0565b905092915050565b6000602082019050919050565b600062000e618262000db3565b62000e6d818562000dbe565b93508360208202850162000e818562000dcf565b8060005b8581101562000ec3578484038952815162000ea1858262000e31565b945062000eae8362000e47565b925060208a0199505060018101905062000e85565b50829750879550505050505092915050565b600081519050919050565b600082825260208201905092915050565b6000819050602082019050919050565b62000f0c816200068e565b82525050565b600062000f20838362000f01565b60208301905092915050565b6000602082019050919050565b600062000f468262000ed5565b62000f52818562000ee0565b935062000f5f8362000ef1565b8060005b8381101562000f9657815162000f7a888262000f12565b975062000f878362000f2c565b92505060018101905062000f63565b5085935050505092915050565b60006101608201905062000fbb600083018e62000660565b62000fca602083018d62000698565b62000fd9604083018c62000698565b818103606083015262000fed818b62000d72565b9050818103608083015262001003818a62000d72565b905081810360a083015262001019818962000d72565b90506200102a60c083018862000698565b6200103960e083018762000698565b6200104961010083018662000660565b8181036101208301526200105e818562000e54565b905081810361014083015262001075818462000f39565b90509c9b505050505050505050505050565b600081905092915050565b7f636f6e7472616374730000000000000000000000000000000000000000000000600082015250565b6000620010ca60098362001087565b9150620010d78262001092565b600982019050919050565b6000620010ef82620010bb565b9150819050919050565b600060808201905062001110600083018762000660565b818103602083015262001124818662000d72565b905062001135604083018562000660565b62001144606083018462000698565b9594505050505056fe60806040523480156200001157600080fd5b5060405162004979380380620049798339818101604052810190620000379190620009c8565b600180600080600681111562000052576200005162000b70565b5b600681111562000067576200006662000b70565b5b8152602001908152602001600020819055506002600160006001600681111562000096576200009562000b70565b5b6006811115620000ab57620000aa62000b70565b5b81526020019081526020016000208190555060046001600060026006811115620000da57620000d962000b70565b5b6006811115620000ef57620000ee62000b70565b5b815260200190815260200160002081905550600860016000600360068111156200011e576200011d62000b70565b5b600681111562000133576200013262000b70565b5b8152602001908152602001600020819055506010600160006004600681111562000162576200016162000b70565b5b600681111562000177576200017662000b70565b5b81526020019081526020016000208190555060206001600060056006811115620001a657620001a562000b70565b5b6006811115620001bb57620001ba62000b70565b5b815260200190815260200160002081905550604060016000600680811115620001e957620001e862000b70565b5b6006811115620001fe57620001fd62000b70565b5b8152602001908152602001600020819055508a600360006101000a81548173ffffffffffffffffffffffffffffffffffffffff021916908373ffffffffffffffffffffffffffffffffffffffff16021790555089600781905550876004908162000269919062000de0565b5086600590816200027b919062000de0565b5085600690816200028d919062000de0565b50846008819055508360098190555082600260006101000a81548173ffffffffffffffffffffffffffffffffffffffff021916908373ffffffffffffffffffffffffffffffffffffffff1602179055506040518060400160405280600781526020017f6f6e676f696e6700000000000000000000000000000000000000000000000000815250600e908162000323919062000de0565b50600089036200037a576000600d60006101000a81548160ff0219169083600181111562000356576200035562000b70565b5b021790555080601590805190602001906200037392919062000484565b5062000419565b60018903620003d0576001600d60006101000a81548160ff02191690836001811115620003ac57620003ab62000b70565b5b02179055508160149080519060200190620003c9929190620004d6565b5062000418565b6000600d60006101000a81548160ff02191690836001811115620003f957620003f862000b70565b5b021790555080601590805190602001906200041692919062000484565b505b5b604051620004279062000f22565b60405180910390207f662c389cef670918dba40e9d07e97dd26e41b509a7a159015c20bb806527604d8c8a8a8e6000806040516200046b9695949392919062001040565b60405180910390a25050505050505050505050620010d0565b828054828255906000526020600020908101928215620004c3579160200282015b82811115620004c2578251825591602001919060010190620004a5565b5b509050620004d2919062000536565b5090565b82805482825590600052602060002090810192821562000523579160200282015b828111156200052257825182908162000511919062000de0565b5091602001919060010190620004f7565b5b50905062000532919062000555565b5090565b5b808211156200055157600081600090555060010162000537565b5090565b5b808211156200057957600081816200056f91906200057d565b5060010162000556565b5090565b5080546200058b9062000bd9565b6000825580601f106200059f5750620005c0565b601f016020900490600052602060002090810190620005bf919062000536565b5b50565b6000604051905090565b600080fd5b600080fd5b600073ffffffffffffffffffffffffffffffffffffffff82169050919050565b60006200060482620005d7565b9050919050565b6200061681620005f7565b81146200062257600080fd5b50565b60008151905062000636816200060b565b92915050565b6000819050919050565b62000651816200063c565b81146200065d57600080fd5b50565b600081519050620006718162000646565b92915050565b600080fd5b600080fd5b6000601f19601f8301169050919050565b7f4e487b7100000000000000000000000000000000000000000000000000000000600052604160045260246000fd5b620006cc8262000681565b810181811067ffffffffffffffff82111715620006ee57620006ed62000692565b5b80604052505050565b600062000703620005c3565b9050620007118282620006c1565b919050565b600067ffffffffffffffff82111562000734576200073362000692565b5b6200073f8262000681565b9050602081019050919050565b60005b838110156200076c5780820151818401526020810190506200074f565b60008484015250505050565b60006200078f620007898462000716565b620006f7565b905082815260208101848484011115620007ae57620007ad6200067c565b5b620007bb8482856200074c565b509392505050565b600082601f830112620007db57620007da62000677565b5b8151620007ed84826020860162000778565b91505092915050565b600067ffffffffffffffff82111562000814576200081362000692565b5b602082029050602081019050919050565b600080fd5b6000620008416200083b84620007f6565b620006f7565b9050808382526020820190506020840283018581111562000867576200086662000825565b5b835b81811015620008b557805167ffffffffffffffff81111562000890576200088f62000677565b5b8086016200089f8982620007c3565b8552602085019450505060208101905062000869565b5050509392505050565b600082601f830112620008d757620008d662000677565b5b8151620008e98482602086016200082a565b91505092915050565b600067ffffffffffffffff82111562000910576200090f62000692565b5b602082029050602081019050919050565b6000620009386200093284620008f2565b620006f7565b905080838252602082019050602084028301858111156200095e576200095d62000825565b5b835b818110156200098b578062000976888262000660565b84526020840193505060208101905062000960565b5050509392505050565b600082601f830112620009ad57620009ac62000677565b5b8151620009bf84826020860162000921565b91505092915050565b60008060008060008060008060008060006101608c8e031215620009f157620009f0620005cd565b5b600062000a018e828f0162000625565b9b5050602062000a148e828f0162000660565b9a5050604062000a278e828f0162000660565b99505060608c015167ffffffffffffffff81111562000a4b5762000a4a620005d2565b5b62000a598e828f01620007c3565b98505060808c015167ffffffffffffffff81111562000a7d5762000a7c620005d2565b5b62000a8b8e828f01620007c3565b97505060a08c015167ffffffffffffffff81111562000aaf5762000aae620005d2565b5b62000abd8e828f01620007c3565b96505060c062000ad08e828f0162000660565b95505060e062000ae38e828f0162000660565b94505061010062000af78e828f0162000625565b9350506101208c015167ffffffffffffffff81111562000b1c5762000b1b620005d2565b5b62000b2a8e828f01620008bf565b9250506101408c015167ffffffffffffffff81111562000b4f5762000b4e620005d2565b5b62000b5d8e828f0162000995565b9150509295989b509295989b9093969950565b7f4e487b7100000000000000000000000000000000000000000000000000000000600052602160045260246000fd5b600081519050919050565b7f4e487b7100000000000000000000000000000000000000000000000000000000600052602260045260246000fd5b6000600282049050600182168062000bf257607f821691505b60208210810362000c085762000c0762000baa565b5b50919050565b60008190508160005260206000209050919050565b60006020601f8301049050919050565b600082821b905092915050565b60006008830262000c727fffffffffffffffffffffffffffffffffffffffffffffffffffffffffffffffff8262000c33565b62000c7e868362000c33565b95508019841693508086168417925050509392505050565b6000819050919050565b600062000cc162000cbb62000cb5846200063c565b62000c96565b6200063c565b9050919050565b6000819050919050565b62000cdd8362000ca0565b62000cf562000cec8262000cc8565b84845462000c40565b825550505050565b600090565b62000d0c62000cfd565b62000d1981848462000cd2565b505050565b5b8181101562000d415762000d3560008262000d02565b60018101905062000d1f565b5050565b601f82111562000d905762000d5a8162000c0e565b62000d658462000c23565b8101602085101562000d75578190505b62000d8d62000d848562000c23565b83018262000d1e565b50505b505050565b600082821c905092915050565b600062000db56000198460080262000d95565b1980831691505092915050565b600062000dd0838362000da2565b9150826002028217905092915050565b62000deb8262000b9f565b67ffffffffffffffff81111562000e075762000e0662000692565b5b62000e13825462000bd9565b62000e2082828562000d45565b600060209050601f83116001811462000e58576000841562000e43578287015190505b62000e4f858262000dc2565b86555062000ebf565b601f19841662000e688662000c0e565b60005b8281101562000e925784890151825560018201915060208501945060208101905062000e6b565b8683101562000eb2578489015162000eae601f89168262000da2565b8355505b6001600288020188555050505b505050505050565b600081905092915050565b7f636f6e7472616374646174610000000000000000000000000000000000000000600082015250565b600062000f0a600c8362000ec7565b915062000f178262000ed2565b600c82019050919050565b600062000f2f8262000efb565b9150819050919050565b62000f4481620005f7565b82525050565b600082825260208201905092915050565b600062000f688262000b9f565b62000f74818562000f4a565b935062000f868185602086016200074c565b62000f918162000681565b840191505092915050565b62000fa7816200063c565b82525050565b6000819050919050565b600062000fd862000fd262000fcc8462000fad565b62000c96565b6200063c565b9050919050565b62000fea8162000fb7565b82525050565b7f6f6e676f696e6700000000000000000000000000000000000000000000000000600082015250565b60006200102860078362000f4a565b9150620010358262000ff0565b602082019050919050565b600060e08201905062001057600083018962000f39565b81810360208301526200106b818862000f5b565b9050818103604083015262001081818762000f5b565b905062001092606083018662000f9c565b620010a1608083018562000fdf565b620010b060a083018462000fdf565b81810360c0830152620010c38162001019565b9050979650505050505050565b61389980620010e06000396000f3fe6080604052600436106101ee5760003560e01c80638ca400d61161010d578063dcfc7987116100a0578063eea729941161006f578063eea72994146106fa578063f851a44014610725578063fc93eb0314610750578063fe692c3814610779578063ff3de319146107a4576101ee565b8063dcfc79871461065d578063e326ba7014610688578063e720098f146106c5578063ee205884146106f0576101ee565b8063b6c907a6116100dc578063b6c907a6146105aa578063bf26513a146105da578063c91e061f1461061d578063cd38aa8714610646576101ee565b80638ca400d6146104da5780639b23d3d914610517578063aa8c217c14610554578063b4ff36491461057f576101ee565b80635686e9f51161018557806369c53f121161015457806369c53f121461042b5780636c77f989146104565780637b1e175a1461046057806382b562aa1461049d576101ee565b80635686e9f51461037f578063651f5d18146103aa5780636586e984146103d557806365d524a114610400576101ee565b806315dacbea116101c157806315dacbea146102af57806316a5265d146102ec5780633fd202571461031757806344bf49a214610354576101ee565b806302d05d3f146101f357806308ba24751461021e5780630a284cb6146102475780630c1934fb14610284575b600080fd5b3480156101ff57600080fd5b506102086107cd565b6040516102159190611f43565b60405180910390f35b34801561022a57600080fd5b5061024560048036038101906102409190611fe6565b6107f3565b005b34801561025357600080fd5b5061026e6004803603810190610269919061227e565b610898565b60405161027b91906122f6565b60405180910390f35b34801561029057600080fd5b5061029961091a565b6040516102a69190612320565b60405180910390f35b3480156102bb57600080fd5b506102d660048036038101906102d1919061233b565b610920565b6040516102e391906122f6565b60405180910390f35b3480156102f857600080fd5b50610301610a3e565b60405161030e9190612320565b60405180910390f35b34801561032357600080fd5b5061033e600480360381019061033991906123a2565b610a44565b60405161034b9190611f43565b60405180910390f35b34801561036057600080fd5b50610369610a83565b604051610376919061244e565b60405180910390f35b34801561038b57600080fd5b50610394610b11565b6040516103a1919061244e565b60405180910390f35b3480156103b657600080fd5b506103bf610b9f565b6040516103cc9190612320565b60405180910390f35b3480156103e157600080fd5b506103ea610ba5565b6040516103f7919061244e565b60405180910390f35b34801561040c57600080fd5b50610415610c33565b60405161042291906124e7565b60405180910390f35b34801561043757600080fd5b50610440610c46565b60405161044d9190612320565b60405180910390f35b61045e610c4c565b005b34801561046c57600080fd5b50610487600480360381019061048291906123a2565b610c4e565b6040516104949190611f43565b60405180910390f35b3480156104a957600080fd5b506104c460048036038101906104bf919061252e565b610c8d565b6040516104d1919061259a565b60405180910390f35b3480156104e657600080fd5b5061050160048036038101906104fc91906123a2565b610cfb565b60405161050e9190612320565b60405180910390f35b34801561052357600080fd5b5061053e6004803603810190610539919061233b565b610d1f565b60405161054b91906122f6565b60405180910390f35b34801561056057600080fd5b50610569610e3d565b6040516105769190612320565b60405180910390f35b34801561058b57600080fd5b50610594610e43565b6040516105a19190612320565b60405180910390f35b6105c460048036038101906105bf9190612656565b610e49565b6040516105d19190611f43565b60405180910390f35b3480156105e657600080fd5b5061060160048036038101906105fc9190612725565b610fe0565b604051610614979695949392919061276d565b60405180910390f35b34801561062957600080fd5b50610644600480360381019061063f91906127ea565b61118c565b005b34801561065257600080fd5b5061065b611232565b005b34801561066957600080fd5b50610672611279565b60405161067f9190611f43565b60405180910390f35b34801561069457600080fd5b506106af60048036038101906106aa91906123a2565b61129f565b6040516106bc919061244e565b60405180910390f35b3480156106d157600080fd5b506106da61134b565b6040516106e79190612923565b60405180910390f35b6106f8611424565b005b34801561070657600080fd5b5061070f6114a2565b60405161071c9190612320565b60405180910390f35b34801561073157600080fd5b5061073a6114a8565b6040516107479190611f43565b60405180910390f35b34801561075c57600080fd5b5061077760048036038101906107729190612971565b6114ce565b005b34801561078557600080fd5b5061078e611547565b60405161079b9190612a6f565b60405180910390f35b3480156107b057600080fd5b506107cb60048036038101906107c691906127ea565b61159f565b005b600360009054906101000a900473ffffffffffffffffffffffffffffffffffffffff1681565b600260009054906101000a900473ffffffffffffffffffffffffffffffffffffffff1673ffffffffffffffffffffffffffffffffffffffff163373ffffffffffffffffffffffffffffffffffffffff161461084d57600080fd5b8073ffffffffffffffffffffffffffffffffffffffff166108fc839081150290604051600060405180830381858888f19350505050158015610893573d6000803e3d6000fd5b505050565b60008060006108a98560008661165e565b9250509150601660030b82146108f4576040517f08c379a00000000000000000000000000000000000000000000000000000000081526004016108eb90612b03565b60405180910390fd5b8060008151811061090857610907612b23565b5b60200260200101519250505092915050565b60075481565b600080600061016773ffffffffffffffffffffffffffffffffffffffff166315dacbea60e01b8888888860405160240161095d9493929190612b52565b604051602081830303815290604052907bffffffffffffffffffffffffffffffffffffffffffffffffffffffff19166020820180517bffffffffffffffffffffffffffffffffffffffffffffffffffffffff83818316178352505050506040516109c79190612bde565b6000604051808303816000865af19150503d8060008114610a04576040519150601f19603f3d011682016040523d82523d6000602084013e610a09565b606091505b509150915081610a1a576015610a2f565b80806020019051810190610a2e9190612c2e565b5b60030b92505050949350505050565b60085481565b60138181548110610a5457600080fd5b906000526020600020016000915054906101000a900473ffffffffffffffffffffffffffffffffffffffff1681565b60068054610a9090612c8a565b80601f0160208091040260200160405190810160405280929190818152602001828054610abc90612c8a565b8015610b095780601f10610ade57610100808354040283529160200191610b09565b820191906000526020600020905b815481529060010190602001808311610aec57829003601f168201915b505050505081565b60058054610b1e90612c8a565b80601f0160208091040260200160405190810160405280929190818152602001828054610b4a90612c8a565b8015610b975780601f10610b6c57610100808354040283529160200191610b97565b820191906000526020600020905b815481529060010190602001808311610b7a57829003601f168201915b505050505081565b600a5481565b60048054610bb290612c8a565b80601f0160208091040260200160405190810160405280929190818152602001828054610bde90612c8a565b8015610c2b5780601f10610c0057610100808354040283529160200191610c2b565b820191906000526020600020905b815481529060010190602001808311610c0e57829003601f168201915b505050505081565b600d60009054906101000a900460ff1681565b60095481565b565b60118181548110610c5e57600080fd5b906000526020600020016000915054906101000a900473ffffffffffffffffffffffffffffffffffffffff1681565b6000610c9983856117d6565b506000610ca8853086866118ee565b9050601660030b8114610cf0576040517f08c379a0000000000000000000000000000000000000000000000000000000008152600401610ce790612d2d565b60405180910390fd5b809150509392505050565b60158181548110610d0b57600080fd5b906000526020600020016000915090505481565b600080600061016773ffffffffffffffffffffffffffffffffffffffff16639b23d3d960e01b88888888604051602401610d5c9493929190612b52565b604051602081830303815290604052907bffffffffffffffffffffffffffffffffffffffffffffffffffffffff19166020820180517bffffffffffffffffffffffffffffffffffffffffffffffffffffffff8381831617835250505050604051610dc69190612bde565b6000604051808303816000865af19150503d8060008114610e03576040519150601f19603f3d011682016040523d82523d6000602084013e610e08565b606091505b509150915081610e19576015610e2e565b80806020019051810190610e2d9190612c2e565b5b60030b92505050949350505050565b600c5481565b600b5481565b600080600167ffffffffffffffff811115610e6757610e66612068565b5b604051908082528060200260200182016040528015610ea057816020015b610e8d611dd9565b815260200190600190039081610e855790505b509050610eb06004600130611a0c565b81600081518110610ec457610ec3612b23565b5b6020026020010181905250610ed7611df9565b87816000018190525086816020018190525085816060018190525030816040019073ffffffffffffffffffffffffffffffffffffffff16908173ffffffffffffffffffffffffffffffffffffffff16815250506001816080019015159081151581525050848160a0019060070b908160070b81525050818160e0018190525060008160c0019015159081151581525050610f713085611a43565b816101000181905250600080610f8683611a9b565b91509150601660030b8214610fd0576040517f08c379a0000000000000000000000000000000000000000000000000000000008152600401610fc790612dbf565b60405180910390fd5b8094505050505095945050505050565b60126020528060005260406000206000915090508060000160009054906101000a900473ffffffffffffffffffffffffffffffffffffffff16908060010154908060020160009054906101000a900473ffffffffffffffffffffffffffffffffffffffff169080600301805461105590612c8a565b80601f016020809104026020016040519081016040528092919081815260200182805461108190612c8a565b80156110ce5780601f106110a3576101008083540402835291602001916110ce565b820191906000526020600020905b8154815290600101906020018083116110b157829003601f168201915b5050505050908060040180546110e390612c8a565b80601f016020809104026020016040519081016040528092919081815260200182805461110f90612c8a565b801561115c5780601f106111315761010080835404028352916020019161115c565b820191906000526020600020905b81548152906001019060200180831161113f57829003601f168201915b5050505050908060050160009054906101000a900460ff16908060050160019054906101000a900460ff16905087565b600260009054906101000a900473ffffffffffffffffffffffffffffffffffffffff1673ffffffffffffffffffffffffffffffffffffffff163373ffffffffffffffffffffffffffffffffffffffff16146111e657600080fd5b8073ffffffffffffffffffffffffffffffffffffffff166108fc600a549081150290604051600060405180830381858888f1935050505015801561122e573d6000803e3d6000fd5b5050565b6040518060400160405280600881526020017f66696e6973686564000000000000000000000000000000000000000000000000815250600e90816112769190612f8b565b50565b601060009054906101000a900473ffffffffffffffffffffffffffffffffffffffff1681565b601481815481106112af57600080fd5b9060005260206000200160009150905080546112ca90612c8a565b80601f01602080910402602001604051908101604052809291908181526020018280546112f690612c8a565b80156113435780601f1061131857610100808354040283529160200191611343565b820191906000526020600020905b81548152906001019060200180831161132657829003601f168201915b505050505081565b60606014805480602002602001604051908101604052809291908181526020016000905b8282101561141b57838290600052602060002001805461138e90612c8a565b80601f01602080910402602001604051908101604052809291908181526020018280546113ba90612c8a565b80156114075780601f106113dc57610100808354040283529160200191611407565b820191906000526020600020905b8154815290600101906020018083116113ea57829003601f168201915b50505050508152602001906001019061136f565b50505050905090565b600360009054906101000a900473ffffffffffffffffffffffffffffffffffffffff1673ffffffffffffffffffffffffffffffffffffffff163373ffffffffffffffffffffffffffffffffffffffff161461147e57600080fd5b600061148934611c0a565b905080600c54611499919061308c565b600c8190555050565b600f5481565b600260009054906101000a900473ffffffffffffffffffffffffffffffffffffffff1681565b6001808111156114e1576114e0612470565b5b600d60009054906101000a900460ff16600181111561150357611502612470565b5b14611543576040517f08c379a000000000000000000000000000000000000000000000000000000000815260040161153a90613132565b60405180910390fd5b5050565b6060601580548060200260200160405190810160405280929190818152602001828054801561159557602002820191906000526020600020905b815481526020019060010190808311611581575b5050505050905090565b600360009054906101000a900473ffffffffffffffffffffffffffffffffffffffff1673ffffffffffffffffffffffffffffffffffffffff163373ffffffffffffffffffffffffffffffffffffffff16146115f957600080fd5b601660009054906101000a900460ff1661161257600080fd5b8073ffffffffffffffffffffffffffffffffffffffff166108fc600b549081150290604051600060405180830381858888f1935050505015801561165a573d6000803e3d6000fd5b5050565b600080606060008061016773ffffffffffffffffffffffffffffffffffffffff1663e0f4059a60e01b89898960405160240161169c9392919061325e565b604051602081830303815290604052907bffffffffffffffffffffffffffffffffffffffffffffffffffffffff19166020820180517bffffffffffffffffffffffffffffffffffffffffffffffffffffffff83818316178352505050506040516117069190612bde565b6000604051808303816000865af19150503d8060008114611743576040519150601f19603f3d011682016040523d82523d6000602084013e611748565b606091505b5091509150816117a457601560008067ffffffffffffffff8111156117705761176f612068565b5b60405190808252806020026020018201604052801561179e5781602001602082028036833780820191505090505b506117b9565b808060200190518101906117b89190613374565b5b8260030b9250809550819650829750505050505093509350939050565b600080600061016773ffffffffffffffffffffffffffffffffffffffff166349146bde60e01b868660405160240161180f9291906133e3565b604051602081830303815290604052907bffffffffffffffffffffffffffffffffffffffffffffffffffffffff19166020820180517bffffffffffffffffffffffffffffffffffffffffffffffffffffffff83818316178352505050506040516118799190612bde565b6000604051808303816000865af19150503d80600081146118b6576040519150601f19603f3d011682016040523d82523d6000602084013e6118bb565b606091505b5091509150816118cc5760156118e1565b808060200190518101906118e09190612c2e565b5b60030b9250505092915050565b600080600061016773ffffffffffffffffffffffffffffffffffffffff16635cfc901160e01b8888888860405160240161192b949392919061340c565b604051602081830303815290604052907bffffffffffffffffffffffffffffffffffffffffffffffffffffffff19166020820180517bffffffffffffffffffffffffffffffffffffffffffffffffffffffff83818316178352505050506040516119959190612bde565b6000604051808303816000865af19150503d80600081146119d2576040519150601f19603f3d011682016040523d82523d6000602084013e6119d7565b606091505b5091509150816119e85760156119fd565b808060200190518101906119fc9190612c2e565b5b60030b92505050949350505050565b611a14611dd9565b6040518060400160405280611a2886611cbc565b8152602001611a378585611cfd565b81525090509392505050565b611a4b611e68565b82816020019073ffffffffffffffffffffffffffffffffffffffff16908173ffffffffffffffffffffffffffffffffffffffff168152505081816040019060070b908160070b8152505092915050565b6000808260008161010001516000015160070b148015611ac7575060008161010001516040015160070b145b15611aea576276a70060030b8161010001516040019060070b908160070b815250505b60008061016773ffffffffffffffffffffffffffffffffffffffff163463ea83f29360e01b88604051602401611b209190613716565b604051602081830303815290604052907bffffffffffffffffffffffffffffffffffffffffffffffffffffffff19166020820180517bffffffffffffffffffffffffffffffffffffffffffffffffffffffff8381831617835250505050604051611b8a9190612bde565b60006040518083038185875af1925050503d8060008114611bc7576040519150601f19603f3d011682016040523d82523d6000602084013e611bcc565b606091505b509150915081611bdf5760156000611bf4565b80806020019051810190611bf3919061374d565b5b8160030b91508095508196505050505050915091565b6000606460085483611c1c919061378d565b611c2691906137fe565b600a54611c33919061308c565b600a81905550606460095483611c49919061378d565b611c5391906137fe565b600b54611c60919061308c565b600b819055506000606460095484611c78919061378d565b611c8291906137fe565b606460085485611c92919061378d565b611c9c91906137fe565b84611ca7919061382f565b611cb1919061382f565b905080915050919050565b600060016000836006811115611cd557611cd4612470565b5b6006811115611ce757611ce6612470565b5b8152602001908152602001600020549050919050565b611d05611ea5565b60016004811115611d1957611d18612470565b5b836004811115611d2c57611d2b612470565b5b03611d6e5781816020019073ffffffffffffffffffffffffffffffffffffffff16908173ffffffffffffffffffffffffffffffffffffffff1681525050611dd3565b600480811115611d8157611d80612470565b5b836004811115611d9457611d93612470565b5b03611dd25781816080019073ffffffffffffffffffffffffffffffffffffffff16908173ffffffffffffffffffffffffffffffffffffffff16815250505b5b92915050565b604051806040016040528060008152602001611df3611ea5565b81525090565b6040518061012001604052806060815260200160608152602001600073ffffffffffffffffffffffffffffffffffffffff16815260200160608152602001600015158152602001600060070b815260200160001515815260200160608152602001611e62611e68565b81525090565b6040518060600160405280600060070b8152602001600073ffffffffffffffffffffffffffffffffffffffff168152602001600060070b81525090565b6040518060a00160405280600015158152602001600073ffffffffffffffffffffffffffffffffffffffff1681526020016060815260200160608152602001600073ffffffffffffffffffffffffffffffffffffffff1681525090565b600073ffffffffffffffffffffffffffffffffffffffff82169050919050565b6000611f2d82611f02565b9050919050565b611f3d81611f22565b82525050565b6000602082019050611f586000830184611f34565b92915050565b6000604051905090565b600080fd5b600080fd5b6000819050919050565b611f8581611f72565b8114611f9057600080fd5b50565b600081359050611fa281611f7c565b92915050565b6000611fb382611f02565b9050919050565b611fc381611fa8565b8114611fce57600080fd5b50565b600081359050611fe081611fba565b92915050565b60008060408385031215611ffd57611ffc611f68565b5b600061200b85828601611f93565b925050602061201c85828601611fd1565b9150509250929050565b61202f81611f22565b811461203a57600080fd5b50565b60008135905061204c81612026565b92915050565b600080fd5b6000601f19601f8301169050919050565b7f4e487b7100000000000000000000000000000000000000000000000000000000600052604160045260246000fd5b6120a082612057565b810181811067ffffffffffffffff821117156120bf576120be612068565b5b80604052505050565b60006120d2611f5e565b90506120de8282612097565b919050565b600067ffffffffffffffff8211156120fe576120fd612068565b5b602082029050602081019050919050565b600080fd5b600080fd5b600067ffffffffffffffff82111561213457612133612068565b5b61213d82612057565b9050602081019050919050565b82818337600083830152505050565b600061216c61216784612119565b6120c8565b90508281526020810184848401111561218857612187612114565b5b61219384828561214a565b509392505050565b600082601f8301126121b0576121af612052565b5b81356121c0848260208601612159565b91505092915050565b60006121dc6121d7846120e3565b6120c8565b905080838252602082019050602084028301858111156121ff576121fe61210f565b5b835b8181101561224657803567ffffffffffffffff81111561222457612223612052565b5b808601612231898261219b565b85526020850194505050602081019050612201565b5050509392505050565b600082601f83011261226557612264612052565b5b81356122758482602086016121c9565b91505092915050565b6000806040838503121561229557612294611f68565b5b60006122a38582860161203d565b925050602083013567ffffffffffffffff8111156122c4576122c3611f6d565b5b6122d085828601612250565b9150509250929050565b60008160070b9050919050565b6122f0816122da565b82525050565b600060208201905061230b60008301846122e7565b92915050565b61231a81611f72565b82525050565b60006020820190506123356000830184612311565b92915050565b6000806000806080858703121561235557612354611f68565b5b60006123638782880161203d565b94505060206123748782880161203d565b93505060406123858782880161203d565b925050606061239687828801611f93565b91505092959194509250565b6000602082840312156123b8576123b7611f68565b5b60006123c684828501611f93565b91505092915050565b600081519050919050565b600082825260208201905092915050565b60005b838110156124095780820151818401526020810190506123ee565b60008484015250505050565b6000612420826123cf565b61242a81856123da565b935061243a8185602086016123eb565b61244381612057565b840191505092915050565b600060208201905081810360008301526124688184612415565b905092915050565b7f4e487b7100000000000000000000000000000000000000000000000000000000600052602160045260246000fd5b600281106124b0576124af612470565b5b50565b60008190506124c18261249f565b919050565b60006124d1826124b3565b9050919050565b6124e1816124c6565b82525050565b60006020820190506124fc60008301846124d8565b92915050565b61250b816122da565b811461251657600080fd5b50565b60008135905061252881612502565b92915050565b60008060006060848603121561254757612546611f68565b5b60006125558682870161203d565b93505060206125668682870161203d565b925050604061257786828701612519565b9150509250925092565b6000819050919050565b61259481612581565b82525050565b60006020820190506125af600083018461258b565b92915050565b600067ffffffffffffffff8211156125d0576125cf612068565b5b6125d982612057565b9050602081019050919050565b60006125f96125f4846125b5565b6120c8565b90508281526020810184848401111561261557612614612114565b5b61262084828561214a565b509392505050565b600082601f83011261263d5761263c612052565b5b813561264d8482602086016125e6565b91505092915050565b600080600080600060a0868803121561267257612671611f68565b5b600086013567ffffffffffffffff8111156126905761268f611f6d565b5b61269c88828901612628565b955050602086013567ffffffffffffffff8111156126bd576126bc611f6d565b5b6126c988828901612628565b945050604086013567ffffffffffffffff8111156126ea576126e9611f6d565b5b6126f688828901612628565b935050606061270788828901612519565b925050608061271888828901612519565b9150509295509295909350565b60006020828403121561273b5761273a611f68565b5b60006127498482850161203d565b91505092915050565b60008115159050919050565b61276781612752565b82525050565b600060e082019050612782600083018a611f34565b61278f602083018961258b565b61279c6040830188611f34565b81810360608301526127ae8187612415565b905081810360808301526127c28186612415565b90506127d160a083018561275e565b6127de60c083018461275e565b98975050505050505050565b600060208284031215612800576127ff611f68565b5b600061280e84828501611fd1565b91505092915050565b600081519050919050565b600082825260208201905092915050565b6000819050602082019050919050565b600082825260208201905092915050565b600061285f826123cf565b6128698185612843565b93506128798185602086016123eb565b61288281612057565b840191505092915050565b60006128998383612854565b905092915050565b6000602082019050919050565b60006128b982612817565b6128c38185612822565b9350836020820285016128d585612833565b8060005b8581101561291157848403895281516128f2858261288d565b94506128fd836128a1565b925060208a019950506001810190506128d9565b50829750879550505050505092915050565b6000602082019050818103600083015261293d81846128ae565b905092915050565b61294e81612581565b811461295957600080fd5b50565b60008135905061296b81612945565b92915050565b6000806040838503121561298857612987611f68565b5b60006129968582860161203d565b92505060206129a78582860161295c565b9150509250929050565b600081519050919050565b600082825260208201905092915050565b6000819050602082019050919050565b6129e681611f72565b82525050565b60006129f883836129dd565b60208301905092915050565b6000602082019050919050565b6000612a1c826129b1565b612a2681856129bc565b9350612a31836129cd565b8060005b83811015612a62578151612a4988826129ec565b9750612a5483612a04565b925050600181019050612a35565b5085935050505092915050565b60006020820190508181036000830152612a898184612a11565b905092915050565b7f4661696c656420746f206d696e74206e6f6e2d66756e6769626c6520746f6b6560008201527f6e00000000000000000000000000000000000000000000000000000000000000602082015250565b6000612aed6021836123da565b9150612af882612a91565b604082019050919050565b60006020820190508181036000830152612b1c81612ae0565b9050919050565b7f4e487b7100000000000000000000000000000000000000000000000000000000600052603260045260246000fd5b6000608082019050612b676000830187611f34565b612b746020830186611f34565b612b816040830185611f34565b612b8e6060830184612311565b95945050505050565b600081519050919050565b600081905092915050565b6000612bb882612b97565b612bc28185612ba2565b9350612bd28185602086016123eb565b80840191505092915050565b6000612bea8284612bad565b915081905092915050565b60008160030b9050919050565b612c0b81612bf5565b8114612c1657600080fd5b50565b600081519050612c2881612c02565b92915050565b600060208284031215612c4457612c43611f68565b5b6000612c5284828501612c19565b91505092915050565b7f4e487b7100000000000000000000000000000000000000000000000000000000600052602260045260246000fd5b60006002820490506001821680612ca257607f821691505b602082108103612cb557612cb4612c5b565b5b50919050565b7f4661696c656420746f207472616e73666572206e6f6e2d66756e6769626c652060008201527f746f6b656e000000000000000000000000000000000000000000000000000000602082015250565b6000612d176025836123da565b9150612d2282612cbb565b604082019050919050565b60006020820190508181036000830152612d4681612d0a565b9050919050565b7f4661696c656420746f20637265617465206e6f6e2d66756e6769626c6520746f60008201527f6b656e0000000000000000000000000000000000000000000000000000000000602082015250565b6000612da96023836123da565b9150612db482612d4d565b604082019050919050565b60006020820190508181036000830152612dd881612d9c565b9050919050565b60008190508160005260206000209050919050565b60006020601f8301049050919050565b600082821b905092915050565b600060088302612e417fffffffffffffffffffffffffffffffffffffffffffffffffffffffffffffffff82612e04565b612e4b8683612e04565b95508019841693508086168417925050509392505050565b6000819050919050565b6000612e88612e83612e7e84611f72565b612e63565b611f72565b9050919050565b6000819050919050565b612ea283612e6d565b612eb6612eae82612e8f565b848454612e11565b825550505050565b600090565b612ecb612ebe565b612ed6818484612e99565b505050565b5b81811015612efa57612eef600082612ec3565b600181019050612edc565b5050565b601f821115612f3f57612f1081612ddf565b612f1984612df4565b81016020851015612f28578190505b612f3c612f3485612df4565b830182612edb565b50505b505050565b600082821c905092915050565b6000612f6260001984600802612f44565b1980831691505092915050565b6000612f7b8383612f51565b9150826002028217905092915050565b612f94826123cf565b67ffffffffffffffff811115612fad57612fac612068565b5b612fb78254612c8a565b612fc2828285612efe565b600060209050601f831160018114612ff55760008415612fe3578287015190505b612fed8582612f6f565b865550613055565b601f19841661300386612ddf565b60005b8281101561302b57848901518255600182019150602085019450602081019050613006565b868310156130485784890151613044601f891682612f51565b8355505b6001600288020188555050505b505050505050565b7f4e487b7100000000000000000000000000000000000000000000000000000000600052601160045260246000fd5b600061309782611f72565b91506130a283611f72565b92508282019050808211156130ba576130b961305d565b5b92915050565b7f746869732074797065206f6620636f6e74726163742063616e7420657865637560008201527f746520746869732066756e630000000000000000000000000000000000000000602082015250565b600061311c602c836123da565b9150613127826130c0565b604082019050919050565b6000602082019050818103600083015261314b8161310f565b9050919050565b600081519050919050565b600082825260208201905092915050565b6000819050602082019050919050565b600082825260208201905092915050565b600061319a82612b97565b6131a4818561317e565b93506131b48185602086016123eb565b6131bd81612057565b840191505092915050565b60006131d4838361318f565b905092915050565b6000602082019050919050565b60006131f482613152565b6131fe818561315d565b9350836020820285016132108561316e565b8060005b8581101561324c578484038952815161322d85826131c8565b9450613238836131dc565b925060208a01995050600181019050613214565b50829750879550505050505092915050565b60006060820190506132736000830186611f34565b61328060208301856122e7565b818103604083015261329281846131e9565b9050949350505050565b6000815190506132ab81612502565b92915050565b600067ffffffffffffffff8211156132cc576132cb612068565b5b602082029050602081019050919050565b60006132f06132eb846132b1565b6120c8565b905080838252602082019050602084028301858111156133135761331261210f565b5b835b8181101561333c5780613328888261329c565b845260208401935050602081019050613315565b5050509392505050565b600082601f83011261335b5761335a612052565b5b815161336b8482602086016132dd565b91505092915050565b60008060006060848603121561338d5761338c611f68565b5b600061339b86828701612c19565b93505060206133ac8682870161329c565b925050604084015167ffffffffffffffff8111156133cd576133cc611f6d565b5b6133d986828701613346565b9150509250925092565b60006040820190506133f86000830185611f34565b6134056020830184611f34565b9392505050565b60006080820190506134216000830187611f34565b61342e6020830186611f34565b61343b6040830185611f34565b61344860608301846122e7565b95945050505050565b61345a81611f22565b82525050565b61346981612752565b82525050565b613478816122da565b82525050565b600081519050919050565b600082825260208201905092915050565b6000819050602082019050919050565b600060a0830160008301516134c26000860182613460565b5060208301516134d56020860182613451565b50604083015184820360408601526134ed828261318f565b91505060608301518482036060860152613507828261318f565b915050608083015161351c6080860182613451565b508091505092915050565b600060408301600083015161353f60008601826129dd565b506020830151848203602086015261355782826134aa565b9150508091505092915050565b60006135708383613527565b905092915050565b6000602082019050919050565b60006135908261347e565b61359a8185613489565b9350836020820285016135ac8561349a565b8060005b858110156135e857848403895281516135c98582613564565b94506135d483613578565b925060208a019950506001810190506135b0565b50829750879550505050505092915050565b606082016000820151613610600085018261346f565b5060208201516136236020850182613451565b506040820151613636604085018261346f565b50505050565b600061016083016000830151848203600086015261365a8282612854565b915050602083015184820360208601526136748282612854565b91505060408301516136896040860182613451565b50606083015184820360608601526136a18282612854565b91505060808301516136b66080860182613460565b5060a08301516136c960a086018261346f565b5060c08301516136dc60c0860182613460565b5060e083015184820360e08601526136f48282613585565b91505061010083015161370b6101008601826135fa565b508091505092915050565b60006020820190508181036000830152613730818461363c565b905092915050565b60008151905061374781611fba565b92915050565b6000806040838503121561376457613763611f68565b5b600061377285828601612c19565b925050602061378385828601613738565b9150509250929050565b600061379882611f72565b91506137a383611f72565b92508282026137b181611f72565b915082820484148315176137c8576137c761305d565b5b5092915050565b7f4e487b7100000000000000000000000000000000000000000000000000000000600052601260045260246000fd5b600061380982611f72565b915061381483611f72565b925082613824576138236137cf565b5b828204905092915050565b600061383a82611f72565b915061384583611f72565b925082820390508181111561385d5761385c61305d565b5b9291505056fea26469706673582212201a25a97015e6666eb0c83704c9abe4f888f15775801b8528ee665e92c1d8108864736f6c63430008130033a264697066735822122060b8edd2bf2c4132993f8aaa4cdd04c354c2bb8a6b9b29e85baa2d894bc30d3d64736f6c63430008130033",
			"opcodes": "PUSH1 0x80 PUSH1 0x40 MSTORE CALLVALUE DUP1 ISZERO PUSH2 0x10 JUMPI PUSH1 0x0 DUP1 REVERT JUMPDEST POP CALLER PUSH1 0x2 PUSH1 0x0 PUSH2 0x100 EXP DUP2 SLOAD DUP2 PUSH20 0xFFFFFFFFFFFFFFFFFFFFFFFFFFFFFFFFFFFFFFFF MUL NOT AND SWAP1 DUP4 PUSH20 0xFFFFFFFFFFFFFFFFFFFFFFFFFFFFFFFFFFFFFFFF AND MUL OR SWAP1 SSTORE POP CALLER PUSH1 0x1 PUSH1 0x0 PUSH2 0x100 EXP DUP2 SLOAD DUP2 PUSH20 0xFFFFFFFFFFFFFFFFFFFFFFFFFFFFFFFFFFFFFFFF MUL NOT AND SWAP1 DUP4 PUSH20 0xFFFFFFFFFFFFFFFFFFFFFFFFFFFFFFFFFFFFFFFF AND MUL OR SWAP1 SSTORE POP PUSH1 0x5 PUSH1 0x0 DUP2 SWAP1 SSTORE POP PUSH2 0x5AFC DUP1 PUSH2 0xAA PUSH1 0x0 CODECOPY PUSH1 0x0 RETURN INVALID PUSH1 0x80 PUSH1 0x40 MSTORE PUSH1 0x4 CALLDATASIZE LT PUSH3 0x7A JUMPI PUSH1 0x0 CALLDATALOAD PUSH1 0xE0 SHR DUP1 PUSH4 0x2DD111A9 GT PUSH3 0x55 JUMPI DUP1 PUSH4 0x2DD111A9 EQ PUSH3 0x115 JUMPI DUP1 PUSH4 0x34C925F0 EQ PUSH3 0x159 JUMPI DUP1 PUSH4 0x81830593 EQ PUSH3 0x19D JUMPI DUP1 PUSH4 0xC3A2A93A EQ PUSH3 0x1CD JUMPI PUSH3 0x7A JUMP JUMPDEST DUP1 PUSH4 0x2D05D3F EQ PUSH3 0x7F JUMPI DUP1 PUSH4 0x16A5265D EQ PUSH3 0xAF JUMPI DUP1 PUSH4 0x23C09848 EQ PUSH3 0xDF JUMPI JUMPDEST PUSH1 0x0 DUP1 REVERT JUMPDEST CALLVALUE DUP1 ISZERO PUSH3 0x8C JUMPI PUSH1 0x0 DUP1 REVERT JUMPDEST POP PUSH3 0x97 PUSH3 0x1FD JUMP JUMPDEST PUSH1 0x40 MLOAD PUSH3 0xA6 SWAP2 SWAP1 PUSH3 0x671 JUMP JUMPDEST PUSH1 0x40 MLOAD DUP1 SWAP2 SUB SWAP1 RETURN JUMPDEST CALLVALUE DUP1 ISZERO PUSH3 0xBC JUMPI PUSH1 0x0 DUP1 REVERT JUMPDEST POP PUSH3 0xC7 PUSH3 0x223 JUMP JUMPDEST PUSH1 0x40 MLOAD PUSH3 0xD6 SWAP2 SWAP1 PUSH3 0x6A9 JUMP JUMPDEST PUSH1 0x40 MLOAD DUP1 SWAP2 SUB SWAP1 RETURN JUMPDEST PUSH3 0xFD PUSH1 0x4 DUP1 CALLDATASIZE SUB DUP2 ADD SWAP1 PUSH3 0xF7 SWAP2 SWAP1 PUSH3 0xA3F JUMP JUMPDEST PUSH3 0x229 JUMP JUMPDEST PUSH1 0x40 MLOAD PUSH3 0x10C SWAP2 SWAP1 PUSH3 0x671 JUMP JUMPDEST PUSH1 0x40 MLOAD DUP1 SWAP2 SUB SWAP1 RETURN JUMPDEST CALLVALUE DUP1 ISZERO PUSH3 0x122 JUMPI PUSH1 0x0 DUP1 REVERT JUMPDEST POP PUSH3 0x141 PUSH1 0x4 DUP1 CALLDATASIZE SUB DUP2 ADD SWAP1 PUSH3 0x13B SWAP2 SWAP1 PUSH3 0xBA3 JUMP JUMPDEST PUSH3 0x459 JUMP JUMPDEST PUSH1 0x40 MLOAD PUSH3 0x150 SWAP2 SWAP1 PUSH3 0x671 JUMP JUMPDEST PUSH1 0x40 MLOAD DUP1 SWAP2 SUB SWAP1 RETURN JUMPDEST CALLVALUE DUP1 ISZERO PUSH3 0x166 JUMPI PUSH1 0x0 DUP1 REVERT JUMPDEST POP PUSH3 0x185 PUSH1 0x4 DUP1 CALLDATASIZE SUB DUP2 ADD SWAP1 PUSH3 0x17F SWAP2 SWAP1 PUSH3 0xC06 JUMP JUMPDEST PUSH3 0x499 JUMP JUMPDEST PUSH1 0x40 MLOAD PUSH3 0x194 SWAP2 SWAP1 PUSH3 0xD06 JUMP JUMPDEST PUSH1 0x40 MLOAD DUP1 SWAP2 SUB SWAP1 RETURN JUMPDEST CALLVALUE DUP1 ISZERO PUSH3 0x1AA JUMPI PUSH1 0x0 DUP1 REVERT JUMPDEST POP PUSH3 0x1B5 PUSH3 0x568 JUMP JUMPDEST PUSH1 0x40 MLOAD PUSH3 0x1C4 SWAP2 SWAP1 PUSH3 0x671 JUMP JUMPDEST PUSH1 0x40 MLOAD DUP1 SWAP2 SUB SWAP1 RETURN JUMPDEST CALLVALUE DUP1 ISZERO PUSH3 0x1DA JUMPI PUSH1 0x0 DUP1 REVERT JUMPDEST POP PUSH3 0x1E5 PUSH3 0x58E JUMP JUMPDEST PUSH1 0x40 MLOAD PUSH3 0x1F4 SWAP2 SWAP1 PUSH3 0xD06 JUMP JUMPDEST PUSH1 0x40 MLOAD DUP1 SWAP2 SUB SWAP1 RETURN JUMPDEST PUSH1 0x2 PUSH1 0x0 SWAP1 SLOAD SWAP1 PUSH2 0x100 EXP SWAP1 DIV PUSH20 0xFFFFFFFFFFFFFFFFFFFFFFFFFFFFFFFFFFFFFFFF AND DUP2 JUMP JUMPDEST PUSH1 0x0 SLOAD DUP2 JUMP JUMPDEST PUSH1 0x0 DUP1 DUP9 SUB PUSH3 0x248 JUMPI PUSH1 0x5 DUP5 GT ISZERO PUSH3 0x242 JUMPI PUSH1 0x0 DUP1 REVERT JUMPDEST PUSH3 0x276 JUMP JUMPDEST PUSH1 0x1 DUP9 SUB PUSH3 0x265 JUMPI PUSH1 0x5F DUP5 EQ PUSH3 0x25F JUMPI PUSH1 0x0 DUP1 REVERT JUMPDEST PUSH3 0x275 JUMP JUMPDEST PUSH1 0x5 DUP5 GT ISZERO PUSH3 0x274 JUMPI PUSH1 0x0 DUP1 REVERT JUMPDEST JUMPDEST JUMPDEST PUSH1 0x0 CALLER DUP11 DUP11 DUP11 DUP11 DUP11 PUSH1 0x0 SLOAD DUP12 PUSH1 0x1 PUSH1 0x0 SWAP1 SLOAD SWAP1 PUSH2 0x100 EXP SWAP1 DIV PUSH20 0xFFFFFFFFFFFFFFFFFFFFFFFFFFFFFFFFFFFFFFFF AND DUP13 DUP13 PUSH1 0x40 MLOAD PUSH3 0x2B5 SWAP1 PUSH3 0x61E JUMP JUMPDEST PUSH3 0x2CB SWAP12 SWAP11 SWAP10 SWAP9 SWAP8 SWAP7 SWAP6 SWAP5 SWAP4 SWAP3 SWAP2 SWAP1 PUSH3 0xFA3 JUMP JUMPDEST PUSH1 0x40 MLOAD DUP1 SWAP2 SUB SWAP1 PUSH1 0x0 CREATE DUP1 ISZERO DUP1 ISZERO PUSH3 0x2E8 JUMPI RETURNDATASIZE PUSH1 0x0 DUP1 RETURNDATACOPY RETURNDATASIZE PUSH1 0x0 REVERT JUMPDEST POP SWAP1 POP PUSH1 0x0 DUP2 SWAP1 POP PUSH1 0x4 PUSH1 0x0 CALLER PUSH20 0xFFFFFFFFFFFFFFFFFFFFFFFFFFFFFFFFFFFFFFFF AND PUSH20 0xFFFFFFFFFFFFFFFFFFFFFFFFFFFFFFFFFFFFFFFF AND DUP2 MSTORE PUSH1 0x20 ADD SWAP1 DUP2 MSTORE PUSH1 0x20 ADD PUSH1 0x0 KECCAK256 DUP2 SWAP1 DUP1 PUSH1 0x1 DUP2 SLOAD ADD DUP1 DUP3 SSTORE DUP1 SWAP2 POP POP PUSH1 0x1 SWAP1 SUB SWAP1 PUSH1 0x0 MSTORE PUSH1 0x20 PUSH1 0x0 KECCAK256 ADD PUSH1 0x0 SWAP1 SWAP2 SWAP1 SWAP2 SWAP1 SWAP2 PUSH2 0x100 EXP DUP2 SLOAD DUP2 PUSH20 0xFFFFFFFFFFFFFFFFFFFFFFFFFFFFFFFFFFFFFFFF MUL NOT AND SWAP1 DUP4 PUSH20 0xFFFFFFFFFFFFFFFFFFFFFFFFFFFFFFFFFFFFFFFF AND MUL OR SWAP1 SSTORE POP PUSH1 0x3 DUP2 SWAP1 DUP1 PUSH1 0x1 DUP2 SLOAD ADD DUP1 DUP3 SSTORE DUP1 SWAP2 POP POP PUSH1 0x1 SWAP1 SUB SWAP1 PUSH1 0x0 MSTORE PUSH1 0x20 PUSH1 0x0 KECCAK256 ADD PUSH1 0x0 SWAP1 SWAP2 SWAP1 SWAP2 SWAP1 SWAP2 PUSH2 0x100 EXP DUP2 SLOAD DUP2 PUSH20 0xFFFFFFFFFFFFFFFFFFFFFFFFFFFFFFFFFFFFFFFF MUL NOT AND SWAP1 DUP4 PUSH20 0xFFFFFFFFFFFFFFFFFFFFFFFFFFFFFFFFFFFFFFFF AND MUL OR SWAP1 SSTORE POP PUSH1 0x40 MLOAD PUSH3 0x401 SWAP1 PUSH3 0x10E2 JUMP JUMPDEST PUSH1 0x40 MLOAD DUP1 SWAP2 SUB SWAP1 KECCAK256 PUSH32 0xED82FD5193CBAC01DE9A009DA053E6119B6A01ED00499815C09E28B179C37936 DUP3 DUP12 CALLER DUP15 PUSH1 0x40 MLOAD PUSH3 0x440 SWAP5 SWAP4 SWAP3 SWAP2 SWAP1 PUSH3 0x10F9 JUMP JUMPDEST PUSH1 0x40 MLOAD DUP1 SWAP2 SUB SWAP1 LOG2 DUP1 SWAP3 POP POP POP SWAP9 SWAP8 POP POP POP POP POP POP POP POP JUMP JUMPDEST PUSH1 0x3 DUP2 DUP2 SLOAD DUP2 LT PUSH3 0x46A JUMPI PUSH1 0x0 DUP1 REVERT JUMPDEST SWAP1 PUSH1 0x0 MSTORE PUSH1 0x20 PUSH1 0x0 KECCAK256 ADD PUSH1 0x0 SWAP2 POP SLOAD SWAP1 PUSH2 0x100 EXP SWAP1 DIV PUSH20 0xFFFFFFFFFFFFFFFFFFFFFFFFFFFFFFFFFFFFFFFF AND DUP2 JUMP JUMPDEST PUSH1 0x60 PUSH1 0x4 PUSH1 0x0 DUP4 PUSH20 0xFFFFFFFFFFFFFFFFFFFFFFFFFFFFFFFFFFFFFFFF AND PUSH20 0xFFFFFFFFFFFFFFFFFFFFFFFFFFFFFFFFFFFFFFFF AND DUP2 MSTORE PUSH1 0x20 ADD SWAP1 DUP2 MSTORE PUSH1 0x20 ADD PUSH1 0x0 KECCAK256 DUP1 SLOAD DUP1 PUSH1 0x20 MUL PUSH1 0x20 ADD PUSH1 0x40 MLOAD SWAP1 DUP2 ADD PUSH1 0x40 MSTORE DUP1 SWAP3 SWAP2 SWAP1 DUP2 DUP2 MSTORE PUSH1 0x20 ADD DUP3 DUP1 SLOAD DUP1 ISZERO PUSH3 0x55C JUMPI PUSH1 0x20 MUL DUP3 ADD SWAP2 SWAP1 PUSH1 0x0 MSTORE PUSH1 0x20 PUSH1 0x0 KECCAK256 SWAP1 JUMPDEST DUP2 PUSH1 0x0 SWAP1 SLOAD SWAP1 PUSH2 0x100 EXP SWAP1 DIV PUSH20 0xFFFFFFFFFFFFFFFFFFFFFFFFFFFFFFFFFFFFFFFF AND PUSH20 0xFFFFFFFFFFFFFFFFFFFFFFFFFFFFFFFFFFFFFFFF AND DUP2 MSTORE PUSH1 0x20 ADD SWAP1 PUSH1 0x1 ADD SWAP1 DUP1 DUP4 GT PUSH3 0x511 JUMPI JUMPDEST POP POP POP POP POP SWAP1 POP SWAP2 SWAP1 POP JUMP JUMPDEST PUSH1 0x1 PUSH1 0x0 SWAP1 SLOAD SWAP1 PUSH2 0x100 EXP SWAP1 DIV PUSH20 0xFFFFFFFFFFFFFFFFFFFFFFFFFFFFFFFFFFFFFFFF AND DUP2 JUMP JUMPDEST PUSH1 0x60 PUSH1 0x3 DUP1 SLOAD DUP1 PUSH1 0x20 MUL PUSH1 0x20 ADD PUSH1 0x40 MLOAD SWAP1 DUP2 ADD PUSH1 0x40 MSTORE DUP1 SWAP3 SWAP2 SWAP1 DUP2 DUP2 MSTORE PUSH1 0x20 ADD DUP3 DUP1 SLOAD DUP1 ISZERO PUSH3 0x614 JUMPI PUSH1 0x20 MUL DUP3 ADD SWAP2 SWAP1 PUSH1 0x0 MSTORE PUSH1 0x20 PUSH1 0x0 KECCAK256 SWAP1 JUMPDEST DUP2 PUSH1 0x0 SWAP1 SLOAD SWAP1 PUSH2 0x100 EXP SWAP1 DIV PUSH20 0xFFFFFFFFFFFFFFFFFFFFFFFFFFFFFFFFFFFFFFFF AND PUSH20 0xFFFFFFFFFFFFFFFFFFFFFFFFFFFFFFFFFFFFFFFF AND DUP2 MSTORE PUSH1 0x20 ADD SWAP1 PUSH1 0x1 ADD SWAP1 DUP1 DUP4 GT PUSH3 0x5C9 JUMPI JUMPDEST POP POP POP POP POP SWAP1 POP SWAP1 JUMP JUMPDEST PUSH2 0x4979 DUP1 PUSH3 0x114E DUP4 CODECOPY ADD SWAP1 JUMP JUMPDEST PUSH1 0x0 PUSH20 0xFFFFFFFFFFFFFFFFFFFFFFFFFFFFFFFFFFFFFFFF DUP3 AND SWAP1 POP SWAP2 SWAP1 POP JUMP JUMPDEST PUSH1 0x0 PUSH3 0x659 DUP3 PUSH3 0x62C JUMP JUMPDEST SWAP1 POP SWAP2 SWAP1 POP JUMP JUMPDEST PUSH3 0x66B DUP2 PUSH3 0x64C JUMP JUMPDEST DUP3 MSTORE POP POP JUMP JUMPDEST PUSH1 0x0 PUSH1 0x20 DUP3 ADD SWAP1 POP PUSH3 0x688 PUSH1 0x0 DUP4 ADD DUP5 PUSH3 0x660 JUMP JUMPDEST SWAP3 SWAP2 POP POP JUMP JUMPDEST PUSH1 0x0 DUP2 SWAP1 POP SWAP2 SWAP1 POP JUMP JUMPDEST PUSH3 0x6A3 DUP2 PUSH3 0x68E JUMP JUMPDEST DUP3 MSTORE POP POP JUMP JUMPDEST PUSH1 0x0 PUSH1 0x20 DUP3 ADD SWAP1 POP PUSH3 0x6C0 PUSH1 0x0 DUP4 ADD DUP5 PUSH3 0x698 JUMP JUMPDEST SWAP3 SWAP2 POP POP JUMP JUMPDEST PUSH1 0x0 PUSH1 0x40 MLOAD SWAP1 POP SWAP1 JUMP JUMPDEST PUSH1 0x0 DUP1 REVERT JUMPDEST PUSH1 0x0 DUP1 REVERT JUMPDEST PUSH3 0x6E5 DUP2 PUSH3 0x68E JUMP JUMPDEST DUP2 EQ PUSH3 0x6F1 JUMPI PUSH1 0x0 DUP1 REVERT JUMPDEST POP JUMP JUMPDEST PUSH1 0x0 DUP2 CALLDATALOAD SWAP1 POP PUSH3 0x705 DUP2 PUSH3 0x6DA JUMP JUMPDEST SWAP3 SWAP2 POP POP JUMP JUMPDEST PUSH1 0x0 DUP1 REVERT JUMPDEST PUSH1 0x0 DUP1 REVERT JUMPDEST PUSH1 0x0 PUSH1 0x1F NOT PUSH1 0x1F DUP4 ADD AND SWAP1 POP SWAP2 SWAP1 POP JUMP JUMPDEST PUSH32 0x4E487B7100000000000000000000000000000000000000000000000000000000 PUSH1 0x0 MSTORE PUSH1 0x41 PUSH1 0x4 MSTORE PUSH1 0x24 PUSH1 0x0 REVERT JUMPDEST PUSH3 0x760 DUP3 PUSH3 0x715 JUMP JUMPDEST DUP2 ADD DUP2 DUP2 LT PUSH8 0xFFFFFFFFFFFFFFFF DUP3 GT OR ISZERO PUSH3 0x782 JUMPI PUSH3 0x781 PUSH3 0x726 JUMP JUMPDEST JUMPDEST DUP1 PUSH1 0x40 MSTORE POP POP POP JUMP JUMPDEST PUSH1 0x0 PUSH3 0x797 PUSH3 0x6C6 JUMP JUMPDEST SWAP1 POP PUSH3 0x7A5 DUP3 DUP3 PUSH3 0x755 JUMP JUMPDEST SWAP2 SWAP1 POP JUMP JUMPDEST PUSH1 0x0 PUSH8 0xFFFFFFFFFFFFFFFF DUP3 GT ISZERO PUSH3 0x7C8 JUMPI PUSH3 0x7C7 PUSH3 0x726 JUMP JUMPDEST JUMPDEST PUSH3 0x7D3 DUP3 PUSH3 0x715 JUMP JUMPDEST SWAP1 POP PUSH1 0x20 DUP2 ADD SWAP1 POP SWAP2 SWAP1 POP JUMP JUMPDEST DUP3 DUP2 DUP4 CALLDATACOPY PUSH1 0x0 DUP4 DUP4 ADD MSTORE POP POP POP JUMP JUMPDEST PUSH1 0x0 PUSH3 0x806 PUSH3 0x800 DUP5 PUSH3 0x7AA JUMP JUMPDEST PUSH3 0x78B JUMP JUMPDEST SWAP1 POP DUP3 DUP2 MSTORE PUSH1 0x20 DUP2 ADD DUP5 DUP5 DUP5 ADD GT ISZERO PUSH3 0x825 JUMPI PUSH3 0x824 PUSH3 0x710 JUMP JUMPDEST JUMPDEST PUSH3 0x832 DUP5 DUP3 DUP6 PUSH3 0x7E0 JUMP JUMPDEST POP SWAP4 SWAP3 POP POP POP JUMP JUMPDEST PUSH1 0x0 DUP3 PUSH1 0x1F DUP4 ADD SLT PUSH3 0x852 JUMPI PUSH3 0x851 PUSH3 0x70B JUMP JUMPDEST JUMPDEST DUP2 CALLDATALOAD PUSH3 0x864 DUP5 DUP3 PUSH1 0x20 DUP7 ADD PUSH3 0x7EF JUMP JUMPDEST SWAP2 POP POP SWAP3 SWAP2 POP POP JUMP JUMPDEST PUSH1 0x0 PUSH8 0xFFFFFFFFFFFFFFFF DUP3 GT ISZERO PUSH3 0x88B JUMPI PUSH3 0x88A PUSH3 0x726 JUMP JUMPDEST JUMPDEST PUSH1 0x20 DUP3 MUL SWAP1 POP PUSH1 0x20 DUP2 ADD SWAP1 POP SWAP2 SWAP1 POP JUMP JUMPDEST PUSH1 0x0 DUP1 REVERT JUMPDEST PUSH1 0x0 PUSH3 0x8B8 PUSH3 0x8B2 DUP5 PUSH3 0x86D JUMP JUMPDEST PUSH3 0x78B JUMP JUMPDEST SWAP1 POP DUP1 DUP4 DUP3 MSTORE PUSH1 0x20 DUP3 ADD SWAP1 POP PUSH1 0x20 DUP5 MUL DUP4 ADD DUP6 DUP2 GT ISZERO PUSH3 0x8DE JUMPI PUSH3 0x8DD PUSH3 0x89C JUMP JUMPDEST JUMPDEST DUP4 JUMPDEST DUP2 DUP2 LT ISZERO PUSH3 0x92C JUMPI DUP1 CALLDATALOAD PUSH8 0xFFFFFFFFFFFFFFFF DUP2 GT ISZERO PUSH3 0x907 JUMPI PUSH3 0x906 PUSH3 0x70B JUMP JUMPDEST JUMPDEST DUP1 DUP7 ADD PUSH3 0x916 DUP10 DUP3 PUSH3 0x83A JUMP JUMPDEST DUP6 MSTORE PUSH1 0x20 DUP6 ADD SWAP5 POP POP POP PUSH1 0x20 DUP2 ADD SWAP1 POP PUSH3 0x8E0 JUMP JUMPDEST POP POP POP SWAP4 SWAP3 POP POP POP JUMP JUMPDEST PUSH1 0x0 DUP3 PUSH1 0x1F DUP4 ADD SLT PUSH3 0x94E JUMPI PUSH3 0x94D PUSH3 0x70B JUMP JUMPDEST JUMPDEST DUP2 CALLDATALOAD PUSH3 0x960 DUP5 DUP3 PUSH1 0x20 DUP7 ADD PUSH3 0x8A1 JUMP JUMPDEST SWAP2 POP POP SWAP3 SWAP2 POP POP JUMP JUMPDEST PUSH1 0x0 PUSH8 0xFFFFFFFFFFFFFFFF DUP3 GT ISZERO PUSH3 0x987 JUMPI PUSH3 0x986 PUSH3 0x726 JUMP JUMPDEST JUMPDEST PUSH1 0x20 DUP3 MUL SWAP1 POP PUSH1 0x20 DUP2 ADD SWAP1 POP SWAP2 SWAP1 POP JUMP JUMPDEST PUSH1 0x0 PUSH3 0x9AF PUSH3 0x9A9 DUP5 PUSH3 0x969 JUMP JUMPDEST PUSH3 0x78B JUMP JUMPDEST SWAP1 POP DUP1 DUP4 DUP3 MSTORE PUSH1 0x20 DUP3 ADD SWAP1 POP PUSH1 0x20 DUP5 MUL DUP4 ADD DUP6 DUP2 GT ISZERO PUSH3 0x9D5 JUMPI PUSH3 0x9D4 PUSH3 0x89C JUMP JUMPDEST JUMPDEST DUP4 JUMPDEST DUP2 DUP2 LT ISZERO PUSH3 0xA02 JUMPI DUP1 PUSH3 0x9ED DUP9 DUP3 PUSH3 0x6F4 JUMP JUMPDEST DUP5 MSTORE PUSH1 0x20 DUP5 ADD SWAP4 POP POP PUSH1 0x20 DUP2 ADD SWAP1 POP PUSH3 0x9D7 JUMP JUMPDEST POP POP POP SWAP4 SWAP3 POP POP POP JUMP JUMPDEST PUSH1 0x0 DUP3 PUSH1 0x1F DUP4 ADD SLT PUSH3 0xA24 JUMPI PUSH3 0xA23 PUSH3 0x70B JUMP JUMPDEST JUMPDEST DUP2 CALLDATALOAD PUSH3 0xA36 DUP5 DUP3 PUSH1 0x20 DUP7 ADD PUSH3 0x998 JUMP JUMPDEST SWAP2 POP POP SWAP3 SWAP2 POP POP JUMP JUMPDEST PUSH1 0x0 DUP1 PUSH1 0x0 DUP1 PUSH1 0x0 DUP1 PUSH1 0x0 DUP1 PUSH2 0x100 DUP10 DUP12 SUB SLT ISZERO PUSH3 0xA63 JUMPI PUSH3 0xA62 PUSH3 0x6D0 JUMP JUMPDEST JUMPDEST PUSH1 0x0 PUSH3 0xA73 DUP12 DUP3 DUP13 ADD PUSH3 0x6F4 JUMP JUMPDEST SWAP9 POP POP PUSH1 0x20 PUSH3 0xA86 DUP12 DUP3 DUP13 ADD PUSH3 0x6F4 JUMP JUMPDEST SWAP8 POP POP PUSH1 0x40 DUP10 ADD CALLDATALOAD PUSH8 0xFFFFFFFFFFFFFFFF DUP2 GT ISZERO PUSH3 0xAAA JUMPI PUSH3 0xAA9 PUSH3 0x6D5 JUMP JUMPDEST JUMPDEST PUSH3 0xAB8 DUP12 DUP3 DUP13 ADD PUSH3 0x83A JUMP JUMPDEST SWAP7 POP POP PUSH1 0x60 DUP10 ADD CALLDATALOAD PUSH8 0xFFFFFFFFFFFFFFFF DUP2 GT ISZERO PUSH3 0xADC JUMPI PUSH3 0xADB PUSH3 0x6D5 JUMP JUMPDEST JUMPDEST PUSH3 0xAEA DUP12 DUP3 DUP13 ADD PUSH3 0x83A JUMP JUMPDEST SWAP6 POP POP PUSH1 0x80 DUP10 ADD CALLDATALOAD PUSH8 0xFFFFFFFFFFFFFFFF DUP2 GT ISZERO PUSH3 0xB0E JUMPI PUSH3 0xB0D PUSH3 0x6D5 JUMP JUMPDEST JUMPDEST PUSH3 0xB1C DUP12 DUP3 DUP13 ADD PUSH3 0x83A JUMP JUMPDEST SWAP5 POP POP PUSH1 0xA0 PUSH3 0xB2F DUP12 DUP3 DUP13 ADD PUSH3 0x6F4 JUMP JUMPDEST SWAP4 POP POP PUSH1 0xC0 DUP10 ADD CALLDATALOAD PUSH8 0xFFFFFFFFFFFFFFFF DUP2 GT ISZERO PUSH3 0xB53 JUMPI PUSH3 0xB52 PUSH3 0x6D5 JUMP JUMPDEST JUMPDEST PUSH3 0xB61 DUP12 DUP3 DUP13 ADD PUSH3 0x936 JUMP JUMPDEST SWAP3 POP POP PUSH1 0xE0 DUP10 ADD CALLDATALOAD PUSH8 0xFFFFFFFFFFFFFFFF DUP2 GT ISZERO PUSH3 0xB85 JUMPI PUSH3 0xB84 PUSH3 0x6D5 JUMP JUMPDEST JUMPDEST PUSH3 0xB93 DUP12 DUP3 DUP13 ADD PUSH3 0xA0C JUMP JUMPDEST SWAP2 POP POP SWAP3 SWAP6 SWAP9 POP SWAP3 SWAP6 SWAP9 SWAP1 SWAP4 SWAP7 POP JUMP JUMPDEST PUSH1 0x0 PUSH1 0x20 DUP3 DUP5 SUB SLT ISZERO PUSH3 0xBBC JUMPI PUSH3 0xBBB PUSH3 0x6D0 JUMP JUMPDEST JUMPDEST PUSH1 0x0 PUSH3 0xBCC DUP5 DUP3 DUP6 ADD PUSH3 0x6F4 JUMP JUMPDEST SWAP2 POP POP SWAP3 SWAP2 POP POP JUMP JUMPDEST PUSH3 0xBE0 DUP2 PUSH3 0x64C JUMP JUMPDEST DUP2 EQ PUSH3 0xBEC JUMPI PUSH1 0x0 DUP1 REVERT JUMPDEST POP JUMP JUMPDEST PUSH1 0x0 DUP2 CALLDATALOAD SWAP1 POP PUSH3 0xC00 DUP2 PUSH3 0xBD5 JUMP JUMPDEST SWAP3 SWAP2 POP POP JUMP JUMPDEST PUSH1 0x0 PUSH1 0x20 DUP3 DUP5 SUB SLT ISZERO PUSH3 0xC1F JUMPI PUSH3 0xC1E PUSH3 0x6D0 JUMP JUMPDEST JUMPDEST PUSH1 0x0 PUSH3 0xC2F DUP5 DUP3 DUP6 ADD PUSH3 0xBEF JUMP JUMPDEST SWAP2 POP POP SWAP3 SWAP2 POP POP JUMP JUMPDEST PUSH1 0x0 DUP2 MLOAD SWAP1 POP SWAP2 SWAP1 POP JUMP JUMPDEST PUSH1 0x0 DUP3 DUP3 MSTORE PUSH1 0x20 DUP3 ADD SWAP1 POP SWAP3 SWAP2 POP POP JUMP JUMPDEST PUSH1 0x0 DUP2 SWAP1 POP PUSH1 0x20 DUP3 ADD SWAP1 POP SWAP2 SWAP1 POP JUMP JUMPDEST PUSH3 0xC6F DUP2 PUSH3 0x64C JUMP JUMPDEST DUP3 MSTORE POP POP JUMP JUMPDEST PUSH1 0x0 PUSH3 0xC83 DUP4 DUP4 PUSH3 0xC64 JUMP JUMPDEST PUSH1 0x20 DUP4 ADD SWAP1 POP SWAP3 SWAP2 POP POP JUMP JUMPDEST PUSH1 0x0 PUSH1 0x20 DUP3 ADD SWAP1 POP SWAP2 SWAP1 POP JUMP JUMPDEST PUSH1 0x0 PUSH3 0xCA9 DUP3 PUSH3 0xC38 JUMP JUMPDEST PUSH3 0xCB5 DUP2 DUP6 PUSH3 0xC43 JUMP JUMPDEST SWAP4 POP PUSH3 0xCC2 DUP4 PUSH3 0xC54 JUMP JUMPDEST DUP1 PUSH1 0x0 JUMPDEST DUP4 DUP2 LT ISZERO PUSH3 0xCF9 JUMPI DUP2 MLOAD PUSH3 0xCDD DUP9 DUP3 PUSH3 0xC75 JUMP JUMPDEST SWAP8 POP PUSH3 0xCEA DUP4 PUSH3 0xC8F JUMP JUMPDEST SWAP3 POP POP PUSH1 0x1 DUP2 ADD SWAP1 POP PUSH3 0xCC6 JUMP JUMPDEST POP DUP6 SWAP4 POP POP POP POP SWAP3 SWAP2 POP POP JUMP JUMPDEST PUSH1 0x0 PUSH1 0x20 DUP3 ADD SWAP1 POP DUP2 DUP2 SUB PUSH1 0x0 DUP4 ADD MSTORE PUSH3 0xD22 DUP2 DUP5 PUSH3 0xC9C JUMP JUMPDEST SWAP1 POP SWAP3 SWAP2 POP POP JUMP JUMPDEST PUSH1 0x0 DUP2 MLOAD SWAP1 POP SWAP2 SWAP1 POP JUMP JUMPDEST PUSH1 0x0 DUP3 DUP3 MSTORE PUSH1 0x20 DUP3 ADD SWAP1 POP SWAP3 SWAP2 POP POP JUMP JUMPDEST PUSH1 0x0 JUMPDEST DUP4 DUP2 LT ISZERO PUSH3 0xD66 JUMPI DUP1 DUP3 ADD MLOAD DUP2 DUP5 ADD MSTORE PUSH1 0x20 DUP2 ADD SWAP1 POP PUSH3 0xD49 JUMP JUMPDEST PUSH1 0x0 DUP5 DUP5 ADD MSTORE POP POP POP POP JUMP JUMPDEST PUSH1 0x0 PUSH3 0xD7F DUP3 PUSH3 0xD2A JUMP JUMPDEST PUSH3 0xD8B DUP2 DUP6 PUSH3 0xD35 JUMP JUMPDEST SWAP4 POP PUSH3 0xD9D DUP2 DUP6 PUSH1 0x20 DUP7 ADD PUSH3 0xD46 JUMP JUMPDEST PUSH3 0xDA8 DUP2 PUSH3 0x715 JUMP JUMPDEST DUP5 ADD SWAP2 POP POP SWAP3 SWAP2 POP POP JUMP JUMPDEST PUSH1 0x0 DUP2 MLOAD SWAP1 POP SWAP2 SWAP1 POP JUMP JUMPDEST PUSH1 0x0 DUP3 DUP3 MSTORE PUSH1 0x20 DUP3 ADD SWAP1 POP SWAP3 SWAP2 POP POP JUMP JUMPDEST PUSH1 0x0 DUP2 SWAP1 POP PUSH1 0x20 DUP3 ADD SWAP1 POP SWAP2 SWAP1 POP JUMP JUMPDEST PUSH1 0x0 DUP3 DUP3 MSTORE PUSH1 0x20 DUP3 ADD SWAP1 POP SWAP3 SWAP2 POP POP JUMP JUMPDEST PUSH1 0x0 PUSH3 0xDFD DUP3 PUSH3 0xD2A JUMP JUMPDEST PUSH3 0xE09 DUP2 DUP6 PUSH3 0xDDF JUMP JUMPDEST SWAP4 POP PUSH3 0xE1B DUP2 DUP6 PUSH1 0x20 DUP7 ADD PUSH3 0xD46 JUMP JUMPDEST PUSH3 0xE26 DUP2 PUSH3 0x715 JUMP JUMPDEST DUP5 ADD SWAP2 POP POP SWAP3 SWAP2 POP POP JUMP JUMPDEST PUSH1 0x0 PUSH3 0xE3F DUP4 DUP4 PUSH3 0xDF0 JUMP JUMPDEST SWAP1 POP SWAP3 SWAP2 POP POP JUMP JUMPDEST PUSH1 0x0 PUSH1 0x20 DUP3 ADD SWAP1 POP SWAP2 SWAP1 POP JUMP JUMPDEST PUSH1 0x0 PUSH3 0xE61 DUP3 PUSH3 0xDB3 JUMP JUMPDEST PUSH3 0xE6D DUP2 DUP6 PUSH3 0xDBE JUMP JUMPDEST SWAP4 POP DUP4 PUSH1 0x20 DUP3 MUL DUP6 ADD PUSH3 0xE81 DUP6 PUSH3 0xDCF JUMP JUMPDEST DUP1 PUSH1 0x0 JUMPDEST DUP6 DUP2 LT ISZERO PUSH3 0xEC3 JUMPI DUP5 DUP5 SUB DUP10 MSTORE DUP2 MLOAD PUSH3 0xEA1 DUP6 DUP3 PUSH3 0xE31 JUMP JUMPDEST SWAP5 POP PUSH3 0xEAE DUP4 PUSH3 0xE47 JUMP JUMPDEST SWAP3 POP PUSH1 0x20 DUP11 ADD SWAP10 POP POP PUSH1 0x1 DUP2 ADD SWAP1 POP PUSH3 0xE85 JUMP JUMPDEST POP DUP3 SWAP8 POP DUP8 SWAP6 POP POP POP POP POP POP SWAP3 SWAP2 POP POP JUMP JUMPDEST PUSH1 0x0 DUP2 MLOAD SWAP1 POP SWAP2 SWAP1 POP JUMP JUMPDEST PUSH1 0x0 DUP3 DUP3 MSTORE PUSH1 0x20 DUP3 ADD SWAP1 POP SWAP3 SWAP2 POP POP JUMP JUMPDEST PUSH1 0x0 DUP2 SWAP1 POP PUSH1 0x20 DUP3 ADD SWAP1 POP SWAP2 SWAP1 POP JUMP JUMPDEST PUSH3 0xF0C DUP2 PUSH3 0x68E JUMP JUMPDEST DUP3 MSTORE POP POP JUMP JUMPDEST PUSH1 0x0 PUSH3 0xF20 DUP4 DUP4 PUSH3 0xF01 JUMP JUMPDEST PUSH1 0x20 DUP4 ADD SWAP1 POP SWAP3 SWAP2 POP POP JUMP JUMPDEST PUSH1 0x0 PUSH1 0x20 DUP3 ADD SWAP1 POP SWAP2 SWAP1 POP JUMP JUMPDEST PUSH1 0x0 PUSH3 0xF46 DUP3 PUSH3 0xED5 JUMP JUMPDEST PUSH3 0xF52 DUP2 DUP6 PUSH3 0xEE0 JUMP JUMPDEST SWAP4 POP PUSH3 0xF5F DUP4 PUSH3 0xEF1 JUMP JUMPDEST DUP1 PUSH1 0x0 JUMPDEST DUP4 DUP2 LT ISZERO PUSH3 0xF96 JUMPI DUP2 MLOAD PUSH3 0xF7A DUP9 DUP3 PUSH3 0xF12 JUMP JUMPDEST SWAP8 POP PUSH3 0xF87 DUP4 PUSH3 0xF2C JUMP JUMPDEST SWAP3 POP POP PUSH1 0x1 DUP2 ADD SWAP1 POP PUSH3 0xF63 JUMP JUMPDEST POP DUP6 SWAP4 POP POP POP POP SWAP3 SWAP2 POP POP JUMP JUMPDEST PUSH1 0x0 PUSH2 0x160 DUP3 ADD SWAP1 POP PUSH3 0xFBB PUSH1 0x0 DUP4 ADD DUP15 PUSH3 0x660 JUMP JUMPDEST PUSH3 0xFCA PUSH1 0x20 DUP4 ADD DUP14 PUSH3 0x698 JUMP JUMPDEST PUSH3 0xFD9 PUSH1 0x40 DUP4 ADD DUP13 PUSH3 0x698 JUMP JUMPDEST DUP2 DUP2 SUB PUSH1 0x60 DUP4 ADD MSTORE PUSH3 0xFED DUP2 DUP12 PUSH3 0xD72 JUMP JUMPDEST SWAP1 POP DUP2 DUP2 SUB PUSH1 0x80 DUP4 ADD MSTORE PUSH3 0x1003 DUP2 DUP11 PUSH3 0xD72 JUMP JUMPDEST SWAP1 POP DUP2 DUP2 SUB PUSH1 0xA0 DUP4 ADD MSTORE PUSH3 0x1019 DUP2 DUP10 PUSH3 0xD72 JUMP JUMPDEST SWAP1 POP PUSH3 0x102A PUSH1 0xC0 DUP4 ADD DUP9 PUSH3 0x698 JUMP JUMPDEST PUSH3 0x1039 PUSH1 0xE0 DUP4 ADD DUP8 PUSH3 0x698 JUMP JUMPDEST PUSH3 0x1049 PUSH2 0x100 DUP4 ADD DUP7 PUSH3 0x660 JUMP JUMPDEST DUP2 DUP2 SUB PUSH2 0x120 DUP4 ADD MSTORE PUSH3 0x105E DUP2 DUP6 PUSH3 0xE54 JUMP JUMPDEST SWAP1 POP DUP2 DUP2 SUB PUSH2 0x140 DUP4 ADD MSTORE PUSH3 0x1075 DUP2 DUP5 PUSH3 0xF39 JUMP JUMPDEST SWAP1 POP SWAP13 SWAP12 POP POP POP POP POP POP POP POP POP POP POP POP JUMP JUMPDEST PUSH1 0x0 DUP2 SWAP1 POP SWAP3 SWAP2 POP POP JUMP JUMPDEST PUSH32 0x636F6E7472616374730000000000000000000000000000000000000000000000 PUSH1 0x0 DUP3 ADD MSTORE POP JUMP JUMPDEST PUSH1 0x0 PUSH3 0x10CA PUSH1 0x9 DUP4 PUSH3 0x1087 JUMP JUMPDEST SWAP2 POP PUSH3 0x10D7 DUP3 PUSH3 0x1092 JUMP JUMPDEST PUSH1 0x9 DUP3 ADD SWAP1 POP SWAP2 SWAP1 POP JUMP JUMPDEST PUSH1 0x0 PUSH3 0x10EF DUP3 PUSH3 0x10BB JUMP JUMPDEST SWAP2 POP DUP2 SWAP1 POP SWAP2 SWAP1 POP JUMP JUMPDEST PUSH1 0x0 PUSH1 0x80 DUP3 ADD SWAP1 POP PUSH3 0x1110 PUSH1 0x0 DUP4 ADD DUP8 PUSH3 0x660 JUMP JUMPDEST DUP2 DUP2 SUB PUSH1 0x20 DUP4 ADD MSTORE PUSH3 0x1124 DUP2 DUP7 PUSH3 0xD72 JUMP JUMPDEST SWAP1 POP PUSH3 0x1135 PUSH1 0x40 DUP4 ADD DUP6 PUSH3 0x660 JUMP JUMPDEST PUSH3 0x1144 PUSH1 0x60 DUP4 ADD DUP5 PUSH3 0x698 JUMP JUMPDEST SWAP6 SWAP5 POP POP POP POP POP JUMP INVALID PUSH1 0x80 PUSH1 0x40 MSTORE CALLVALUE DUP1 ISZERO PUSH3 0x11 JUMPI PUSH1 0x0 DUP1 REVERT JUMPDEST POP PUSH1 0x40 MLOAD PUSH3 0x4979 CODESIZE SUB DUP1 PUSH3 0x4979 DUP4 CODECOPY DUP2 DUP2 ADD PUSH1 0x40 MSTORE DUP2 ADD SWAP1 PUSH3 0x37 SWAP2 SWAP1 PUSH3 0x9C8 JUMP JUMPDEST PUSH1 0x1 DUP1 PUSH1 0x0 DUP1 PUSH1 0x6 DUP2 GT ISZERO PUSH3 0x52 JUMPI PUSH3 0x51 PUSH3 0xB70 JUMP JUMPDEST JUMPDEST PUSH1 0x6 DUP2 GT ISZERO PUSH3 0x67 JUMPI PUSH3 0x66 PUSH3 0xB70 JUMP JUMPDEST JUMPDEST DUP2 MSTORE PUSH1 0x20 ADD SWAP1 DUP2 MSTORE PUSH1 0x20 ADD PUSH1 0x0 KECCAK256 DUP2 SWAP1 SSTORE POP PUSH1 0x2 PUSH1 0x1 PUSH1 0x0 PUSH1 0x1 PUSH1 0x6 DUP2 GT ISZERO PUSH3 0x96 JUMPI PUSH3 0x95 PUSH3 0xB70 JUMP JUMPDEST JUMPDEST PUSH1 0x6 DUP2 GT ISZERO PUSH3 0xAB JUMPI PUSH3 0xAA PUSH3 0xB70 JUMP JUMPDEST JUMPDEST DUP2 MSTORE PUSH1 0x20 ADD SWAP1 DUP2 MSTORE PUSH1 0x20 ADD PUSH1 0x0 KECCAK256 DUP2 SWAP1 SSTORE POP PUSH1 0x4 PUSH1 0x1 PUSH1 0x0 PUSH1 0x2 PUSH1 0x6 DUP2 GT ISZERO PUSH3 0xDA JUMPI PUSH3 0xD9 PUSH3 0xB70 JUMP JUMPDEST JUMPDEST PUSH1 0x6 DUP2 GT ISZERO PUSH3 0xEF JUMPI PUSH3 0xEE PUSH3 0xB70 JUMP JUMPDEST JUMPDEST DUP2 MSTORE PUSH1 0x20 ADD SWAP1 DUP2 MSTORE PUSH1 0x20 ADD PUSH1 0x0 KECCAK256 DUP2 SWAP1 SSTORE POP PUSH1 0x8 PUSH1 0x1 PUSH1 0x0 PUSH1 0x3 PUSH1 0x6 DUP2 GT ISZERO PUSH3 0x11E JUMPI PUSH3 0x11D PUSH3 0xB70 JUMP JUMPDEST JUMPDEST PUSH1 0x6 DUP2 GT ISZERO PUSH3 0x133 JUMPI PUSH3 0x132 PUSH3 0xB70 JUMP JUMPDEST JUMPDEST DUP2 MSTORE PUSH1 0x20 ADD SWAP1 DUP2 MSTORE PUSH1 0x20 ADD PUSH1 0x0 KECCAK256 DUP2 SWAP1 SSTORE POP PUSH1 0x10 PUSH1 0x1 PUSH1 0x0 PUSH1 0x4 PUSH1 0x6 DUP2 GT ISZERO PUSH3 0x162 JUMPI PUSH3 0x161 PUSH3 0xB70 JUMP JUMPDEST JUMPDEST PUSH1 0x6 DUP2 GT ISZERO PUSH3 0x177 JUMPI PUSH3 0x176 PUSH3 0xB70 JUMP JUMPDEST JUMPDEST DUP2 MSTORE PUSH1 0x20 ADD SWAP1 DUP2 MSTORE PUSH1 0x20 ADD PUSH1 0x0 KECCAK256 DUP2 SWAP1 SSTORE POP PUSH1 0x20 PUSH1 0x1 PUSH1 0x0 PUSH1 0x5 PUSH1 0x6 DUP2 GT ISZERO PUSH3 0x1A6 JUMPI PUSH3 0x1A5 PUSH3 0xB70 JUMP JUMPDEST JUMPDEST PUSH1 0x6 DUP2 GT ISZERO PUSH3 0x1BB JUMPI PUSH3 0x1BA PUSH3 0xB70 JUMP JUMPDEST JUMPDEST DUP2 MSTORE PUSH1 0x20 ADD SWAP1 DUP2 MSTORE PUSH1 0x20 ADD PUSH1 0x0 KECCAK256 DUP2 SWAP1 SSTORE POP PUSH1 0x40 PUSH1 0x1 PUSH1 0x0 PUSH1 0x6 DUP1 DUP2 GT ISZERO PUSH3 0x1E9 JUMPI PUSH3 0x1E8 PUSH3 0xB70 JUMP JUMPDEST JUMPDEST PUSH1 0x6 DUP2 GT ISZERO PUSH3 0x1FE JUMPI PUSH3 0x1FD PUSH3 0xB70 JUMP JUMPDEST JUMPDEST DUP2 MSTORE PUSH1 0x20 ADD SWAP1 DUP2 MSTORE PUSH1 0x20 ADD PUSH1 0x0 KECCAK256 DUP2 SWAP1 SSTORE POP DUP11 PUSH1 0x3 PUSH1 0x0 PUSH2 0x100 EXP DUP2 SLOAD DUP2 PUSH20 0xFFFFFFFFFFFFFFFFFFFFFFFFFFFFFFFFFFFFFFFF MUL NOT AND SWAP1 DUP4 PUSH20 0xFFFFFFFFFFFFFFFFFFFFFFFFFFFFFFFFFFFFFFFF AND MUL OR SWAP1 SSTORE POP DUP10 PUSH1 0x7 DUP2 SWAP1 SSTORE POP DUP8 PUSH1 0x4 SWAP1 DUP2 PUSH3 0x269 SWAP2 SWAP1 PUSH3 0xDE0 JUMP JUMPDEST POP DUP7 PUSH1 0x5 SWAP1 DUP2 PUSH3 0x27B SWAP2 SWAP1 PUSH3 0xDE0 JUMP JUMPDEST POP DUP6 PUSH1 0x6 SWAP1 DUP2 PUSH3 0x28D SWAP2 SWAP1 PUSH3 0xDE0 JUMP JUMPDEST POP DUP5 PUSH1 0x8 DUP2 SWAP1 SSTORE POP DUP4 PUSH1 0x9 DUP2 SWAP1 SSTORE POP DUP3 PUSH1 0x2 PUSH1 0x0 PUSH2 0x100 EXP DUP2 SLOAD DUP2 PUSH20 0xFFFFFFFFFFFFFFFFFFFFFFFFFFFFFFFFFFFFFFFF MUL NOT AND SWAP1 DUP4 PUSH20 0xFFFFFFFFFFFFFFFFFFFFFFFFFFFFFFFFFFFFFFFF AND MUL OR SWAP1 SSTORE POP PUSH1 0x40 MLOAD DUP1 PUSH1 0x40 ADD PUSH1 0x40 MSTORE DUP1 PUSH1 0x7 DUP2 MSTORE PUSH1 0x20 ADD PUSH32 0x6F6E676F696E6700000000000000000000000000000000000000000000000000 DUP2 MSTORE POP PUSH1 0xE SWAP1 DUP2 PUSH3 0x323 SWAP2 SWAP1 PUSH3 0xDE0 JUMP JUMPDEST POP PUSH1 0x0 DUP10 SUB PUSH3 0x37A JUMPI PUSH1 0x0 PUSH1 0xD PUSH1 0x0 PUSH2 0x100 EXP DUP2 SLOAD DUP2 PUSH1 0xFF MUL NOT AND SWAP1 DUP4 PUSH1 0x1 DUP2 GT ISZERO PUSH3 0x356 JUMPI PUSH3 0x355 PUSH3 0xB70 JUMP JUMPDEST JUMPDEST MUL OR SWAP1 SSTORE POP DUP1 PUSH1 0x15 SWAP1 DUP1 MLOAD SWAP1 PUSH1 0x20 ADD SWAP1 PUSH3 0x373 SWAP3 SWAP2 SWAP1 PUSH3 0x484 JUMP JUMPDEST POP PUSH3 0x419 JUMP JUMPDEST PUSH1 0x1 DUP10 SUB PUSH3 0x3D0 JUMPI PUSH1 0x1 PUSH1 0xD PUSH1 0x0 PUSH2 0x100 EXP DUP2 SLOAD DUP2 PUSH1 0xFF MUL NOT AND SWAP1 DUP4 PUSH1 0x1 DUP2 GT ISZERO PUSH3 0x3AC JUMPI PUSH3 0x3AB PUSH3 0xB70 JUMP JUMPDEST JUMPDEST MUL OR SWAP1 SSTORE POP DUP2 PUSH1 0x14 SWAP1 DUP1 MLOAD SWAP1 PUSH1 0x20 ADD SWAP1 PUSH3 0x3C9 SWAP3 SWAP2 SWAP1 PUSH3 0x4D6 JUMP JUMPDEST POP PUSH3 0x418 JUMP JUMPDEST PUSH1 0x0 PUSH1 0xD PUSH1 0x0 PUSH2 0x100 EXP DUP2 SLOAD DUP2 PUSH1 0xFF MUL NOT AND SWAP1 DUP4 PUSH1 0x1 DUP2 GT ISZERO PUSH3 0x3F9 JUMPI PUSH3 0x3F8 PUSH3 0xB70 JUMP JUMPDEST JUMPDEST MUL OR SWAP1 SSTORE POP DUP1 PUSH1 0x15 SWAP1 DUP1 MLOAD SWAP1 PUSH1 0x20 ADD SWAP1 PUSH3 0x416 SWAP3 SWAP2 SWAP1 PUSH3 0x484 JUMP JUMPDEST POP JUMPDEST JUMPDEST PUSH1 0x40 MLOAD PUSH3 0x427 SWAP1 PUSH3 0xF22 JUMP JUMPDEST PUSH1 0x40 MLOAD DUP1 SWAP2 SUB SWAP1 KECCAK256 PUSH32 0x662C389CEF670918DBA40E9D07E97DD26E41B509A7A159015C20BB806527604D DUP13 DUP11 DUP11 DUP15 PUSH1 0x0 DUP1 PUSH1 0x40 MLOAD PUSH3 0x46B SWAP7 SWAP6 SWAP5 SWAP4 SWAP3 SWAP2 SWAP1 PUSH3 0x1040 JUMP JUMPDEST PUSH1 0x40 MLOAD DUP1 SWAP2 SUB SWAP1 LOG2 POP POP POP POP POP POP POP POP POP POP POP PUSH3 0x10D0 JUMP JUMPDEST DUP3 DUP1 SLOAD DUP3 DUP3 SSTORE SWAP1 PUSH1 0x0 MSTORE PUSH1 0x20 PUSH1 0x0 KECCAK256 SWAP1 DUP2 ADD SWAP3 DUP3 ISZERO PUSH3 0x4C3 JUMPI SWAP2 PUSH1 0x20 MUL DUP3 ADD JUMPDEST DUP3 DUP2 GT ISZERO PUSH3 0x4C2 JUMPI DUP3 MLOAD DUP3 SSTORE SWAP2 PUSH1 0x20 ADD SWAP2 SWAP1 PUSH1 0x1 ADD SWAP1 PUSH3 0x4A5 JUMP JUMPDEST JUMPDEST POP SWAP1 POP PUSH3 0x4D2 SWAP2 SWAP1 PUSH3 0x536 JUMP JUMPDEST POP SWAP1 JUMP JUMPDEST DUP3 DUP1 SLOAD DUP3 DUP3 SSTORE SWAP1 PUSH1 0x0 MSTORE PUSH1 0x20 PUSH1 0x0 KECCAK256 SWAP1 DUP2 ADD SWAP3 DUP3 ISZERO PUSH3 0x523 JUMPI SWAP2 PUSH1 0x20 MUL DUP3 ADD JUMPDEST DUP3 DUP2 GT ISZERO PUSH3 0x522 JUMPI DUP3 MLOAD DUP3 SWAP1 DUP2 PUSH3 0x511 SWAP2 SWAP1 PUSH3 0xDE0 JUMP JUMPDEST POP SWAP2 PUSH1 0x20 ADD SWAP2 SWAP1 PUSH1 0x1 ADD SWAP1 PUSH3 0x4F7 JUMP JUMPDEST JUMPDEST POP SWAP1 POP PUSH3 0x532 SWAP2 SWAP1 PUSH3 0x555 JUMP JUMPDEST POP SWAP1 JUMP JUMPDEST JUMPDEST DUP1 DUP3 GT ISZERO PUSH3 0x551 JUMPI PUSH1 0x0 DUP2 PUSH1 0x0 SWAP1 SSTORE POP PUSH1 0x1 ADD PUSH3 0x537 JUMP JUMPDEST POP SWAP1 JUMP JUMPDEST JUMPDEST DUP1 DUP3 GT ISZERO PUSH3 0x579 JUMPI PUSH1 0x0 DUP2 DUP2 PUSH3 0x56F SWAP2 SWAP1 PUSH3 0x57D JUMP JUMPDEST POP PUSH1 0x1 ADD PUSH3 0x556 JUMP JUMPDEST POP SWAP1 JUMP JUMPDEST POP DUP1 SLOAD PUSH3 0x58B SWAP1 PUSH3 0xBD9 JUMP JUMPDEST PUSH1 0x0 DUP3 SSTORE DUP1 PUSH1 0x1F LT PUSH3 0x59F JUMPI POP PUSH3 0x5C0 JUMP JUMPDEST PUSH1 0x1F ADD PUSH1 0x20 SWAP1 DIV SWAP1 PUSH1 0x0 MSTORE PUSH1 0x20 PUSH1 0x0 KECCAK256 SWAP1 DUP2 ADD SWAP1 PUSH3 0x5BF SWAP2 SWAP1 PUSH3 0x536 JUMP JUMPDEST JUMPDEST POP JUMP JUMPDEST PUSH1 0x0 PUSH1 0x40 MLOAD SWAP1 POP SWAP1 JUMP JUMPDEST PUSH1 0x0 DUP1 REVERT JUMPDEST PUSH1 0x0 DUP1 REVERT JUMPDEST PUSH1 0x0 PUSH20 0xFFFFFFFFFFFFFFFFFFFFFFFFFFFFFFFFFFFFFFFF DUP3 AND SWAP1 POP SWAP2 SWAP1 POP JUMP JUMPDEST PUSH1 0x0 PUSH3 0x604 DUP3 PUSH3 0x5D7 JUMP JUMPDEST SWAP1 POP SWAP2 SWAP1 POP JUMP JUMPDEST PUSH3 0x616 DUP2 PUSH3 0x5F7 JUMP JUMPDEST DUP2 EQ PUSH3 0x622 JUMPI PUSH1 0x0 DUP1 REVERT JUMPDEST POP JUMP JUMPDEST PUSH1 0x0 DUP2 MLOAD SWAP1 POP PUSH3 0x636 DUP2 PUSH3 0x60B JUMP JUMPDEST SWAP3 SWAP2 POP POP JUMP JUMPDEST PUSH1 0x0 DUP2 SWAP1 POP SWAP2 SWAP1 POP JUMP JUMPDEST PUSH3 0x651 DUP2 PUSH3 0x63C JUMP JUMPDEST DUP2 EQ PUSH3 0x65D JUMPI PUSH1 0x0 DUP1 REVERT JUMPDEST POP JUMP JUMPDEST PUSH1 0x0 DUP2 MLOAD SWAP1 POP PUSH3 0x671 DUP2 PUSH3 0x646 JUMP JUMPDEST SWAP3 SWAP2 POP POP JUMP JUMPDEST PUSH1 0x0 DUP1 REVERT JUMPDEST PUSH1 0x0 DUP1 REVERT JUMPDEST PUSH1 0x0 PUSH1 0x1F NOT PUSH1 0x1F DUP4 ADD AND SWAP1 POP SWAP2 SWAP1 POP JUMP JUMPDEST PUSH32 0x4E487B7100000000000000000000000000000000000000000000000000000000 PUSH1 0x0 MSTORE PUSH1 0x41 PUSH1 0x4 MSTORE PUSH1 0x24 PUSH1 0x0 REVERT JUMPDEST PUSH3 0x6CC DUP3 PUSH3 0x681 JUMP JUMPDEST DUP2 ADD DUP2 DUP2 LT PUSH8 0xFFFFFFFFFFFFFFFF DUP3 GT OR ISZERO PUSH3 0x6EE JUMPI PUSH3 0x6ED PUSH3 0x692 JUMP JUMPDEST JUMPDEST DUP1 PUSH1 0x40 MSTORE POP POP POP JUMP JUMPDEST PUSH1 0x0 PUSH3 0x703 PUSH3 0x5C3 JUMP JUMPDEST SWAP1 POP PUSH3 0x711 DUP3 DUP3 PUSH3 0x6C1 JUMP JUMPDEST SWAP2 SWAP1 POP JUMP JUMPDEST PUSH1 0x0 PUSH8 0xFFFFFFFFFFFFFFFF DUP3 GT ISZERO PUSH3 0x734 JUMPI PUSH3 0x733 PUSH3 0x692 JUMP JUMPDEST JUMPDEST PUSH3 0x73F DUP3 PUSH3 0x681 JUMP JUMPDEST SWAP1 POP PUSH1 0x20 DUP2 ADD SWAP1 POP SWAP2 SWAP1 POP JUMP JUMPDEST PUSH1 0x0 JUMPDEST DUP4 DUP2 LT ISZERO PUSH3 0x76C JUMPI DUP1 DUP3 ADD MLOAD DUP2 DUP5 ADD MSTORE PUSH1 0x20 DUP2 ADD SWAP1 POP PUSH3 0x74F JUMP JUMPDEST PUSH1 0x0 DUP5 DUP5 ADD MSTORE POP POP POP POP JUMP JUMPDEST PUSH1 0x0 PUSH3 0x78F PUSH3 0x789 DUP5 PUSH3 0x716 JUMP JUMPDEST PUSH3 0x6F7 JUMP JUMPDEST SWAP1 POP DUP3 DUP2 MSTORE PUSH1 0x20 DUP2 ADD DUP5 DUP5 DUP5 ADD GT ISZERO PUSH3 0x7AE JUMPI PUSH3 0x7AD PUSH3 0x67C JUMP JUMPDEST JUMPDEST PUSH3 0x7BB DUP5 DUP3 DUP6 PUSH3 0x74C JUMP JUMPDEST POP SWAP4 SWAP3 POP POP POP JUMP JUMPDEST PUSH1 0x0 DUP3 PUSH1 0x1F DUP4 ADD SLT PUSH3 0x7DB JUMPI PUSH3 0x7DA PUSH3 0x677 JUMP JUMPDEST JUMPDEST DUP2 MLOAD PUSH3 0x7ED DUP5 DUP3 PUSH1 0x20 DUP7 ADD PUSH3 0x778 JUMP JUMPDEST SWAP2 POP POP SWAP3 SWAP2 POP POP JUMP JUMPDEST PUSH1 0x0 PUSH8 0xFFFFFFFFFFFFFFFF DUP3 GT ISZERO PUSH3 0x814 JUMPI PUSH3 0x813 PUSH3 0x692 JUMP JUMPDEST JUMPDEST PUSH1 0x20 DUP3 MUL SWAP1 POP PUSH1 0x20 DUP2 ADD SWAP1 POP SWAP2 SWAP1 POP JUMP JUMPDEST PUSH1 0x0 DUP1 REVERT JUMPDEST PUSH1 0x0 PUSH3 0x841 PUSH3 0x83B DUP5 PUSH3 0x7F6 JUMP JUMPDEST PUSH3 0x6F7 JUMP JUMPDEST SWAP1 POP DUP1 DUP4 DUP3 MSTORE PUSH1 0x20 DUP3 ADD SWAP1 POP PUSH1 0x20 DUP5 MUL DUP4 ADD DUP6 DUP2 GT ISZERO PUSH3 0x867 JUMPI PUSH3 0x866 PUSH3 0x825 JUMP JUMPDEST JUMPDEST DUP4 JUMPDEST DUP2 DUP2 LT ISZERO PUSH3 0x8B5 JUMPI DUP1 MLOAD PUSH8 0xFFFFFFFFFFFFFFFF DUP2 GT ISZERO PUSH3 0x890 JUMPI PUSH3 0x88F PUSH3 0x677 JUMP JUMPDEST JUMPDEST DUP1 DUP7 ADD PUSH3 0x89F DUP10 DUP3 PUSH3 0x7C3 JUMP JUMPDEST DUP6 MSTORE PUSH1 0x20 DUP6 ADD SWAP5 POP POP POP PUSH1 0x20 DUP2 ADD SWAP1 POP PUSH3 0x869 JUMP JUMPDEST POP POP POP SWAP4 SWAP3 POP POP POP JUMP JUMPDEST PUSH1 0x0 DUP3 PUSH1 0x1F DUP4 ADD SLT PUSH3 0x8D7 JUMPI PUSH3 0x8D6 PUSH3 0x677 JUMP JUMPDEST JUMPDEST DUP2 MLOAD PUSH3 0x8E9 DUP5 DUP3 PUSH1 0x20 DUP7 ADD PUSH3 0x82A JUMP JUMPDEST SWAP2 POP POP SWAP3 SWAP2 POP POP JUMP JUMPDEST PUSH1 0x0 PUSH8 0xFFFFFFFFFFFFFFFF DUP3 GT ISZERO PUSH3 0x910 JUMPI PUSH3 0x90F PUSH3 0x692 JUMP JUMPDEST JUMPDEST PUSH1 0x20 DUP3 MUL SWAP1 POP PUSH1 0x20 DUP2 ADD SWAP1 POP SWAP2 SWAP1 POP JUMP JUMPDEST PUSH1 0x0 PUSH3 0x938 PUSH3 0x932 DUP5 PUSH3 0x8F2 JUMP JUMPDEST PUSH3 0x6F7 JUMP JUMPDEST SWAP1 POP DUP1 DUP4 DUP3 MSTORE PUSH1 0x20 DUP3 ADD SWAP1 POP PUSH1 0x20 DUP5 MUL DUP4 ADD DUP6 DUP2 GT ISZERO PUSH3 0x95E JUMPI PUSH3 0x95D PUSH3 0x825 JUMP JUMPDEST JUMPDEST DUP4 JUMPDEST DUP2 DUP2 LT ISZERO PUSH3 0x98B JUMPI DUP1 PUSH3 0x976 DUP9 DUP3 PUSH3 0x660 JUMP JUMPDEST DUP5 MSTORE PUSH1 0x20 DUP5 ADD SWAP4 POP POP PUSH1 0x20 DUP2 ADD SWAP1 POP PUSH3 0x960 JUMP JUMPDEST POP POP POP SWAP4 SWAP3 POP POP POP JUMP JUMPDEST PUSH1 0x0 DUP3 PUSH1 0x1F DUP4 ADD SLT PUSH3 0x9AD JUMPI PUSH3 0x9AC PUSH3 0x677 JUMP JUMPDEST JUMPDEST DUP2 MLOAD PUSH3 0x9BF DUP5 DUP3 PUSH1 0x20 DUP7 ADD PUSH3 0x921 JUMP JUMPDEST SWAP2 POP POP SWAP3 SWAP2 POP POP JUMP JUMPDEST PUSH1 0x0 DUP1 PUSH1 0x0 DUP1 PUSH1 0x0 DUP1 PUSH1 0x0 DUP1 PUSH1 0x0 DUP1 PUSH1 0x0 PUSH2 0x160 DUP13 DUP15 SUB SLT ISZERO PUSH3 0x9F1 JUMPI PUSH3 0x9F0 PUSH3 0x5CD JUMP JUMPDEST JUMPDEST PUSH1 0x0 PUSH3 0xA01 DUP15 DUP3 DUP16 ADD PUSH3 0x625 JUMP JUMPDEST SWAP12 POP POP PUSH1 0x20 PUSH3 0xA14 DUP15 DUP3 DUP16 ADD PUSH3 0x660 JUMP JUMPDEST SWAP11 POP POP PUSH1 0x40 PUSH3 0xA27 DUP15 DUP3 DUP16 ADD PUSH3 0x660 JUMP JUMPDEST SWAP10 POP POP PUSH1 0x60 DUP13 ADD MLOAD PUSH8 0xFFFFFFFFFFFFFFFF DUP2 GT ISZERO PUSH3 0xA4B JUMPI PUSH3 0xA4A PUSH3 0x5D2 JUMP JUMPDEST JUMPDEST PUSH3 0xA59 DUP15 DUP3 DUP16 ADD PUSH3 0x7C3 JUMP JUMPDEST SWAP9 POP POP PUSH1 0x80 DUP13 ADD MLOAD PUSH8 0xFFFFFFFFFFFFFFFF DUP2 GT ISZERO PUSH3 0xA7D JUMPI PUSH3 0xA7C PUSH3 0x5D2 JUMP JUMPDEST JUMPDEST PUSH3 0xA8B DUP15 DUP3 DUP16 ADD PUSH3 0x7C3 JUMP JUMPDEST SWAP8 POP POP PUSH1 0xA0 DUP13 ADD MLOAD PUSH8 0xFFFFFFFFFFFFFFFF DUP2 GT ISZERO PUSH3 0xAAF JUMPI PUSH3 0xAAE PUSH3 0x5D2 JUMP JUMPDEST JUMPDEST PUSH3 0xABD DUP15 DUP3 DUP16 ADD PUSH3 0x7C3 JUMP JUMPDEST SWAP7 POP POP PUSH1 0xC0 PUSH3 0xAD0 DUP15 DUP3 DUP16 ADD PUSH3 0x660 JUMP JUMPDEST SWAP6 POP POP PUSH1 0xE0 PUSH3 0xAE3 DUP15 DUP3 DUP16 ADD PUSH3 0x660 JUMP JUMPDEST SWAP5 POP POP PUSH2 0x100 PUSH3 0xAF7 DUP15 DUP3 DUP16 ADD PUSH3 0x625 JUMP JUMPDEST SWAP4 POP POP PUSH2 0x120 DUP13 ADD MLOAD PUSH8 0xFFFFFFFFFFFFFFFF DUP2 GT ISZERO PUSH3 0xB1C JUMPI PUSH3 0xB1B PUSH3 0x5D2 JUMP JUMPDEST JUMPDEST PUSH3 0xB2A DUP15 DUP3 DUP16 ADD PUSH3 0x8BF JUMP JUMPDEST SWAP3 POP POP PUSH2 0x140 DUP13 ADD MLOAD PUSH8 0xFFFFFFFFFFFFFFFF DUP2 GT ISZERO PUSH3 0xB4F JUMPI PUSH3 0xB4E PUSH3 0x5D2 JUMP JUMPDEST JUMPDEST PUSH3 0xB5D DUP15 DUP3 DUP16 ADD PUSH3 0x995 JUMP JUMPDEST SWAP2 POP POP SWAP3 SWAP6 SWAP9 SWAP12 POP SWAP3 SWAP6 SWAP9 SWAP12 SWAP1 SWAP4 SWAP7 SWAP10 POP JUMP JUMPDEST PUSH32 0x4E487B7100000000000000000000000000000000000000000000000000000000 PUSH1 0x0 MSTORE PUSH1 0x21 PUSH1 0x4 MSTORE PUSH1 0x24 PUSH1 0x0 REVERT JUMPDEST PUSH1 0x0 DUP2 MLOAD SWAP1 POP SWAP2 SWAP1 POP JUMP JUMPDEST PUSH32 0x4E487B7100000000000000000000000000000000000000000000000000000000 PUSH1 0x0 MSTORE PUSH1 0x22 PUSH1 0x4 MSTORE PUSH1 0x24 PUSH1 0x0 REVERT JUMPDEST PUSH1 0x0 PUSH1 0x2 DUP3 DIV SWAP1 POP PUSH1 0x1 DUP3 AND DUP1 PUSH3 0xBF2 JUMPI PUSH1 0x7F DUP3 AND SWAP2 POP JUMPDEST PUSH1 0x20 DUP3 LT DUP2 SUB PUSH3 0xC08 JUMPI PUSH3 0xC07 PUSH3 0xBAA JUMP JUMPDEST JUMPDEST POP SWAP2 SWAP1 POP JUMP JUMPDEST PUSH1 0x0 DUP2 SWAP1 POP DUP2 PUSH1 0x0 MSTORE PUSH1 0x20 PUSH1 0x0 KECCAK256 SWAP1 POP SWAP2 SWAP1 POP JUMP JUMPDEST PUSH1 0x0 PUSH1 0x20 PUSH1 0x1F DUP4 ADD DIV SWAP1 POP SWAP2 SWAP1 POP JUMP JUMPDEST PUSH1 0x0 DUP3 DUP3 SHL SWAP1 POP SWAP3 SWAP2 POP POP JUMP JUMPDEST PUSH1 0x0 PUSH1 0x8 DUP4 MUL PUSH3 0xC72 PUSH32 0xFFFFFFFFFFFFFFFFFFFFFFFFFFFFFFFFFFFFFFFFFFFFFFFFFFFFFFFFFFFFFFFF DUP3 PUSH3 0xC33 JUMP JUMPDEST PUSH3 0xC7E DUP7 DUP4 PUSH3 0xC33 JUMP JUMPDEST SWAP6 POP DUP1 NOT DUP5 AND SWAP4 POP DUP1 DUP7 AND DUP5 OR SWAP3 POP POP POP SWAP4 SWAP3 POP POP POP JUMP JUMPDEST PUSH1 0x0 DUP2 SWAP1 POP SWAP2 SWAP1 POP JUMP JUMPDEST PUSH1 0x0 PUSH3 0xCC1 PUSH3 0xCBB PUSH3 0xCB5 DUP5 PUSH3 0x63C JUMP JUMPDEST PUSH3 0xC96 JUMP JUMPDEST PUSH3 0x63C JUMP JUMPDEST SWAP1 POP SWAP2 SWAP1 POP JUMP JUMPDEST PUSH1 0x0 DUP2 SWAP1 POP SWAP2 SWAP1 POP JUMP JUMPDEST PUSH3 0xCDD DUP4 PUSH3 0xCA0 JUMP JUMPDEST PUSH3 0xCF5 PUSH3 0xCEC DUP3 PUSH3 0xCC8 JUMP JUMPDEST DUP5 DUP5 SLOAD PUSH3 0xC40 JUMP JUMPDEST DUP3 SSTORE POP POP POP POP JUMP JUMPDEST PUSH1 0x0 SWAP1 JUMP JUMPDEST PUSH3 0xD0C PUSH3 0xCFD JUMP JUMPDEST PUSH3 0xD19 DUP2 DUP5 DUP5 PUSH3 0xCD2 JUMP JUMPDEST POP POP POP JUMP JUMPDEST JUMPDEST DUP2 DUP2 LT ISZERO PUSH3 0xD41 JUMPI PUSH3 0xD35 PUSH1 0x0 DUP3 PUSH3 0xD02 JUMP JUMPDEST PUSH1 0x1 DUP2 ADD SWAP1 POP PUSH3 0xD1F JUMP JUMPDEST POP POP JUMP JUMPDEST PUSH1 0x1F DUP3 GT ISZERO PUSH3 0xD90 JUMPI PUSH3 0xD5A DUP2 PUSH3 0xC0E JUMP JUMPDEST PUSH3 0xD65 DUP5 PUSH3 0xC23 JUMP JUMPDEST DUP2 ADD PUSH1 0x20 DUP6 LT ISZERO PUSH3 0xD75 JUMPI DUP2 SWAP1 POP JUMPDEST PUSH3 0xD8D PUSH3 0xD84 DUP6 PUSH3 0xC23 JUMP JUMPDEST DUP4 ADD DUP3 PUSH3 0xD1E JUMP JUMPDEST POP POP JUMPDEST POP POP POP JUMP JUMPDEST PUSH1 0x0 DUP3 DUP3 SHR SWAP1 POP SWAP3 SWAP2 POP POP JUMP JUMPDEST PUSH1 0x0 PUSH3 0xDB5 PUSH1 0x0 NOT DUP5 PUSH1 0x8 MUL PUSH3 0xD95 JUMP JUMPDEST NOT DUP1 DUP4 AND SWAP2 POP POP SWAP3 SWAP2 POP POP JUMP JUMPDEST PUSH1 0x0 PUSH3 0xDD0 DUP4 DUP4 PUSH3 0xDA2 JUMP JUMPDEST SWAP2 POP DUP3 PUSH1 0x2 MUL DUP3 OR SWAP1 POP SWAP3 SWAP2 POP POP JUMP JUMPDEST PUSH3 0xDEB DUP3 PUSH3 0xB9F JUMP JUMPDEST PUSH8 0xFFFFFFFFFFFFFFFF DUP2 GT ISZERO PUSH3 0xE07 JUMPI PUSH3 0xE06 PUSH3 0x692 JUMP JUMPDEST JUMPDEST PUSH3 0xE13 DUP3 SLOAD PUSH3 0xBD9 JUMP JUMPDEST PUSH3 0xE20 DUP3 DUP3 DUP6 PUSH3 0xD45 JUMP JUMPDEST PUSH1 0x0 PUSH1 0x20 SWAP1 POP PUSH1 0x1F DUP4 GT PUSH1 0x1 DUP2 EQ PUSH3 0xE58 JUMPI PUSH1 0x0 DUP5 ISZERO PUSH3 0xE43 JUMPI DUP3 DUP8 ADD MLOAD SWAP1 POP JUMPDEST PUSH3 0xE4F DUP6 DUP3 PUSH3 0xDC2 JUMP JUMPDEST DUP7 SSTORE POP PUSH3 0xEBF JUMP JUMPDEST PUSH1 0x1F NOT DUP5 AND PUSH3 0xE68 DUP7 PUSH3 0xC0E JUMP JUMPDEST PUSH1 0x0 JUMPDEST DUP3 DUP2 LT ISZERO PUSH3 0xE92 JUMPI DUP5 DUP10 ADD MLOAD DUP3 SSTORE PUSH1 0x1 DUP3 ADD SWAP2 POP PUSH1 0x20 DUP6 ADD SWAP5 POP PUSH1 0x20 DUP2 ADD SWAP1 POP PUSH3 0xE6B JUMP JUMPDEST DUP7 DUP4 LT ISZERO PUSH3 0xEB2 JUMPI DUP5 DUP10 ADD MLOAD PUSH3 0xEAE PUSH1 0x1F DUP10 AND DUP3 PUSH3 0xDA2 JUMP JUMPDEST DUP4 SSTORE POP JUMPDEST PUSH1 0x1 PUSH1 0x2 DUP9 MUL ADD DUP9 SSTORE POP POP POP JUMPDEST POP POP POP POP POP POP JUMP JUMPDEST PUSH1 0x0 DUP2 SWAP1 POP SWAP3 SWAP2 POP POP JUMP JUMPDEST PUSH32 0x636F6E7472616374646174610000000000000000000000000000000000000000 PUSH1 0x0 DUP3 ADD MSTORE POP JUMP JUMPDEST PUSH1 0x0 PUSH3 0xF0A PUSH1 0xC DUP4 PUSH3 0xEC7 JUMP JUMPDEST SWAP2 POP PUSH3 0xF17 DUP3 PUSH3 0xED2 JUMP JUMPDEST PUSH1 0xC DUP3 ADD SWAP1 POP SWAP2 SWAP1 POP JUMP JUMPDEST PUSH1 0x0 PUSH3 0xF2F DUP3 PUSH3 0xEFB JUMP JUMPDEST SWAP2 POP DUP2 SWAP1 POP SWAP2 SWAP1 POP JUMP JUMPDEST PUSH3 0xF44 DUP2 PUSH3 0x5F7 JUMP JUMPDEST DUP3 MSTORE POP POP JUMP JUMPDEST PUSH1 0x0 DUP3 DUP3 MSTORE PUSH1 0x20 DUP3 ADD SWAP1 POP SWAP3 SWAP2 POP POP JUMP JUMPDEST PUSH1 0x0 PUSH3 0xF68 DUP3 PUSH3 0xB9F JUMP JUMPDEST PUSH3 0xF74 DUP2 DUP6 PUSH3 0xF4A JUMP JUMPDEST SWAP4 POP PUSH3 0xF86 DUP2 DUP6 PUSH1 0x20 DUP7 ADD PUSH3 0x74C JUMP JUMPDEST PUSH3 0xF91 DUP2 PUSH3 0x681 JUMP JUMPDEST DUP5 ADD SWAP2 POP POP SWAP3 SWAP2 POP POP JUMP JUMPDEST PUSH3 0xFA7 DUP2 PUSH3 0x63C JUMP JUMPDEST DUP3 MSTORE POP POP JUMP JUMPDEST PUSH1 0x0 DUP2 SWAP1 POP SWAP2 SWAP1 POP JUMP JUMPDEST PUSH1 0x0 PUSH3 0xFD8 PUSH3 0xFD2 PUSH3 0xFCC DUP5 PUSH3 0xFAD JUMP JUMPDEST PUSH3 0xC96 JUMP JUMPDEST PUSH3 0x63C JUMP JUMPDEST SWAP1 POP SWAP2 SWAP1 POP JUMP JUMPDEST PUSH3 0xFEA DUP2 PUSH3 0xFB7 JUMP JUMPDEST DUP3 MSTORE POP POP JUMP JUMPDEST PUSH32 0x6F6E676F696E6700000000000000000000000000000000000000000000000000 PUSH1 0x0 DUP3 ADD MSTORE POP JUMP JUMPDEST PUSH1 0x0 PUSH3 0x1028 PUSH1 0x7 DUP4 PUSH3 0xF4A JUMP JUMPDEST SWAP2 POP PUSH3 0x1035 DUP3 PUSH3 0xFF0 JUMP JUMPDEST PUSH1 0x20 DUP3 ADD SWAP1 POP SWAP2 SWAP1 POP JUMP JUMPDEST PUSH1 0x0 PUSH1 0xE0 DUP3 ADD SWAP1 POP PUSH3 0x1057 PUSH1 0x0 DUP4 ADD DUP10 PUSH3 0xF39 JUMP JUMPDEST DUP2 DUP2 SUB PUSH1 0x20 DUP4 ADD MSTORE PUSH3 0x106B DUP2 DUP9 PUSH3 0xF5B JUMP JUMPDEST SWAP1 POP DUP2 DUP2 SUB PUSH1 0x40 DUP4 ADD MSTORE PUSH3 0x1081 DUP2 DUP8 PUSH3 0xF5B JUMP JUMPDEST SWAP1 POP PUSH3 0x1092 PUSH1 0x60 DUP4 ADD DUP7 PUSH3 0xF9C JUMP JUMPDEST PUSH3 0x10A1 PUSH1 0x80 DUP4 ADD DUP6 PUSH3 0xFDF JUMP JUMPDEST PUSH3 0x10B0 PUSH1 0xA0 DUP4 ADD DUP5 PUSH3 0xFDF JUMP JUMPDEST DUP2 DUP2 SUB PUSH1 0xC0 DUP4 ADD MSTORE PUSH3 0x10C3 DUP2 PUSH3 0x1019 JUMP JUMPDEST SWAP1 POP SWAP8 SWAP7 POP POP POP POP POP POP POP JUMP JUMPDEST PUSH2 0x3899 DUP1 PUSH3 0x10E0 PUSH1 0x0 CODECOPY PUSH1 0x0 RETURN INVALID PUSH1 0x80 PUSH1 0x40 MSTORE PUSH1 0x4 CALLDATASIZE LT PUSH2 0x1EE JUMPI PUSH1 0x0 CALLDATALOAD PUSH1 0xE0 SHR DUP1 PUSH4 0x8CA400D6 GT PUSH2 0x10D JUMPI DUP1 PUSH4 0xDCFC7987 GT PUSH2 0xA0 JUMPI DUP1 PUSH4 0xEEA72994 GT PUSH2 0x6F JUMPI DUP1 PUSH4 0xEEA72994 EQ PUSH2 0x6FA JUMPI DUP1 PUSH4 0xF851A440 EQ PUSH2 0x725 JUMPI DUP1 PUSH4 0xFC93EB03 EQ PUSH2 0x750 JUMPI DUP1 PUSH4 0xFE692C38 EQ PUSH2 0x779 JUMPI DUP1 PUSH4 0xFF3DE319 EQ PUSH2 0x7A4 JUMPI PUSH2 0x1EE JUMP JUMPDEST DUP1 PUSH4 0xDCFC7987 EQ PUSH2 0x65D JUMPI DUP1 PUSH4 0xE326BA70 EQ PUSH2 0x688 JUMPI DUP1 PUSH4 0xE720098F EQ PUSH2 0x6C5 JUMPI DUP1 PUSH4 0xEE205884 EQ PUSH2 0x6F0 JUMPI PUSH2 0x1EE JUMP JUMPDEST DUP1 PUSH4 0xB6C907A6 GT PUSH2 0xDC JUMPI DUP1 PUSH4 0xB6C907A6 EQ PUSH2 0x5AA JUMPI DUP1 PUSH4 0xBF26513A EQ PUSH2 0x5DA JUMPI DUP1 PUSH4 0xC91E061F EQ PUSH2 0x61D JUMPI DUP1 PUSH4 0xCD38AA87 EQ PUSH2 0x646 JUMPI PUSH2 0x1EE JUMP JUMPDEST DUP1 PUSH4 0x8CA400D6 EQ PUSH2 0x4DA JUMPI DUP1 PUSH4 0x9B23D3D9 EQ PUSH2 0x517 JUMPI DUP1 PUSH4 0xAA8C217C EQ PUSH2 0x554 JUMPI DUP1 PUSH4 0xB4FF3649 EQ PUSH2 0x57F JUMPI PUSH2 0x1EE JUMP JUMPDEST DUP1 PUSH4 0x5686E9F5 GT PUSH2 0x185 JUMPI DUP1 PUSH4 0x69C53F12 GT PUSH2 0x154 JUMPI DUP1 PUSH4 0x69C53F12 EQ PUSH2 0x42B JUMPI DUP1 PUSH4 0x6C77F989 EQ PUSH2 0x456 JUMPI DUP1 PUSH4 0x7B1E175A EQ PUSH2 0x460 JUMPI DUP1 PUSH4 0x82B562AA EQ PUSH2 0x49D JUMPI PUSH2 0x1EE JUMP JUMPDEST DUP1 PUSH4 0x5686E9F5 EQ PUSH2 0x37F JUMPI DUP1 PUSH4 0x651F5D18 EQ PUSH2 0x3AA JUMPI DUP1 PUSH4 0x6586E984 EQ PUSH2 0x3D5 JUMPI DUP1 PUSH4 0x65D524A1 EQ PUSH2 0x400 JUMPI PUSH2 0x1EE JUMP JUMPDEST DUP1 PUSH4 0x15DACBEA GT PUSH2 0x1C1 JUMPI DUP1 PUSH4 0x15DACBEA EQ PUSH2 0x2AF JUMPI DUP1 PUSH4 0x16A5265D EQ PUSH2 0x2EC JUMPI DUP1 PUSH4 0x3FD20257 EQ PUSH2 0x317 JUMPI DUP1 PUSH4 0x44BF49A2 EQ PUSH2 0x354 JUMPI PUSH2 0x1EE JUMP JUMPDEST DUP1 PUSH4 0x2D05D3F EQ PUSH2 0x1F3 JUMPI DUP1 PUSH4 0x8BA2475 EQ PUSH2 0x21E JUMPI DUP1 PUSH4 0xA284CB6 EQ PUSH2 0x247 JUMPI DUP1 PUSH4 0xC1934FB EQ PUSH2 0x284 JUMPI JUMPDEST PUSH1 0x0 DUP1 REVERT JUMPDEST CALLVALUE DUP1 ISZERO PUSH2 0x1FF JUMPI PUSH1 0x0 DUP1 REVERT JUMPDEST POP PUSH2 0x208 PUSH2 0x7CD JUMP JUMPDEST PUSH1 0x40 MLOAD PUSH2 0x215 SWAP2 SWAP1 PUSH2 0x1F43 JUMP JUMPDEST PUSH1 0x40 MLOAD DUP1 SWAP2 SUB SWAP1 RETURN JUMPDEST CALLVALUE DUP1 ISZERO PUSH2 0x22A JUMPI PUSH1 0x0 DUP1 REVERT JUMPDEST POP PUSH2 0x245 PUSH1 0x4 DUP1 CALLDATASIZE SUB DUP2 ADD SWAP1 PUSH2 0x240 SWAP2 SWAP1 PUSH2 0x1FE6 JUMP JUMPDEST PUSH2 0x7F3 JUMP JUMPDEST STOP JUMPDEST CALLVALUE DUP1 ISZERO PUSH2 0x253 JUMPI PUSH1 0x0 DUP1 REVERT JUMPDEST POP PUSH2 0x26E PUSH1 0x4 DUP1 CALLDATASIZE SUB DUP2 ADD SWAP1 PUSH2 0x269 SWAP2 SWAP1 PUSH2 0x227E JUMP JUMPDEST PUSH2 0x898 JUMP JUMPDEST PUSH1 0x40 MLOAD PUSH2 0x27B SWAP2 SWAP1 PUSH2 0x22F6 JUMP JUMPDEST PUSH1 0x40 MLOAD DUP1 SWAP2 SUB SWAP1 RETURN JUMPDEST CALLVALUE DUP1 ISZERO PUSH2 0x290 JUMPI PUSH1 0x0 DUP1 REVERT JUMPDEST POP PUSH2 0x299 PUSH2 0x91A JUMP JUMPDEST PUSH1 0x40 MLOAD PUSH2 0x2A6 SWAP2 SWAP1 PUSH2 0x2320 JUMP JUMPDEST PUSH1 0x40 MLOAD DUP1 SWAP2 SUB SWAP1 RETURN JUMPDEST CALLVALUE DUP1 ISZERO PUSH2 0x2BB JUMPI PUSH1 0x0 DUP1 REVERT JUMPDEST POP PUSH2 0x2D6 PUSH1 0x4 DUP1 CALLDATASIZE SUB DUP2 ADD SWAP1 PUSH2 0x2D1 SWAP2 SWAP1 PUSH2 0x233B JUMP JUMPDEST PUSH2 0x920 JUMP JUMPDEST PUSH1 0x40 MLOAD PUSH2 0x2E3 SWAP2 SWAP1 PUSH2 0x22F6 JUMP JUMPDEST PUSH1 0x40 MLOAD DUP1 SWAP2 SUB SWAP1 RETURN JUMPDEST CALLVALUE DUP1 ISZERO PUSH2 0x2F8 JUMPI PUSH1 0x0 DUP1 REVERT JUMPDEST POP PUSH2 0x301 PUSH2 0xA3E JUMP JUMPDEST PUSH1 0x40 MLOAD PUSH2 0x30E SWAP2 SWAP1 PUSH2 0x2320 JUMP JUMPDEST PUSH1 0x40 MLOAD DUP1 SWAP2 SUB SWAP1 RETURN JUMPDEST CALLVALUE DUP1 ISZERO PUSH2 0x323 JUMPI PUSH1 0x0 DUP1 REVERT JUMPDEST POP PUSH2 0x33E PUSH1 0x4 DUP1 CALLDATASIZE SUB DUP2 ADD SWAP1 PUSH2 0x339 SWAP2 SWAP1 PUSH2 0x23A2 JUMP JUMPDEST PUSH2 0xA44 JUMP JUMPDEST PUSH1 0x40 MLOAD PUSH2 0x34B SWAP2 SWAP1 PUSH2 0x1F43 JUMP JUMPDEST PUSH1 0x40 MLOAD DUP1 SWAP2 SUB SWAP1 RETURN JUMPDEST CALLVALUE DUP1 ISZERO PUSH2 0x360 JUMPI PUSH1 0x0 DUP1 REVERT JUMPDEST POP PUSH2 0x369 PUSH2 0xA83 JUMP JUMPDEST PUSH1 0x40 MLOAD PUSH2 0x376 SWAP2 SWAP1 PUSH2 0x244E JUMP JUMPDEST PUSH1 0x40 MLOAD DUP1 SWAP2 SUB SWAP1 RETURN JUMPDEST CALLVALUE DUP1 ISZERO PUSH2 0x38B JUMPI PUSH1 0x0 DUP1 REVERT JUMPDEST POP PUSH2 0x394 PUSH2 0xB11 JUMP JUMPDEST PUSH1 0x40 MLOAD PUSH2 0x3A1 SWAP2 SWAP1 PUSH2 0x244E JUMP JUMPDEST PUSH1 0x40 MLOAD DUP1 SWAP2 SUB SWAP1 RETURN JUMPDEST CALLVALUE DUP1 ISZERO PUSH2 0x3B6 JUMPI PUSH1 0x0 DUP1 REVERT JUMPDEST POP PUSH2 0x3BF PUSH2 0xB9F JUMP JUMPDEST PUSH1 0x40 MLOAD PUSH2 0x3CC SWAP2 SWAP1 PUSH2 0x2320 JUMP JUMPDEST PUSH1 0x40 MLOAD DUP1 SWAP2 SUB SWAP1 RETURN JUMPDEST CALLVALUE DUP1 ISZERO PUSH2 0x3E1 JUMPI PUSH1 0x0 DUP1 REVERT JUMPDEST POP PUSH2 0x3EA PUSH2 0xBA5 JUMP JUMPDEST PUSH1 0x40 MLOAD PUSH2 0x3F7 SWAP2 SWAP1 PUSH2 0x244E JUMP JUMPDEST PUSH1 0x40 MLOAD DUP1 SWAP2 SUB SWAP1 RETURN JUMPDEST CALLVALUE DUP1 ISZERO PUSH2 0x40C JUMPI PUSH1 0x0 DUP1 REVERT JUMPDEST POP PUSH2 0x415 PUSH2 0xC33 JUMP JUMPDEST PUSH1 0x40 MLOAD PUSH2 0x422 SWAP2 SWAP1 PUSH2 0x24E7 JUMP JUMPDEST PUSH1 0x40 MLOAD DUP1 SWAP2 SUB SWAP1 RETURN JUMPDEST CALLVALUE DUP1 ISZERO PUSH2 0x437 JUMPI PUSH1 0x0 DUP1 REVERT JUMPDEST POP PUSH2 0x440 PUSH2 0xC46 JUMP JUMPDEST PUSH1 0x40 MLOAD PUSH2 0x44D SWAP2 SWAP1 PUSH2 0x2320 JUMP JUMPDEST PUSH1 0x40 MLOAD DUP1 SWAP2 SUB SWAP1 RETURN JUMPDEST PUSH2 0x45E PUSH2 0xC4C JUMP JUMPDEST STOP JUMPDEST CALLVALUE DUP1 ISZERO PUSH2 0x46C JUMPI PUSH1 0x0 DUP1 REVERT JUMPDEST POP PUSH2 0x487 PUSH1 0x4 DUP1 CALLDATASIZE SUB DUP2 ADD SWAP1 PUSH2 0x482 SWAP2 SWAP1 PUSH2 0x23A2 JUMP JUMPDEST PUSH2 0xC4E JUMP JUMPDEST PUSH1 0x40 MLOAD PUSH2 0x494 SWAP2 SWAP1 PUSH2 0x1F43 JUMP JUMPDEST PUSH1 0x40 MLOAD DUP1 SWAP2 SUB SWAP1 RETURN JUMPDEST CALLVALUE DUP1 ISZERO PUSH2 0x4A9 JUMPI PUSH1 0x0 DUP1 REVERT JUMPDEST POP PUSH2 0x4C4 PUSH1 0x4 DUP1 CALLDATASIZE SUB DUP2 ADD SWAP1 PUSH2 0x4BF SWAP2 SWAP1 PUSH2 0x252E JUMP JUMPDEST PUSH2 0xC8D JUMP JUMPDEST PUSH1 0x40 MLOAD PUSH2 0x4D1 SWAP2 SWAP1 PUSH2 0x259A JUMP JUMPDEST PUSH1 0x40 MLOAD DUP1 SWAP2 SUB SWAP1 RETURN JUMPDEST CALLVALUE DUP1 ISZERO PUSH2 0x4E6 JUMPI PUSH1 0x0 DUP1 REVERT JUMPDEST POP PUSH2 0x501 PUSH1 0x4 DUP1 CALLDATASIZE SUB DUP2 ADD SWAP1 PUSH2 0x4FC SWAP2 SWAP1 PUSH2 0x23A2 JUMP JUMPDEST PUSH2 0xCFB JUMP JUMPDEST PUSH1 0x40 MLOAD PUSH2 0x50E SWAP2 SWAP1 PUSH2 0x2320 JUMP JUMPDEST PUSH1 0x40 MLOAD DUP1 SWAP2 SUB SWAP1 RETURN JUMPDEST CALLVALUE DUP1 ISZERO PUSH2 0x523 JUMPI PUSH1 0x0 DUP1 REVERT JUMPDEST POP PUSH2 0x53E PUSH1 0x4 DUP1 CALLDATASIZE SUB DUP2 ADD SWAP1 PUSH2 0x539 SWAP2 SWAP1 PUSH2 0x233B JUMP JUMPDEST PUSH2 0xD1F JUMP JUMPDEST PUSH1 0x40 MLOAD PUSH2 0x54B SWAP2 SWAP1 PUSH2 0x22F6 JUMP JUMPDEST PUSH1 0x40 MLOAD DUP1 SWAP2 SUB SWAP1 RETURN JUMPDEST CALLVALUE DUP1 ISZERO PUSH2 0x560 JUMPI PUSH1 0x0 DUP1 REVERT JUMPDEST POP PUSH2 0x569 PUSH2 0xE3D JUMP JUMPDEST PUSH1 0x40 MLOAD PUSH2 0x576 SWAP2 SWAP1 PUSH2 0x2320 JUMP JUMPDEST PUSH1 0x40 MLOAD DUP1 SWAP2 SUB SWAP1 RETURN JUMPDEST CALLVALUE DUP1 ISZERO PUSH2 0x58B JUMPI PUSH1 0x0 DUP1 REVERT JUMPDEST POP PUSH2 0x594 PUSH2 0xE43 JUMP JUMPDEST PUSH1 0x40 MLOAD PUSH2 0x5A1 SWAP2 SWAP1 PUSH2 0x2320 JUMP JUMPDEST PUSH1 0x40 MLOAD DUP1 SWAP2 SUB SWAP1 RETURN JUMPDEST PUSH2 0x5C4 PUSH1 0x4 DUP1 CALLDATASIZE SUB DUP2 ADD SWAP1 PUSH2 0x5BF SWAP2 SWAP1 PUSH2 0x2656 JUMP JUMPDEST PUSH2 0xE49 JUMP JUMPDEST PUSH1 0x40 MLOAD PUSH2 0x5D1 SWAP2 SWAP1 PUSH2 0x1F43 JUMP JUMPDEST PUSH1 0x40 MLOAD DUP1 SWAP2 SUB SWAP1 RETURN JUMPDEST CALLVALUE DUP1 ISZERO PUSH2 0x5E6 JUMPI PUSH1 0x0 DUP1 REVERT JUMPDEST POP PUSH2 0x601 PUSH1 0x4 DUP1 CALLDATASIZE SUB DUP2 ADD SWAP1 PUSH2 0x5FC SWAP2 SWAP1 PUSH2 0x2725 JUMP JUMPDEST PUSH2 0xFE0 JUMP JUMPDEST PUSH1 0x40 MLOAD PUSH2 0x614 SWAP8 SWAP7 SWAP6 SWAP5 SWAP4 SWAP3 SWAP2 SWAP1 PUSH2 0x276D JUMP JUMPDEST PUSH1 0x40 MLOAD DUP1 SWAP2 SUB SWAP1 RETURN JUMPDEST CALLVALUE DUP1 ISZERO PUSH2 0x629 JUMPI PUSH1 0x0 DUP1 REVERT JUMPDEST POP PUSH2 0x644 PUSH1 0x4 DUP1 CALLDATASIZE SUB DUP2 ADD SWAP1 PUSH2 0x63F SWAP2 SWAP1 PUSH2 0x27EA JUMP JUMPDEST PUSH2 0x118C JUMP JUMPDEST STOP JUMPDEST CALLVALUE DUP1 ISZERO PUSH2 0x652 JUMPI PUSH1 0x0 DUP1 REVERT JUMPDEST POP PUSH2 0x65B PUSH2 0x1232 JUMP JUMPDEST STOP JUMPDEST CALLVALUE DUP1 ISZERO PUSH2 0x669 JUMPI PUSH1 0x0 DUP1 REVERT JUMPDEST POP PUSH2 0x672 PUSH2 0x1279 JUMP JUMPDEST PUSH1 0x40 MLOAD PUSH2 0x67F SWAP2 SWAP1 PUSH2 0x1F43 JUMP JUMPDEST PUSH1 0x40 MLOAD DUP1 SWAP2 SUB SWAP1 RETURN JUMPDEST CALLVALUE DUP1 ISZERO PUSH2 0x694 JUMPI PUSH1 0x0 DUP1 REVERT JUMPDEST POP PUSH2 0x6AF PUSH1 0x4 DUP1 CALLDATASIZE SUB DUP2 ADD SWAP1 PUSH2 0x6AA SWAP2 SWAP1 PUSH2 0x23A2 JUMP JUMPDEST PUSH2 0x129F JUMP JUMPDEST PUSH1 0x40 MLOAD PUSH2 0x6BC SWAP2 SWAP1 PUSH2 0x244E JUMP JUMPDEST PUSH1 0x40 MLOAD DUP1 SWAP2 SUB SWAP1 RETURN JUMPDEST CALLVALUE DUP1 ISZERO PUSH2 0x6D1 JUMPI PUSH1 0x0 DUP1 REVERT JUMPDEST POP PUSH2 0x6DA PUSH2 0x134B JUMP JUMPDEST PUSH1 0x40 MLOAD PUSH2 0x6E7 SWAP2 SWAP1 PUSH2 0x2923 JUMP JUMPDEST PUSH1 0x40 MLOAD DUP1 SWAP2 SUB SWAP1 RETURN JUMPDEST PUSH2 0x6F8 PUSH2 0x1424 JUMP JUMPDEST STOP JUMPDEST CALLVALUE DUP1 ISZERO PUSH2 0x706 JUMPI PUSH1 0x0 DUP1 REVERT JUMPDEST POP PUSH2 0x70F PUSH2 0x14A2 JUMP JUMPDEST PUSH1 0x40 MLOAD PUSH2 0x71C SWAP2 SWAP1 PUSH2 0x2320 JUMP JUMPDEST PUSH1 0x40 MLOAD DUP1 SWAP2 SUB SWAP1 RETURN JUMPDEST CALLVALUE DUP1 ISZERO PUSH2 0x731 JUMPI PUSH1 0x0 DUP1 REVERT JUMPDEST POP PUSH2 0x73A PUSH2 0x14A8 JUMP JUMPDEST PUSH1 0x40 MLOAD PUSH2 0x747 SWAP2 SWAP1 PUSH2 0x1F43 JUMP JUMPDEST PUSH1 0x40 MLOAD DUP1 SWAP2 SUB SWAP1 RETURN JUMPDEST CALLVALUE DUP1 ISZERO PUSH2 0x75C JUMPI PUSH1 0x0 DUP1 REVERT JUMPDEST POP PUSH2 0x777 PUSH1 0x4 DUP1 CALLDATASIZE SUB DUP2 ADD SWAP1 PUSH2 0x772 SWAP2 SWAP1 PUSH2 0x2971 JUMP JUMPDEST PUSH2 0x14CE JUMP JUMPDEST STOP JUMPDEST CALLVALUE DUP1 ISZERO PUSH2 0x785 JUMPI PUSH1 0x0 DUP1 REVERT JUMPDEST POP PUSH2 0x78E PUSH2 0x1547 JUMP JUMPDEST PUSH1 0x40 MLOAD PUSH2 0x79B SWAP2 SWAP1 PUSH2 0x2A6F JUMP JUMPDEST PUSH1 0x40 MLOAD DUP1 SWAP2 SUB SWAP1 RETURN JUMPDEST CALLVALUE DUP1 ISZERO PUSH2 0x7B0 JUMPI PUSH1 0x0 DUP1 REVERT JUMPDEST POP PUSH2 0x7CB PUSH1 0x4 DUP1 CALLDATASIZE SUB DUP2 ADD SWAP1 PUSH2 0x7C6 SWAP2 SWAP1 PUSH2 0x27EA JUMP JUMPDEST PUSH2 0x159F JUMP JUMPDEST STOP JUMPDEST PUSH1 0x3 PUSH1 0x0 SWAP1 SLOAD SWAP1 PUSH2 0x100 EXP SWAP1 DIV PUSH20 0xFFFFFFFFFFFFFFFFFFFFFFFFFFFFFFFFFFFFFFFF AND DUP2 JUMP JUMPDEST PUSH1 0x2 PUSH1 0x0 SWAP1 SLOAD SWAP1 PUSH2 0x100 EXP SWAP1 DIV PUSH20 0xFFFFFFFFFFFFFFFFFFFFFFFFFFFFFFFFFFFFFFFF AND PUSH20 0xFFFFFFFFFFFFFFFFFFFFFFFFFFFFFFFFFFFFFFFF AND CALLER PUSH20 0xFFFFFFFFFFFFFFFFFFFFFFFFFFFFFFFFFFFFFFFF AND EQ PUSH2 0x84D JUMPI PUSH1 0x0 DUP1 REVERT JUMPDEST DUP1 PUSH20 0xFFFFFFFFFFFFFFFFFFFFFFFFFFFFFFFFFFFFFFFF AND PUSH2 0x8FC DUP4 SWAP1 DUP2 ISZERO MUL SWAP1 PUSH1 0x40 MLOAD PUSH1 0x0 PUSH1 0x40 MLOAD DUP1 DUP4 SUB DUP2 DUP6 DUP9 DUP9 CALL SWAP4 POP POP POP POP ISZERO DUP1 ISZERO PUSH2 0x893 JUMPI RETURNDATASIZE PUSH1 0x0 DUP1 RETURNDATACOPY RETURNDATASIZE PUSH1 0x0 REVERT JUMPDEST POP POP POP JUMP JUMPDEST PUSH1 0x0 DUP1 PUSH1 0x0 PUSH2 0x8A9 DUP6 PUSH1 0x0 DUP7 PUSH2 0x165E JUMP JUMPDEST SWAP3 POP POP SWAP2 POP PUSH1 0x16 PUSH1 0x3 SIGNEXTEND DUP3 EQ PUSH2 0x8F4 JUMPI PUSH1 0x40 MLOAD PUSH32 0x8C379A000000000000000000000000000000000000000000000000000000000 DUP2 MSTORE PUSH1 0x4 ADD PUSH2 0x8EB SWAP1 PUSH2 0x2B03 JUMP JUMPDEST PUSH1 0x40 MLOAD DUP1 SWAP2 SUB SWAP1 REVERT JUMPDEST DUP1 PUSH1 0x0 DUP2 MLOAD DUP2 LT PUSH2 0x908 JUMPI PUSH2 0x907 PUSH2 0x2B23 JUMP JUMPDEST JUMPDEST PUSH1 0x20 MUL PUSH1 0x20 ADD ADD MLOAD SWAP3 POP POP POP SWAP3 SWAP2 POP POP JUMP JUMPDEST PUSH1 0x7 SLOAD DUP2 JUMP JUMPDEST PUSH1 0x0 DUP1 PUSH1 0x0 PUSH2 0x167 PUSH20 0xFFFFFFFFFFFFFFFFFFFFFFFFFFFFFFFFFFFFFFFF AND PUSH4 0x15DACBEA PUSH1 0xE0 SHL DUP9 DUP9 DUP9 DUP9 PUSH1 0x40 MLOAD PUSH1 0x24 ADD PUSH2 0x95D SWAP5 SWAP4 SWAP3 SWAP2 SWAP1 PUSH2 0x2B52 JUMP JUMPDEST PUSH1 0x40 MLOAD PUSH1 0x20 DUP2 DUP4 SUB SUB DUP2 MSTORE SWAP1 PUSH1 0x40 MSTORE SWAP1 PUSH28 0xFFFFFFFFFFFFFFFFFFFFFFFFFFFFFFFFFFFFFFFFFFFFFFFFFFFFFFFF NOT AND PUSH1 0x20 DUP3 ADD DUP1 MLOAD PUSH28 0xFFFFFFFFFFFFFFFFFFFFFFFFFFFFFFFFFFFFFFFFFFFFFFFFFFFFFFFF DUP4 DUP2 DUP4 AND OR DUP4 MSTORE POP POP POP POP PUSH1 0x40 MLOAD PUSH2 0x9C7 SWAP2 SWAP1 PUSH2 0x2BDE JUMP JUMPDEST PUSH1 0x0 PUSH1 0x40 MLOAD DUP1 DUP4 SUB DUP2 PUSH1 0x0 DUP7 GAS CALL SWAP2 POP POP RETURNDATASIZE DUP1 PUSH1 0x0 DUP2 EQ PUSH2 0xA04 JUMPI PUSH1 0x40 MLOAD SWAP2 POP PUSH1 0x1F NOT PUSH1 0x3F RETURNDATASIZE ADD AND DUP3 ADD PUSH1 0x40 MSTORE RETURNDATASIZE DUP3 MSTORE RETURNDATASIZE PUSH1 0x0 PUSH1 0x20 DUP5 ADD RETURNDATACOPY PUSH2 0xA09 JUMP JUMPDEST PUSH1 0x60 SWAP2 POP JUMPDEST POP SWAP2 POP SWAP2 POP DUP2 PUSH2 0xA1A JUMPI PUSH1 0x15 PUSH2 0xA2F JUMP JUMPDEST DUP1 DUP1 PUSH1 0x20 ADD SWAP1 MLOAD DUP2 ADD SWAP1 PUSH2 0xA2E SWAP2 SWAP1 PUSH2 0x2C2E JUMP JUMPDEST JUMPDEST PUSH1 0x3 SIGNEXTEND SWAP3 POP POP POP SWAP5 SWAP4 POP POP POP POP JUMP JUMPDEST PUSH1 0x8 SLOAD DUP2 JUMP JUMPDEST PUSH1 0x13 DUP2 DUP2 SLOAD DUP2 LT PUSH2 0xA54 JUMPI PUSH1 0x0 DUP1 REVERT JUMPDEST SWAP1 PUSH1 0x0 MSTORE PUSH1 0x20 PUSH1 0x0 KECCAK256 ADD PUSH1 0x0 SWAP2 POP SLOAD SWAP1 PUSH2 0x100 EXP SWAP1 DIV PUSH20 0xFFFFFFFFFFFFFFFFFFFFFFFFFFFFFFFFFFFFFFFF AND DUP2 JUMP JUMPDEST PUSH1 0x6 DUP1 SLOAD PUSH2 0xA90 SWAP1 PUSH2 0x2C8A JUMP JUMPDEST DUP1 PUSH1 0x1F ADD PUSH1 0x20 DUP1 SWAP2 DIV MUL PUSH1 0x20 ADD PUSH1 0x40 MLOAD SWAP1 DUP2 ADD PUSH1 0x40 MSTORE DUP1 SWAP3 SWAP2 SWAP1 DUP2 DUP2 MSTORE PUSH1 0x20 ADD DUP3 DUP1 SLOAD PUSH2 0xABC SWAP1 PUSH2 0x2C8A JUMP JUMPDEST DUP1 ISZERO PUSH2 0xB09 JUMPI DUP1 PUSH1 0x1F LT PUSH2 0xADE JUMPI PUSH2 0x100 DUP1 DUP4 SLOAD DIV MUL DUP4 MSTORE SWAP2 PUSH1 0x20 ADD SWAP2 PUSH2 0xB09 JUMP JUMPDEST DUP3 ADD SWAP2 SWAP1 PUSH1 0x0 MSTORE PUSH1 0x20 PUSH1 0x0 KECCAK256 SWAP1 JUMPDEST DUP2 SLOAD DUP2 MSTORE SWAP1 PUSH1 0x1 ADD SWAP1 PUSH1 0x20 ADD DUP1 DUP4 GT PUSH2 0xAEC JUMPI DUP3 SWAP1 SUB PUSH1 0x1F AND DUP3 ADD SWAP2 JUMPDEST POP POP POP POP POP DUP2 JUMP JUMPDEST PUSH1 0x5 DUP1 SLOAD PUSH2 0xB1E SWAP1 PUSH2 0x2C8A JUMP JUMPDEST DUP1 PUSH1 0x1F ADD PUSH1 0x20 DUP1 SWAP2 DIV MUL PUSH1 0x20 ADD PUSH1 0x40 MLOAD SWAP1 DUP2 ADD PUSH1 0x40 MSTORE DUP1 SWAP3 SWAP2 SWAP1 DUP2 DUP2 MSTORE PUSH1 0x20 ADD DUP3 DUP1 SLOAD PUSH2 0xB4A SWAP1 PUSH2 0x2C8A JUMP JUMPDEST DUP1 ISZERO PUSH2 0xB97 JUMPI DUP1 PUSH1 0x1F LT PUSH2 0xB6C JUMPI PUSH2 0x100 DUP1 DUP4 SLOAD DIV MUL DUP4 MSTORE SWAP2 PUSH1 0x20 ADD SWAP2 PUSH2 0xB97 JUMP JUMPDEST DUP3 ADD SWAP2 SWAP1 PUSH1 0x0 MSTORE PUSH1 0x20 PUSH1 0x0 KECCAK256 SWAP1 JUMPDEST DUP2 SLOAD DUP2 MSTORE SWAP1 PUSH1 0x1 ADD SWAP1 PUSH1 0x20 ADD DUP1 DUP4 GT PUSH2 0xB7A JUMPI DUP3 SWAP1 SUB PUSH1 0x1F AND DUP3 ADD SWAP2 JUMPDEST POP POP POP POP POP DUP2 JUMP JUMPDEST PUSH1 0xA SLOAD DUP2 JUMP JUMPDEST PUSH1 0x4 DUP1 SLOAD PUSH2 0xBB2 SWAP1 PUSH2 0x2C8A JUMP JUMPDEST DUP1 PUSH1 0x1F ADD PUSH1 0x20 DUP1 SWAP2 DIV MUL PUSH1 0x20 ADD PUSH1 0x40 MLOAD SWAP1 DUP2 ADD PUSH1 0x40 MSTORE DUP1 SWAP3 SWAP2 SWAP1 DUP2 DUP2 MSTORE PUSH1 0x20 ADD DUP3 DUP1 SLOAD PUSH2 0xBDE SWAP1 PUSH2 0x2C8A JUMP JUMPDEST DUP1 ISZERO PUSH2 0xC2B JUMPI DUP1 PUSH1 0x1F LT PUSH2 0xC00 JUMPI PUSH2 0x100 DUP1 DUP4 SLOAD DIV MUL DUP4 MSTORE SWAP2 PUSH1 0x20 ADD SWAP2 PUSH2 0xC2B JUMP JUMPDEST DUP3 ADD SWAP2 SWAP1 PUSH1 0x0 MSTORE PUSH1 0x20 PUSH1 0x0 KECCAK256 SWAP1 JUMPDEST DUP2 SLOAD DUP2 MSTORE SWAP1 PUSH1 0x1 ADD SWAP1 PUSH1 0x20 ADD DUP1 DUP4 GT PUSH2 0xC0E JUMPI DUP3 SWAP1 SUB PUSH1 0x1F AND DUP3 ADD SWAP2 JUMPDEST POP POP POP POP POP DUP2 JUMP JUMPDEST PUSH1 0xD PUSH1 0x0 SWAP1 SLOAD SWAP1 PUSH2 0x100 EXP SWAP1 DIV PUSH1 0xFF AND DUP2 JUMP JUMPDEST PUSH1 0x9 SLOAD DUP2 JUMP JUMPDEST JUMP JUMPDEST PUSH1 0x11 DUP2 DUP2 SLOAD DUP2 LT PUSH2 0xC5E JUMPI PUSH1 0x0 DUP1 REVERT JUMPDEST SWAP1 PUSH1 0x0 MSTORE PUSH1 0x20 PUSH1 0x0 KECCAK256 ADD PUSH1 0x0 SWAP2 POP SLOAD SWAP1 PUSH2 0x100 EXP SWAP1 DIV PUSH20 0xFFFFFFFFFFFFFFFFFFFFFFFFFFFFFFFFFFFFFFFF AND DUP2 JUMP JUMPDEST PUSH1 0x0 PUSH2 0xC99 DUP4 DUP6 PUSH2 0x17D6 JUMP JUMPDEST POP PUSH1 0x0 PUSH2 0xCA8 DUP6 ADDRESS DUP7 DUP7 PUSH2 0x18EE JUMP JUMPDEST SWAP1 POP PUSH1 0x16 PUSH1 0x3 SIGNEXTEND DUP2 EQ PUSH2 0xCF0 JUMPI PUSH1 0x40 MLOAD PUSH32 0x8C379A000000000000000000000000000000000000000000000000000000000 DUP2 MSTORE PUSH1 0x4 ADD PUSH2 0xCE7 SWAP1 PUSH2 0x2D2D JUMP JUMPDEST PUSH1 0x40 MLOAD DUP1 SWAP2 SUB SWAP1 REVERT JUMPDEST DUP1 SWAP2 POP POP SWAP4 SWAP3 POP POP POP JUMP JUMPDEST PUSH1 0x15 DUP2 DUP2 SLOAD DUP2 LT PUSH2 0xD0B JUMPI PUSH1 0x0 DUP1 REVERT JUMPDEST SWAP1 PUSH1 0x0 MSTORE PUSH1 0x20 PUSH1 0x0 KECCAK256 ADD PUSH1 0x0 SWAP2 POP SWAP1 POP SLOAD DUP2 JUMP JUMPDEST PUSH1 0x0 DUP1 PUSH1 0x0 PUSH2 0x167 PUSH20 0xFFFFFFFFFFFFFFFFFFFFFFFFFFFFFFFFFFFFFFFF AND PUSH4 0x9B23D3D9 PUSH1 0xE0 SHL DUP9 DUP9 DUP9 DUP9 PUSH1 0x40 MLOAD PUSH1 0x24 ADD PUSH2 0xD5C SWAP5 SWAP4 SWAP3 SWAP2 SWAP1 PUSH2 0x2B52 JUMP JUMPDEST PUSH1 0x40 MLOAD PUSH1 0x20 DUP2 DUP4 SUB SUB DUP2 MSTORE SWAP1 PUSH1 0x40 MSTORE SWAP1 PUSH28 0xFFFFFFFFFFFFFFFFFFFFFFFFFFFFFFFFFFFFFFFFFFFFFFFFFFFFFFFF NOT AND PUSH1 0x20 DUP3 ADD DUP1 MLOAD PUSH28 0xFFFFFFFFFFFFFFFFFFFFFFFFFFFFFFFFFFFFFFFFFFFFFFFFFFFFFFFF DUP4 DUP2 DUP4 AND OR DUP4 MSTORE POP POP POP POP PUSH1 0x40 MLOAD PUSH2 0xDC6 SWAP2 SWAP1 PUSH2 0x2BDE JUMP JUMPDEST PUSH1 0x0 PUSH1 0x40 MLOAD DUP1 DUP4 SUB DUP2 PUSH1 0x0 DUP7 GAS CALL SWAP2 POP POP RETURNDATASIZE DUP1 PUSH1 0x0 DUP2 EQ PUSH2 0xE03 JUMPI PUSH1 0x40 MLOAD SWAP2 POP PUSH1 0x1F NOT PUSH1 0x3F RETURNDATASIZE ADD AND DUP3 ADD PUSH1 0x40 MSTORE RETURNDATASIZE DUP3 MSTORE RETURNDATASIZE PUSH1 0x0 PUSH1 0x20 DUP5 ADD RETURNDATACOPY PUSH2 0xE08 JUMP JUMPDEST PUSH1 0x60 SWAP2 POP JUMPDEST POP SWAP2 POP SWAP2 POP DUP2 PUSH2 0xE19 JUMPI PUSH1 0x15 PUSH2 0xE2E JUMP JUMPDEST DUP1 DUP1 PUSH1 0x20 ADD SWAP1 MLOAD DUP2 ADD SWAP1 PUSH2 0xE2D SWAP2 SWAP1 PUSH2 0x2C2E JUMP JUMPDEST JUMPDEST PUSH1 0x3 SIGNEXTEND SWAP3 POP POP POP SWAP5 SWAP4 POP POP POP POP JUMP JUMPDEST PUSH1 0xC SLOAD DUP2 JUMP JUMPDEST PUSH1 0xB SLOAD DUP2 JUMP JUMPDEST PUSH1 0x0 DUP1 PUSH1 0x1 PUSH8 0xFFFFFFFFFFFFFFFF DUP2 GT ISZERO PUSH2 0xE67 JUMPI PUSH2 0xE66 PUSH2 0x2068 JUMP JUMPDEST JUMPDEST PUSH1 0x40 MLOAD SWAP1 DUP1 DUP3 MSTORE DUP1 PUSH1 0x20 MUL PUSH1 0x20 ADD DUP3 ADD PUSH1 0x40 MSTORE DUP1 ISZERO PUSH2 0xEA0 JUMPI DUP2 PUSH1 0x20 ADD JUMPDEST PUSH2 0xE8D PUSH2 0x1DD9 JUMP JUMPDEST DUP2 MSTORE PUSH1 0x20 ADD SWAP1 PUSH1 0x1 SWAP1 SUB SWAP1 DUP2 PUSH2 0xE85 JUMPI SWAP1 POP JUMPDEST POP SWAP1 POP PUSH2 0xEB0 PUSH1 0x4 PUSH1 0x1 ADDRESS PUSH2 0x1A0C JUMP JUMPDEST DUP2 PUSH1 0x0 DUP2 MLOAD DUP2 LT PUSH2 0xEC4 JUMPI PUSH2 0xEC3 PUSH2 0x2B23 JUMP JUMPDEST JUMPDEST PUSH1 0x20 MUL PUSH1 0x20 ADD ADD DUP2 SWAP1 MSTORE POP PUSH2 0xED7 PUSH2 0x1DF9 JUMP JUMPDEST DUP8 DUP2 PUSH1 0x0 ADD DUP2 SWAP1 MSTORE POP DUP7 DUP2 PUSH1 0x20 ADD DUP2 SWAP1 MSTORE POP DUP6 DUP2 PUSH1 0x60 ADD DUP2 SWAP1 MSTORE POP ADDRESS DUP2 PUSH1 0x40 ADD SWAP1 PUSH20 0xFFFFFFFFFFFFFFFFFFFFFFFFFFFFFFFFFFFFFFFF AND SWAP1 DUP2 PUSH20 0xFFFFFFFFFFFFFFFFFFFFFFFFFFFFFFFFFFFFFFFF AND DUP2 MSTORE POP POP PUSH1 0x1 DUP2 PUSH1 0x80 ADD SWAP1 ISZERO ISZERO SWAP1 DUP2 ISZERO ISZERO DUP2 MSTORE POP POP DUP5 DUP2 PUSH1 0xA0 ADD SWAP1 PUSH1 0x7 SIGNEXTEND SWAP1 DUP2 PUSH1 0x7 SIGNEXTEND DUP2 MSTORE POP POP DUP2 DUP2 PUSH1 0xE0 ADD DUP2 SWAP1 MSTORE POP PUSH1 0x0 DUP2 PUSH1 0xC0 ADD SWAP1 ISZERO ISZERO SWAP1 DUP2 ISZERO ISZERO DUP2 MSTORE POP POP PUSH2 0xF71 ADDRESS DUP6 PUSH2 0x1A43 JUMP JUMPDEST DUP2 PUSH2 0x100 ADD DUP2 SWAP1 MSTORE POP PUSH1 0x0 DUP1 PUSH2 0xF86 DUP4 PUSH2 0x1A9B JUMP JUMPDEST SWAP2 POP SWAP2 POP PUSH1 0x16 PUSH1 0x3 SIGNEXTEND DUP3 EQ PUSH2 0xFD0 JUMPI PUSH1 0x40 MLOAD PUSH32 0x8C379A000000000000000000000000000000000000000000000000000000000 DUP2 MSTORE PUSH1 0x4 ADD PUSH2 0xFC7 SWAP1 PUSH2 0x2DBF JUMP JUMPDEST PUSH1 0x40 MLOAD DUP1 SWAP2 SUB SWAP1 REVERT JUMPDEST DUP1 SWAP5 POP POP POP POP POP SWAP6 SWAP5 POP POP POP POP POP JUMP JUMPDEST PUSH1 0x12 PUSH1 0x20 MSTORE DUP1 PUSH1 0x0 MSTORE PUSH1 0x40 PUSH1 0x0 KECCAK256 PUSH1 0x0 SWAP2 POP SWAP1 POP DUP1 PUSH1 0x0 ADD PUSH1 0x0 SWAP1 SLOAD SWAP1 PUSH2 0x100 EXP SWAP1 DIV PUSH20 0xFFFFFFFFFFFFFFFFFFFFFFFFFFFFFFFFFFFFFFFF AND SWAP1 DUP1 PUSH1 0x1 ADD SLOAD SWAP1 DUP1 PUSH1 0x2 ADD PUSH1 0x0 SWAP1 SLOAD SWAP1 PUSH2 0x100 EXP SWAP1 DIV PUSH20 0xFFFFFFFFFFFFFFFFFFFFFFFFFFFFFFFFFFFFFFFF AND SWAP1 DUP1 PUSH1 0x3 ADD DUP1 SLOAD PUSH2 0x1055 SWAP1 PUSH2 0x2C8A JUMP JUMPDEST DUP1 PUSH1 0x1F ADD PUSH1 0x20 DUP1 SWAP2 DIV MUL PUSH1 0x20 ADD PUSH1 0x40 MLOAD SWAP1 DUP2 ADD PUSH1 0x40 MSTORE DUP1 SWAP3 SWAP2 SWAP1 DUP2 DUP2 MSTORE PUSH1 0x20 ADD DUP3 DUP1 SLOAD PUSH2 0x1081 SWAP1 PUSH2 0x2C8A JUMP JUMPDEST DUP1 ISZERO PUSH2 0x10CE JUMPI DUP1 PUSH1 0x1F LT PUSH2 0x10A3 JUMPI PUSH2 0x100 DUP1 DUP4 SLOAD DIV MUL DUP4 MSTORE SWAP2 PUSH1 0x20 ADD SWAP2 PUSH2 0x10CE JUMP JUMPDEST DUP3 ADD SWAP2 SWAP1 PUSH1 0x0 MSTORE PUSH1 0x20 PUSH1 0x0 KECCAK256 SWAP1 JUMPDEST DUP2 SLOAD DUP2 MSTORE SWAP1 PUSH1 0x1 ADD SWAP1 PUSH1 0x20 ADD DUP1 DUP4 GT PUSH2 0x10B1 JUMPI DUP3 SWAP1 SUB PUSH1 0x1F AND DUP3 ADD SWAP2 JUMPDEST POP POP POP POP POP SWAP1 DUP1 PUSH1 0x4 ADD DUP1 SLOAD PUSH2 0x10E3 SWAP1 PUSH2 0x2C8A JUMP JUMPDEST DUP1 PUSH1 0x1F ADD PUSH1 0x20 DUP1 SWAP2 DIV MUL PUSH1 0x20 ADD PUSH1 0x40 MLOAD SWAP1 DUP2 ADD PUSH1 0x40 MSTORE DUP1 SWAP3 SWAP2 SWAP1 DUP2 DUP2 MSTORE PUSH1 0x20 ADD DUP3 DUP1 SLOAD PUSH2 0x110F SWAP1 PUSH2 0x2C8A JUMP JUMPDEST DUP1 ISZERO PUSH2 0x115C JUMPI DUP1 PUSH1 0x1F LT PUSH2 0x1131 JUMPI PUSH2 0x100 DUP1 DUP4 SLOAD DIV MUL DUP4 MSTORE SWAP2 PUSH1 0x20 ADD SWAP2 PUSH2 0x115C JUMP JUMPDEST DUP3 ADD SWAP2 SWAP1 PUSH1 0x0 MSTORE PUSH1 0x20 PUSH1 0x0 KECCAK256 SWAP1 JUMPDEST DUP2 SLOAD DUP2 MSTORE SWAP1 PUSH1 0x1 ADD SWAP1 PUSH1 0x20 ADD DUP1 DUP4 GT PUSH2 0x113F JUMPI DUP3 SWAP1 SUB PUSH1 0x1F AND DUP3 ADD SWAP2 JUMPDEST POP POP POP POP POP SWAP1 DUP1 PUSH1 0x5 ADD PUSH1 0x0 SWAP1 SLOAD SWAP1 PUSH2 0x100 EXP SWAP1 DIV PUSH1 0xFF AND SWAP1 DUP1 PUSH1 0x5 ADD PUSH1 0x1 SWAP1 SLOAD SWAP1 PUSH2 0x100 EXP SWAP1 DIV PUSH1 0xFF AND SWAP1 POP DUP8 JUMP JUMPDEST PUSH1 0x2 PUSH1 0x0 SWAP1 SLOAD SWAP1 PUSH2 0x100 EXP SWAP1 DIV PUSH20 0xFFFFFFFFFFFFFFFFFFFFFFFFFFFFFFFFFFFFFFFF AND PUSH20 0xFFFFFFFFFFFFFFFFFFFFFFFFFFFFFFFFFFFFFFFF AND CALLER PUSH20 0xFFFFFFFFFFFFFFFFFFFFFFFFFFFFFFFFFFFFFFFF AND EQ PUSH2 0x11E6 JUMPI PUSH1 0x0 DUP1 REVERT JUMPDEST DUP1 PUSH20 0xFFFFFFFFFFFFFFFFFFFFFFFFFFFFFFFFFFFFFFFF AND PUSH2 0x8FC PUSH1 0xA SLOAD SWAP1 DUP2 ISZERO MUL SWAP1 PUSH1 0x40 MLOAD PUSH1 0x0 PUSH1 0x40 MLOAD DUP1 DUP4 SUB DUP2 DUP6 DUP9 DUP9 CALL SWAP4 POP POP POP POP ISZERO DUP1 ISZERO PUSH2 0x122E JUMPI RETURNDATASIZE PUSH1 0x0 DUP1 RETURNDATACOPY RETURNDATASIZE PUSH1 0x0 REVERT JUMPDEST POP POP JUMP JUMPDEST PUSH1 0x40 MLOAD DUP1 PUSH1 0x40 ADD PUSH1 0x40 MSTORE DUP1 PUSH1 0x8 DUP2 MSTORE PUSH1 0x20 ADD PUSH32 0x66696E6973686564000000000000000000000000000000000000000000000000 DUP2 MSTORE POP PUSH1 0xE SWAP1 DUP2 PUSH2 0x1276 SWAP2 SWAP1 PUSH2 0x2F8B JUMP JUMPDEST POP JUMP JUMPDEST PUSH1 0x10 PUSH1 0x0 SWAP1 SLOAD SWAP1 PUSH2 0x100 EXP SWAP1 DIV PUSH20 0xFFFFFFFFFFFFFFFFFFFFFFFFFFFFFFFFFFFFFFFF AND DUP2 JUMP JUMPDEST PUSH1 0x14 DUP2 DUP2 SLOAD DUP2 LT PUSH2 0x12AF JUMPI PUSH1 0x0 DUP1 REVERT JUMPDEST SWAP1 PUSH1 0x0 MSTORE PUSH1 0x20 PUSH1 0x0 KECCAK256 ADD PUSH1 0x0 SWAP2 POP SWAP1 POP DUP1 SLOAD PUSH2 0x12CA SWAP1 PUSH2 0x2C8A JUMP JUMPDEST DUP1 PUSH1 0x1F ADD PUSH1 0x20 DUP1 SWAP2 DIV MUL PUSH1 0x20 ADD PUSH1 0x40 MLOAD SWAP1 DUP2 ADD PUSH1 0x40 MSTORE DUP1 SWAP3 SWAP2 SWAP1 DUP2 DUP2 MSTORE PUSH1 0x20 ADD DUP3 DUP1 SLOAD PUSH2 0x12F6 SWAP1 PUSH2 0x2C8A JUMP JUMPDEST DUP1 ISZERO PUSH2 0x1343 JUMPI DUP1 PUSH1 0x1F LT PUSH2 0x1318 JUMPI PUSH2 0x100 DUP1 DUP4 SLOAD DIV MUL DUP4 MSTORE SWAP2 PUSH1 0x20 ADD SWAP2 PUSH2 0x1343 JUMP JUMPDEST DUP3 ADD SWAP2 SWAP1 PUSH1 0x0 MSTORE PUSH1 0x20 PUSH1 0x0 KECCAK256 SWAP1 JUMPDEST DUP2 SLOAD DUP2 MSTORE SWAP1 PUSH1 0x1 ADD SWAP1 PUSH1 0x20 ADD DUP1 DUP4 GT PUSH2 0x1326 JUMPI DUP3 SWAP1 SUB PUSH1 0x1F AND DUP3 ADD SWAP2 JUMPDEST POP POP POP POP POP DUP2 JUMP JUMPDEST PUSH1 0x60 PUSH1 0x14 DUP1 SLOAD DUP1 PUSH1 0x20 MUL PUSH1 0x20 ADD PUSH1 0x40 MLOAD SWAP1 DUP2 ADD PUSH1 0x40 MSTORE DUP1 SWAP3 SWAP2 SWAP1 DUP2 DUP2 MSTORE PUSH1 0x20 ADD PUSH1 0x0 SWAP1 JUMPDEST DUP3 DUP3 LT ISZERO PUSH2 0x141B JUMPI DUP4 DUP3 SWAP1 PUSH1 0x0 MSTORE PUSH1 0x20 PUSH1 0x0 KECCAK256 ADD DUP1 SLOAD PUSH2 0x138E SWAP1 PUSH2 0x2C8A JUMP JUMPDEST DUP1 PUSH1 0x1F ADD PUSH1 0x20 DUP1 SWAP2 DIV MUL PUSH1 0x20 ADD PUSH1 0x40 MLOAD SWAP1 DUP2 ADD PUSH1 0x40 MSTORE DUP1 SWAP3 SWAP2 SWAP1 DUP2 DUP2 MSTORE PUSH1 0x20 ADD DUP3 DUP1 SLOAD PUSH2 0x13BA SWAP1 PUSH2 0x2C8A JUMP JUMPDEST DUP1 ISZERO PUSH2 0x1407 JUMPI DUP1 PUSH1 0x1F LT PUSH2 0x13DC JUMPI PUSH2 0x100 DUP1 DUP4 SLOAD DIV MUL DUP4 MSTORE SWAP2 PUSH1 0x20 ADD SWAP2 PUSH2 0x1407 JUMP JUMPDEST DUP3 ADD SWAP2 SWAP1 PUSH1 0x0 MSTORE PUSH1 0x20 PUSH1 0x0 KECCAK256 SWAP1 JUMPDEST DUP2 SLOAD DUP2 MSTORE SWAP1 PUSH1 0x1 ADD SWAP1 PUSH1 0x20 ADD DUP1 DUP4 GT PUSH2 0x13EA JUMPI DUP3 SWAP1 SUB PUSH1 0x1F AND DUP3 ADD SWAP2 JUMPDEST POP POP POP POP POP DUP2 MSTORE PUSH1 0x20 ADD SWAP1 PUSH1 0x1 ADD SWAP1 PUSH2 0x136F JUMP JUMPDEST POP POP POP POP SWAP1 POP SWAP1 JUMP JUMPDEST PUSH1 0x3 PUSH1 0x0 SWAP1 SLOAD SWAP1 PUSH2 0x100 EXP SWAP1 DIV PUSH20 0xFFFFFFFFFFFFFFFFFFFFFFFFFFFFFFFFFFFFFFFF AND PUSH20 0xFFFFFFFFFFFFFFFFFFFFFFFFFFFFFFFFFFFFFFFF AND CALLER PUSH20 0xFFFFFFFFFFFFFFFFFFFFFFFFFFFFFFFFFFFFFFFF AND EQ PUSH2 0x147E JUMPI PUSH1 0x0 DUP1 REVERT JUMPDEST PUSH1 0x0 PUSH2 0x1489 CALLVALUE PUSH2 0x1C0A JUMP JUMPDEST SWAP1 POP DUP1 PUSH1 0xC SLOAD PUSH2 0x1499 SWAP2 SWAP1 PUSH2 0x308C JUMP JUMPDEST PUSH1 0xC DUP2 SWAP1 SSTORE POP POP JUMP JUMPDEST PUSH1 0xF SLOAD DUP2 JUMP JUMPDEST PUSH1 0x2 PUSH1 0x0 SWAP1 SLOAD SWAP1 PUSH2 0x100 EXP SWAP1 DIV PUSH20 0xFFFFFFFFFFFFFFFFFFFFFFFFFFFFFFFFFFFFFFFF AND DUP2 JUMP JUMPDEST PUSH1 0x1 DUP1 DUP2 GT ISZERO PUSH2 0x14E1 JUMPI PUSH2 0x14E0 PUSH2 0x2470 JUMP JUMPDEST JUMPDEST PUSH1 0xD PUSH1 0x0 SWAP1 SLOAD SWAP1 PUSH2 0x100 EXP SWAP1 DIV PUSH1 0xFF AND PUSH1 0x1 DUP2 GT ISZERO PUSH2 0x1503 JUMPI PUSH2 0x1502 PUSH2 0x2470 JUMP JUMPDEST JUMPDEST EQ PUSH2 0x1543 JUMPI PUSH1 0x40 MLOAD PUSH32 0x8C379A000000000000000000000000000000000000000000000000000000000 DUP2 MSTORE PUSH1 0x4 ADD PUSH2 0x153A SWAP1 PUSH2 0x3132 JUMP JUMPDEST PUSH1 0x40 MLOAD DUP1 SWAP2 SUB SWAP1 REVERT JUMPDEST POP POP JUMP JUMPDEST PUSH1 0x60 PUSH1 0x15 DUP1 SLOAD DUP1 PUSH1 0x20 MUL PUSH1 0x20 ADD PUSH1 0x40 MLOAD SWAP1 DUP2 ADD PUSH1 0x40 MSTORE DUP1 SWAP3 SWAP2 SWAP1 DUP2 DUP2 MSTORE PUSH1 0x20 ADD DUP3 DUP1 SLOAD DUP1 ISZERO PUSH2 0x1595 JUMPI PUSH1 0x20 MUL DUP3 ADD SWAP2 SWAP1 PUSH1 0x0 MSTORE PUSH1 0x20 PUSH1 0x0 KECCAK256 SWAP1 JUMPDEST DUP2 SLOAD DUP2 MSTORE PUSH1 0x20 ADD SWAP1 PUSH1 0x1 ADD SWAP1 DUP1 DUP4 GT PUSH2 0x1581 JUMPI JUMPDEST POP POP POP POP POP SWAP1 POP SWAP1 JUMP JUMPDEST PUSH1 0x3 PUSH1 0x0 SWAP1 SLOAD SWAP1 PUSH2 0x100 EXP SWAP1 DIV PUSH20 0xFFFFFFFFFFFFFFFFFFFFFFFFFFFFFFFFFFFFFFFF AND PUSH20 0xFFFFFFFFFFFFFFFFFFFFFFFFFFFFFFFFFFFFFFFF AND CALLER PUSH20 0xFFFFFFFFFFFFFFFFFFFFFFFFFFFFFFFFFFFFFFFF AND EQ PUSH2 0x15F9 JUMPI PUSH1 0x0 DUP1 REVERT JUMPDEST PUSH1 0x16 PUSH1 0x0 SWAP1 SLOAD SWAP1 PUSH2 0x100 EXP SWAP1 DIV PUSH1 0xFF AND PUSH2 0x1612 JUMPI PUSH1 0x0 DUP1 REVERT JUMPDEST DUP1 PUSH20 0xFFFFFFFFFFFFFFFFFFFFFFFFFFFFFFFFFFFFFFFF AND PUSH2 0x8FC PUSH1 0xB SLOAD SWAP1 DUP2 ISZERO MUL SWAP1 PUSH1 0x40 MLOAD PUSH1 0x0 PUSH1 0x40 MLOAD DUP1 DUP4 SUB DUP2 DUP6 DUP9 DUP9 CALL SWAP4 POP POP POP POP ISZERO DUP1 ISZERO PUSH2 0x165A JUMPI RETURNDATASIZE PUSH1 0x0 DUP1 RETURNDATACOPY RETURNDATASIZE PUSH1 0x0 REVERT JUMPDEST POP POP JUMP JUMPDEST PUSH1 0x0 DUP1 PUSH1 0x60 PUSH1 0x0 DUP1 PUSH2 0x167 PUSH20 0xFFFFFFFFFFFFFFFFFFFFFFFFFFFFFFFFFFFFFFFF AND PUSH4 0xE0F4059A PUSH1 0xE0 SHL DUP10 DUP10 DUP10 PUSH1 0x40 MLOAD PUSH1 0x24 ADD PUSH2 0x169C SWAP4 SWAP3 SWAP2 SWAP1 PUSH2 0x325E JUMP JUMPDEST PUSH1 0x40 MLOAD PUSH1 0x20 DUP2 DUP4 SUB SUB DUP2 MSTORE SWAP1 PUSH1 0x40 MSTORE SWAP1 PUSH28 0xFFFFFFFFFFFFFFFFFFFFFFFFFFFFFFFFFFFFFFFFFFFFFFFFFFFFFFFF NOT AND PUSH1 0x20 DUP3 ADD DUP1 MLOAD PUSH28 0xFFFFFFFFFFFFFFFFFFFFFFFFFFFFFFFFFFFFFFFFFFFFFFFFFFFFFFFF DUP4 DUP2 DUP4 AND OR DUP4 MSTORE POP POP POP POP PUSH1 0x40 MLOAD PUSH2 0x1706 SWAP2 SWAP1 PUSH2 0x2BDE JUMP JUMPDEST PUSH1 0x0 PUSH1 0x40 MLOAD DUP1 DUP4 SUB DUP2 PUSH1 0x0 DUP7 GAS CALL SWAP2 POP POP RETURNDATASIZE DUP1 PUSH1 0x0 DUP2 EQ PUSH2 0x1743 JUMPI PUSH1 0x40 MLOAD SWAP2 POP PUSH1 0x1F NOT PUSH1 0x3F RETURNDATASIZE ADD AND DUP3 ADD PUSH1 0x40 MSTORE RETURNDATASIZE DUP3 MSTORE RETURNDATASIZE PUSH1 0x0 PUSH1 0x20 DUP5 ADD RETURNDATACOPY PUSH2 0x1748 JUMP JUMPDEST PUSH1 0x60 SWAP2 POP JUMPDEST POP SWAP2 POP SWAP2 POP DUP2 PUSH2 0x17A4 JUMPI PUSH1 0x15 PUSH1 0x0 DUP1 PUSH8 0xFFFFFFFFFFFFFFFF DUP2 GT ISZERO PUSH2 0x1770 JUMPI PUSH2 0x176F PUSH2 0x2068 JUMP JUMPDEST JUMPDEST PUSH1 0x40 MLOAD SWAP1 DUP1 DUP3 MSTORE DUP1 PUSH1 0x20 MUL PUSH1 0x20 ADD DUP3 ADD PUSH1 0x40 MSTORE DUP1 ISZERO PUSH2 0x179E JUMPI DUP2 PUSH1 0x20 ADD PUSH1 0x20 DUP3 MUL DUP1 CALLDATASIZE DUP4 CALLDATACOPY DUP1 DUP3 ADD SWAP2 POP POP SWAP1 POP JUMPDEST POP PUSH2 0x17B9 JUMP JUMPDEST DUP1 DUP1 PUSH1 0x20 ADD SWAP1 MLOAD DUP2 ADD SWAP1 PUSH2 0x17B8 SWAP2 SWAP1 PUSH2 0x3374 JUMP JUMPDEST JUMPDEST DUP3 PUSH1 0x3 SIGNEXTEND SWAP3 POP DUP1 SWAP6 POP DUP2 SWAP7 POP DUP3 SWAP8 POP POP POP POP POP POP SWAP4 POP SWAP4 POP SWAP4 SWAP1 POP JUMP JUMPDEST PUSH1 0x0 DUP1 PUSH1 0x0 PUSH2 0x167 PUSH20 0xFFFFFFFFFFFFFFFFFFFFFFFFFFFFFFFFFFFFFFFF AND PUSH4 0x49146BDE PUSH1 0xE0 SHL DUP7 DUP7 PUSH1 0x40 MLOAD PUSH1 0x24 ADD PUSH2 0x180F SWAP3 SWAP2 SWAP1 PUSH2 0x33E3 JUMP JUMPDEST PUSH1 0x40 MLOAD PUSH1 0x20 DUP2 DUP4 SUB SUB DUP2 MSTORE SWAP1 PUSH1 0x40 MSTORE SWAP1 PUSH28 0xFFFFFFFFFFFFFFFFFFFFFFFFFFFFFFFFFFFFFFFFFFFFFFFFFFFFFFFF NOT AND PUSH1 0x20 DUP3 ADD DUP1 MLOAD PUSH28 0xFFFFFFFFFFFFFFFFFFFFFFFFFFFFFFFFFFFFFFFFFFFFFFFFFFFFFFFF DUP4 DUP2 DUP4 AND OR DUP4 MSTORE POP POP POP POP PUSH1 0x40 MLOAD PUSH2 0x1879 SWAP2 SWAP1 PUSH2 0x2BDE JUMP JUMPDEST PUSH1 0x0 PUSH1 0x40 MLOAD DUP1 DUP4 SUB DUP2 PUSH1 0x0 DUP7 GAS CALL SWAP2 POP POP RETURNDATASIZE DUP1 PUSH1 0x0 DUP2 EQ PUSH2 0x18B6 JUMPI PUSH1 0x40 MLOAD SWAP2 POP PUSH1 0x1F NOT PUSH1 0x3F RETURNDATASIZE ADD AND DUP3 ADD PUSH1 0x40 MSTORE RETURNDATASIZE DUP3 MSTORE RETURNDATASIZE PUSH1 0x0 PUSH1 0x20 DUP5 ADD RETURNDATACOPY PUSH2 0x18BB JUMP JUMPDEST PUSH1 0x60 SWAP2 POP JUMPDEST POP SWAP2 POP SWAP2 POP DUP2 PUSH2 0x18CC JUMPI PUSH1 0x15 PUSH2 0x18E1 JUMP JUMPDEST DUP1 DUP1 PUSH1 0x20 ADD SWAP1 MLOAD DUP2 ADD SWAP1 PUSH2 0x18E0 SWAP2 SWAP1 PUSH2 0x2C2E JUMP JUMPDEST JUMPDEST PUSH1 0x3 SIGNEXTEND SWAP3 POP POP POP SWAP3 SWAP2 POP POP JUMP JUMPDEST PUSH1 0x0 DUP1 PUSH1 0x0 PUSH2 0x167 PUSH20 0xFFFFFFFFFFFFFFFFFFFFFFFFFFFFFFFFFFFFFFFF AND PUSH4 0x5CFC9011 PUSH1 0xE0 SHL DUP9 DUP9 DUP9 DUP9 PUSH1 0x40 MLOAD PUSH1 0x24 ADD PUSH2 0x192B SWAP5 SWAP4 SWAP3 SWAP2 SWAP1 PUSH2 0x340C JUMP JUMPDEST PUSH1 0x40 MLOAD PUSH1 0x20 DUP2 DUP4 SUB SUB DUP2 MSTORE SWAP1 PUSH1 0x40 MSTORE SWAP1 PUSH28 0xFFFFFFFFFFFFFFFFFFFFFFFFFFFFFFFFFFFFFFFFFFFFFFFFFFFFFFFF NOT AND PUSH1 0x20 DUP3 ADD DUP1 MLOAD PUSH28 0xFFFFFFFFFFFFFFFFFFFFFFFFFFFFFFFFFFFFFFFFFFFFFFFFFFFFFFFF DUP4 DUP2 DUP4 AND OR DUP4 MSTORE POP POP POP POP PUSH1 0x40 MLOAD PUSH2 0x1995 SWAP2 SWAP1 PUSH2 0x2BDE JUMP JUMPDEST PUSH1 0x0 PUSH1 0x40 MLOAD DUP1 DUP4 SUB DUP2 PUSH1 0x0 DUP7 GAS CALL SWAP2 POP POP RETURNDATASIZE DUP1 PUSH1 0x0 DUP2 EQ PUSH2 0x19D2 JUMPI PUSH1 0x40 MLOAD SWAP2 POP PUSH1 0x1F NOT PUSH1 0x3F RETURNDATASIZE ADD AND DUP3 ADD PUSH1 0x40 MSTORE RETURNDATASIZE DUP3 MSTORE RETURNDATASIZE PUSH1 0x0 PUSH1 0x20 DUP5 ADD RETURNDATACOPY PUSH2 0x19D7 JUMP JUMPDEST PUSH1 0x60 SWAP2 POP JUMPDEST POP SWAP2 POP SWAP2 POP DUP2 PUSH2 0x19E8 JUMPI PUSH1 0x15 PUSH2 0x19FD JUMP JUMPDEST DUP1 DUP1 PUSH1 0x20 ADD SWAP1 MLOAD DUP2 ADD SWAP1 PUSH2 0x19FC SWAP2 SWAP1 PUSH2 0x2C2E JUMP JUMPDEST JUMPDEST PUSH1 0x3 SIGNEXTEND SWAP3 POP POP POP SWAP5 SWAP4 POP POP POP POP JUMP JUMPDEST PUSH2 0x1A14 PUSH2 0x1DD9 JUMP JUMPDEST PUSH1 0x40 MLOAD DUP1 PUSH1 0x40 ADD PUSH1 0x40 MSTORE DUP1 PUSH2 0x1A28 DUP7 PUSH2 0x1CBC JUMP JUMPDEST DUP2 MSTORE PUSH1 0x20 ADD PUSH2 0x1A37 DUP6 DUP6 PUSH2 0x1CFD JUMP JUMPDEST DUP2 MSTORE POP SWAP1 POP SWAP4 SWAP3 POP POP POP JUMP JUMPDEST PUSH2 0x1A4B PUSH2 0x1E68 JUMP JUMPDEST DUP3 DUP2 PUSH1 0x20 ADD SWAP1 PUSH20 0xFFFFFFFFFFFFFFFFFFFFFFFFFFFFFFFFFFFFFFFF AND SWAP1 DUP2 PUSH20 0xFFFFFFFFFFFFFFFFFFFFFFFFFFFFFFFFFFFFFFFF AND DUP2 MSTORE POP POP DUP2 DUP2 PUSH1 0x40 ADD SWAP1 PUSH1 0x7 SIGNEXTEND SWAP1 DUP2 PUSH1 0x7 SIGNEXTEND DUP2 MSTORE POP POP SWAP3 SWAP2 POP POP JUMP JUMPDEST PUSH1 0x0 DUP1 DUP3 PUSH1 0x0 DUP2 PUSH2 0x100 ADD MLOAD PUSH1 0x0 ADD MLOAD PUSH1 0x7 SIGNEXTEND EQ DUP1 ISZERO PUSH2 0x1AC7 JUMPI POP PUSH1 0x0 DUP2 PUSH2 0x100 ADD MLOAD PUSH1 0x40 ADD MLOAD PUSH1 0x7 SIGNEXTEND EQ JUMPDEST ISZERO PUSH2 0x1AEA JUMPI PUSH3 0x76A700 PUSH1 0x3 SIGNEXTEND DUP2 PUSH2 0x100 ADD MLOAD PUSH1 0x40 ADD SWAP1 PUSH1 0x7 SIGNEXTEND SWAP1 DUP2 PUSH1 0x7 SIGNEXTEND DUP2 MSTORE POP POP JUMPDEST PUSH1 0x0 DUP1 PUSH2 0x167 PUSH20 0xFFFFFFFFFFFFFFFFFFFFFFFFFFFFFFFFFFFFFFFF AND CALLVALUE PUSH4 0xEA83F293 PUSH1 0xE0 SHL DUP9 PUSH1 0x40 MLOAD PUSH1 0x24 ADD PUSH2 0x1B20 SWAP2 SWAP1 PUSH2 0x3716 JUMP JUMPDEST PUSH1 0x40 MLOAD PUSH1 0x20 DUP2 DUP4 SUB SUB DUP2 MSTORE SWAP1 PUSH1 0x40 MSTORE SWAP1 PUSH28 0xFFFFFFFFFFFFFFFFFFFFFFFFFFFFFFFFFFFFFFFFFFFFFFFFFFFFFFFF NOT AND PUSH1 0x20 DUP3 ADD DUP1 MLOAD PUSH28 0xFFFFFFFFFFFFFFFFFFFFFFFFFFFFFFFFFFFFFFFFFFFFFFFFFFFFFFFF DUP4 DUP2 DUP4 AND OR DUP4 MSTORE POP POP POP POP PUSH1 0x40 MLOAD PUSH2 0x1B8A SWAP2 SWAP1 PUSH2 0x2BDE JUMP JUMPDEST PUSH1 0x0 PUSH1 0x40 MLOAD DUP1 DUP4 SUB DUP2 DUP6 DUP8 GAS CALL SWAP3 POP POP POP RETURNDATASIZE DUP1 PUSH1 0x0 DUP2 EQ PUSH2 0x1BC7 JUMPI PUSH1 0x40 MLOAD SWAP2 POP PUSH1 0x1F NOT PUSH1 0x3F RETURNDATASIZE ADD AND DUP3 ADD PUSH1 0x40 MSTORE RETURNDATASIZE DUP3 MSTORE RETURNDATASIZE PUSH1 0x0 PUSH1 0x20 DUP5 ADD RETURNDATACOPY PUSH2 0x1BCC JUMP JUMPDEST PUSH1 0x60 SWAP2 POP JUMPDEST POP SWAP2 POP SWAP2 POP DUP2 PUSH2 0x1BDF JUMPI PUSH1 0x15 PUSH1 0x0 PUSH2 0x1BF4 JUMP JUMPDEST DUP1 DUP1 PUSH1 0x20 ADD SWAP1 MLOAD DUP2 ADD SWAP1 PUSH2 0x1BF3 SWAP2 SWAP1 PUSH2 0x374D JUMP JUMPDEST JUMPDEST DUP2 PUSH1 0x3 SIGNEXTEND SWAP2 POP DUP1 SWAP6 POP DUP2 SWAP7 POP POP POP POP POP POP SWAP2 POP SWAP2 JUMP JUMPDEST PUSH1 0x0 PUSH1 0x64 PUSH1 0x8 SLOAD DUP4 PUSH2 0x1C1C SWAP2 SWAP1 PUSH2 0x378D JUMP JUMPDEST PUSH2 0x1C26 SWAP2 SWAP1 PUSH2 0x37FE JUMP JUMPDEST PUSH1 0xA SLOAD PUSH2 0x1C33 SWAP2 SWAP1 PUSH2 0x308C JUMP JUMPDEST PUSH1 0xA DUP2 SWAP1 SSTORE POP PUSH1 0x64 PUSH1 0x9 SLOAD DUP4 PUSH2 0x1C49 SWAP2 SWAP1 PUSH2 0x378D JUMP JUMPDEST PUSH2 0x1C53 SWAP2 SWAP1 PUSH2 0x37FE JUMP JUMPDEST PUSH1 0xB SLOAD PUSH2 0x1C60 SWAP2 SWAP1 PUSH2 0x308C JUMP JUMPDEST PUSH1 0xB DUP2 SWAP1 SSTORE POP PUSH1 0x0 PUSH1 0x64 PUSH1 0x9 SLOAD DUP5 PUSH2 0x1C78 SWAP2 SWAP1 PUSH2 0x378D JUMP JUMPDEST PUSH2 0x1C82 SWAP2 SWAP1 PUSH2 0x37FE JUMP JUMPDEST PUSH1 0x64 PUSH1 0x8 SLOAD DUP6 PUSH2 0x1C92 SWAP2 SWAP1 PUSH2 0x378D JUMP JUMPDEST PUSH2 0x1C9C SWAP2 SWAP1 PUSH2 0x37FE JUMP JUMPDEST DUP5 PUSH2 0x1CA7 SWAP2 SWAP1 PUSH2 0x382F JUMP JUMPDEST PUSH2 0x1CB1 SWAP2 SWAP1 PUSH2 0x382F JUMP JUMPDEST SWAP1 POP DUP1 SWAP2 POP POP SWAP2 SWAP1 POP JUMP JUMPDEST PUSH1 0x0 PUSH1 0x1 PUSH1 0x0 DUP4 PUSH1 0x6 DUP2 GT ISZERO PUSH2 0x1CD5 JUMPI PUSH2 0x1CD4 PUSH2 0x2470 JUMP JUMPDEST JUMPDEST PUSH1 0x6 DUP2 GT ISZERO PUSH2 0x1CE7 JUMPI PUSH2 0x1CE6 PUSH2 0x2470 JUMP JUMPDEST JUMPDEST DUP2 MSTORE PUSH1 0x20 ADD SWAP1 DUP2 MSTORE PUSH1 0x20 ADD PUSH1 0x0 KECCAK256 SLOAD SWAP1 POP SWAP2 SWAP1 POP JUMP JUMPDEST PUSH2 0x1D05 PUSH2 0x1EA5 JUMP JUMPDEST PUSH1 0x1 PUSH1 0x4 DUP2 GT ISZERO PUSH2 0x1D19 JUMPI PUSH2 0x1D18 PUSH2 0x2470 JUMP JUMPDEST JUMPDEST DUP4 PUSH1 0x4 DUP2 GT ISZERO PUSH2 0x1D2C JUMPI PUSH2 0x1D2B PUSH2 0x2470 JUMP JUMPDEST JUMPDEST SUB PUSH2 0x1D6E JUMPI DUP2 DUP2 PUSH1 0x20 ADD SWAP1 PUSH20 0xFFFFFFFFFFFFFFFFFFFFFFFFFFFFFFFFFFFFFFFF AND SWAP1 DUP2 PUSH20 0xFFFFFFFFFFFFFFFFFFFFFFFFFFFFFFFFFFFFFFFF AND DUP2 MSTORE POP POP PUSH2 0x1DD3 JUMP JUMPDEST PUSH1 0x4 DUP1 DUP2 GT ISZERO PUSH2 0x1D81 JUMPI PUSH2 0x1D80 PUSH2 0x2470 JUMP JUMPDEST JUMPDEST DUP4 PUSH1 0x4 DUP2 GT ISZERO PUSH2 0x1D94 JUMPI PUSH2 0x1D93 PUSH2 0x2470 JUMP JUMPDEST JUMPDEST SUB PUSH2 0x1DD2 JUMPI DUP2 DUP2 PUSH1 0x80 ADD SWAP1 PUSH20 0xFFFFFFFFFFFFFFFFFFFFFFFFFFFFFFFFFFFFFFFF AND SWAP1 DUP2 PUSH20 0xFFFFFFFFFFFFFFFFFFFFFFFFFFFFFFFFFFFFFFFF AND DUP2 MSTORE POP POP JUMPDEST JUMPDEST SWAP3 SWAP2 POP POP JUMP JUMPDEST PUSH1 0x40 MLOAD DUP1 PUSH1 0x40 ADD PUSH1 0x40 MSTORE DUP1 PUSH1 0x0 DUP2 MSTORE PUSH1 0x20 ADD PUSH2 0x1DF3 PUSH2 0x1EA5 JUMP JUMPDEST DUP2 MSTORE POP SWAP1 JUMP JUMPDEST PUSH1 0x40 MLOAD DUP1 PUSH2 0x120 ADD PUSH1 0x40 MSTORE DUP1 PUSH1 0x60 DUP2 MSTORE PUSH1 0x20 ADD PUSH1 0x60 DUP2 MSTORE PUSH1 0x20 ADD PUSH1 0x0 PUSH20 0xFFFFFFFFFFFFFFFFFFFFFFFFFFFFFFFFFFFFFFFF AND DUP2 MSTORE PUSH1 0x20 ADD PUSH1 0x60 DUP2 MSTORE PUSH1 0x20 ADD PUSH1 0x0 ISZERO ISZERO DUP2 MSTORE PUSH1 0x20 ADD PUSH1 0x0 PUSH1 0x7 SIGNEXTEND DUP2 MSTORE PUSH1 0x20 ADD PUSH1 0x0 ISZERO ISZERO DUP2 MSTORE PUSH1 0x20 ADD PUSH1 0x60 DUP2 MSTORE PUSH1 0x20 ADD PUSH2 0x1E62 PUSH2 0x1E68 JUMP JUMPDEST DUP2 MSTORE POP SWAP1 JUMP JUMPDEST PUSH1 0x40 MLOAD DUP1 PUSH1 0x60 ADD PUSH1 0x40 MSTORE DUP1 PUSH1 0x0 PUSH1 0x7 SIGNEXTEND DUP2 MSTORE PUSH1 0x20 ADD PUSH1 0x0 PUSH20 0xFFFFFFFFFFFFFFFFFFFFFFFFFFFFFFFFFFFFFFFF AND DUP2 MSTORE PUSH1 0x20 ADD PUSH1 0x0 PUSH1 0x7 SIGNEXTEND DUP2 MSTORE POP SWAP1 JUMP JUMPDEST PUSH1 0x40 MLOAD DUP1 PUSH1 0xA0 ADD PUSH1 0x40 MSTORE DUP1 PUSH1 0x0 ISZERO ISZERO DUP2 MSTORE PUSH1 0x20 ADD PUSH1 0x0 PUSH20 0xFFFFFFFFFFFFFFFFFFFFFFFFFFFFFFFFFFFFFFFF AND DUP2 MSTORE PUSH1 0x20 ADD PUSH1 0x60 DUP2 MSTORE PUSH1 0x20 ADD PUSH1 0x60 DUP2 MSTORE PUSH1 0x20 ADD PUSH1 0x0 PUSH20 0xFFFFFFFFFFFFFFFFFFFFFFFFFFFFFFFFFFFFFFFF AND DUP2 MSTORE POP SWAP1 JUMP JUMPDEST PUSH1 0x0 PUSH20 0xFFFFFFFFFFFFFFFFFFFFFFFFFFFFFFFFFFFFFFFF DUP3 AND SWAP1 POP SWAP2 SWAP1 POP JUMP JUMPDEST PUSH1 0x0 PUSH2 0x1F2D DUP3 PUSH2 0x1F02 JUMP JUMPDEST SWAP1 POP SWAP2 SWAP1 POP JUMP JUMPDEST PUSH2 0x1F3D DUP2 PUSH2 0x1F22 JUMP JUMPDEST DUP3 MSTORE POP POP JUMP JUMPDEST PUSH1 0x0 PUSH1 0x20 DUP3 ADD SWAP1 POP PUSH2 0x1F58 PUSH1 0x0 DUP4 ADD DUP5 PUSH2 0x1F34 JUMP JUMPDEST SWAP3 SWAP2 POP POP JUMP JUMPDEST PUSH1 0x0 PUSH1 0x40 MLOAD SWAP1 POP SWAP1 JUMP JUMPDEST PUSH1 0x0 DUP1 REVERT JUMPDEST PUSH1 0x0 DUP1 REVERT JUMPDEST PUSH1 0x0 DUP2 SWAP1 POP SWAP2 SWAP1 POP JUMP JUMPDEST PUSH2 0x1F85 DUP2 PUSH2 0x1F72 JUMP JUMPDEST DUP2 EQ PUSH2 0x1F90 JUMPI PUSH1 0x0 DUP1 REVERT JUMPDEST POP JUMP JUMPDEST PUSH1 0x0 DUP2 CALLDATALOAD SWAP1 POP PUSH2 0x1FA2 DUP2 PUSH2 0x1F7C JUMP JUMPDEST SWAP3 SWAP2 POP POP JUMP JUMPDEST PUSH1 0x0 PUSH2 0x1FB3 DUP3 PUSH2 0x1F02 JUMP JUMPDEST SWAP1 POP SWAP2 SWAP1 POP JUMP JUMPDEST PUSH2 0x1FC3 DUP2 PUSH2 0x1FA8 JUMP JUMPDEST DUP2 EQ PUSH2 0x1FCE JUMPI PUSH1 0x0 DUP1 REVERT JUMPDEST POP JUMP JUMPDEST PUSH1 0x0 DUP2 CALLDATALOAD SWAP1 POP PUSH2 0x1FE0 DUP2 PUSH2 0x1FBA JUMP JUMPDEST SWAP3 SWAP2 POP POP JUMP JUMPDEST PUSH1 0x0 DUP1 PUSH1 0x40 DUP4 DUP6 SUB SLT ISZERO PUSH2 0x1FFD JUMPI PUSH2 0x1FFC PUSH2 0x1F68 JUMP JUMPDEST JUMPDEST PUSH1 0x0 PUSH2 0x200B DUP6 DUP3 DUP7 ADD PUSH2 0x1F93 JUMP JUMPDEST SWAP3 POP POP PUSH1 0x20 PUSH2 0x201C DUP6 DUP3 DUP7 ADD PUSH2 0x1FD1 JUMP JUMPDEST SWAP2 POP POP SWAP3 POP SWAP3 SWAP1 POP JUMP JUMPDEST PUSH2 0x202F DUP2 PUSH2 0x1F22 JUMP JUMPDEST DUP2 EQ PUSH2 0x203A JUMPI PUSH1 0x0 DUP1 REVERT JUMPDEST POP JUMP JUMPDEST PUSH1 0x0 DUP2 CALLDATALOAD SWAP1 POP PUSH2 0x204C DUP2 PUSH2 0x2026 JUMP JUMPDEST SWAP3 SWAP2 POP POP JUMP JUMPDEST PUSH1 0x0 DUP1 REVERT JUMPDEST PUSH1 0x0 PUSH1 0x1F NOT PUSH1 0x1F DUP4 ADD AND SWAP1 POP SWAP2 SWAP1 POP JUMP JUMPDEST PUSH32 0x4E487B7100000000000000000000000000000000000000000000000000000000 PUSH1 0x0 MSTORE PUSH1 0x41 PUSH1 0x4 MSTORE PUSH1 0x24 PUSH1 0x0 REVERT JUMPDEST PUSH2 0x20A0 DUP3 PUSH2 0x2057 JUMP JUMPDEST DUP2 ADD DUP2 DUP2 LT PUSH8 0xFFFFFFFFFFFFFFFF DUP3 GT OR ISZERO PUSH2 0x20BF JUMPI PUSH2 0x20BE PUSH2 0x2068 JUMP JUMPDEST JUMPDEST DUP1 PUSH1 0x40 MSTORE POP POP POP JUMP JUMPDEST PUSH1 0x0 PUSH2 0x20D2 PUSH2 0x1F5E JUMP JUMPDEST SWAP1 POP PUSH2 0x20DE DUP3 DUP3 PUSH2 0x2097 JUMP JUMPDEST SWAP2 SWAP1 POP JUMP JUMPDEST PUSH1 0x0 PUSH8 0xFFFFFFFFFFFFFFFF DUP3 GT ISZERO PUSH2 0x20FE JUMPI PUSH2 0x20FD PUSH2 0x2068 JUMP JUMPDEST JUMPDEST PUSH1 0x20 DUP3 MUL SWAP1 POP PUSH1 0x20 DUP2 ADD SWAP1 POP SWAP2 SWAP1 POP JUMP JUMPDEST PUSH1 0x0 DUP1 REVERT JUMPDEST PUSH1 0x0 DUP1 REVERT JUMPDEST PUSH1 0x0 PUSH8 0xFFFFFFFFFFFFFFFF DUP3 GT ISZERO PUSH2 0x2134 JUMPI PUSH2 0x2133 PUSH2 0x2068 JUMP JUMPDEST JUMPDEST PUSH2 0x213D DUP3 PUSH2 0x2057 JUMP JUMPDEST SWAP1 POP PUSH1 0x20 DUP2 ADD SWAP1 POP SWAP2 SWAP1 POP JUMP JUMPDEST DUP3 DUP2 DUP4 CALLDATACOPY PUSH1 0x0 DUP4 DUP4 ADD MSTORE POP POP POP JUMP JUMPDEST PUSH1 0x0 PUSH2 0x216C PUSH2 0x2167 DUP5 PUSH2 0x2119 JUMP JUMPDEST PUSH2 0x20C8 JUMP JUMPDEST SWAP1 POP DUP3 DUP2 MSTORE PUSH1 0x20 DUP2 ADD DUP5 DUP5 DUP5 ADD GT ISZERO PUSH2 0x2188 JUMPI PUSH2 0x2187 PUSH2 0x2114 JUMP JUMPDEST JUMPDEST PUSH2 0x2193 DUP5 DUP3 DUP6 PUSH2 0x214A JUMP JUMPDEST POP SWAP4 SWAP3 POP POP POP JUMP JUMPDEST PUSH1 0x0 DUP3 PUSH1 0x1F DUP4 ADD SLT PUSH2 0x21B0 JUMPI PUSH2 0x21AF PUSH2 0x2052 JUMP JUMPDEST JUMPDEST DUP2 CALLDATALOAD PUSH2 0x21C0 DUP5 DUP3 PUSH1 0x20 DUP7 ADD PUSH2 0x2159 JUMP JUMPDEST SWAP2 POP POP SWAP3 SWAP2 POP POP JUMP JUMPDEST PUSH1 0x0 PUSH2 0x21DC PUSH2 0x21D7 DUP5 PUSH2 0x20E3 JUMP JUMPDEST PUSH2 0x20C8 JUMP JUMPDEST SWAP1 POP DUP1 DUP4 DUP3 MSTORE PUSH1 0x20 DUP3 ADD SWAP1 POP PUSH1 0x20 DUP5 MUL DUP4 ADD DUP6 DUP2 GT ISZERO PUSH2 0x21FF JUMPI PUSH2 0x21FE PUSH2 0x210F JUMP JUMPDEST JUMPDEST DUP4 JUMPDEST DUP2 DUP2 LT ISZERO PUSH2 0x2246 JUMPI DUP1 CALLDATALOAD PUSH8 0xFFFFFFFFFFFFFFFF DUP2 GT ISZERO PUSH2 0x2224 JUMPI PUSH2 0x2223 PUSH2 0x2052 JUMP JUMPDEST JUMPDEST DUP1 DUP7 ADD PUSH2 0x2231 DUP10 DUP3 PUSH2 0x219B JUMP JUMPDEST DUP6 MSTORE PUSH1 0x20 DUP6 ADD SWAP5 POP POP POP PUSH1 0x20 DUP2 ADD SWAP1 POP PUSH2 0x2201 JUMP JUMPDEST POP POP POP SWAP4 SWAP3 POP POP POP JUMP JUMPDEST PUSH1 0x0 DUP3 PUSH1 0x1F DUP4 ADD SLT PUSH2 0x2265 JUMPI PUSH2 0x2264 PUSH2 0x2052 JUMP JUMPDEST JUMPDEST DUP2 CALLDATALOAD PUSH2 0x2275 DUP5 DUP3 PUSH1 0x20 DUP7 ADD PUSH2 0x21C9 JUMP JUMPDEST SWAP2 POP POP SWAP3 SWAP2 POP POP JUMP JUMPDEST PUSH1 0x0 DUP1 PUSH1 0x40 DUP4 DUP6 SUB SLT ISZERO PUSH2 0x2295 JUMPI PUSH2 0x2294 PUSH2 0x1F68 JUMP JUMPDEST JUMPDEST PUSH1 0x0 PUSH2 0x22A3 DUP6 DUP3 DUP7 ADD PUSH2 0x203D JUMP JUMPDEST SWAP3 POP POP PUSH1 0x20 DUP4 ADD CALLDATALOAD PUSH8 0xFFFFFFFFFFFFFFFF DUP2 GT ISZERO PUSH2 0x22C4 JUMPI PUSH2 0x22C3 PUSH2 0x1F6D JUMP JUMPDEST JUMPDEST PUSH2 0x22D0 DUP6 DUP3 DUP7 ADD PUSH2 0x2250 JUMP JUMPDEST SWAP2 POP POP SWAP3 POP SWAP3 SWAP1 POP JUMP JUMPDEST PUSH1 0x0 DUP2 PUSH1 0x7 SIGNEXTEND SWAP1 POP SWAP2 SWAP1 POP JUMP JUMPDEST PUSH2 0x22F0 DUP2 PUSH2 0x22DA JUMP JUMPDEST DUP3 MSTORE POP POP JUMP JUMPDEST PUSH1 0x0 PUSH1 0x20 DUP3 ADD SWAP1 POP PUSH2 0x230B PUSH1 0x0 DUP4 ADD DUP5 PUSH2 0x22E7 JUMP JUMPDEST SWAP3 SWAP2 POP POP JUMP JUMPDEST PUSH2 0x231A DUP2 PUSH2 0x1F72 JUMP JUMPDEST DUP3 MSTORE POP POP JUMP JUMPDEST PUSH1 0x0 PUSH1 0x20 DUP3 ADD SWAP1 POP PUSH2 0x2335 PUSH1 0x0 DUP4 ADD DUP5 PUSH2 0x2311 JUMP JUMPDEST SWAP3 SWAP2 POP POP JUMP JUMPDEST PUSH1 0x0 DUP1 PUSH1 0x0 DUP1 PUSH1 0x80 DUP6 DUP8 SUB SLT ISZERO PUSH2 0x2355 JUMPI PUSH2 0x2354 PUSH2 0x1F68 JUMP JUMPDEST JUMPDEST PUSH1 0x0 PUSH2 0x2363 DUP8 DUP3 DUP9 ADD PUSH2 0x203D JUMP JUMPDEST SWAP5 POP POP PUSH1 0x20 PUSH2 0x2374 DUP8 DUP3 DUP9 ADD PUSH2 0x203D JUMP JUMPDEST SWAP4 POP POP PUSH1 0x40 PUSH2 0x2385 DUP8 DUP3 DUP9 ADD PUSH2 0x203D JUMP JUMPDEST SWAP3 POP POP PUSH1 0x60 PUSH2 0x2396 DUP8 DUP3 DUP9 ADD PUSH2 0x1F93 JUMP JUMPDEST SWAP2 POP POP SWAP3 SWAP6 SWAP2 SWAP5 POP SWAP3 POP JUMP JUMPDEST PUSH1 0x0 PUSH1 0x20 DUP3 DUP5 SUB SLT ISZERO PUSH2 0x23B8 JUMPI PUSH2 0x23B7 PUSH2 0x1F68 JUMP JUMPDEST JUMPDEST PUSH1 0x0 PUSH2 0x23C6 DUP5 DUP3 DUP6 ADD PUSH2 0x1F93 JUMP JUMPDEST SWAP2 POP POP SWAP3 SWAP2 POP POP JUMP JUMPDEST PUSH1 0x0 DUP2 MLOAD SWAP1 POP SWAP2 SWAP1 POP JUMP JUMPDEST PUSH1 0x0 DUP3 DUP3 MSTORE PUSH1 0x20 DUP3 ADD SWAP1 POP SWAP3 SWAP2 POP POP JUMP JUMPDEST PUSH1 0x0 JUMPDEST DUP4 DUP2 LT ISZERO PUSH2 0x2409 JUMPI DUP1 DUP3 ADD MLOAD DUP2 DUP5 ADD MSTORE PUSH1 0x20 DUP2 ADD SWAP1 POP PUSH2 0x23EE JUMP JUMPDEST PUSH1 0x0 DUP5 DUP5 ADD MSTORE POP POP POP POP JUMP JUMPDEST PUSH1 0x0 PUSH2 0x2420 DUP3 PUSH2 0x23CF JUMP JUMPDEST PUSH2 0x242A DUP2 DUP6 PUSH2 0x23DA JUMP JUMPDEST SWAP4 POP PUSH2 0x243A DUP2 DUP6 PUSH1 0x20 DUP7 ADD PUSH2 0x23EB JUMP JUMPDEST PUSH2 0x2443 DUP2 PUSH2 0x2057 JUMP JUMPDEST DUP5 ADD SWAP2 POP POP SWAP3 SWAP2 POP POP JUMP JUMPDEST PUSH1 0x0 PUSH1 0x20 DUP3 ADD SWAP1 POP DUP2 DUP2 SUB PUSH1 0x0 DUP4 ADD MSTORE PUSH2 0x2468 DUP2 DUP5 PUSH2 0x2415 JUMP JUMPDEST SWAP1 POP SWAP3 SWAP2 POP POP JUMP JUMPDEST PUSH32 0x4E487B7100000000000000000000000000000000000000000000000000000000 PUSH1 0x0 MSTORE PUSH1 0x21 PUSH1 0x4 MSTORE PUSH1 0x24 PUSH1 0x0 REVERT JUMPDEST PUSH1 0x2 DUP2 LT PUSH2 0x24B0 JUMPI PUSH2 0x24AF PUSH2 0x2470 JUMP JUMPDEST JUMPDEST POP JUMP JUMPDEST PUSH1 0x0 DUP2 SWAP1 POP PUSH2 0x24C1 DUP3 PUSH2 0x249F JUMP JUMPDEST SWAP2 SWAP1 POP JUMP JUMPDEST PUSH1 0x0 PUSH2 0x24D1 DUP3 PUSH2 0x24B3 JUMP JUMPDEST SWAP1 POP SWAP2 SWAP1 POP JUMP JUMPDEST PUSH2 0x24E1 DUP2 PUSH2 0x24C6 JUMP JUMPDEST DUP3 MSTORE POP POP JUMP JUMPDEST PUSH1 0x0 PUSH1 0x20 DUP3 ADD SWAP1 POP PUSH2 0x24FC PUSH1 0x0 DUP4 ADD DUP5 PUSH2 0x24D8 JUMP JUMPDEST SWAP3 SWAP2 POP POP JUMP JUMPDEST PUSH2 0x250B DUP2 PUSH2 0x22DA JUMP JUMPDEST DUP2 EQ PUSH2 0x2516 JUMPI PUSH1 0x0 DUP1 REVERT JUMPDEST POP JUMP JUMPDEST PUSH1 0x0 DUP2 CALLDATALOAD SWAP1 POP PUSH2 0x2528 DUP2 PUSH2 0x2502 JUMP JUMPDEST SWAP3 SWAP2 POP POP JUMP JUMPDEST PUSH1 0x0 DUP1 PUSH1 0x0 PUSH1 0x60 DUP5 DUP7 SUB SLT ISZERO PUSH2 0x2547 JUMPI PUSH2 0x2546 PUSH2 0x1F68 JUMP JUMPDEST JUMPDEST PUSH1 0x0 PUSH2 0x2555 DUP7 DUP3 DUP8 ADD PUSH2 0x203D JUMP JUMPDEST SWAP4 POP POP PUSH1 0x20 PUSH2 0x2566 DUP7 DUP3 DUP8 ADD PUSH2 0x203D JUMP JUMPDEST SWAP3 POP POP PUSH1 0x40 PUSH2 0x2577 DUP7 DUP3 DUP8 ADD PUSH2 0x2519 JUMP JUMPDEST SWAP2 POP POP SWAP3 POP SWAP3 POP SWAP3 JUMP JUMPDEST PUSH1 0x0 DUP2 SWAP1 POP SWAP2 SWAP1 POP JUMP JUMPDEST PUSH2 0x2594 DUP2 PUSH2 0x2581 JUMP JUMPDEST DUP3 MSTORE POP POP JUMP JUMPDEST PUSH1 0x0 PUSH1 0x20 DUP3 ADD SWAP1 POP PUSH2 0x25AF PUSH1 0x0 DUP4 ADD DUP5 PUSH2 0x258B JUMP JUMPDEST SWAP3 SWAP2 POP POP JUMP JUMPDEST PUSH1 0x0 PUSH8 0xFFFFFFFFFFFFFFFF DUP3 GT ISZERO PUSH2 0x25D0 JUMPI PUSH2 0x25CF PUSH2 0x2068 JUMP JUMPDEST JUMPDEST PUSH2 0x25D9 DUP3 PUSH2 0x2057 JUMP JUMPDEST SWAP1 POP PUSH1 0x20 DUP2 ADD SWAP1 POP SWAP2 SWAP1 POP JUMP JUMPDEST PUSH1 0x0 PUSH2 0x25F9 PUSH2 0x25F4 DUP5 PUSH2 0x25B5 JUMP JUMPDEST PUSH2 0x20C8 JUMP JUMPDEST SWAP1 POP DUP3 DUP2 MSTORE PUSH1 0x20 DUP2 ADD DUP5 DUP5 DUP5 ADD GT ISZERO PUSH2 0x2615 JUMPI PUSH2 0x2614 PUSH2 0x2114 JUMP JUMPDEST JUMPDEST PUSH2 0x2620 DUP5 DUP3 DUP6 PUSH2 0x214A JUMP JUMPDEST POP SWAP4 SWAP3 POP POP POP JUMP JUMPDEST PUSH1 0x0 DUP3 PUSH1 0x1F DUP4 ADD SLT PUSH2 0x263D JUMPI PUSH2 0x263C PUSH2 0x2052 JUMP JUMPDEST JUMPDEST DUP2 CALLDATALOAD PUSH2 0x264D DUP5 DUP3 PUSH1 0x20 DUP7 ADD PUSH2 0x25E6 JUMP JUMPDEST SWAP2 POP POP SWAP3 SWAP2 POP POP JUMP JUMPDEST PUSH1 0x0 DUP1 PUSH1 0x0 DUP1 PUSH1 0x0 PUSH1 0xA0 DUP7 DUP9 SUB SLT ISZERO PUSH2 0x2672 JUMPI PUSH2 0x2671 PUSH2 0x1F68 JUMP JUMPDEST JUMPDEST PUSH1 0x0 DUP7 ADD CALLDATALOAD PUSH8 0xFFFFFFFFFFFFFFFF DUP2 GT ISZERO PUSH2 0x2690 JUMPI PUSH2 0x268F PUSH2 0x1F6D JUMP JUMPDEST JUMPDEST PUSH2 0x269C DUP9 DUP3 DUP10 ADD PUSH2 0x2628 JUMP JUMPDEST SWAP6 POP POP PUSH1 0x20 DUP7 ADD CALLDATALOAD PUSH8 0xFFFFFFFFFFFFFFFF DUP2 GT ISZERO PUSH2 0x26BD JUMPI PUSH2 0x26BC PUSH2 0x1F6D JUMP JUMPDEST JUMPDEST PUSH2 0x26C9 DUP9 DUP3 DUP10 ADD PUSH2 0x2628 JUMP JUMPDEST SWAP5 POP POP PUSH1 0x40 DUP7 ADD CALLDATALOAD PUSH8 0xFFFFFFFFFFFFFFFF DUP2 GT ISZERO PUSH2 0x26EA JUMPI PUSH2 0x26E9 PUSH2 0x1F6D JUMP JUMPDEST JUMPDEST PUSH2 0x26F6 DUP9 DUP3 DUP10 ADD PUSH2 0x2628 JUMP JUMPDEST SWAP4 POP POP PUSH1 0x60 PUSH2 0x2707 DUP9 DUP3 DUP10 ADD PUSH2 0x2519 JUMP JUMPDEST SWAP3 POP POP PUSH1 0x80 PUSH2 0x2718 DUP9 DUP3 DUP10 ADD PUSH2 0x2519 JUMP JUMPDEST SWAP2 POP POP SWAP3 SWAP6 POP SWAP3 SWAP6 SWAP1 SWAP4 POP JUMP JUMPDEST PUSH1 0x0 PUSH1 0x20 DUP3 DUP5 SUB SLT ISZERO PUSH2 0x273B JUMPI PUSH2 0x273A PUSH2 0x1F68 JUMP JUMPDEST JUMPDEST PUSH1 0x0 PUSH2 0x2749 DUP5 DUP3 DUP6 ADD PUSH2 0x203D JUMP JUMPDEST SWAP2 POP POP SWAP3 SWAP2 POP POP JUMP JUMPDEST PUSH1 0x0 DUP2 ISZERO ISZERO SWAP1 POP SWAP2 SWAP1 POP JUMP JUMPDEST PUSH2 0x2767 DUP2 PUSH2 0x2752 JUMP JUMPDEST DUP3 MSTORE POP POP JUMP JUMPDEST PUSH1 0x0 PUSH1 0xE0 DUP3 ADD SWAP1 POP PUSH2 0x2782 PUSH1 0x0 DUP4 ADD DUP11 PUSH2 0x1F34 JUMP JUMPDEST PUSH2 0x278F PUSH1 0x20 DUP4 ADD DUP10 PUSH2 0x258B JUMP JUMPDEST PUSH2 0x279C PUSH1 0x40 DUP4 ADD DUP9 PUSH2 0x1F34 JUMP JUMPDEST DUP2 DUP2 SUB PUSH1 0x60 DUP4 ADD MSTORE PUSH2 0x27AE DUP2 DUP8 PUSH2 0x2415 JUMP JUMPDEST SWAP1 POP DUP2 DUP2 SUB PUSH1 0x80 DUP4 ADD MSTORE PUSH2 0x27C2 DUP2 DUP7 PUSH2 0x2415 JUMP JUMPDEST SWAP1 POP PUSH2 0x27D1 PUSH1 0xA0 DUP4 ADD DUP6 PUSH2 0x275E JUMP JUMPDEST PUSH2 0x27DE PUSH1 0xC0 DUP4 ADD DUP5 PUSH2 0x275E JUMP JUMPDEST SWAP9 SWAP8 POP POP POP POP POP POP POP POP JUMP JUMPDEST PUSH1 0x0 PUSH1 0x20 DUP3 DUP5 SUB SLT ISZERO PUSH2 0x2800 JUMPI PUSH2 0x27FF PUSH2 0x1F68 JUMP JUMPDEST JUMPDEST PUSH1 0x0 PUSH2 0x280E DUP5 DUP3 DUP6 ADD PUSH2 0x1FD1 JUMP JUMPDEST SWAP2 POP POP SWAP3 SWAP2 POP POP JUMP JUMPDEST PUSH1 0x0 DUP2 MLOAD SWAP1 POP SWAP2 SWAP1 POP JUMP JUMPDEST PUSH1 0x0 DUP3 DUP3 MSTORE PUSH1 0x20 DUP3 ADD SWAP1 POP SWAP3 SWAP2 POP POP JUMP JUMPDEST PUSH1 0x0 DUP2 SWAP1 POP PUSH1 0x20 DUP3 ADD SWAP1 POP SWAP2 SWAP1 POP JUMP JUMPDEST PUSH1 0x0 DUP3 DUP3 MSTORE PUSH1 0x20 DUP3 ADD SWAP1 POP SWAP3 SWAP2 POP POP JUMP JUMPDEST PUSH1 0x0 PUSH2 0x285F DUP3 PUSH2 0x23CF JUMP JUMPDEST PUSH2 0x2869 DUP2 DUP6 PUSH2 0x2843 JUMP JUMPDEST SWAP4 POP PUSH2 0x2879 DUP2 DUP6 PUSH1 0x20 DUP7 ADD PUSH2 0x23EB JUMP JUMPDEST PUSH2 0x2882 DUP2 PUSH2 0x2057 JUMP JUMPDEST DUP5 ADD SWAP2 POP POP SWAP3 SWAP2 POP POP JUMP JUMPDEST PUSH1 0x0 PUSH2 0x2899 DUP4 DUP4 PUSH2 0x2854 JUMP JUMPDEST SWAP1 POP SWAP3 SWAP2 POP POP JUMP JUMPDEST PUSH1 0x0 PUSH1 0x20 DUP3 ADD SWAP1 POP SWAP2 SWAP1 POP JUMP JUMPDEST PUSH1 0x0 PUSH2 0x28B9 DUP3 PUSH2 0x2817 JUMP JUMPDEST PUSH2 0x28C3 DUP2 DUP6 PUSH2 0x2822 JUMP JUMPDEST SWAP4 POP DUP4 PUSH1 0x20 DUP3 MUL DUP6 ADD PUSH2 0x28D5 DUP6 PUSH2 0x2833 JUMP JUMPDEST DUP1 PUSH1 0x0 JUMPDEST DUP6 DUP2 LT ISZERO PUSH2 0x2911 JUMPI DUP5 DUP5 SUB DUP10 MSTORE DUP2 MLOAD PUSH2 0x28F2 DUP6 DUP3 PUSH2 0x288D JUMP JUMPDEST SWAP5 POP PUSH2 0x28FD DUP4 PUSH2 0x28A1 JUMP JUMPDEST SWAP3 POP PUSH1 0x20 DUP11 ADD SWAP10 POP POP PUSH1 0x1 DUP2 ADD SWAP1 POP PUSH2 0x28D9 JUMP JUMPDEST POP DUP3 SWAP8 POP DUP8 SWAP6 POP POP POP POP POP POP SWAP3 SWAP2 POP POP JUMP JUMPDEST PUSH1 0x0 PUSH1 0x20 DUP3 ADD SWAP1 POP DUP2 DUP2 SUB PUSH1 0x0 DUP4 ADD MSTORE PUSH2 0x293D DUP2 DUP5 PUSH2 0x28AE JUMP JUMPDEST SWAP1 POP SWAP3 SWAP2 POP POP JUMP JUMPDEST PUSH2 0x294E DUP2 PUSH2 0x2581 JUMP JUMPDEST DUP2 EQ PUSH2 0x2959 JUMPI PUSH1 0x0 DUP1 REVERT JUMPDEST POP JUMP JUMPDEST PUSH1 0x0 DUP2 CALLDATALOAD SWAP1 POP PUSH2 0x296B DUP2 PUSH2 0x2945 JUMP JUMPDEST SWAP3 SWAP2 POP POP JUMP JUMPDEST PUSH1 0x0 DUP1 PUSH1 0x40 DUP4 DUP6 SUB SLT ISZERO PUSH2 0x2988 JUMPI PUSH2 0x2987 PUSH2 0x1F68 JUMP JUMPDEST JUMPDEST PUSH1 0x0 PUSH2 0x2996 DUP6 DUP3 DUP7 ADD PUSH2 0x203D JUMP JUMPDEST SWAP3 POP POP PUSH1 0x20 PUSH2 0x29A7 DUP6 DUP3 DUP7 ADD PUSH2 0x295C JUMP JUMPDEST SWAP2 POP POP SWAP3 POP SWAP3 SWAP1 POP JUMP JUMPDEST PUSH1 0x0 DUP2 MLOAD SWAP1 POP SWAP2 SWAP1 POP JUMP JUMPDEST PUSH1 0x0 DUP3 DUP3 MSTORE PUSH1 0x20 DUP3 ADD SWAP1 POP SWAP3 SWAP2 POP POP JUMP JUMPDEST PUSH1 0x0 DUP2 SWAP1 POP PUSH1 0x20 DUP3 ADD SWAP1 POP SWAP2 SWAP1 POP JUMP JUMPDEST PUSH2 0x29E6 DUP2 PUSH2 0x1F72 JUMP JUMPDEST DUP3 MSTORE POP POP JUMP JUMPDEST PUSH1 0x0 PUSH2 0x29F8 DUP4 DUP4 PUSH2 0x29DD JUMP JUMPDEST PUSH1 0x20 DUP4 ADD SWAP1 POP SWAP3 SWAP2 POP POP JUMP JUMPDEST PUSH1 0x0 PUSH1 0x20 DUP3 ADD SWAP1 POP SWAP2 SWAP1 POP JUMP JUMPDEST PUSH1 0x0 PUSH2 0x2A1C DUP3 PUSH2 0x29B1 JUMP JUMPDEST PUSH2 0x2A26 DUP2 DUP6 PUSH2 0x29BC JUMP JUMPDEST SWAP4 POP PUSH2 0x2A31 DUP4 PUSH2 0x29CD JUMP JUMPDEST DUP1 PUSH1 0x0 JUMPDEST DUP4 DUP2 LT ISZERO PUSH2 0x2A62 JUMPI DUP2 MLOAD PUSH2 0x2A49 DUP9 DUP3 PUSH2 0x29EC JUMP JUMPDEST SWAP8 POP PUSH2 0x2A54 DUP4 PUSH2 0x2A04 JUMP JUMPDEST SWAP3 POP POP PUSH1 0x1 DUP2 ADD SWAP1 POP PUSH2 0x2A35 JUMP JUMPDEST POP DUP6 SWAP4 POP POP POP POP SWAP3 SWAP2 POP POP JUMP JUMPDEST PUSH1 0x0 PUSH1 0x20 DUP3 ADD SWAP1 POP DUP2 DUP2 SUB PUSH1 0x0 DUP4 ADD MSTORE PUSH2 0x2A89 DUP2 DUP5 PUSH2 0x2A11 JUMP JUMPDEST SWAP1 POP SWAP3 SWAP2 POP POP JUMP JUMPDEST PUSH32 0x4661696C656420746F206D696E74206E6F6E2D66756E6769626C6520746F6B65 PUSH1 0x0 DUP3 ADD MSTORE PUSH32 0x6E00000000000000000000000000000000000000000000000000000000000000 PUSH1 0x20 DUP3 ADD MSTORE POP JUMP JUMPDEST PUSH1 0x0 PUSH2 0x2AED PUSH1 0x21 DUP4 PUSH2 0x23DA JUMP JUMPDEST SWAP2 POP PUSH2 0x2AF8 DUP3 PUSH2 0x2A91 JUMP JUMPDEST PUSH1 0x40 DUP3 ADD SWAP1 POP SWAP2 SWAP1 POP JUMP JUMPDEST PUSH1 0x0 PUSH1 0x20 DUP3 ADD SWAP1 POP DUP2 DUP2 SUB PUSH1 0x0 DUP4 ADD MSTORE PUSH2 0x2B1C DUP2 PUSH2 0x2AE0 JUMP JUMPDEST SWAP1 POP SWAP2 SWAP1 POP JUMP JUMPDEST PUSH32 0x4E487B7100000000000000000000000000000000000000000000000000000000 PUSH1 0x0 MSTORE PUSH1 0x32 PUSH1 0x4 MSTORE PUSH1 0x24 PUSH1 0x0 REVERT JUMPDEST PUSH1 0x0 PUSH1 0x80 DUP3 ADD SWAP1 POP PUSH2 0x2B67 PUSH1 0x0 DUP4 ADD DUP8 PUSH2 0x1F34 JUMP JUMPDEST PUSH2 0x2B74 PUSH1 0x20 DUP4 ADD DUP7 PUSH2 0x1F34 JUMP JUMPDEST PUSH2 0x2B81 PUSH1 0x40 DUP4 ADD DUP6 PUSH2 0x1F34 JUMP JUMPDEST PUSH2 0x2B8E PUSH1 0x60 DUP4 ADD DUP5 PUSH2 0x2311 JUMP JUMPDEST SWAP6 SWAP5 POP POP POP POP POP JUMP JUMPDEST PUSH1 0x0 DUP2 MLOAD SWAP1 POP SWAP2 SWAP1 POP JUMP JUMPDEST PUSH1 0x0 DUP2 SWAP1 POP SWAP3 SWAP2 POP POP JUMP JUMPDEST PUSH1 0x0 PUSH2 0x2BB8 DUP3 PUSH2 0x2B97 JUMP JUMPDEST PUSH2 0x2BC2 DUP2 DUP6 PUSH2 0x2BA2 JUMP JUMPDEST SWAP4 POP PUSH2 0x2BD2 DUP2 DUP6 PUSH1 0x20 DUP7 ADD PUSH2 0x23EB JUMP JUMPDEST DUP1 DUP5 ADD SWAP2 POP POP SWAP3 SWAP2 POP POP JUMP JUMPDEST PUSH1 0x0 PUSH2 0x2BEA DUP3 DUP5 PUSH2 0x2BAD JUMP JUMPDEST SWAP2 POP DUP2 SWAP1 POP SWAP3 SWAP2 POP POP JUMP JUMPDEST PUSH1 0x0 DUP2 PUSH1 0x3 SIGNEXTEND SWAP1 POP SWAP2 SWAP1 POP JUMP JUMPDEST PUSH2 0x2C0B DUP2 PUSH2 0x2BF5 JUMP JUMPDEST DUP2 EQ PUSH2 0x2C16 JUMPI PUSH1 0x0 DUP1 REVERT JUMPDEST POP JUMP JUMPDEST PUSH1 0x0 DUP2 MLOAD SWAP1 POP PUSH2 0x2C28 DUP2 PUSH2 0x2C02 JUMP JUMPDEST SWAP3 SWAP2 POP POP JUMP JUMPDEST PUSH1 0x0 PUSH1 0x20 DUP3 DUP5 SUB SLT ISZERO PUSH2 0x2C44 JUMPI PUSH2 0x2C43 PUSH2 0x1F68 JUMP JUMPDEST JUMPDEST PUSH1 0x0 PUSH2 0x2C52 DUP5 DUP3 DUP6 ADD PUSH2 0x2C19 JUMP JUMPDEST SWAP2 POP POP SWAP3 SWAP2 POP POP JUMP JUMPDEST PUSH32 0x4E487B7100000000000000000000000000000000000000000000000000000000 PUSH1 0x0 MSTORE PUSH1 0x22 PUSH1 0x4 MSTORE PUSH1 0x24 PUSH1 0x0 REVERT JUMPDEST PUSH1 0x0 PUSH1 0x2 DUP3 DIV SWAP1 POP PUSH1 0x1 DUP3 AND DUP1 PUSH2 0x2CA2 JUMPI PUSH1 0x7F DUP3 AND SWAP2 POP JUMPDEST PUSH1 0x20 DUP3 LT DUP2 SUB PUSH2 0x2CB5 JUMPI PUSH2 0x2CB4 PUSH2 0x2C5B JUMP JUMPDEST JUMPDEST POP SWAP2 SWAP1 POP JUMP JUMPDEST PUSH32 0x4661696C656420746F207472616E73666572206E6F6E2D66756E6769626C6520 PUSH1 0x0 DUP3 ADD MSTORE PUSH32 0x746F6B656E000000000000000000000000000000000000000000000000000000 PUSH1 0x20 DUP3 ADD MSTORE POP JUMP JUMPDEST PUSH1 0x0 PUSH2 0x2D17 PUSH1 0x25 DUP4 PUSH2 0x23DA JUMP JUMPDEST SWAP2 POP PUSH2 0x2D22 DUP3 PUSH2 0x2CBB JUMP JUMPDEST PUSH1 0x40 DUP3 ADD SWAP1 POP SWAP2 SWAP1 POP JUMP JUMPDEST PUSH1 0x0 PUSH1 0x20 DUP3 ADD SWAP1 POP DUP2 DUP2 SUB PUSH1 0x0 DUP4 ADD MSTORE PUSH2 0x2D46 DUP2 PUSH2 0x2D0A JUMP JUMPDEST SWAP1 POP SWAP2 SWAP1 POP JUMP JUMPDEST PUSH32 0x4661696C656420746F20637265617465206E6F6E2D66756E6769626C6520746F PUSH1 0x0 DUP3 ADD MSTORE PUSH32 0x6B656E0000000000000000000000000000000000000000000000000000000000 PUSH1 0x20 DUP3 ADD MSTORE POP JUMP JUMPDEST PUSH1 0x0 PUSH2 0x2DA9 PUSH1 0x23 DUP4 PUSH2 0x23DA JUMP JUMPDEST SWAP2 POP PUSH2 0x2DB4 DUP3 PUSH2 0x2D4D JUMP JUMPDEST PUSH1 0x40 DUP3 ADD SWAP1 POP SWAP2 SWAP1 POP JUMP JUMPDEST PUSH1 0x0 PUSH1 0x20 DUP3 ADD SWAP1 POP DUP2 DUP2 SUB PUSH1 0x0 DUP4 ADD MSTORE PUSH2 0x2DD8 DUP2 PUSH2 0x2D9C JUMP JUMPDEST SWAP1 POP SWAP2 SWAP1 POP JUMP JUMPDEST PUSH1 0x0 DUP2 SWAP1 POP DUP2 PUSH1 0x0 MSTORE PUSH1 0x20 PUSH1 0x0 KECCAK256 SWAP1 POP SWAP2 SWAP1 POP JUMP JUMPDEST PUSH1 0x0 PUSH1 0x20 PUSH1 0x1F DUP4 ADD DIV SWAP1 POP SWAP2 SWAP1 POP JUMP JUMPDEST PUSH1 0x0 DUP3 DUP3 SHL SWAP1 POP SWAP3 SWAP2 POP POP JUMP JUMPDEST PUSH1 0x0 PUSH1 0x8 DUP4 MUL PUSH2 0x2E41 PUSH32 0xFFFFFFFFFFFFFFFFFFFFFFFFFFFFFFFFFFFFFFFFFFFFFFFFFFFFFFFFFFFFFFFF DUP3 PUSH2 0x2E04 JUMP JUMPDEST PUSH2 0x2E4B DUP7 DUP4 PUSH2 0x2E04 JUMP JUMPDEST SWAP6 POP DUP1 NOT DUP5 AND SWAP4 POP DUP1 DUP7 AND DUP5 OR SWAP3 POP POP POP SWAP4 SWAP3 POP POP POP JUMP JUMPDEST PUSH1 0x0 DUP2 SWAP1 POP SWAP2 SWAP1 POP JUMP JUMPDEST PUSH1 0x0 PUSH2 0x2E88 PUSH2 0x2E83 PUSH2 0x2E7E DUP5 PUSH2 0x1F72 JUMP JUMPDEST PUSH2 0x2E63 JUMP JUMPDEST PUSH2 0x1F72 JUMP JUMPDEST SWAP1 POP SWAP2 SWAP1 POP JUMP JUMPDEST PUSH1 0x0 DUP2 SWAP1 POP SWAP2 SWAP1 POP JUMP JUMPDEST PUSH2 0x2EA2 DUP4 PUSH2 0x2E6D JUMP JUMPDEST PUSH2 0x2EB6 PUSH2 0x2EAE DUP3 PUSH2 0x2E8F JUMP JUMPDEST DUP5 DUP5 SLOAD PUSH2 0x2E11 JUMP JUMPDEST DUP3 SSTORE POP POP POP POP JUMP JUMPDEST PUSH1 0x0 SWAP1 JUMP JUMPDEST PUSH2 0x2ECB PUSH2 0x2EBE JUMP JUMPDEST PUSH2 0x2ED6 DUP2 DUP5 DUP5 PUSH2 0x2E99 JUMP JUMPDEST POP POP POP JUMP JUMPDEST JUMPDEST DUP2 DUP2 LT ISZERO PUSH2 0x2EFA JUMPI PUSH2 0x2EEF PUSH1 0x0 DUP3 PUSH2 0x2EC3 JUMP JUMPDEST PUSH1 0x1 DUP2 ADD SWAP1 POP PUSH2 0x2EDC JUMP JUMPDEST POP POP JUMP JUMPDEST PUSH1 0x1F DUP3 GT ISZERO PUSH2 0x2F3F JUMPI PUSH2 0x2F10 DUP2 PUSH2 0x2DDF JUMP JUMPDEST PUSH2 0x2F19 DUP5 PUSH2 0x2DF4 JUMP JUMPDEST DUP2 ADD PUSH1 0x20 DUP6 LT ISZERO PUSH2 0x2F28 JUMPI DUP2 SWAP1 POP JUMPDEST PUSH2 0x2F3C PUSH2 0x2F34 DUP6 PUSH2 0x2DF4 JUMP JUMPDEST DUP4 ADD DUP3 PUSH2 0x2EDB JUMP JUMPDEST POP POP JUMPDEST POP POP POP JUMP JUMPDEST PUSH1 0x0 DUP3 DUP3 SHR SWAP1 POP SWAP3 SWAP2 POP POP JUMP JUMPDEST PUSH1 0x0 PUSH2 0x2F62 PUSH1 0x0 NOT DUP5 PUSH1 0x8 MUL PUSH2 0x2F44 JUMP JUMPDEST NOT DUP1 DUP4 AND SWAP2 POP POP SWAP3 SWAP2 POP POP JUMP JUMPDEST PUSH1 0x0 PUSH2 0x2F7B DUP4 DUP4 PUSH2 0x2F51 JUMP JUMPDEST SWAP2 POP DUP3 PUSH1 0x2 MUL DUP3 OR SWAP1 POP SWAP3 SWAP2 POP POP JUMP JUMPDEST PUSH2 0x2F94 DUP3 PUSH2 0x23CF JUMP JUMPDEST PUSH8 0xFFFFFFFFFFFFFFFF DUP2 GT ISZERO PUSH2 0x2FAD JUMPI PUSH2 0x2FAC PUSH2 0x2068 JUMP JUMPDEST JUMPDEST PUSH2 0x2FB7 DUP3 SLOAD PUSH2 0x2C8A JUMP JUMPDEST PUSH2 0x2FC2 DUP3 DUP3 DUP6 PUSH2 0x2EFE JUMP JUMPDEST PUSH1 0x0 PUSH1 0x20 SWAP1 POP PUSH1 0x1F DUP4 GT PUSH1 0x1 DUP2 EQ PUSH2 0x2FF5 JUMPI PUSH1 0x0 DUP5 ISZERO PUSH2 0x2FE3 JUMPI DUP3 DUP8 ADD MLOAD SWAP1 POP JUMPDEST PUSH2 0x2FED DUP6 DUP3 PUSH2 0x2F6F JUMP JUMPDEST DUP7 SSTORE POP PUSH2 0x3055 JUMP JUMPDEST PUSH1 0x1F NOT DUP5 AND PUSH2 0x3003 DUP7 PUSH2 0x2DDF JUMP JUMPDEST PUSH1 0x0 JUMPDEST DUP3 DUP2 LT ISZERO PUSH2 0x302B JUMPI DUP5 DUP10 ADD MLOAD DUP3 SSTORE PUSH1 0x1 DUP3 ADD SWAP2 POP PUSH1 0x20 DUP6 ADD SWAP5 POP PUSH1 0x20 DUP2 ADD SWAP1 POP PUSH2 0x3006 JUMP JUMPDEST DUP7 DUP4 LT ISZERO PUSH2 0x3048 JUMPI DUP5 DUP10 ADD MLOAD PUSH2 0x3044 PUSH1 0x1F DUP10 AND DUP3 PUSH2 0x2F51 JUMP JUMPDEST DUP4 SSTORE POP JUMPDEST PUSH1 0x1 PUSH1 0x2 DUP9 MUL ADD DUP9 SSTORE POP POP POP JUMPDEST POP POP POP POP POP POP JUMP JUMPDEST PUSH32 0x4E487B7100000000000000000000000000000000000000000000000000000000 PUSH1 0x0 MSTORE PUSH1 0x11 PUSH1 0x4 MSTORE PUSH1 0x24 PUSH1 0x0 REVERT JUMPDEST PUSH1 0x0 PUSH2 0x3097 DUP3 PUSH2 0x1F72 JUMP JUMPDEST SWAP2 POP PUSH2 0x30A2 DUP4 PUSH2 0x1F72 JUMP JUMPDEST SWAP3 POP DUP3 DUP3 ADD SWAP1 POP DUP1 DUP3 GT ISZERO PUSH2 0x30BA JUMPI PUSH2 0x30B9 PUSH2 0x305D JUMP JUMPDEST JUMPDEST SWAP3 SWAP2 POP POP JUMP JUMPDEST PUSH32 0x746869732074797065206F6620636F6E74726163742063616E74206578656375 PUSH1 0x0 DUP3 ADD MSTORE PUSH32 0x746520746869732066756E630000000000000000000000000000000000000000 PUSH1 0x20 DUP3 ADD MSTORE POP JUMP JUMPDEST PUSH1 0x0 PUSH2 0x311C PUSH1 0x2C DUP4 PUSH2 0x23DA JUMP JUMPDEST SWAP2 POP PUSH2 0x3127 DUP3 PUSH2 0x30C0 JUMP JUMPDEST PUSH1 0x40 DUP3 ADD SWAP1 POP SWAP2 SWAP1 POP JUMP JUMPDEST PUSH1 0x0 PUSH1 0x20 DUP3 ADD SWAP1 POP DUP2 DUP2 SUB PUSH1 0x0 DUP4 ADD MSTORE PUSH2 0x314B DUP2 PUSH2 0x310F JUMP JUMPDEST SWAP1 POP SWAP2 SWAP1 POP JUMP JUMPDEST PUSH1 0x0 DUP2 MLOAD SWAP1 POP SWAP2 SWAP1 POP JUMP JUMPDEST PUSH1 0x0 DUP3 DUP3 MSTORE PUSH1 0x20 DUP3 ADD SWAP1 POP SWAP3 SWAP2 POP POP JUMP JUMPDEST PUSH1 0x0 DUP2 SWAP1 POP PUSH1 0x20 DUP3 ADD SWAP1 POP SWAP2 SWAP1 POP JUMP JUMPDEST PUSH1 0x0 DUP3 DUP3 MSTORE PUSH1 0x20 DUP3 ADD SWAP1 POP SWAP3 SWAP2 POP POP JUMP JUMPDEST PUSH1 0x0 PUSH2 0x319A DUP3 PUSH2 0x2B97 JUMP JUMPDEST PUSH2 0x31A4 DUP2 DUP6 PUSH2 0x317E JUMP JUMPDEST SWAP4 POP PUSH2 0x31B4 DUP2 DUP6 PUSH1 0x20 DUP7 ADD PUSH2 0x23EB JUMP JUMPDEST PUSH2 0x31BD DUP2 PUSH2 0x2057 JUMP JUMPDEST DUP5 ADD SWAP2 POP POP SWAP3 SWAP2 POP POP JUMP JUMPDEST PUSH1 0x0 PUSH2 0x31D4 DUP4 DUP4 PUSH2 0x318F JUMP JUMPDEST SWAP1 POP SWAP3 SWAP2 POP POP JUMP JUMPDEST PUSH1 0x0 PUSH1 0x20 DUP3 ADD SWAP1 POP SWAP2 SWAP1 POP JUMP JUMPDEST PUSH1 0x0 PUSH2 0x31F4 DUP3 PUSH2 0x3152 JUMP JUMPDEST PUSH2 0x31FE DUP2 DUP6 PUSH2 0x315D JUMP JUMPDEST SWAP4 POP DUP4 PUSH1 0x20 DUP3 MUL DUP6 ADD PUSH2 0x3210 DUP6 PUSH2 0x316E JUMP JUMPDEST DUP1 PUSH1 0x0 JUMPDEST DUP6 DUP2 LT ISZERO PUSH2 0x324C JUMPI DUP5 DUP5 SUB DUP10 MSTORE DUP2 MLOAD PUSH2 0x322D DUP6 DUP3 PUSH2 0x31C8 JUMP JUMPDEST SWAP5 POP PUSH2 0x3238 DUP4 PUSH2 0x31DC JUMP JUMPDEST SWAP3 POP PUSH1 0x20 DUP11 ADD SWAP10 POP POP PUSH1 0x1 DUP2 ADD SWAP1 POP PUSH2 0x3214 JUMP JUMPDEST POP DUP3 SWAP8 POP DUP8 SWAP6 POP POP POP POP POP POP SWAP3 SWAP2 POP POP JUMP JUMPDEST PUSH1 0x0 PUSH1 0x60 DUP3 ADD SWAP1 POP PUSH2 0x3273 PUSH1 0x0 DUP4 ADD DUP7 PUSH2 0x1F34 JUMP JUMPDEST PUSH2 0x3280 PUSH1 0x20 DUP4 ADD DUP6 PUSH2 0x22E7 JUMP JUMPDEST DUP2 DUP2 SUB PUSH1 0x40 DUP4 ADD MSTORE PUSH2 0x3292 DUP2 DUP5 PUSH2 0x31E9 JUMP JUMPDEST SWAP1 POP SWAP5 SWAP4 POP POP POP POP JUMP JUMPDEST PUSH1 0x0 DUP2 MLOAD SWAP1 POP PUSH2 0x32AB DUP2 PUSH2 0x2502 JUMP JUMPDEST SWAP3 SWAP2 POP POP JUMP JUMPDEST PUSH1 0x0 PUSH8 0xFFFFFFFFFFFFFFFF DUP3 GT ISZERO PUSH2 0x32CC JUMPI PUSH2 0x32CB PUSH2 0x2068 JUMP JUMPDEST JUMPDEST PUSH1 0x20 DUP3 MUL SWAP1 POP PUSH1 0x20 DUP2 ADD SWAP1 POP SWAP2 SWAP1 POP JUMP JUMPDEST PUSH1 0x0 PUSH2 0x32F0 PUSH2 0x32EB DUP5 PUSH2 0x32B1 JUMP JUMPDEST PUSH2 0x20C8 JUMP JUMPDEST SWAP1 POP DUP1 DUP4 DUP3 MSTORE PUSH1 0x20 DUP3 ADD SWAP1 POP PUSH1 0x20 DUP5 MUL DUP4 ADD DUP6 DUP2 GT ISZERO PUSH2 0x3313 JUMPI PUSH2 0x3312 PUSH2 0x210F JUMP JUMPDEST JUMPDEST DUP4 JUMPDEST DUP2 DUP2 LT ISZERO PUSH2 0x333C JUMPI DUP1 PUSH2 0x3328 DUP9 DUP3 PUSH2 0x329C JUMP JUMPDEST DUP5 MSTORE PUSH1 0x20 DUP5 ADD SWAP4 POP POP PUSH1 0x20 DUP2 ADD SWAP1 POP PUSH2 0x3315 JUMP JUMPDEST POP POP POP SWAP4 SWAP3 POP POP POP JUMP JUMPDEST PUSH1 0x0 DUP3 PUSH1 0x1F DUP4 ADD SLT PUSH2 0x335B JUMPI PUSH2 0x335A PUSH2 0x2052 JUMP JUMPDEST JUMPDEST DUP2 MLOAD PUSH2 0x336B DUP5 DUP3 PUSH1 0x20 DUP7 ADD PUSH2 0x32DD JUMP JUMPDEST SWAP2 POP POP SWAP3 SWAP2 POP POP JUMP JUMPDEST PUSH1 0x0 DUP1 PUSH1 0x0 PUSH1 0x60 DUP5 DUP7 SUB SLT ISZERO PUSH2 0x338D JUMPI PUSH2 0x338C PUSH2 0x1F68 JUMP JUMPDEST JUMPDEST PUSH1 0x0 PUSH2 0x339B DUP7 DUP3 DUP8 ADD PUSH2 0x2C19 JUMP JUMPDEST SWAP4 POP POP PUSH1 0x20 PUSH2 0x33AC DUP7 DUP3 DUP8 ADD PUSH2 0x329C JUMP JUMPDEST SWAP3 POP POP PUSH1 0x40 DUP5 ADD MLOAD PUSH8 0xFFFFFFFFFFFFFFFF DUP2 GT ISZERO PUSH2 0x33CD JUMPI PUSH2 0x33CC PUSH2 0x1F6D JUMP JUMPDEST JUMPDEST PUSH2 0x33D9 DUP7 DUP3 DUP8 ADD PUSH2 0x3346 JUMP JUMPDEST SWAP2 POP POP SWAP3 POP SWAP3 POP SWAP3 JUMP JUMPDEST PUSH1 0x0 PUSH1 0x40 DUP3 ADD SWAP1 POP PUSH2 0x33F8 PUSH1 0x0 DUP4 ADD DUP6 PUSH2 0x1F34 JUMP JUMPDEST PUSH2 0x3405 PUSH1 0x20 DUP4 ADD DUP5 PUSH2 0x1F34 JUMP JUMPDEST SWAP4 SWAP3 POP POP POP JUMP JUMPDEST PUSH1 0x0 PUSH1 0x80 DUP3 ADD SWAP1 POP PUSH2 0x3421 PUSH1 0x0 DUP4 ADD DUP8 PUSH2 0x1F34 JUMP JUMPDEST PUSH2 0x342E PUSH1 0x20 DUP4 ADD DUP7 PUSH2 0x1F34 JUMP JUMPDEST PUSH2 0x343B PUSH1 0x40 DUP4 ADD DUP6 PUSH2 0x1F34 JUMP JUMPDEST PUSH2 0x3448 PUSH1 0x60 DUP4 ADD DUP5 PUSH2 0x22E7 JUMP JUMPDEST SWAP6 SWAP5 POP POP POP POP POP JUMP JUMPDEST PUSH2 0x345A DUP2 PUSH2 0x1F22 JUMP JUMPDEST DUP3 MSTORE POP POP JUMP JUMPDEST PUSH2 0x3469 DUP2 PUSH2 0x2752 JUMP JUMPDEST DUP3 MSTORE POP POP JUMP JUMPDEST PUSH2 0x3478 DUP2 PUSH2 0x22DA JUMP JUMPDEST DUP3 MSTORE POP POP JUMP JUMPDEST PUSH1 0x0 DUP2 MLOAD SWAP1 POP SWAP2 SWAP1 POP JUMP JUMPDEST PUSH1 0x0 DUP3 DUP3 MSTORE PUSH1 0x20 DUP3 ADD SWAP1 POP SWAP3 SWAP2 POP POP JUMP JUMPDEST PUSH1 0x0 DUP2 SWAP1 POP PUSH1 0x20 DUP3 ADD SWAP1 POP SWAP2 SWAP1 POP JUMP JUMPDEST PUSH1 0x0 PUSH1 0xA0 DUP4 ADD PUSH1 0x0 DUP4 ADD MLOAD PUSH2 0x34C2 PUSH1 0x0 DUP7 ADD DUP3 PUSH2 0x3460 JUMP JUMPDEST POP PUSH1 0x20 DUP4 ADD MLOAD PUSH2 0x34D5 PUSH1 0x20 DUP7 ADD DUP3 PUSH2 0x3451 JUMP JUMPDEST POP PUSH1 0x40 DUP4 ADD MLOAD DUP5 DUP3 SUB PUSH1 0x40 DUP7 ADD MSTORE PUSH2 0x34ED DUP3 DUP3 PUSH2 0x318F JUMP JUMPDEST SWAP2 POP POP PUSH1 0x60 DUP4 ADD MLOAD DUP5 DUP3 SUB PUSH1 0x60 DUP7 ADD MSTORE PUSH2 0x3507 DUP3 DUP3 PUSH2 0x318F JUMP JUMPDEST SWAP2 POP POP PUSH1 0x80 DUP4 ADD MLOAD PUSH2 0x351C PUSH1 0x80 DUP7 ADD DUP3 PUSH2 0x3451 JUMP JUMPDEST POP DUP1 SWAP2 POP POP SWAP3 SWAP2 POP POP JUMP JUMPDEST PUSH1 0x0 PUSH1 0x40 DUP4 ADD PUSH1 0x0 DUP4 ADD MLOAD PUSH2 0x353F PUSH1 0x0 DUP7 ADD DUP3 PUSH2 0x29DD JUMP JUMPDEST POP PUSH1 0x20 DUP4 ADD MLOAD DUP5 DUP3 SUB PUSH1 0x20 DUP7 ADD MSTORE PUSH2 0x3557 DUP3 DUP3 PUSH2 0x34AA JUMP JUMPDEST SWAP2 POP POP DUP1 SWAP2 POP POP SWAP3 SWAP2 POP POP JUMP JUMPDEST PUSH1 0x0 PUSH2 0x3570 DUP4 DUP4 PUSH2 0x3527 JUMP JUMPDEST SWAP1 POP SWAP3 SWAP2 POP POP JUMP JUMPDEST PUSH1 0x0 PUSH1 0x20 DUP3 ADD SWAP1 POP SWAP2 SWAP1 POP JUMP JUMPDEST PUSH1 0x0 PUSH2 0x3590 DUP3 PUSH2 0x347E JUMP JUMPDEST PUSH2 0x359A DUP2 DUP6 PUSH2 0x3489 JUMP JUMPDEST SWAP4 POP DUP4 PUSH1 0x20 DUP3 MUL DUP6 ADD PUSH2 0x35AC DUP6 PUSH2 0x349A JUMP JUMPDEST DUP1 PUSH1 0x0 JUMPDEST DUP6 DUP2 LT ISZERO PUSH2 0x35E8 JUMPI DUP5 DUP5 SUB DUP10 MSTORE DUP2 MLOAD PUSH2 0x35C9 DUP6 DUP3 PUSH2 0x3564 JUMP JUMPDEST SWAP5 POP PUSH2 0x35D4 DUP4 PUSH2 0x3578 JUMP JUMPDEST SWAP3 POP PUSH1 0x20 DUP11 ADD SWAP10 POP POP PUSH1 0x1 DUP2 ADD SWAP1 POP PUSH2 0x35B0 JUMP JUMPDEST POP DUP3 SWAP8 POP DUP8 SWAP6 POP POP POP POP POP POP SWAP3 SWAP2 POP POP JUMP JUMPDEST PUSH1 0x60 DUP3 ADD PUSH1 0x0 DUP3 ADD MLOAD PUSH2 0x3610 PUSH1 0x0 DUP6 ADD DUP3 PUSH2 0x346F JUMP JUMPDEST POP PUSH1 0x20 DUP3 ADD MLOAD PUSH2 0x3623 PUSH1 0x20 DUP6 ADD DUP3 PUSH2 0x3451 JUMP JUMPDEST POP PUSH1 0x40 DUP3 ADD MLOAD PUSH2 0x3636 PUSH1 0x40 DUP6 ADD DUP3 PUSH2 0x346F JUMP JUMPDEST POP POP POP POP JUMP JUMPDEST PUSH1 0x0 PUSH2 0x160 DUP4 ADD PUSH1 0x0 DUP4 ADD MLOAD DUP5 DUP3 SUB PUSH1 0x0 DUP7 ADD MSTORE PUSH2 0x365A DUP3 DUP3 PUSH2 0x2854 JUMP JUMPDEST SWAP2 POP POP PUSH1 0x20 DUP4 ADD MLOAD DUP5 DUP3 SUB PUSH1 0x20 DUP7 ADD MSTORE PUSH2 0x3674 DUP3 DUP3 PUSH2 0x2854 JUMP JUMPDEST SWAP2 POP POP PUSH1 0x40 DUP4 ADD MLOAD PUSH2 0x3689 PUSH1 0x40 DUP7 ADD DUP3 PUSH2 0x3451 JUMP JUMPDEST POP PUSH1 0x60 DUP4 ADD MLOAD DUP5 DUP3 SUB PUSH1 0x60 DUP7 ADD MSTORE PUSH2 0x36A1 DUP3 DUP3 PUSH2 0x2854 JUMP JUMPDEST SWAP2 POP POP PUSH1 0x80 DUP4 ADD MLOAD PUSH2 0x36B6 PUSH1 0x80 DUP7 ADD DUP3 PUSH2 0x3460 JUMP JUMPDEST POP PUSH1 0xA0 DUP4 ADD MLOAD PUSH2 0x36C9 PUSH1 0xA0 DUP7 ADD DUP3 PUSH2 0x346F JUMP JUMPDEST POP PUSH1 0xC0 DUP4 ADD MLOAD PUSH2 0x36DC PUSH1 0xC0 DUP7 ADD DUP3 PUSH2 0x3460 JUMP JUMPDEST POP PUSH1 0xE0 DUP4 ADD MLOAD DUP5 DUP3 SUB PUSH1 0xE0 DUP7 ADD MSTORE PUSH2 0x36F4 DUP3 DUP3 PUSH2 0x3585 JUMP JUMPDEST SWAP2 POP POP PUSH2 0x100 DUP4 ADD MLOAD PUSH2 0x370B PUSH2 0x100 DUP7 ADD DUP3 PUSH2 0x35FA JUMP JUMPDEST POP DUP1 SWAP2 POP POP SWAP3 SWAP2 POP POP JUMP JUMPDEST PUSH1 0x0 PUSH1 0x20 DUP3 ADD SWAP1 POP DUP2 DUP2 SUB PUSH1 0x0 DUP4 ADD MSTORE PUSH2 0x3730 DUP2 DUP5 PUSH2 0x363C JUMP JUMPDEST SWAP1 POP SWAP3 SWAP2 POP POP JUMP JUMPDEST PUSH1 0x0 DUP2 MLOAD SWAP1 POP PUSH2 0x3747 DUP2 PUSH2 0x1FBA JUMP JUMPDEST SWAP3 SWAP2 POP POP JUMP JUMPDEST PUSH1 0x0 DUP1 PUSH1 0x40 DUP4 DUP6 SUB SLT ISZERO PUSH2 0x3764 JUMPI PUSH2 0x3763 PUSH2 0x1F68 JUMP JUMPDEST JUMPDEST PUSH1 0x0 PUSH2 0x3772 DUP6 DUP3 DUP7 ADD PUSH2 0x2C19 JUMP JUMPDEST SWAP3 POP POP PUSH1 0x20 PUSH2 0x3783 DUP6 DUP3 DUP7 ADD PUSH2 0x3738 JUMP JUMPDEST SWAP2 POP POP SWAP3 POP SWAP3 SWAP1 POP JUMP JUMPDEST PUSH1 0x0 PUSH2 0x3798 DUP3 PUSH2 0x1F72 JUMP JUMPDEST SWAP2 POP PUSH2 0x37A3 DUP4 PUSH2 0x1F72 JUMP JUMPDEST SWAP3 POP DUP3 DUP3 MUL PUSH2 0x37B1 DUP2 PUSH2 0x1F72 JUMP JUMPDEST SWAP2 POP DUP3 DUP3 DIV DUP5 EQ DUP4 ISZERO OR PUSH2 0x37C8 JUMPI PUSH2 0x37C7 PUSH2 0x305D JUMP JUMPDEST JUMPDEST POP SWAP3 SWAP2 POP POP JUMP JUMPDEST PUSH32 0x4E487B7100000000000000000000000000000000000000000000000000000000 PUSH1 0x0 MSTORE PUSH1 0x12 PUSH1 0x4 MSTORE PUSH1 0x24 PUSH1 0x0 REVERT JUMPDEST PUSH1 0x0 PUSH2 0x3809 DUP3 PUSH2 0x1F72 JUMP JUMPDEST SWAP2 POP PUSH2 0x3814 DUP4 PUSH2 0x1F72 JUMP JUMPDEST SWAP3 POP DUP3 PUSH2 0x3824 JUMPI PUSH2 0x3823 PUSH2 0x37CF JUMP JUMPDEST JUMPDEST DUP3 DUP3 DIV SWAP1 POP SWAP3 SWAP2 POP POP JUMP JUMPDEST PUSH1 0x0 PUSH2 0x383A DUP3 PUSH2 0x1F72 JUMP JUMPDEST SWAP2 POP PUSH2 0x3845 DUP4 PUSH2 0x1F72 JUMP JUMPDEST SWAP3 POP DUP3 DUP3 SUB SWAP1 POP DUP2 DUP2 GT ISZERO PUSH2 0x385D JUMPI PUSH2 0x385C PUSH2 0x305D JUMP JUMPDEST JUMPDEST SWAP3 SWAP2 POP POP JUMP INVALID LOG2 PUSH5 0x6970667358 0x22 SLT KECCAK256 BYTE 0x25 0xA9 PUSH17 0x15E6666EB0C83704C9ABE4F888F1577580 SHL DUP6 0x28 0xEE PUSH7 0x5E92C1D8108864 PUSH20 0x6F6C63430008130033A264697066735822122060 0xB8 0xED 0xD2 0xBF 0x2C COINBASE ORIGIN SWAP10 EXTCODEHASH DUP11 0xAA 0x4C 0xDD DIV 0xC3 SLOAD 0xC2 0xBB DUP11 PUSH12 0x9B29E85BAA2D894BC30D3D64 PUSH20 0x6F6C634300081300330000000000000000000000 "
		},
		"gasEstimates": {
			"creation": {
				"codeDepositCost": "4658400",
				"executionCost": "76100",
				"totalCost": "4734500"
			},
			"external": {
				"adminAddr()": "2558",
				"createdLoteries(uint256)": "4956",
				"creator()": "2515",
				"deployLotteryContract(uint256,uint256,string,string,string,uint256,string[],uint256[])": "infinite",
				"getContracts()": "infinite",
				"getUserContracts(address)": "infinite",
				"percentageFees()": "2452"
			}
		},
		"methodIdentifiers": {
			"adminAddr()": "81830593",
			"createdLoteries(uint256)": "2dd111a9",
			"creator()": "02d05d3f",
			"deployLotteryContract(uint256,uint256,string,string,string,uint256,string[],uint256[])": "23c09848",
			"getContracts()": "c3a2a93a",
			"getUserContracts(address)": "34c925f0",
			"percentageFees()": "16a5265d"
		}
	},
	"abi": [
		{
			"inputs": [],
			"stateMutability": "nonpayable",
			"type": "constructor"
		},
		{
			"anonymous": false,
			"inputs": [
				{
					"indexed": true,
					"internalType": "string",
					"name": "val",
					"type": "string"
				},
				{
					"indexed": false,
					"internalType": "address",
					"name": "contractAddr",
					"type": "address"
				},
				{
					"indexed": false,
					"internalType": "string",
					"name": "name",
					"type": "string"
				},
				{
					"indexed": false,
					"internalType": "address",
					"name": "creator",
					"type": "address"
				},
				{
					"indexed": false,
					"internalType": "uint256",
					"name": "typeContract",
					"type": "uint256"
				}
			],
			"name": "eventAllContracts",
			"type": "event"
		},
		{
			"inputs": [],
			"name": "adminAddr",
			"outputs": [
				{
					"internalType": "address",
					"name": "",
					"type": "address"
				}
			],
			"stateMutability": "view",
			"type": "function"
		},
		{
			"inputs": [
				{
					"internalType": "uint256",
					"name": "",
					"type": "uint256"
				}
			],
			"name": "createdLoteries",
			"outputs": [
				{
					"internalType": "address",
					"name": "",
					"type": "address"
				}
			],
			"stateMutability": "view",
			"type": "function"
		},
		{
			"inputs": [],
			"name": "creator",
			"outputs": [
				{
					"internalType": "address",
					"name": "",
					"type": "address"
				}
			],
			"stateMutability": "view",
			"type": "function"
		},
		{
			"inputs": [
				{
					"internalType": "uint256",
					"name": "miniumAmount",
					"type": "uint256"
				},
				{
					"internalType": "uint256",
					"name": "lotteryTypeVal",
					"type": "uint256"
				},
				{
					"internalType": "string",
					"name": "name",
					"type": "string"
				},
				{
					"internalType": "string",
					"name": "description",
					"type": "string"
				},
				{
					"internalType": "string",
					"name": "linkCreator",
					"type": "string"
				},
				{
					"internalType": "uint256",
					"name": "feesCreator",
					"type": "uint256"
				},
				{
					"internalType": "string[]",
					"name": "_prizesRaffle",
					"type": "string[]"
				},
				{
					"internalType": "uint256[]",
					"name": "_prizesLottery",
					"type": "uint256[]"
				}
			],
			"name": "deployLotteryContract",
			"outputs": [
				{
					"internalType": "address",
					"name": "",
					"type": "address"
				}
			],
			"stateMutability": "payable",
			"type": "function"
		},
		{
			"inputs": [],
			"name": "getContracts",
			"outputs": [
				{
					"internalType": "address[]",
					"name": "messageOut",
					"type": "address[]"
				}
			],
			"stateMutability": "view",
			"type": "function"
		},
		{
			"inputs": [
				{
					"internalType": "address",
					"name": "_user",
					"type": "address"
				}
			],
			"name": "getUserContracts",
			"outputs": [
				{
					"internalType": "address[]",
					"name": "messageOut",
					"type": "address[]"
				}
			],
			"stateMutability": "view",
			"type": "function"
		},
		{
			"inputs": [],
			"name": "percentageFees",
			"outputs": [
				{
					"internalType": "uint256",
					"name": "",
					"type": "uint256"
				}
			],
			"stateMutability": "view",
			"type": "function"
		}
	]
}